S02B00002F55736572732F72656E756B722F776F726B73706163652F776F726B2F72696E672F696E7465726E3F
S3150800000000100020093A0108053A0108053A0108D6
S31508000010053A0108053A0108053A0108053A0108B2
S31508000020053A0108053A0108053A0108B11401081C
S31508000030053A0108053A0108411401089D08010816
S31508000040053A0108053A0108053A0108E5DF0308FB
S31508000050053A0108053A0108053A0108053A010872
S31508000060053A0108053A0108053A0108053A010862
S31508000070053A0108053A0108053A0108053A010852
S31508000080053A0108053A0108053A0108053A010842
S31508000090053A010835090008053A0108053A010834
S315080000A0053A0108B50A0008910A0008053A010848
S315080000B0053A0108C1B30308A9BD030861BD0308D1
S315080000C05DBD030889B50308A5BD030865BD03081A
S315080000D07DBD030869BD030809BE0308E9BD030819
S315080000E0053A0108053A0108053A0108053A0108E2
S315080000F0ED540008053A0108053A0108053A0108D1
S31508000100053A0108053A0108053A0108053A0108C1
S31508000110053A0108053A0108053A0108053A0108B1
S31508000120053A0108053A0108053A0108053A0108A1
S31508000130053A0108053A0108053A0108053A010891
S31508000140053A010811B30008053A01081F670008B7
S31508000150E59B0308053A0108457C03084B7C030820
S31508000160053A0108053A0108053A0108053A010861
S3150800017010B5054C237833B9044B13B1044800E095
S3150800018000BF0123237010BDEC1C002000000000F6
S3150800019050D1070808B5034B1BB10349034800E0D3
S315080001A000BF08BD00000000F01C002050D1070861
S315080001B0154B002B08BF134B9D46A3F5803A00212B
S315080001C08B460F461348144A121A16F0ECF80F4BD2
S315080001D0002B00D098470E4B002B00D098470020E4
S315080001E0002104000D000D48002802D00C4800E04C
S315080001F000BF16F06FF8200029003BF09EFE16F0AF
S3150800020043F800BF000008000010002000000000AE
S3150800021000000000EC1C0020F01501200000000082
S3150800022000000000044B054A9A60D3F8882042F47F
S315080002307002C3F88820704700ED00E0000000084F
S31508000240014B1868704700BF04100020014B186066
S31508000250704700BF04100020084B1B6F03F007030C
S31508000260022B04D0032B05D0012B05D0FEE7044B47
S3150800027018687047034BFBE7034870470080004047
S315080002800410002008100020002D310108B5FFF7E2
S31508000290E3FF054B1A6FC2F30332531CB0FBF3F0AE
S315080002A0024B186008BD00BF008000400010002007
S315080002B00048704700B4C404014B1868704700BF73
S315080002C008100020054B1860054B1B6F03F0070349
S315080002D0032B01D1FFF7DABF704700BF08100020D3
S315080002E0008000400020704700487047002D31010B
S315080002F04FF094439868C0F304400C2822D8DFE8EE
S3150800030000F0092121212121071719211B1D1F0092
S315080003100F4870479B6803F04073B3F1807F13D092
S31508000320B3F1007F12D00B4A002B08BF1046704766
S31508000330094870470948704709487047094870478F
S3150800034009487047002070470848704708487047B2
S31508000350405DC60000093D000024F400C0EA210102
S3150800036080BA8C010048E801005A620280841E00A7
S3150800037040420F004FF4004070474FF47A707047C0
S31508000380014B1868704700BF0C1000200B4B024643
S315080003901B788BB10A4B1B78834234BF002001209F
S315080003A0084B1B783BB1084B1B7843FA02F212F054
S315080003B0010F08BF002070470120F1E71010002048
S315080003C0111000200C1D002012100020704700009C
S315080003D0012208B5074B1A700022074B1A7004222F
S315080003E0064B1A701F22064B1A7005F0B7F8054B14
S315080003F0186008BD101000200C1D002011100020E8
S3150800040012100020081D00200F20704708B5002391
S3150800041004221946012003F029F8002008BD08B572
S3150800042001213A2001F024FABDE8084013F038BB50
S3150800043001213A2001F01CBA00230360704700002E
S3150800044038B504460D4601B118B93721034800F0FE
S315080004508FFE23682B60256038BD00BFF8DC0608D0
S3150800046030B548B142B139B10346013A013912F8FB
S31508000470014F14B900221A7030BD1D1AA942F9D9C4
S3150800048003F8014BF3E7034638B100201A5C22B1A2
S31508000490814200D170470130F8E770474FF0FF31CD
S315080004A0FFF7F1BF70B50C461646054660B15AB15E
S315080004B051B1FFF7F3FF844206D9211A3246284480
S315080004C0BDE87040FFF7CCBF70BD0000F0B5D8B1ED
S315080004D0D1B10E4E421E3746013912F8014F234656
S315080004E0A05D00F00300012811F8010F08BF04F110
S315080004F020033D5C05F00305012D08BF2030181ABE
S3150800050001D1002CE9D1F0BD0120FCE7CFFC06089B
S3150800051040B1054A1378012B04D803700133002033
S3150800052013707047012070470D1D002010B5144642
S3150800053012F0A8FC2060002010BD08B512F088FC57
S31508000540002008BD05490A681318054883428CBF70
S315080005504FF0FF320B601046704700BF14100020A2
S3150800056000000420436803B11847222070474369F6
S3150800057003B11847FF20704738B50D460446B8B191
S31508000580012803D0022813D0032803D13F23EB40C8
S31508000590DB0704D440F2CD31074800F0E9FD3020EE
S315080005A04443064B1434E058E84000F0010038BDD7
S315080005B040F2FF33EBE700BF77DD060830C00340A3
S315080005C038B50D680C462B78022B0CD0697928793A
S315080005D0FFF7D2FFB0FA80F0400928702046BDE840
S315080005E038403DF0DDB838BD37B504680121054609
S315080005F03A2001F03DF9002301226179207902F0C1
S3150800060035FF61792079FFF7B7FFB0FA80F35B0908
S315080006102370A379022B15D100F0E4F92A460B4979
S31508000620607900F009FAFF28054603D14F210848EA
S3150800063000F09EFD0123617920792A46CDE9003331
S3150800064002F09CFE002003B030BD00BFC1050008C3
S31508000650F4DD060803681878704710B5046823782F
S31508000660022B15D061792079FFF786FFA279012A36
S3150800067015D1003818BF01204FF6E071638840EAAB
S31508000680430363F03F039BB28B4202D1227063801F
S3150800069010BD4FF6DF729342F9D10022F6E7002A21
S315080006A0F6D1B0FA80F040092070F1E703681A78AD
S315080006B0022A03D100225A80FFF796BF704713B566
S315080006C004682378022B10D0A379022B0BD10021C2
S315080006D0607900F09FF90023627920791146CDE907
S315080006E0003302F04BFE0223237002B010BDD0E99E
S315080006F000031847836800681847C36800681847E6
S31508000700436900681847000038B50D460446B0B17D
S31508000710012803D0022812D0032803D13F23EB4037
S31508000720DB0704D44FF47F71064800F021FD302022
S3150800073001214443044B01FA05F51D5138BD40F229
S31508000740FF33ECE777DD060840E0034038B50D4691
S315080007500446B0B1012803D0022812D0032803D1D9
S315080007603F23EB40DB0704D440F22B41064800F058
S31508000770FFFC302001214443044B01FA05F51D51C5
S3150800078038BD40F2FF33ECE777DD060840D003407A
S3150800079010B5044601213A2001F06AF8A3782078BA
S315080007A0B3FA83F3042261785B0902F05FFE002046
S315080007B010BD034659789B7800780BB9FFF7A4BF9C
S315080007C0FFF7C4BF034659789B7800780BB9FFF743
S315080007D0BDBFFFF799BF000038B504784578ACB1BE
S315080007E0012C03D0022C11D0032C03D13F23EB405C
S315080007F0DB0704D440F24641064800F0B9FC302332
S3150800080001225C43044BAA401A5138BD40F2FF331B
S31508000810EDE700BF77DD060840F0034070B50578C0
S3150800082004464678DDB1012D03D0022D17D0032DDD
S3150800083003D13F22F240D30704D440F216410948B7
S3150800084000F096FC30226A43074B1032D358F34027
S3150800085003F00100A3780BB980F0010070BD40F2E7
S31508000860FF32E7E777DD060830C0034038B5124B9C
S3150800087005461B78DBB1E0B102F0BDF80F4A00234C
S315080008801146147B54B92B6001251A0101EB031399
S315080008901D738C5002F0B5F8204638BD0133082B7D
S315080008A002F11002EDD102F0ACF80548F5E705486B
S315080008B0F3E70548F1E700BF901E0020101D002051
S315080008C0048000F0028000F0018000F0154B13B59B
S315080008D01868002301908DF8043002F08CF8124B4A
S315080008E01C7824B102F08DF8104802B010BD012220
S315080008F01A7002F086F80E4B01A81C731C7783F851
S315080009002C4083F83C4083F84C4083F85C4083F8DD
S315080009106C4083F87C4008238DF8073002F0F2FD1E
S315080009202046E2E782DE0608901E0020038000F0DB
S31508000930101D00202DE9F843174B1F6D5B6D1F40F6
S3150800094000D5FEE701260025144CDFF85480DFF8B1
S315080009505490374217D02368C8F800609BB1A16845
S31508000960284601316268A1609847637B012B0AD14A
S3150800097048B909EB45131A7B60F341021A731A7FCB
S3150800098060F341021A770135082D4FEA460604F14D
S315080009901004DED1BDE8F88300000440101D0020D5
S315080009A050200440901D002070B5044601250C4EC9
S315080009B004B970BD94FAA4F3B3FA83F305FA03F203
S315080009C006EB031124EA02044A68002AF0D0D8B2DA
S315080009D00B7B13B189689047EAE79047E8E700BFC1
S315080009E0941E002008B5192002F018F828B14FF017
S315080009F00072074BC3F880211A601A2002F00EF81D
S31508000A0028B14FF08062024BC3F880211A6008BDF6
S31508000A1000E100E038B505460C4601F0ECFF00227F
S31508000A20044B03EB05135C601A73BDE8384001F00C
S31508000A30E8BF00BF941E0020F8B505460F461646C7
S31508000A4001F0D9FF104B05F0FC02D3F8241400235B
S31508000A50EC1804F00304144321FA04FC1CF0010FFB
S31508000A6007D00133042BF3D1FF2401F0CAFF204637
S31508000A70F8BDFF2CF9D00122044B03EB0413C3E99C
S31508000A8001761A73F1E700BF00C00340941E0020E8
S31508000A90074BD3F82404D3F82024104042F220420E
S31508000AA000F0553020F050209850FFF77DBF00BF6A
S31508000AB000C00340074BD3F82404D3F82024104081
S31508000AC042F2204200F0AA3020F0A0209850FFF70A
S31508000AD06BBF00BF00C00340024B1968024B186881
S31508000AE018F0E8B91C100020181000207047000004
S31508000AF037B5920004460D4601926DF0F5F8431C91
S31508000B000BD060B929462046019A15F017FC002833
S31508000B10044808BF002003B030BD0348FBE703487C
S31508000B20F9E700BF10E000F021E000F024E000F053
S31508000B3013B5044601A802F071FE9DF8063001229D
S31508000B4023804FF4807300206380054B9B680A332B
S31508000B5003F01F0302FA03F3636002B010BD00BF7F
S31508000B600080E00F02F02CBD08B502F015FD00204C
S31508000B7008BD10B5044644EA010313F0030308460A
S31508000B8009D1934201D1002010BD54F8231040F832
S31508000B9023100133F5E72146920015F0DDFBF2E755
S31508000BA010B504466DF098F8431C15D0B0B90C4B37
S31508000BB020469B680A3303F01F020123934023F063
S31508000BC003032344984201D1002010BD50F8042B9A
S31508000BD00132F7D00348F8E70348F6E70348F4E795
S31508000BE00080E00F0EE000F021E000F024E000F0C5
S31508000BF008B501F0F9FE014B186008BD28F9002078
S31508000C00014B186801F0F4BE28F9002070472DE959
S31508000C10F34104460B46E27B94F80BC0007A677AE8
S31508000C20A57A217B94F80D80A67B84F844C084F8C5
S31508000C304520002B3DD0237F0BBB0422019302F0F5
S31508000C4015FC019B01224146384602F00FFCA27FA3
S31508000C503146012A8CBF0123019B0422284602F053
S31508000C6005FCE37F3BB90123042294F8451094F868
S31508000C70440002F0FBFB002002B0BDE8F08100232F
S31508000C80012202F0F3FB002304224146384602F013
S31508000C90EDFBA37F0222012B94BF002301233146DB
S31508000CA0284602F0E3FBE37F002BE4D1012302226E
S31508000CB0DBE70222019302F0D9FB019B022241469F
S31508000CC0384602F0D3FBA27F3146012A8CBF0123A6
S31508000CD0019B0222284602F0C9FBE37F002BCAD1FA
S31508000CE01A46C2E701292DE9F04127D8254B264E99
S31508000CF01C68264FDFF8A080783C14F1780F01D1E4
S31508000D00BDE8F08125680521284602F097F8204BB2
S31508000D109D4211D01F4885420CBF3D46454601F00D
S31508000D2063FE2A68D34303F0180353402B6001F08F
S31508000D305FFEA46F783CE0E73546F0E70239012903
S31508000D40DED8104B104E1C68104FDFF84C80783CEC
S31508000D5014F1780FD4D025680D4B9D420FD00D4B5A
S31508000D609D420CBF3D46454601F03EFE2B6823F0EA
S31508000D7018032B6001F03CFEA46F783CE8E7354683
S31508000D80F2E700BFD426002094C40340B4C403404D
S31508000D900000014B00000A4074C403402DE9F041ED
S31508000DA00B68874A8EB0934205460C460DF1180823
S31508000DB003D0844A934240F0EA804746824ECDF8F3
S31508000DC014800FCE0FC796E80F00103687E80F007D
S31508000DD00FCE01AF0FC7002D00F0D78000267C226A
S31508000DE00021284615F0DFFA2268754B6E659A428F
S31508000DF040F095805623A5F84E304FF47023734F74
S31508000E00C5E90B730123A44685F858302F1D2A60BF
S31508000E10BCE80F000FC79CE80F0087E80F00637E49
S31508000E20012B08BF8DF81D30A37E002B40F095805E
S31508000E30227E8DF81230012AE3680AD16449059AA0
S31508000E408B428CBF04230523537700238DF811307A
S31508000E50604B01213A20039300F00AFD0121B5F801
S31508000E604E0000F005FD2369DA1F092A5AD8063B09
S31508000E708DF81030A36923F47F0323F47F4313B955
S31508000E8001238DF81C30206801A902F005F9524BA0
S31508000E90E07E7201134400286AD11D21C3F8941418
S31508000EA0217A237902F1804243EA014302F570323E
S31508000EB0C2F8AC34637A617941EA0341730103F1FC
S31508000EC0804303F57033C3F8A414A67AA17941EADE
S31508000ED00641C3F8A81428B9E17AE37943EA01433D
S31508000EE0C2F8983401212846FFF791FE0446D0B986
S31508000EF001F081FD394B1A78002A3BD101221A707C
S31508000F0001F07FFD05F06EF9FFF7E0FC002105F121
S31508000F102400FFF7ABFC014678B3314C03E0294BBC
S31508000F209A4210D02F4C304B1B681BB92F493048BA
S31508000F3004F022FE2C4805F17801FFF781FA2046D5
S31508000F400EB0BDE8F0815723A5F84E304FF4801354
S31508000F50284EC5E90B63012654E7012B01D104236A
S31508000F6066E7022B3FF464AF032BDBD106235FE76A
S31508000F701C2193E701F045FDC6E705F12800FFF7B8
S31508000F8075FC04460028CED0C7E71B4CCBE746467F
S31508000F901A4F0FCF0FC697E8070086E80700002DFF
S31508000FA000F0D9807C220021284615F0FCF90023A0
S31508000FB0226813496B658A4224D00A4CBFE700BFF2
S31508000FC00000014B00000A40ACDE060801000F00D5
S31508000FD03F4B4C0040420F0000C00340E026002073
S31508000FE0092000F0022000F0D42600203C10002042
S31508000FF0D826002001001000012000F0E0DE0608D7
S3150800100000C0054029212746A5F84E104FF4802137
S31508001010524885F858302E1DC5E90B012A600FCFB6
S315080010200FC697E80F0086E80F00637E012B08BFFE
S315080010308DF82630A37E002B67D1ADF82830237EA5
S315080010400121012B03BF00238DF825304FF47A7355
S31508001050E3683A20089300F00BFC0121B5F84E002E
S3150800106000F006FC23691A1F0C2AA6D8033B414642
S3150800107020688DF8243002F04DFCA36923F47F0321
S3150800108023F47F4323B92A68936843F48033936033
S31508001090237A2079617940EA0340637AA27941EAA2
S315080010A00341E67EA37A42EA03422D4B002E3CD149
S315080010B01D26C3F82067C3F83807C3F83017C3F8E6
S315080010C03427E17AE27942EA0142C3F8242701216A
S315080010D02846FFF79CFD044600287FF430AF01F050
S315080010E08AFC204B1A7852BB01221A7001F089FC3F
S315080010F005F078F8FFF7EAFB002105F12400FFF771
S31508001100B5FB0146F0B1184C19E7012B02D14FF493
S31508001110007392E7022B02D14FF480738DE7032BFD
S315080011207FF44BAF4FF4407387E71C24C3F820477E
S31508001130C3F83807C3F83017C3F83427C7E701F0F0
S3150800114060FCD7E705F12800FFF790FB0446002866
S315080011503FF4F5AED7E7054CF1E600BF0200040000
S3150800116000C00340E0260020092000F0012000F01E
S31508001170FEE70000054A1368DB06FCD44FF040235F
S31508001180D3F88400C0F38110704700BF8440004044
S3150800119008B5344B984250D028D8334B984246D09D
S315080011A018D8324B98423FD00BD800283ED0304B47
S315080011B0984239D02F4841F2B701FFF7D9FF0020EE
S315080011C034E02D4B98422FD02C4B9842F2D12C4B21
S315080011D0586E2BE02B4B98422CD003F5371303F5AA
S315080011E0D8639842E6D1264B986F1FE0264B984263
S315080011F02FD00CD8254B984223D0254B984224D083
S31508001200244B9842D6D11E4BD3F884000EE0224BCD
S31508001210984222D003F5740303F510539842C9D1B6
S31508001220174BD3F8980001E0154B986D08BD144B81
S31508001230186FFBE7124B586FF8E7114BD3F880008D
S31508001240F4E70F4BD3F88800F0E70D4BD3F88C0082
S31508001250ECE70B4BD3F89000E8E7094BD3F894007A
S31508001260E4E700BF80BA8C01405DC60080841E009A
S3150800127040420F00FCDE060800093D00C0CF6A00A8
S315080012800080E00F0024F400007E560380D5430258
S31508001290006CDC020048E8010090D00338B50F4B1B
S315080012A00546D3F880300C4603F00303012B09D01A
S315080012B0022B0FD00A4840F64571FFF759FF002365
S315080012C0184602E0FEF7C8FF0E2305B1286004B1F0
S315080012D0237038BDFFF70CF80723F6E700800040B7
S315080012E0FCDE060838B5194B0546D3F820310C46FE
S315080012F003F00703013B052B20D8DFE803F0030BB7
S31508001300130F171BFEF79CFF052305B1286004B1D0
S31508001310237038BDFEF7D0FF0323F6E7FEF7E8FF94
S315080013200723F2E7FEF7E0FF0223EEE7FEF788FF62
S315080013300623EAE7FEF7C0FF0423E6E7044840F67B
S31508001340BE71FFF715FF00231846DEE70080004050
S31508001350FCDE060838B5154B0546D3F828310C4689
S3150800136003F00703013B032B17D8DFE803F0020E4F
S31508001370120AFEF765FF052305B1286004B123703C
S3150800138038BDFEF7B5FF0723F6E7FEF795FF0323FB
S31508001390F2E7FEF7A9FF0223EEE705484FF45D6181
S315080013A0FFF7E6FE00231846E6E700BF0080004088
S315080013B0FCDE0608F7B50024154B0194D3F88051D6
S315080013C0074605F00305022D0E4614D0032D0DD051
S315080013D0012D15D1214601A8FFF784FF10230FB16F
S315080013E0019A3A6006B1337003B0F0BDFEF780FF8C
S315080013F007230190F3E7FEF777FF2B460190EEE708
S3150800140041F2E2010348FFF7B3FE2346E7E700BFD0
S3150800141000800040FCDE0608002337B50193184B10
S315080014200546D3F820320C4603F00703013B032B8D
S315080014301ED8DFE803F0020E1318002101A8FFF7F3
S3150800144089FF12230DB1019A2A6004B1237003B0F3
S3150800145030BDFEF74DFF07230190F3E7FEF78AFF3D
S315080014600A230190EEE7FEF78BFF09230190E9E7CF
S3150800147040F69E510348FFF77BFE0023E2E700BFD4
S3150800148000800040FCDE060838B5124B0546D3F846
S3150800149040310C4603F00303022B0BD0032B0DD06F
S315080014A0012B0FD1FEF766FF0A2305B1286004B1A8
S315080014B0237038BDFEF764FF0923F6E7FEF75DFFE4
S315080014C00C23F2E7044840F6EC71FFF751FE0023BF
S315080014D01846EAE700800040FCDE0608002337B518
S315080014E00193184B0546D3F860320C4603F0070300
S315080014F0013B032B1FD8DFE803F0020E1914002165
S3150800150001A8FFF7EFFE10230DB1019A2A6004B176
S31508001510237003B030BD002101A8FFF7B5FF1123E2
S31508001520F2E7FEF7E5FE07230190EDE7FEF7DCFE9E
S3150800153002230190E8E740F633610348FFF718FEF7
S315080015400023E1E700800040FCDE0608002337B5EB
S315080015500193184B0546D3F894320C4603F007035B
S31508001560013B032B1FD8DFE803F0020E19140021F4
S3150800157001A8FFF7B7FE10230DB1019A2A6004B13E
S31508001580237003B030BD002101A8FFF77DFF1123AA
S31508001590F2E7FEF7ADFE07230190EDE7FEF7A4FE9E
S315080015A002230190E8E740F666610348FFF7E0FD8D
S315080015B00023E1E700800040FCDE060873B500243E
S315080015C00F4B0194D3F87032064603F00303012B40
S315080015D00D4607D0022B11D040F691610948FFF756
S315080015E0C7FD04E0214601A8FFF74EFF11240EB1FE
S315080015F0019B336005B12C7002B070BD1524F6E767
S3150800160000800040FCDE060838B5154B0546D3F8C1
S3150800161000320C4603F00703013B032B18D8DFE81A
S3150800162003F0020A0E12FEF7A5FE0A2305B128608A
S3150800163004B1237038BDFEF7A3FE0923F6E7FEF7CB
S315080016409CFE0C23F2E7FEF721FE0F23800AEDE746
S31508001650044841F29811FFF78BFD00231846E5E789
S3150800166000800040FCDE060838B5154B0546D3F861
S3150800167008320C4603F00703013B032B18D8DFE8B2
S3150800168003F0020A0E12FEF775FE0A2305B128605A
S3150800169004B1237038BDFEF773FE0923F6E7FEF79B
S315080016A06CFE0C23F2E7FEF7F1FD0F23800AEDE747
S315080016B0044841F2CC11FFF75BFD00231846E5E725
S315080016C000800040FCDE060838B5124B0546D3F804
S315080016D040320C4603F00303022B0BD0032B0DD02C
S315080016E0012B0FD1FEF746FE0A2305B1286004B187
S315080016F0237038BDFEF744FE0923F6E7FEF73DFEE4
S315080017000C23F2E7044841F25B11FFF731FD002391
S315080017101846EAE700800040FCDE060838B5124B9A
S315080017200546D3F860310C4603F00303022B0BD0B1
S31508001730032B0DD0012B0FD1FEF71CFE0A2305B192
S31508001740286004B1237038BDFEF71AFE0923F6E7B0
S31508001750FEF713FE0C23F2E7044841F21A01FFF7DD
S3150800176007FD00231846EAE700800040FCDE06086D
S3150800177070B5054614460E4601F036F92B6883EA1D
S31508001780040202EA06014B402B60BDE8704001F0F6
S315080017902FB90000B0F5207F10B52ED009D8B0F5C6
S315080017A0007F24D003D868B1B0F5C07F0AD00024E2
S315080017B01BE0B0F5607FFAD1124BD3F88040C4F332
S315080017C0011412E00F4B1C6F230B13F00E0FC4F31A
S315080017D003340AD0032C08D0072C06D00F2C04D0CB
S315080017E04FF419710848FFF7C3FC601C10BD054B80
S315080017F0D3F89040C4F30464F7E7024B1C6FC4F3B4
S315080018008024F2E700800040FCDE060870B541F24D
S3150800181068030E464FF480310E4A0446D150002024
S31508001820FFF7B8FF41F671320B4B6043DD690B4990
S31508001830DA635A68884205F4803522F4401203D9DF
S31508001840012E18BF42F480125A600DB10022DA63E5
S3150800185070BD00BF0080004000000340005A6202CD
S3150800186008B5FEF725FDBDE808400021FFF7CEBF05
S3150800187070B5440905460E460ED140F205310F48AB
S31508001880FFF776FC05F01F05AEB104F5805301207D
S3150800189000FA05F51D6070BD012C08D0022C08D091
S315080018A040F20F310548FFF763FC0024EAE7044CD1
S315080018B0E8E7044CE6E704F50053E8E7FCDE06082B
S315080018C06480004068800040002130B5802885B0DB
S315080018D00446CDE9011100F094802AD8002800F0CA
S315080018E09680A0F12004A3B23D2B35D83D2C33D8E1
S315080018F0DFE804F08D998D99A8A8A8A8A899B23F01
S31508001900C8633F99999932323232323232329999D2
S31508001910996BD299323232323232323232323232F2
S3150800192032A88D8D8DCD3F3FD77A50AD32323232C7
S315080019303282B0F5B06F00F08F8030D8B0F5207FD6
S3150800194071D00FD8B0F5C07F61D0B0F5007F61D0F7
S31508001950B0F5807F00F0858040F25A415348FFF782
S3150800196007FC51E0B0F5607F67D00DD8B0F5407F31
S31508001970F2D1FEF78BFC04464FF42070FFF70AFFFE
S31508001980B4FBF0F040083EE0B0F5806F5AD0B0F5F1
S31508001990A06FE1D1002101A8FFF73EFD34E0B0F5C4
S315080019A0106F74D016D8B0F5E06F75D00AD8B0F5B8
S315080019B0C06F67D0B0F5D06FCED1002101A8FFF770
S315080019C023FE21E0B0F5F06FC6D1002101A8FFF78C
S315080019D0A5FE19E0B0F5406F39D00AD8B0F5206FEA
S315080019E05FD0B0F5286FB7D1002101A8FFF7E6FD53
S315080019F00AE0B0F5486FAFD1002101A8FFF7A6FDB0
S31508001A0002E0FEF729FC0190019805B030BDFEF70B
S31508001A103DFCF8E7FEF720FC05462046FFF7BAFE30
S31508001A20B5FBF0F0EFE7FEF731FC04464FF4207003
S31508001A30FFF7B0FEB4FBF0F0E5E702A8FFF72EFCCF
S31508001A40029DEAE7002101A8FFF74CFCDCE700212C
S31508001A5001A8FFF77FFCD7E7002101A8FFF7AAFC3A
S31508001A60D2E7134B03911B685B0705D5FEF70EFCFF
S31508001A700390039B0193C7E70DF1030103A8FFF742
S31508001A8003FDF6E7002101A8FFF7FEFCBCE70021ED
S31508001A9001A8FFF7E9FDB7E7002101A8FFF714FE43
S31508001AA0B2E7002101A8FFF719FDADE7FCDE06083D
S31508001AB010E000E008B58020FFF706FF044B9842C7
S31508001AC09FBF42F270034FF48031024AD15008BDDD
S31508001AD0005A620200800040002307B5B0F5807FF7
S31508001AE08DF8023000F0CB8064D85D2855D84C2894
S31508001AF006D82D2846D823282AD840F23651AAE0F7
S31508001B004D381028F9D801A353F820F0731C0008A3
S31508001B10FB1A0008FB1A0008FB1A00081B1C000821
S31508001B20FB1A0008FB1A0008071D00083B1C0008E2
S31508001B30DB1B0008FB1C0008FB1A0008FB1A000840
S31508001B40FB1A0008FB1A0008FB1A0008131D0008F8
S31508001B5024380928D1D801A353F820F0731C0008AB
S31508001B60731C0008731C0008731C0008731C00080B
S31508001B70FB1A00085F1C0008FB1A0008F91B00087E
S31508001B80B11C00083D2800F08D803E28B5D1002004
S31508001B900DF10201FFF798FD66E08028ADD1604B94
S31508001BA01B6F03F00703013B032B52D8DFE803F052
S31508001BB04F4B939BB0F5F06F74D023D8B0F5B06F48
S31508001BC04DD010D8B0F5607F00F0918095D3B0F570
S31508001BD0806F4ED0B0F5A06F8FD100200DF10201B5
S31508001BE0FFF71AFC40E0B0F5D06F61D0B0F5E06FB2
S31508001BF0CDD0B0F5C06F80D100200DF10201FFF7FE
S31508001C0043FC31E0B0F5206F7DD00CD8B0F5086FF5
S31508001C1054D0B0F5106F7FF470AF00200DF10201BB
S31508001C20FFF722FD20E0B0F5406F66D0B0F5486FAB
S31508001C306FD0B0F5286F7FF460AF00200DF1020178
S31508001C40FFF7BCFC10E005238DF802300CE00223F8
S31508001C50FAE740F28C413348FFF78AFA04E000209D
S31508001C600DF10201FFF7A6FB9DF8020003B05DF82F
S31508001C7004FB00200DF10201FFF734FBF4E70193A2
S31508001C80294B1B685B0707D5FEF700FB0D238DF86C
S31508001C9003309DF80330D7E70DF1030101A8FFF7DC
S31508001CA0F3FBF6E700200DF10201FFF737FDDBE74E
S31508001CB000200DF10201FFF7A7FCD5E7184BD3F872
S31508001CC0003103F00303022B07D0032B09D0012BA5
S31508001CD00BD1FEF7F1FA0323B6E7FEF751FB09230A
S31508001CE0B2E7FEF7FFFA0823AEE70123ACE718468A
S31508001CF00DF10201FFF7D2FAB6E700200DF1020155
S31508001D00FFF728FBB0E700200DF10201FFF7E6FB1D
S31508001D10AAE700200DF10201FFF718FCA4E700BFAF
S31508001D2000800040FCDE060810E000E008B5FFF77A
S31508001D30D3FE092813D00A38C0B2012812D841F2B6
S31508001D4064034FF48001094A4FF6FF70D150084BDF
S31508001D505B6A13F0010F18BF4FF4FA7008BD054B04
S31508001D601888FBE74FF6FF70F8E700BF00800040D1
S31508001D70004002404610002038B5037804460F2B71
S31508001D8004D940F621217A48FFF7F2F963780F2B38
S31508001D9004D940F624217648FFF7EAF9A3780F2BF1
S31508001DA004D940F627217248FFF7E2F9E3780F2BAA
S31508001DB004D940F62A216E48FFF7DAF923790F2B62
S31508001DC004D940F62D216A48FFF7D2F963793F2BEB
S31508001DD004D94FF423616648FFF7CAF9A3793F2B64
S31508001DE004D940F633216248FFF7C2F9E379032B99
S31508001DF004D940F636215E48FFF7BAF9237A032B51
S31508001E0004D940F639215A48FFF7B2F9637B032B08
S31508001E1004D940F63C215648FFF7AAF98020FFF777
S31508001E205BFE032800F0858041F264034FF48011BD
S31508001E30504AD15045F60E034F4A4FF0A061C2F8FA
S31508001E40803041F22803D15042F228034FF4803102
S31508001E50D150916D11F48031FBD1637820781B0540
S31508001E6043EA0063A079454D0343E07843EA00431B
S31508001E70207943EA0033607943EA80131361936952
S31508001E80E07A03F000430343E07943EA8063207A6B
S31508001E9043EA0063607A43EA0043A07A43EA0023F0
S31508001EA09361136A627B207B002A18BF082123F0FE
S31508001EB00F0343EA020343EA800341EA03012E4B78
S31508001EC0196237D1A27C996AA07BD2000D4042EAFA
S31508001ED04012E17B2A4342EA011242F480329A62B6
S31508001EE0274A996D32EA0101FBD141F228024FF0E7
S31508001EF0807199501A69A07822F4700242EA005259
S31508001F001A614FF0004041F218029850227C12B92B
S31508001F1042F228029950637C2BB942F228034FF407
S31508001F208031154AD150E37C1BB1134B154AC3F8CF
S31508001F30802038BD022A09D100224FF47F411A6158
S31508001F4011489A614FF40852FFF712FC0A49237C9C
S31508001F508A6AA07B1B062A4043EA40131343A27CE5
S31508001F6043EAC203627C43EA02438B62DBE700BFB3
S31508001F70FCDE0608008000400040004AC7FFFEFE5F
S31508001F8003000100F1A7FFFF3440004A014B93F913
S31508001F90000070474410002010B583780446072BCC
S31508001FA004D940F69F312B48FFF7E2F8E378032B74
S31508001FB004D940F6A1312748FFF7DAF82378032B2E
S31508001FC004D940F6A3312348FFF7D2F894F9013033
S31508001FD0002B04DA40F6A5311E48FFF7C9F841F28E
S31508001FE064034FF400001C496278C8504FF4D1517D
S31508001FF01A4B0220596241F204014F2A585042F204
S3150800200004014FF0010028BF4F2258501969C9032F
S31508002010FCD4217842EA01225A61E278A1781201B9
S3150800202042EA012261790A43217942EA41029A6029
S31508002030E279A179120142EA4112617A0A43217AC8
S3150800204042EA41025A60A27A12B16FF4D1525A6238
S3150800205010BD00BFFCDE06080080004000000240FC
S31508002060014B1880704700BF461000200029CCBFDE
S3150800207001210021FFF7CABBB0F5207F70B572D0E9
S315080020800ED8B0F5007F5CD003D860B3B0F5C07F3A
S3150800209029D04FF43A71BDE870403B48FFF768B85D
S315080020A0B0F5607FF5D1394D4C1EEE6816F0807696
S315080020B01EBFEB6823F08073EB60032C04D940F253
S315080020C0CB213148FFF754F8314BD3F8801021F073
S315080020D0300141EA0411C3F880101EB1EB6843F0E1
S315080020E08073EB6070BD102901F1FF3404D8294BC9
S315080020F023FA01F1CB0704D440F2A3212248FFF7C3
S3150800210037F8FFF7ADFB00F047F84FF4803141F29E
S3150800211070031F4AD150136F23F4704343EA043304
S315080021201367FEF7B3F80446FFF724F8C0F1020177
S315080021302046FFF79BFF00F035F8BDE87040FFF733
S31508002140B9BC4C1E1F2C04D94FF437710E48FFF743
S315080021500FF80F4BD3F8901021F0F85141EA0461BB
S31508002160C3F89010BEE74C1E012C04D940F2E221B8
S315080021700548FEF7FDFF064B196F21F4806141EA19
S3150800218084211967AEE700BFFCDE0608F0ED00E023
S31508002190008000401601010002214FF42070FFF76D
S315080021A06BBF000008B54FF4C070FFF78DFBBDE8A4
S315080021B00840044988428CBF022101214FF420704F
S315080021C0FFF75ABF80F0FA02B0F5807FF8B50C46E3
S315080021D000F06A816DD85D285FD84C2806D82D286E
S315080021E046D823282AD840F6250197E14D381028E5
S315080021F0F9D801A353F820F07D240008E721000848
S31508002200E7210008E721000853230008E721000812
S31508002210E72100080327000885230008DF220008B5
S31508002220B7260008E7210008E7210008E72100088B
S31508002230E7210008E7210008432700082438092871
S31508002240D1D801A353F820F07D2400087D24000886
S315080022507D2400087D2400087D240008E721000865
S315080022604B240008E72100081923000887250008E1
S315080022703D2800F05F813E28B5D1093CE4B2032C25
S3150800228000F23882B34B195DB34AD2F8403223F0D4
S3150800229003030B43C2F84032B7E08028A3D18B1E54
S315080022A0062B00F2C780DFE803F0C2B1C5CDC5C56D
S315080022B08200B0F5F06F00F03D813DD8B0F5B06F03
S315080022C000F0C3801DD8B0F5607F00F0B2818AD3D4
S315080022D0B0F5806F00F0D280B0F5A06F83D1073CCF
S315080022E00B2C00F2DF81DFE814F0CF01DD01DB0102
S315080022F0D901D901DD01DD01DD01DD01DD01DD01E8
S31508002300E401B0F5D06F00F03E81B0F5E06FB4D0CF
S31508002310B0F5C06F7FF467AF093CE4B2032C00F256
S3150800232002818E4B195D8C4AD2F8403123F00303A3
S315080023300B43C2F8403168E0B0F5206F00F0E18148
S3150800234014D8B0F5086F00F05581B0F5106F7FF41A
S315080023504AAF093C062C00F24481DFE814F0340148
S31508002360490149013E01420142014001B0F5406F71
S3150800237000F0A181B0F5486F00F0E381B0F5286F51
S315080023807FF431AF112C00F0FC81152C00F0FB8195
S3150800239040F2F3717248FEF7EBFE00226E49D1F85F
S315080023A0703223F003031343C1F870322DE0002581
S315080023B004260121022000F097FB4FF48037FFF72F
S315080023C04FFAFFF7E9FE41F27003634AD750136FDD
S315080023D023F0070333431367FDF758FF0646FEF756
S315080023E0C9FEC0F102013046FFF740FE0121002078
S315080023F000F0D4FBFFF7D6FEFFF75CFB2DB9032CE4
S3150800240003D142F22803574AD750F8BD41F2640374
S315080024104FF48011504A0326D15041F228024FF456
S315080024208031504B9D6A9950C5F30065C1E7002578
S315080024300126BEE7002540F277514948FEF798FE87
S315080024402E46B6E700250226B3E7072C12D0102C35
S3150800245012D0022C05D040F2BC514148FEF788FE46
S3150800246000243D4AD2F8803123F003031C43C2F806
S315080024708041CAE70324F4E70124F2E7023CE4B208
S31508002480052C0AD8384B195D334AD2F8203123F087
S3150800249007030B43C2F82031B7E740F2F35130483F
S315080024A0FEF766FE0021EFE7A1F10904082C33D8F0
S315080024B0DFE804F0050532051C32323205004FF418
S315080024C0803141F26402244B28485C6E9950426A76
S315080024D042F001024262E0035CBF42F26402995094
S315080024E0234A136823F0040313608EE74FF4803100
S315080024F041F26402184B1D485C6E9950426A22F0FC
S3150800250001024262E2035CBF42F264029950184A31
S31508002510136843F00403E7E740F21B61BDE8F8409F
S315080025200F48FEF725BE40F237610D48FEF720FE3C
S315080025300021F8E6093CE4B2032C1DD80D4B195DC1
S31508002540054AD2F8603123F003030B43C2F8603121
S315080025505BE700BF7EDF0608008000407EDF0608D6
S31508002560FCDE06080040004A78DF060800C007407F
S3150800257010E000E07EDF060840F252618348FEF76D
S31508002580F7FD0021DCE7093C062C13D8DFE804F048
S315080025900419190E1212100002227D49D1F80032D0
S315080025A023F007031343C1F800322EE70322F4E7AA
S315080025B00422F2E740F297617448FEF7D9FD00223B
S315080025C0EBE70122E9E702227149D1F8083223F044
S315080025D007031343C1F8083217E70322F4E7042276
S315080025E0F2E740F2B7616948FEF7C2FD0022EBE761
S315080025F00122E9E74C1E082C12D8DFE804F0161170
S3150800260018111111110F050002226149D1F8003184
S3150800261023F003031343C1F80031F6E60322F4E777
S3150800262040F2D3615948FEF7A3FD0022EDE70122E7
S31508002630EBE7584DEE6816F080761EBFEB6823F080
S315080026408073EB60072919D00E2919D0062919D0ED
S3150800265040F2FC614D48FEF78BFD00224C49D1F84B
S31508002660803023F003031343C1F88030002E3FF473
S31508002670CCAEEB6843F08073EB60C6E60222EDE76A
S315080026800122EBE70322E9E702224149D1F8203289
S3150800269023F007031343C1F82032B6E60322F4E712
S315080026A00422F2E740F234713848FEF761FD002251
S315080026B0EBE70122E9E7023C052C12D8DFE804F033
S315080026C00D0F1118110304223149D1F8283123F0CE
S315080026D007031343C1F8283197E60322F4E70222D9
S315080026E0F2E740F256712948FEF742FD0022EBE771
S315080026F00122E9E740F28F712448FEF739FD0021EF
S31508002700C2E5102C17D012D8022C16D0072C16D0DA
S3150800271040F2C5711D48FEF72BFD00221C49D1F871
S31508002720603223F007031343C1F860326DE6112CBB
S31508002730EED10222F2E70122F0E70322EEE70422B5
S31508002740ECE7102C17D012D8022C16D0072C16D06E
S3150800275040F2DD710D48FEF70BFD00220C49D1F859
S31508002760943223F007031343C1F894324DE6112C33
S31508002770EED10222F2E70122F0E70322EEE7042275
S31508002780ECE701220AE6022208E600BFFCDE06089C
S3150800279000800040F0ED00E02DE9F84F4FF4C0212D
S315080027A041F26403884A0446D15042F204020121E8
S315080027B0864B5E6899505D6815F00205FBD1226864
S315080027C0834B9A4204D84FF412618248FEF7D0FC34
S315080027D02268814B9A4204D940F621117D48FEF7BA
S315080027E0C7FCA388B3F5967F04D840F62411794828
S315080027F0FEF7BEFCA388B3F5805F04D340F6251127
S315080028007448FEF7B5FCE388B3F5805F04D340F659
S3150800281026117048FEF7ACFCFEF7ACFC01282068D0
S3150800282009D16E4B984206D940F62B116948FEF736
S315080028309FFC00208FE06A4A002311461768B842B9
S3150800284002D35768B84205D90133192B02F1100291
S31508002850F4D1002301EB0313D3E9029028B1FEF764
S3150800286097FC00F07F0049EA00098020FFF734F959
S31508002870052876D1FEF7F4FFFFF78EFC41F27003C8
S315080028804FF48031504A4FF4C070D150FEF782FFA2
S315080028900128054661D102214FF4C070FFF7ECFB11
S315080028A00127DFF840A1DAF80C3013F00608FAD150
S315080028B0DAF808B0CAF80890DAF8083009F4F8190E
S315080028C003F4F81399454ED040F672114148FEF7C5
S315080028D04FFC16F001064FF00108CAF808B064D19B
S315080028E08020FFF7F9F805282ED127B129464FF49D
S315080028F0C070FFF7C1FBFDF7C9FC23680546834294
S3150800290004D240F69A113348FEF732FCFDF798FCDC
S31508002910A84204D240F69B112E48FEF729FC2468EB
S31508002920FDF78EFC844204D040F69C112948FEF738
S315080029301FFCFEF71FFCC0F102012846FFF796FBB5
S31508002940FFF730FCFFF7B6F8B8F1000F7FF471AF68
S31508002950731E58425841BDE8F88F022801D1042158
S315080029609AE700279DE7A288E388184E43EA0243C0
S31508002970F3604FF40860217AFFF726FCE37A617A60
S31508002980002B237B14BF04220022002B18BF4FF014
S315080029904008A37A43EA4103134343EA0803B360B2
S315080029A02068FDF753FC4FF0000842F21002072199
S315080029B0064B995041F20402012199501E6916F0FE
S315080029C00706FBD08CE700BF0080004000C001402E
S315080029D09FBB0D00FCDE060800B4C404005A620260
S315080029E084DF060800000140EFF3108072B67047D6
S315080029F000B962B67047EFF31180302383F311886C
S31508002A00704780F311887047034B5868C0F3080075
S31508002A10003818BF0120704700ED00E038B5C5B290
S31508002A204B2D044604D940F21F310748FEF7A0FB98
S31508002A30064B640953F8240005F01F05E840C04317
S31508002A4000F0010038BD00BF14E1060800E100E00F
S31508002A50024A536B0342FCD1704700BF004009404D
S31508002A604FF04022536F417823F4407343EA012321
S31508002A7053677047704770470A4A10B5136904468A
S31508002A8043F00403136103F019FAFFF7F3FF30BFAD
S31508002A90FFF7F1FF03F026FA1CB9BDE81040FDF771
S31508002AA0F5BB10BD00ED00E0084A10B513690446F1
S31508002AB043F00403136103F001FA30BF03F012FA7E
S31508002AC01CB9BDE81040FDF7E1BB10BD00ED00E004
S31508002AD0704770474FF04022D36E017923F03003D8
S31508002AE00B43D366704770472DE9F0410446274AE1
S31508002AF01368D806FCD44FF04023D3F88430C3F3C8
S31508002B0081139C423FD0FDF7A7FB012C06460BD14B
S31508002B101F4B984204D940F2F9611E48FEF728FB7C
S31508002B2001213046FFF7A2FAFFF75EFF4FF0007269
S31508002B30194B07461A602046FFF7D5FF4FF4806306
S31508002B404FF04025621E9340DFF848802B676B6E76
S31508002B509A0103D4D5F884309B060AD53846FFF780
S31508002B6047FF022C0FD13046BDE8F0410021FFF7A0
S31508002B707DBAD5F884309906E9D540F20771404602
S31508002B80FEF7F6FAE3E7BDE8F08100BF84400040AF
S31508002B90005A620291E106086460004007B518B958
S31508002BA00191FDF759FB0199064B1B7843B1064B7A
S31508002BB0984205D8012003B05DF804EBFFF794BFEF
S31508002BC00220F8E7E1260020005A62020278034B49
S31508002BD0012100201A70FFF7E1BF00BFE12600209F
S31508002BE041F264034FF00041164A10B5D1504AF637
S31508002BF0CD3315494C6C0B6404F001040B4688B9B7
S31508002C000120FFF725FF4B68DB0706D542F20403D0
S31508002C100122CA500B6BD807FCD514B10A4B0B4AD4
S31508002C201A6410BD1A6B1207FCD442F2280220213E
S31508002C30995041F2040201219950034A936A9B066E
S31508002C40FCD5EAE700800040004009403254FFFF07
S31508002C50014638B54FF0004041F26403164A174C56
S31508002C60D0504AF6CD334FF04022656C23644B783A
S31508002C700B205B0043F00103D363FFF7E9FE6368AB
S31508002C808A7823F4F87343EA02136360CA784B79A7
S31508002C9043EA0223A3600A798B7943EA0223236174
S31508002CA00878FFF79DFFEB0748BF054B4FF001007B
S31508002CB048BF236438BD00BF00800040004009407B
S31508002CC03254FFFF0F28F8B5054604D940F6F941F6
S31508002CD01348FEF74DFA4FF0004241F264031149DA
S31508002CE0114C4E6ECA504AF6CD33676C8020236469
S31508002CF0FFF7AEFE236A23F00F030F2D94BF2B4375
S31508002D0043F00F032362FB0744BF084B2364002EDE
S31508002D10A2BF42F264034FF00042CA50F8BD00BF9A
S31508002D2091E1060800800040004009403254FFFF48
S31508002D30F8B54FF0004241F264030F4905464E6E5E
S31508002D40CA504AF6CD330D4C8020676C2364FFF7D2
S31508002D507FFE236A23F4F85343EA05232362FB071D
S31508002D6044BF074B2364002EA2BF42F264034FF010
S31508002D700042CA50F8BD00BF00800040004009402C
S31508002D803254FFFF4FF04023D3F88830DFED057A41
S31508002D90C3F30A0300EE103ABAEECF0A30EE670A1A
S31508002DA0704700BF33938843436D0B42FCD170478D
S31508002DB008B54368DA0714D58368DB0702D50369C3
S31508002DC0D90707D50A2350218363FFF7EDFF836CE4
S31508002DD09A07FCD142F204030122C25043689B07BA
S31508002DE0FCD408BD10B5FFF7E3FF042341F2100138
S31508002DF042F210024350835043508350435083504D
S31508002E0043508350202341F2020203610023C3602A
S31508002E10836042614FF4A02283618365426242F275
S31508002E204C020549C36103628362C3624363036557
S31508002E308150036310BD00BFFF3F0D0338B5174B24
S31508002E40044698420D4607D0154B984204D040F2E6
S31508002E505D111448FEF78CF925B92046BDE83840BF
S31508002E60FFF7A6BF41F20403012240F6FF71E250C4
S31508002E70204605F00F02FFF797FF7821A263FFF7B8
S31508002E8093FF05F001036A0748BF43F00203A26CEB
S31508002E9002F003029A42FAD138BD00BF0000014B86
S31508002EA000000A400DE20608836C5A06FCD5416408
S31508002EB0836C1B06FCD5C06B80B270472DE9F041C8
S31508002EC005460C46174622B940F202216E48FEF71F
S31508002ED04FF96E4B9D4200F0CA806D4B9D4200F043
S31508002EE0CB8040F205216848FEF742F944B96648A6
S31508002EF04FF45571FEF73CF92046FEF7E5FC04460B
S31508002F00AB68D80744D5BC4204D240F20F215E48CC
S31508002F10FEF72EF96B6803F00108B4FBF7F35C1EA5
S31508002F20FF2C04D940F217215748FEF721F9B8F1CA
S31508002F30000F2BD028212846FFF736FFAB6C9907E0
S31508002F401ED1AB6CDA071DD4AE6C16F002061BD187
S31508002F504FF409714C48FEF70BF92846FFF728FF8E
S31508002F602B6923F07F4343EA04632B61B8F1000F12
S31508002F7000F0878031462846BDE8F041FFF75EBF7E
S31508002F800526EAE70926E8E70626E6E74646E7E7E6
S31508002F906B68012B04D040F237213B48FEF7E8F86E
S31508002FA0AB6DAE68DB0706F0E00648BF7F00402E33
S31508002FB047D009D8BEB1202E39D040F27921BDE8D4
S31508002FC0F0413148FEF7D4B8602E46D0802EF4D1B1
S31508002FD007EB4703A34204D940F273212A48FEF7B8
S31508002FE0C7F8012308E0B7EB141F04D940F25F21A4
S31508002FF02548FEF7BDF810237B436401B4FBF3F3C1
S31508003000244C203BB4EBC30F4FEAC30604D24FF45B
S3150800301021711D48FEF7ACF8012128463440FFF718
S31508003020C3FE2C630121BDE8F041FFF7BDBEB7EB37
S31508003030D40F04D94FF419711348FEF799F80823E9
S31508003040DAE70626B4FBF6F3BB4204D240F269215E
S315080030500D48FEF78DF83346CEE7B7EB940F04D943
S3150800306040F26E210848FEF783F80423C4E7002CD3
S315080030707FF446AF562040E7002C7FF441AF572037
S315080030803BE7BDE8F08100BF0DE206080000014BF2
S3150800309000000A40F8FF7F00794B70B59842044655
S315080030A00D4606D0774B984203D0D6217648FEF7D0
S315080030B05FF81DB9D8217448FEF75AF86A7BAB68E1
S315080030C07AB1724A934203D9DA216F48FEF750F86B
S315080030D02B69D3B1DB7BC3B1DD216B48FEF748F81A
S315080030E013E06B4A934203D9E0216748FEF740F89C
S315080030F02B6953B11A7F42B1A968664A5B7F914230
S3150800310040F2A580042B00F2A58063682E6923B1DE
S3150800311040F6FF712046FFF747FE2046FFF762FE9E
S3150800312022696B7BA97B22F087020B43134343F08A
S315080031308003236116B32A692369117823F0F803FB
S315080031400B43117F43EAC113117943EA4113517ABC
S3150800315043EA0113D17B43EA81132361E168D2E98B
S31508003160053021F0F04121F4702103430B43117B14
S31508003170527B43EA812343EAC233E360A368EA7BCE
S3150800318023F00303134343F00103A3602EB32A6914
S31508003190A168538803F4C0430B43A3605179A3681D
S315080031A043EA8123A3609379D079616A1B010002FF
S315080031B003F0700300F4E06021F4772121F4EE6156
S315080031C003430B43117A527F090301F4E0411204C9
S315080031D00B4302F470221343636263692A7B23F06C
S315080031E00F0313436361D6B12B695A89A2615A7BCF
S315080031F04AB1234A94422FD141F274019A7B264858
S3150800320002F00F024250DA7B4AB11D4A94422CD191
S3150800321041F270021B7C204903F00F038B50D5E95D
S3150800322001122046FFF74AFE05212046FFF706FE53
S3150800323000212046FFF7B8FD2B780021A363FFF78E
S31508003240B3FDA36CDB4313F4405FFAD170BD042BC6
S315080032503FF65BAFE82140E70A4A944201BF9A7BF2
S315080032600E4902F00F020A60CDE7064A9442D6D10B
S315080032701B7C41F27C02084903F00F03CEE700BF2E
S315080032800000014B00000A400DE20608002D31013E
S31508003290809698003F4B4C00008003408090034086
S315080032A01F2970B504460D46164603D991210748CD
S315080032B0FDF75EFF36B104F58054012101FA05F5E4
S315080032C0256070BD04F50054F7E700BF8CE20608D8
S315080032D038B50D460446B0B1012803D0022812D0ED
S315080032E0032803D13F23EB40DB0704D440F22B41EC
S315080032F00648FDF73DFF302001214443044B01FAFF
S3150800330005F51D5138BD40F2FF33ECE777DD0608B9
S3150800331040D0034038B50D460446B0B1012803D065
S31508003320022812D0032803D13F23EB40DB0704D43D
S315080033304FF47F710648FDF71BFF302001214443F7
S31508003340044B01FA05F51D5138BD40F2FF33ECE791
S3150800335077DD060840E0034070B5054614460E467C
S31508003360FFF742FB2B6883EA040202EA06014B4098
S315080033702B60BDE87040FFF73BBB00002DE9F34723
S315080033800D4614461E4681469DF828809DF82C70E9
S31508003390002844D0012803D0022840D0032803D1AE
S315080033A03F23EB40DB0703D4BF212748FDF7E0FEA8
S315080033B085EA040333F0030303D0C1212248FDF74D
S315080033C0D7FE072C4FF0030105F003052AD84FEA6C
S315080033D0840A01FA0AF11D4809FA0AF20191FFF76F
S315080033E0BBFF01991A4805FA0AF2FFF7B5FF3246FC
S315080033F021461848FFF754FF424621461648FFF76C
S315080034004FFF012342F220421449A3408B503A460B
S315080034102146134802B0BDE8F047FFF741BF40F226
S31508003420FF33BEE7A4F1080A4FEA8A0A01FA0AF14D
S315080034300C4809FA0AF20191FFF78EFF01990A482A
S3150800344005FA0AF2D1E700BF08E3060800C40340FC
S3150800345008C4034010C4034014C4034000C003401A
S3150800346024C4034004C403400CC403402DE9F041BE
S315080034700D4617469846044698B3012803D00228F5
S315080034802FD0032803D13F23EB40DB0704D44FF4A6
S31508003490B0711A48FDF76CFE37B129462046B8F1D7
S315080034A0000F21D0FFF714FF30260F216643072DA2
S315080034B088BFA5F10803124895BFAB009B000436E8
S315080034C00C3607FA03F299403044FFF745FF97B9DF
S315080034D029462046B8F1000F09D0BDE8F041FFF7AC
S315080034E0F7BE40F2FF33CFE7FFF714FFDCE7BDE88E
S315080034F0F041FFF70FBFBDE8F08100BF08E30608FB
S3150800350030C0034010B5044618B991211F48FDF78D
S315080035102FFE23781B0613F0604F03D092211B4819
S31508003520FDF726FEE3780F2B03D9A3211748FDF7ED
S315080035301FFE01212020FEF79BF901212120FEF71D
S3150800354097F90122124B5A60227812069A6061781E
S31508003550A27842EA01429A61FF229A6200229A639D
S315080035601A644FF000424FF0FF315A6542F250029A
S3150800357099504FF40011074AC2F88011E3781B01ED
S31508003580DBB282F81533116010BD00BF85E306086B
S315080035900000044000E100E041F268034FF4803186
S315080035A0054AD15041F67132044B0121DA6342F2E1
S315080035B00C029950704700BF00800040000003408D
S315080035C041F67132074B0121DA6342F20C02995037
S315080035D000224FF48031DA6342F26803024AD1507E
S315080035E0704700BF0000034000800040242808B54B
S315080035F01AD820280BD812281ED011D878B101283D
S315080036001CD01048B621FDF7B3FD002007E022388C
S31508003610022803D8DFE800F0140C0E00012008BDCC
S315080036201428EED10820FAE73228EAD10620F6E770
S315080036300420F4E70520F2E70720F0E70320EEE789
S315080036400220ECE77EE40608142810B50C4620D0C4
S3150800365005D8012811D0122814D0204610BD2428D8
S3150800366008D82028F9D9042CF7D9F6210E48FDF7F1
S315080036707FFDF2E73228F6D0EFE70229EDD940F2CE
S315080036800711F3E702290BD003290BD04FF48B71EE
S31508003690ECE7022904D0032904D040F22511E5E716
S315080036A00024DAE70124D8E77EE40608021E30B5CE
S315080036B04FF000000CBF1025042547F6077408498B
S315080036C052B9831D51F82330234023B10130854276
S315080036D0F6D14FF0FF3030BD00F11603F2E700BF18
S315080036E000800340F8B50546C2F3062702F0070432
S315080036F079B90F2804D94FF4FC711148FDF738FD44
S31508003700104B44EA072444F44024063543F8254080
S31508003710F8BD032804D940F2FD110948FDF728FD34
S3150800372021463846FFF790FF06463846FFF75EFF04
S31508003730044B46EA0020163543F82500E8E700BFA3
S315080037407EE40608008003400A4392B20021FFF790
S31508003750C9BF0000B2F5805F70B505460E4614462F
S315080037600DD34FF40B710848FDF702FD24F0030250
S3150800377002F1804202F5603226B9156001E0002A9E
S31508003780F4D170BD2D02F8E77EE40608436813B944
S31508003790416070475B685A68012AFBD159607047D7
S315080037A0836813B9816070475B685A68012AFBD140
S315080037B059607047C369032B03D9DC210448FDF718
S315080037C0D7BC00EB83020133D160C361704700BFE9
S315080037D0FAE40608C369042B16D84FF09842116C10
S315080037E0C902FCD504339B0013650168103B1160C0
S315080037F041680C30116050F8041C034411604FF006
S315080038009842984204D17047F5210348FDF7B0BCA9
S3150800381050F8041B1160F4E7FAE4060841F2640361
S315080038204FF48031064AD150064B9B69C3F3851283
S31508003830827003F03F021B0B42700370704700BF93
S315080038400080004000C0074040F6B732064B5B6870
S315080038509BB293429FBF4FF47A72B3FBF2F3034ACB
S31508003860D05C88BF002070470080E00F75E5060829
S3150800387070B506460C46154622B94FF422710C4817
S31508003880FDF776FC24B94FF42070FEF71DF80446C0
S315080038906D00013CB4FBF5F4064B250213EA04233C
S315080038A004D040F2A5210248FDF762FCF56170BD1F
S315080038B078E50608070080FF134B10B598420446C2
S315080038C004D040F234411148FDF752FC012241F27E
S315080038D00403E25040F6AA6341F20501636100233E
S315080038E0A360E365E16042F2480109482361E361A8
S315080038F0E36460500449A3658C4204BF236563658D
S3150800390042F20403E25010BD00C0054078E50608FF
S31508003910FFFF010038B52D4B044698420D4604D0EA
S3150800392040F25B312A48FDF723FC2046FFF7C4FF27
S3150800393041F204030122A97BE2502A8AA3680029DE
S3150800394014BF4FF48061002142F0010213432A7D1F
S315080039500B43002A14BF4FF000520022A360A3684D
S315080039601343A360AB7C5BB1184B9C4202BFEA7C55
S31508003970A3F51033C3F8C821E36D43F08003E3656C
S315080039802B7B2046D5E9011243F48053E360FFF709
S315080039906FFF6B7B0BB1102363616B7D1BB1A36853
S315080039A043F48033A360AB7D1BB1A36843F40043A3
S315080039B0A360EB7D2A7E1B07120503F0E04302F4A1
S315080039C0E0021343A3652B78636138BD00C0054048
S315080039D078E50608054B9A689107FCD45A68920759
S315080039E0F9D4DA69002AF6D1704700BF00800A4088
S315080039F008B5FFF7EFFF012241F20401014B5A50C7
S31508003A001A6108BD00800A40084B5A68012A0CD181
S31508003A101A465968C90702D5D9690029F9D1022376
S31508003A200121136142F20403D150704700800A4015
S31508003A3010B5064CFFF7CEFF6268012A03D1FFF7DF
S31508003A40E3FFFFF7C7FF0378E36010BD00800A4075
S31508003A5018B171211048FDF78BBB4A680B7812B173
S31508003A60127843EAC2034A78002A14BF02220022C7
S31508003A7013438A6812B1127843EA82138A78002AB5
S31508003A8014BF042200221343CA6812B1127843EA0B
S31508003A904223024A93647047F6E5060800800A4006
S31508003AA020B14FF482710448FDF762BB41F244032A
S31508003AB0024AD150704700BFF6E5060800800A4062
S31508003AC020B14FF4A0710448FDF752BB42F24403FB
S31508003AD0024AD150704700BFF6E5060800800A4042
S31508003AE020B14FF4BE710348FDF742BB024B196083
S31508003AF0704700BFF6E5060840A00A4008B530B191
S31508003B00044840F2B711FDF733FB002008BD024B0D
S31508003B10186CFBE7F6E5060800800A4008B548B1C8
S31508003B20084840F26621FDF723FB002008BD064B36
S31508003B30D86CFBE70029FAD00129F7D1024B186D9A
S31508003B40F4E700BFF6E5060800800A4050B14FF4D6
S31508003B5041710748FDF70CBB064BDA647047054B05
S31508003B601A6570470029F7D00129F8D0704700BFB9
S31508003B70F6E5060800800A4038B50446054D30F0DB
S31508003B80AAFA0FCC0FC594E8030085E803000020C5
S31508003B9038BD00BFE426002047F6FF739A42F0B509
S31508003BA063D0022963D8334BCE0003EBC10013F868
S31508003BB031108478012913D10025C3781B1B9D4237
S31508003BC002D3E018C0B2F0BD591B4668A3EB5101F9
S31508003BD036F911609642D4BF0D4601F1FF33EEE780
S31508003BE040680028EFD0B0F90050954204DBB0F9E0
S31508003BF002509542B8BF154682883344FF2A19BF3A
S31508003C00C8222827B0F90620B0F90870A2EB0502E9
S31508003C100CBF0121002192FBF7F25F780A447B1E54
S31508003C20934228BF13464FF47A7E00EBC306B16869
S31508003C30F288B44615FB0212194622EAE2720133EB
S31508003C4002F5FA729F42B2FBFEF204D9BCF80CC028
S31508003C5008369445EBD200EBC1008088904228BF15
S31508003C601046A04238BF2046ACE7FF20ABE700204D
S31508003C70A9E700BFE42600200229F0B553D82B4B4C
S31508003C8003EBC10413F831306568012B0FD1E378D3
S31508003C90A178934294BFC1EB0302C1EB02025B1AFF
S31508003CA0D2B29A42C8BF002235F91200F0BD002DE3
S31508003CB039D0A378934202D3B5F90200F6E7E37840
S31508003CC0B5F900009342F1D9AB886178A3F1FF04F6
S31508003CD00139634205F10406C9B2634105F10C07CF
S31508003CE01FFA82FCDCB2A14216D806EBC3014FF4D8
S31508003CF07A735A43B1F902404B68D21A04EBD4736B
S31508003D0002EB630292FBF4F29042CFDBB5F90200B4
S31508003D109042CBDC10B2C9E737F833E05C1CE645C5
S31508003D20E3D32346DEE70248C0E700BFE4260020C7
S31508003D300080FFFF0148FFF71FBF00BF84E60608A3
S31508003D4070470020704700207047000010B54FF4F8
S31508003D502F720021044612F026FB00238022C4E9B4
S31508003D602323084AC4F894306260012284F8983004
S31508003D702272C4F8AC3204F19C00BDE81040FCF78E
S31508003D805BBB00BF6879070810B5D0F8A0400A46A3
S31508003D9074B900F007FD044640B12D2896BF074BBD
S31508003DA0074953F82010074801F036F8204610BD99
S31508003DB0D0F8A4101046A0470024F7E724E8060820
S31508003DC000E706086DBB070838B5012300F10905A9
S31508003DD004460372284612F07DFF58B1204600F0CB
S31508003DE081FE29462046FFF7CFFF2046BDE838402A
S31508003DF000F083BD38BD000038B5037804460BB122
S31508003E00002038BDFFF79FFF0028F9D10123237052
S31508003E10237A23B120726168104800F0FDFF00F094
S31508003E20E0FF431C054616D02046FFF789FF2046CB
S31508003E30E9B200F09BFE0028F1D02046FFF7C4FF48
S31508003E40207A28B16168054800F0E6FF0020207254
S31508003E5000232370D5E70120FAE700BFB1C207089F
S31508003E6038B50446D0F8B00201F042FBD4F8B402E3
S31508003E700CF024FE20B140F215110A48FDF778F936
S31508003E80084D2046FFF7B8FF0028FAD0D4F8B80244
S31508003E900CF014FE0028F4D04FF490712846FDF774
S31508003EA067F9EEE70EE7060830B50C4605468BB00F
S31508003EB0FFF74CFF6368A168C5F8B032284600F0E2
S31508003EC043FB0CF073FD216A4FF47A720023A0FBC2
S31508003ED0010112F039F8C5F8B4020CF067FD616A01
S31508003EE04FF47A720023A0FB010112F02DF8236823
S31508003EF0C5F8B8020193E3692946079363690D4833
S31508003F000593A36901AA069323690393602304937F
S31508003F100023029308930CF04DFDE06020B94FF49E
S31508003F209C710548FDF724F92846FFF70AFF0BB0F0
S31508003F3030BD00BF613E00080EE706082DE9F843CC
S31508003F400B780446302B0D46914604D14B7803F086
S31508003F50DF03582B15D035496A1E12F8018FB8F1C0
S31508003F60000F46D10A224146284612F0E5FF202CCA
S31508003F7006460F4643D1884506BF804201200020E9
S31508003F8019E04A1C294912F8013FB3B9284B2846BB
S31508003F902340032B20D112F09DFE631C48BF231D2E
S31508003FA00238B0EBA30F4FEAA3040CD1A878372840
S31508003FB08CBF00200120BDE8F8835B5C13F0440346
S31508003FC0E1D11846F7E7284612F084FE0238844203
S31508003FD0D4BF00200120EEE712F07CFE002CA0F1F1
S31508003FE00200B8BF0334B0EBA40FD4BF01200020F1
S31508003FF0E1E718F8013013F00403AED1E1E7B9F1AF
S31508004000000F06D056EA070303D010F1FF3641F138
S31508004010FF370120002300FA04F4013CBB4204EAFE
S3150800402006020CBFB2421846C5E700BFCFFC060819
S31508004030030000800A7801382D2A0ABF01220022CF
S315080040408918FFF77BBF000030B503787B2B15D1A5
S31508004050012100220A4D445C7D2C06D10844437890
S3150800406063B9D04300F0010030BD635D13F044032B
S3150800407002D001320131EEE7202CFBD00020F3E715
S31508004080CFFC0608072805D8DFE800F0060A0D1059
S3150800409013151A170020704700220820FFF74EBF95
S315080040A000221020FAE700222020F7E70820FFF771
S315080040B0C1BF1020FBE72020F9E70846FFF7C4BF79
S315080040C0012070472DE9F74307280C46DDE90A76F3
S315080040D090461D4608D8013806280AD8DFE800F0B9
S315080040E01D27303A44574A00212850D003B0BDE86E
S315080040F0F08300222046114612F0A2FF3368C0B2B0
S3150800410005EB83013A6845F82300013348F8221085
S3150800411033603B6801333B60E8E7002220461146DE
S3150800412012F08EFF336880B205EB8301EAE70022BE
S315080041302046114612F084FF336805EB8301E1E758
S3150800414000222046114612F057FE336840B205EBAE
S315080041508301D7E700222046114612F04DFE336848
S3150800416000B205EB8301CDE700222046114612F086
S3150800417043FEE1E7002389461E461D468DF80630B4
S3150800418019F8013F7D2B06D125702D0A65703B680D
S3150800419048F82340BDE7202BF2D006F0010201368D
S315080041A012B98DF80430EBE71022002101A88DF82A
S315080041B0053012F021FE631901359870ADB2DFE7BC
S315080041C02DE9F04F9B46002385B08B4581468846EE
S315080041D09246CDE902336BDC1A461E4619F80340AF
S315080041E0FF2C08D15B4496B1013B43455CDD2B208F
S315080041F005B0BDE8F08FA4F12001012905D9103CCE
S31508004200072C98BF01220133E8E70126FBE742B1F4
S31508004210013B4345EBDC35463746454504DB002084
S31508004220E6E79845F7D0E2E75D453BDB19F8073046
S31508004230202B18D109EB07035B78FF2BD7D1CEB912
S3150800424020465AF82510FFF71DFF98B303AB0193D4
S3150800425002AB00932046DDE90E235AF82510FFF736
S3150800426031FF0135D9E7212B0ED109EB07035B781E
S31508004270FF2BBCD1029B5AF825200E99012641F83E
S31508004280232001330293ECE7A3F11004072C02D98B
S315080042901C460137D3E709EB07035B78FF2BA6D14A
S315080042A0E4B2CCE70624CAE700252F462E46B4E733
S315080042B021209DE726209BE72DE9F04F07460E466D
S315080042C015469846044685B0DDF84490DDE90FABFF
S315080042D0206808B3DAF80020D8F800108A421BDAFA
S315080042E00E9B53F82210FCF7F1F848BBDAF80020C9
S315080042F00132CAF800206268117BFE291BD10E9B89
S315080043001068012100932A464346CDE902B9CDF843
S3150800431004A0FFF7D1FF04462B7843B999F800307B
S315080043202BB97EB101233C4689F800302B70204614
S3150800433005B0BDE8F08F01238BF800302B70EBE752
S315080043400C34C5E73446F2E770B506460D4612F05A
S31508004350C1FC0446304600F05FFD044EAC4200D373
S3150800436070BD304600F058FD0134F7E7D8FD060861
S315080043702DE9F84F044602215248FFF7E5FF1E21B2
S315080043802068FFF7E1FF6368586800F045FD4E486E
S3150800439000F042FD67683B7BFD2B12D8D7F80880F2
S315080043A04FF0FF36404612F095FC0546DFF81491AB
S315080043B0DFF874A1DFF84CB10C3717F8013BFF2B77
S315080043C001D1BDE8F88F212B18D8212B34D8DFE886
S315080043D003F070767211191B1D1F333333333333D1
S315080043E0333321232527292B2D2F333333333333E7
S315080043F033336C31354C002D21DC23E0FE2B5CD0A9
S31508004400334CF8E7334CF6E7334CF4E7334CF2E732
S31508004410334CF0E7334CEEE7334CECE7334CEAE742
S31508004420334CE8E7334CE6E7334CE4E7334CE2E752
S31508004430334CE0E7334CDEE7002D254C00DD013632
S31508004440202BBAD002214846FFF77EFF1E21484698
S31508004450FFF77AFF504600F0DFFC5946204612F077
S3150800446027FC2949002818BF2146284800F0D4FC13
S315080044703B78202B02D12B2000F0C2FC244800F008
S31508004480CBFC002D09DD18F806301F2B05D018F8CF
S3150800449006001F2801D0AE4203DB0B4800F0BCFC27
S315080044A08BE700F0ADFC0136F1E7002D85DD194CF0
S315080044B0C5E7194C9FE7194C9DE7194C9BE7194C22
S315080044C099E700BF7EFE06087FB20708F0E80608EF
S315080044D0DCE8060845E90608F6E8060837E90608A6
S315080044E033E906082AE9060820E9060816E906084F
S315080044F02BE9060821E9060817E906080CE9060863
S3150800450005E90608FCE80608FF930708B1C207088C
S315080045105D790708E4E80608EFE80608F5E80608FE
S315080045203EE9060844E906084BE9060810B50446BC
S31508004530236803B910BD237A13B92046FFF718FF7D
S315080045400C34F5E77047704710B541B10A7932B9AE
S3150800455001249C300C71FBF773FF204610BD002028
S31508004560FCE700002DE9F04F2DED028B91B0039387
S3150800457000F109030646184608EE103A0F4690461B
S315080045804FF000091C9D12F0A5FB039B0490C3F88D
S31508004590009018EE100AC5F8009008AA07A900F0BE
S315080045A05CFC0446002840F0BC80089812F092FB98
S315080045B0A346A246039B1860D6F89C300193019B3C
S315080045C02BB9204611B0BDEC028BBDE8F08F019BDC
S315080045D09B680293002B6FD00AF10903334413F842
S315080045E0012B202A14D04FF0000A0C2303FB0AF3F0
S315080045F0029A1A440092029AD158002957D0079B6A
S315080046005B4554DB009B1B7A33B10AF1010934E0A0
S315080046102A6801322A60E2E72B68D6F89420D21A73
S31508004620039B1A6010AB03EB8B0353F8200C05931E
S3150800463012F058FB81460028E7D1009B186812F053
S3150800464049FB009B5B6893F80CC0BCF1FE0F18D1C0
S31508004650079A013A5A4514D01B680293059B53F8EA
S31508004660200C12F037FB2B68013303442B602B68B0
S31508004670F218527A1AB10BF1010BCA46B5E70133A3
S31508004680F4E7D6F894202968521A824225DC38467F
S3150800469012F020FB009B8146186812F01BFB484469
S315080046A07B280DD9414638461F4AFBF7FBFE18EE14
S315080046B0103A049A002A2CDC019B1B6801937EE7BA
S315080046C0009B414638461A68FBF7ECFE41463846D9
S315080046D0164A0134FBF7E6FE97E7BCF1FE0F94D1C4
S315080046E0079A013A5A4590D1D3F8009059F80C2BFD
S315080046F022B9049B2B60039B1A60D8E741463846CB
S31508004700FBF7D0FE41463846084AFBF7CBFE013494
S31508004710ECE7197811B94FF0200119700133013A05
S31508004720C8E74C464DE700BF4DE90608D8FD060820
S315080047302DE9F047002486B01C60DDE90EA8064680
S3150800474089468AF800401168154888F800401746D7
S315080047501D468DF81740FBF7B9FE18B901242B68DA
S3150800476001332B600020D6F89C6036B914B10123BA
S3150800477088F8003006B0BDE8F087B06868B14B46E7
S315080047800021CDE902A8CDE900750DF11702FFF762
S3150800479093FD9DF81730002BE8D13668E5E700BF92
S315080047A052E906082DE9F041A2B005460AAA0846CC
S315080047B003A900F052FB0446B0B90DF10A030193B0
S315080047C00DF10B038DF80A0000930AAA284604ABDC
S315080047D003A9FFF7ADFF9DF80A20B2B158B19DF8BD
S315080047E00B302BB1FFF7C4FD204622B0BDE8F0819F
S315080047F0FFF79CFEF8E7D5F89C50002DF4D0A86882
S3150800480008B1FFF793FE2D68F7E700B3466812ABC9
S3150800481006F10C081AAF01934046049B03990097CA
S315080048200AAAFFF7CDFC04460028DDD1039B05A89C
S31508004830CDE90637049B0595CDE90838FFF782FED2
S3150800484005A83368984705A8FFF77DFECCE72D2411
S31508004850CAE7F8B56FF0AB0400F1AC0500262F46A1
S31508004860241A384612F036FA6319984201D83046A7
S31508004870F8BD15F8013B002BF9D00A2B08BF013605
S31508004880EFE72DE9F0414FF00008C1F80080C2F8C3
S315080048900080D0F8AC3205460E46144613B90020FF
S315080048A0BDE8F08100F1AC07384612F013FA00288B
S315080048B0F5D001224346D5F8AC128A420ED3B3F599
S315080048C0007F10D30120EBE73168013131602168A0
S315080048D001312160F95C01330A2902D0B3F5007F62
S315080048E0F2D30132E7E7FA5C0A2AEBD0002AE9D0CC
S315080048F02268013301322260E1E710B5D0F88C2036
S3150800490004460021093011F04EFD0023C4E9243382
S3150800491010BD00002DE9F04700260446ADF5447D9C
S315080049207C22314605A80DF10808049611F03BFDD6
S3150800493080222046CDF8008003AB04A9FFF712FEBB
S31508004940012848D104A812F0C5F9039AD8F800300E
S31508004950811A1344093323440546013A04A802443C
S3150800496018465F183E1A002E20DC002221EAE17163
S315080049705A54D4F89060039BD8F80010D4F89020C5
S315080049801944B14217DCD4F89410E81A0244C4F862
S315080049909020014404AAC4F89410D41825182B1B97
S315080049A0002B13DC0DF5447DBDE8F08712F8016F86
S315080049B000F8016BD6E72244507A00F021FAD4F8C1
S315080049C0903001360133C4F89030D4E714F8010B5F
S315080049D000F016FAE3E7E5DD24AD802231462846E5
S315080049E011F0E1FC44AB4FF400721846314611F061
S315080049F0DAFC0DF1100A034652464FF0010912F887
S31508004A00017B002F3CD104A843F8296012F062F913
S31508004A1029463B461AF8016B44AF57F8042B8242E5
S31508004A2037D10133994501F8016BF3DAD4F8906070
S31508004A30039BB34236DC294A04F1090304A9284832
S31508004A4000F0EAF9284612F045F9039AD8F800303A
S31508004A501544134409332344801A1A466E1E1F1838
S31508004A60B91A00292BDC002120EAE07299542C1887
S31508004A70631B002B96DD15F8010B00F0C1F9F7E76B
S31508004A80202F06F1010604BF43F8296009F1010940
S31508004A90B5E70DF1100C6244D25CB242BDD00022DB
S31508004AA0EA54C3E7D4F8903001362344587A00F024
S31508004AB0A7F9D4F890300133C4F89030B8E716F85F
S31508004AC0011F02F8011BD4F890100131C4F89010A8
S31508004AD0D4F894100131C4F89410C1E7687907082E
S31508004AE057E90608F7B5044600F1090500F1AC06D2
S31508004AF0284612F0EFF80746304612F0EBF8013771
S31508004B00C0F50070874220D8284612F0E3F8013035
S31508004B103718304612F0DEF83146421C384611F096
S31508004B2028FC284612F0D6F829460246304611F0E7
S31508004B3013FC284612F0CEF80A23204480F8AC303D
S31508004B400023C4F8AC3203B0F0BD2046FFF781FE5F
S31508004B5001AAC4F8AC0269462046FFF792FE002275
S31508004B60009B234483F8AC20C2E700002DE9F047F8
S31508004B70D0E9245604460F46002294F89830012BB3
S31508004B8006D10A2F06D1002084F89800BDE8F087E0
S31508004B9000F2A7801B2F03D1022384F8983040E047
S31508004BA0A7F10D0253425341082F04F1090884F86E
S31508004BB0983038D1002D33DDB54210D1384600F093
S31508004BC01FF9202000F01CF9384600F019F90023D7
S31508004BD0013D08F80530013EC4E9245621E0FBDA18
S31508004BE005F1FF39384608EB090700F009F9A6EB85
S31508004BF0090208EB0501384611F0BBFB00233946CC
S31508004C0008F806304F48013E00F006F935464D458E
S31508004C1001DC4D46E0E7082000F0F2F8013DF6E732
S31508004C20DAD10020B2E77F2F1ED1002EF9DDB5427A
S31508004C30F7DA08EB0507691C41443846721B11F080
S31508004C4098FB00233946404808F8063000F0E4F897
S31508004C500820013E00F0D4F8B542F9D1D4F89430D2
S31508004C60013BC4F89430DCE70D2F01D00A2F0AD196
S31508004C700D2000F0C5F80A2000F0C2F80023012034
S31508004C80C4E9243382E7092F03D12046FFF742FE01
S31508004C90C7E7D4F88C30013BB342C2DDB54208EB16
S31508004CA0050905F1010A0CDB384689F80070D4F8C5
S31508004CB09430C4F890A00133C4F8943000F0A0F8FA
S31508004CC0AFE74946721B08EB0A0011F052FB48464B
S31508004CD000F0A2F80820013E00F092F8B542F9DD8E
S31508004CE0E2E7022B06D15B2F01D1032355E784F8AF
S31508004CF0982042E7032B94D1413F84F89820032F4C
S31508004D008FD8DFE807F002070A160121204600F0CF
S31508004D101DF886E74FF0FF31F8E7B54281DA2544FA
S31508004D20687A00F06DF8D4F890300133C4F8903002
S31508004D3077E7002D7FF775AF013D0820C4F890503E
S31508004D40BCE700BF60E90608BFA4070873B50C46B0
S31508004D500546FFF77EFD631C12D1D5F8AC421CB19F
S31508004D60013CC5F8AC420124D5F8AC6256B344BB45
S31508004D706946284601AAFFF784FD30BB02B070BD1C
S31508004D80012CFBD1D5F8AC328342F7D20133C5F8F2
S31508004D90AC32E9E7082000F033F8202000F030F8BC
S31508004DA0082000F02DF80136204611F093FFB04296
S31508004DB0F0D82846FFF7A1FDD5F8AC32002BDDD098
S31508004DC0D6E7002605F10904EEE7009C05F1AC06D6
S31508004DD0019BA342D2D9315D2846FFF7C7FE0134AD
S31508004DE0F6E707B500200DF1070100F027FC20B90A
S31508004DF09DF8070003B05DF804FB4FF0FF30F9E7B4
S31508004E0010B5C1B20446002000F00DFC00280CBF06
S31508004E1020464FF0FF3010BD0FB407B504A951F86E
S31508004E20040B01910FF0EEFD002003B05DF804EBD2
S31508004E3004B0704710B54C1C0B460119045D222CB2
S31508004E4003D07B2C01D05C2C05D1D21A184411F062
S31508004E5090FA012010BD0020FCE72DE9F84F054621
S31508004E608846914611F036FF2B4606461A461178B3
S31508004E705C1B202903F10103F8D001234FF0000A37
S31508004E806FF0404BC9F80020C8F80030A64201D898
S31508004E90002014E02F5D29197B2F12D0222F2ED146
S31508004EA0D8F80030621C5B442A4449F82320012CB8
S31508004EB009D911F8013C13F0DF0F04D02120BDE811
S31508004EC0F88F7D27F3E701342B5D2A19BB4208D1F9
S31508004ED0537813F0DF03F1D1222F00D11370013478
S31508004EE0D4E75C2B07D1324621462846FFF7A2FFB6
S31508004EF00028E3D0013E0134A642E5D8DEE75C2F60
S31508004F0008D1324621462846FFF794FF0028D5D017
S31508004F10013EE4E7202FE2D1631C9E4281F800A0FF
S31508004F20DDD9EA18EB5C202BD9D0D8F80030072B4E
S31508004F3005DC49F823200133C8F80030CFE71E20E6
S31508004F40BDE7000007B5094B18689A889B79009059
S31508004F506846ADF804208DF80630FDF779FE09207D
S31508004F60FDF7B0FE002003B05DF804FB65E906080E
S31508004F7030B585B06C46104B0FCB84E80F00802007
S31508004F80FCF7AAFD0528054603D102218020FDF776
S31508004F901BF901213120FCF76BFC2046FDF7FCFBD1
S31508004FA0052D044603D129468020FDF70DF984F026
S31508004FB00100C0B205B030BD6CE906084FF04022CA
S31508004FC013B50024536F684643F0010353670094F2
S31508004FD08DF80440FDF77EFD204602B010BD0000A6
S31508004FE070B586B001AA1546184B03F1100614468B
S31508004FF018685968083303C4B3422246F7D11868BB
S31508005000002320608DF81130114BD3F84C21120380
S3150800501014D4D3F85041E4B28DF80E40FCF7B6FF2D
S31508005020204480F308008DF80D000A48FBF74AF97A
S315080050302846FCF7A1FE002006B070BD4FF6FF70AB
S31508005040054B1C88844208BF5F24E5E77CE906080F
S315080050500080E00FC01753020001E00F1FB50D4A8C
S3150800506001AB1068516803C31189927A19809A7046
S315080050702C238DF8053004230DEB0300ADF806301C
S31508005080FCF78AFF6420FCF7EBFF002005B05DF80B
S3150800509004FB00BF90E906086FF00402502110B522
S315080050A00A480B4C12F0800FD3B21BBF03F00F0354
S315080050B0043BA3181B1802F101020CBF83F8001366
S315080050C019764C2AEED1002010BD00BF00ED00E095
S315080050D000E100E000F080B838B501F083F8044636
S315080050E0E8B901F07FF94FF4167202FB00F30D4898
S315080050F003F5742303F23F23B3FBF0F30A4A0B4983
S3150800510013600A220D680A48013A12F0FF0240F8B5
S31508005110043BF9D103EBC3022B4413440B6020462E
S3150800512038BD00BF40420F00382700200427002062
S315080051300827002085210148FCF71AB89BE90608CC
S31508005140012208B5034B1A7001F040F9024B1860AA
S3150800515008BD00BF0027002034270020F8B5144CEE
S31508005160237823B301F032F9124B134D1B68134E03
S31508005170C01A012838BF0120114B124F18602B782E
S3150800518056F8232046F82300111A3A680E48521A90
S315080051900A213A600932B2FBF1F20133DBB202604E
S315080051A0B3FBF1F201FB12332B7000232370F8BD19
S315080051B00027002034270020302700200827002059
S315080051C0FC2600200427002038270020014B1868F9
S315080051D0704700BF3827002020230D494FF4801060
S315080051E081F82C3341F264030A4AD05042F2740023
S315080051F0094B0A4A1A5042F270001A504FF480506E
S31508005200C1F88401486041F274015A50704700BFE2
S3150800521000E100E0008000400040004A010000A0D4
S31508005220054B064A1B78916DC90700D513B10028AE
S31508005230F9D1704701207047502700200040004AE6
S315080052402DE9F8439C4B1E6F9D6A9C6AF10705F091
S31508005250807504F4803457D542F270024FF0010984
S3150800526043F80290954A964F92F80080B8F1000FDD
S3150800527000F00E81002111703A784A4500F2028149
S3150800528042F228024FF48031995041F228024FF039
S31508005290807199509A6DD203FCD48A49DA6A0968F2
S315080052A022F470620A43DA628748884A9969006874
S315080052B0126821F47F01024321F47F410A439A616F
S315080052C08348844A19691268006821F47F6121F0CD
S315080052D00F0102430A431A617F499A69096822F055
S315080052E0FF020A439A614FF08072002D40F0C48095
S315080052F042F228015A504FF480326F4B002C00F0CE
S31508005300BE8041F228015A5016F0005100F08880FC
S3150800531042F27003684A694FD1503A7822B140F296
S3150800532015116E48FBF724FF0123654A3B70137875
S31508005330644901331370604B634FDA6ADFF898C12A
S3150800534002F4706008609869604900F47F4008605C
S31508005350996901F47F0139609F69FFB2CCF8007042
S315080053601F69DFF870C107F47C67CCF800701F6905
S31508005370DFF85CC107F03F07CCF8007042F2280757
S315080053804FF4803C43F807C041F228074FF0807C71
S3150800539043F807C04FF0004C43F807C09F6DFF0362
S315080053A0FCD442F228074FF0004C22F4706242F413
S315080053B00072B0F5C84F43F807C0DA6202D8B1F5F3
S315080053C0C80F0CD93C4A46499369096823F47F03F8
S315080053D023F47F4343EA012343EA01439361364BAF
S315080053E040491A69096822F47F6222F00F02880888
S315080053F042EA910242EA80121A619A6922F0FF0291
S315080054000A439A614FF08072002D48D142F2280172
S315080054105A504FF48032002C44D041F228015A5099
S31508005420002E27DA42F270024FF00041224B9950C3
S315080054302D4A1278F2B142F228024FF4803199507F
S3150800544041F228024FF0807199509A6DD203FCD42C
S3150800545041F218024FF0004199504FF0807225BB77
S3150800546042F228015A504FF48032134B04B341F2EA
S3150800547028015A50BDE8F88341F228013AE742F27A
S31508005480280140E7FFF756FE174B83F800903BE7E5
S31508005490FFF764FE00F04EFC87F8008034E741F21F
S315080054A02801B5E742F22801B9E741F22801D9E710
S315080054B042F22801DDE700BF0040004A50270020DD
S315080054C051270020542700204C2700204827002079
S315080054D044270020402700203C2700202FEA060802
S315080054E04C1000204810002052270020FFF7A8BEC5
