:10000000F05B012065DE000075DE000077DE000099
:100010007BDE000079DE00007BDE00007BDE00007E
:100020007BDE00007BDE00007BDE0000D1DF000015
:100030007BDE00007BDE000081E00000E5E00000E8
:100040007BDE00007BDE00007BDE00007BDE00004C
:100050007BDE00007BDE00007BDE00007BDE00003C
:100060007BDE00007BDE00007BDE00007BDE00002C
:100070007BDE00007BDE00007BDE00007BDE00001C
:100080007BDE00007BDE00007BDE00007BDE00000C
:100090007BDE00007BDE00007BDE00007BDE0000FC
:1000A0007BDE00007BDE00007BDE00007BDE0000EC
:1000B0007BDE00007BDE00007BDE00007BDE0000DC
:1000C0007BDE00007BDE00007BDE00007BDE0000CC
:0800D0007BDE00007BDE000076
:1000E000F8B504461646F0070D461F4603D41D2EEC
:1000F00018BF1B2E09D16946204647F039FE172844
:1001000011D0F00701D51E2E05D16946204647F0D3
:10011000B7FD172807D0069800903B46324629467F
:10012000204647F04DFFF2BD2DE9F0410E4635491E
:10013000054608781746984608B912205FE0002166
:10014000284647F0EDFC040008BF342057D03000AB
:1001500002D0012E08D01BE0606D417801F0120141
:10016000022926D0A06D04E0606D4178880720D573
:10017000E06D03214170A0F803703100C0F80580E4
:1001800002D13BF0CFF901E03BF0CEF9072801D1D5
:10019000182034E068B91C4F3868011D11F835206B
:1001A000500711D5206E01210170206E3BF0BEF981
:1001B00008B11E2023E03868011D001D11F835200C
:1001C00002F0FB0200F83520396801EBC500017927
:1001D000CA0704D5320008BF01F0FE0105D08A0726
:1001E00004D5012E02D101F0FD0101710749087803
:1001F00020B100220A70FF20054908700020BDE8E8
:10020000F08100BFA70F0020B00E0020A60F002035
:100210006402002038B505460F2D0C4616DA4FF65D
:10022000FF72914212D0022806D13C2014FB00F04C
:1002300080B247F0E5FD04E00E2804BFE0B201F013
:10024000D1F8034820F81540002032BD022032BD0D
:10025000CC010020F8B504460D4616461F460C207A
:1002600008F0D4FB010010D00698D0220A70488113
:10027000182306484C708B70CC708D80CE800F8117
:10028000BDE8F440007808F085BCF1BDB91100204C
:1002900010B5024601241078912804D0A2281CD061
:1002A000D02821D030E0517805290AD00E2904D079
:1002B0000F290AD03E290CD026E0104600F0D0F8D5
:1002C00010E0104647F00CFC1FE0104600F012F959
:1002D00008E0104600F01CF804E050884FF6FF716B
:1002E00047F03EFD044610E09078122802D0132813
:1002F00005D00AE05178506847F00AFD05E05168E2
:10030000D07847F031FC00E00024204610BD00000A
:1003100038B5044686B0A07801250146012918D0D9
:1003200003292CD0062939D00A2912D00E291CBF46
:100330000F29102900F08980152918BF162979D0B6
:1003400017297DD0812975D0832918D0842974D0AC
:1003500080E0214647F0E0FD68462146162246F03F
:1003600003FEBDF8040047F033FC040073D0002006
:1003700047F0A6FB0146608801F0D4F96BE0A08845
:10038000224647F0EDFC0546E078002863D123893A
:100390006289E188A08847F023FD5CE0A088012203
:1003A000402147F059FB002047F016FCC0B202285C
:1003B00021D1102008F02AFBB8B1D0210170112101
:1003C000E27842708170A2888280E188C1802289AF
:1003D0000281618941810021A28981738281014664
:1003E0001E48007808F0D6FB35E0A08800224021A6
:1003F00047F032FB2FE0A188ADF80010012803D1AF
:100400000021ADF80A1011E080B9E088ADF80200D3
:1004100000212089ADF804006089ADF80600A089AC
:10042000ADF808008DF80A108DF80B50684647F0BB
:10043000B7FD10E02246182104E022461C2101E00D
:10044000224606213BF034F802E020463BF067F8F4
:10045000054600E00025284607B030BDB911002050
:1004600010B58388012442F20202991A1CD0891F18
:10047000012937D9891F1BD0193902291DD9891F94
:100480001BD01139022921D9C91F052921D90C39BD
:10049000062921D9C91F14D0491E1AD04DF61E4273
:1004A000891A01291ED921E0806847F011FC1BE060
:1004B00047F07AFC47F0E0FB19E081680878B0B1BA
:1004C00014E08268052142F2580008E03BF019F878
:1004D0000AE03BF020F807E08268032118463AF072
:1004E000E7FF01E03BF024F8044600E0002420464A
:1004F00010BD000070B58388012142F213041A1B5D
:1005000004D0921F12D02B3A1BD01EE0104D2E8823
:100510004FF6FF72964209D00E4B1A68002A1CBF94
:100520001268002A12D00146204608E00A4A1268E2
:10053000002A1CBF1268002A08D0014618469047BE
:1005400001E03AF0EAFF014600E00021084670BDF4
:1005500058020020C40E0020C00E0020F8B50C4642
:100560001546002620B1012810D0042814D01DE023
:10057000162C19DA0F4F16220021384608F011FA0E
:1005800022462946384608F0DAF910E0022C0BD151
:100590002888094908800AE0082C05D1074829461F
:1005A000082246F0E1FC02E0182600E00226304670
:1005B000F2BD00BFDC210020F4210020E40F002068
:1005C00010B502460846002442B1012A0BD0042A85
:1005D0000DD0092A10D00A2A12D015E015220C4994
:1005E00008F0ADF911E00B4A118801800DE00A49CD
:1005F000082246F0B9FC08E008490A78027004E0D5
:10060000074B1978017000E00224204610BD00BF9E
:10061000DC210020F4210020E40F0020ED0F002059
:10062000F621002080B50021C00706D5044B0548FF
:1006300010220B2100F0FCF90146084602BD00BF64
:10064000D0800400F00F00202DE9F8430D4600276C
:100650002878022814461E4663D168680178DDF8C0
:100660002080407801EB00205FEA080280B204D0CD
:10067000B0F5285F0ED00B2056E04FF42851401AF9
:1006800008D0401E24D0C01E2AD0A23843D0233820
:1006900041D046E0DDF82490E86808F04EF980B2D9
:1006A000A0EB08024A45BCBFA0EB08001FFA80F986
:1006B00009EB0800162809DAA6F800904A46E8680F
:1006C00000EB0801204608F03AF92CE00D272AE05B
:1006D000E8680088022131802070000A607022E002
:1006E000E868B0B1082131800288227003881B0AB3
:1006F00063704188A1704288120AE270818821717A
:100700008288120A6271C188A171C088000AE071F2
:1007100009E0308007E001213180E868027822702A
:1007200001E0378001273846BDE8F2832DE9F04724
:100730000F46814638780026022890461D4652D141
:100740007868089C01784078DFF8A4A001EB0022CB
:1007500092B24FF42853D21A06D0521E27D0A53A8F
:100760003FD0233A3DD03EE0F86808F0E6F880B28A
:10077000A0421AD3611916291CDAFB682A464146A1
:10078000181908F0DCF82D19F868ADB2C5F1160299
:100790000021401908F005F9DAF8000000281CBF14
:1007A0000268002A20D0002118E007261CE01CB9AE
:1007B000022D03D00D2617E00B2615E098F8000057
:1007C00098F8011000EB0122F8680280DAF80000C6
:1007D00000281CBF0268002A06D001214846904725
:1007E00002E0032600E001263046BDE8F08700BFA6
:1007F000D82100202DE9F843092986B0064617467E
:100800003FD196F8242039887888521C491E86F8F2
:1008100024204143786889B2425C08444178307BA7
:1008200002EB01240128A4B239D139887888002547
:1008300048431FFA80F93D80A846C8452FDA7888DA
:10084000D7F804C0B17C431FC4449BB20CF105022D
:1008500006F1130047F0ACFB70B1A84506D07868EC
:100860007A8800EB0801401908F069F8788839881F
:100870004519491CADB23980788840445FFA80F848
:10088000DBE738790A2818BF062802D196F8240039
:1008900090BB96F82400401C86F824007C884FF614
:1008A000FF70844218BF002C26D0308A844223DA9D
:1008B000307B641C0128F48112D1ADF80040022283
:1008C000318AADF802108DF80420032128228DF81A
:1008D00005108DF806206946308847F041F904E09C
:1008E000308806F10E0147F03BF9307A47F230517B
:1008F00008F0ECFC162000E0002007B0BDE8F08313
:100900007CB504460D4647F0FBFA06000AD101A863
:1009100021460090ADF804507F23034C207800223C
:1009200047F0D2FA304676BD720200202DE9F04140
:100930001F4C204F204D214E2070214801703A70ED
:100940002878C00008F0A8FD306070B338784FF602
:10095000FF7878B92878800008F09EFD1949086072
:1009600020B93068BDE8F04108F0A6BD0146404618
:1009700039F07AFF3168002006E021F8308001EB81
:10098000C00300225A60401C2A789042F5DB052003
:1009900047F0FEF8207847F057F90B4847F0C8F8C1
:1009A0002078BDE8F04147F0F7B9BDE8F08100BF1D
:1009B000B40F0020A0100020C10F0020000F002065
:1009C000F721002018220020A512000038B50D469E
:1009D000290427D5144A107808F0F8F804001ED02E
:1009E0002078A2280BD0B02816D1204647F054F822
:1009F00090B1217904F1080047F0D6F80CE0607955
:100A0000652808BF47F084F808480078FF2803D01D
:100A1000214608F0BFF810B1204608F009F885F427
:100A2000004032BD002032BDB40F0020760200200D
:100A30003EB504001D460FD0ADF800108DF8022021
:100A40000194684647F0C4FA010006D12DB16089CF
:100A5000294647F09DF93EBD02203EBD3EB5054604
:100A60000C4647F0C5F8010008D16946284647F012
:100A70003BF9010002D10CB1019921603EBD00009B
:100A80002DE9FC47314C0F46994682469046ADF819
:100A900000900121257947F04FF918266D1C08B9FF
:100AA000142051E061888A4501BF207908282189F6
:100AB000894548D14B4642463946504647F0B8F939
:100AC0002189491C21816A460146204600F080F8B0
:100AD000060038D016281E4F21D018281CBF607879
:100AE000142830D0E9B2384647F05EF82079BDF8D6
:100AF0000010387079803E713946608847F064F99B
:100B000008B101251626217904F1080047F04CF8B8
:100B100020220021204607F044FF162E13D16088C2
:100B20003A46E9B247F028FA18B1E9B2384647F038
:100B30003BF8217904F1080047F036F82022002123
:100B4000204607F02EFF3046BDE8F687F82100204A
:100B5000380C002080B50021C2070ED5084908785E
:100B600020B9084B08481022042103E0002310227A
:100B700001210648FFF75CFF0146084602BD00BFA1
:100B8000A0100020E4800400A4100020E410002045
:100B900038B504460D4D47F0DFF8288029466088B7
:100BA00046F032FF38B120892988884228BF08469C
:100BB0002880162032BD21892888814228BF01461D
:100BC0006088FFF79DFE002032BD00BF380C00207A
:100BD0002DE9F44F054686B068888B4647F034F916
:100BE0004549841E0878A4B288B144498D4204D096
:100BF00020222946414807F0A2FE414E0594414F6C
:100C0000DFF8F480DFF80091DFF800A117E005F1CC
:100C10000806F3E7BBF1000F49D16389BAF8002059
:100C2000D9F80010688847F003F9002883463ED1C0
:100C300030884FF6FF71884239D0401C30800598CB
:100C40003989801E884232DBBBF1000F2FD104A806
:100C50000090337971883088721D46F0E9FE0400F7
:100C600025D0608930802146BDF81020688807F0C3
:100C700017F98346D8B928790599D9F80030039037
:100C80008A1E92B2002002920190CDF800A0BDF819
:100C900010206888214600F0A7F9834698F80000E4
:100CA0000028B7D0BBF1160FB4D1002021E039895C
:100CB0005846C1B17A8891FBF2F1398098F800006A
:100CC00050B10E4C217904F1080046F06DFF20224E
:100CD0000021204607F065FE6888394647F0DCF8B9
:100CE00038B1162005E032880100069908BF0A20B5
:100CF0000A8007B0BDE8F08FF7210020F82100201E
:100D000000220020380C0020080F0020840F002053
:100D10002DE9F84F074686B07888574DDFF85CB16B
:100D2000884647F091F8064604A800903B7B7989F5
:100D3000388907F10D0246F07BFE002482460596B5
:100D400049E06968FF208855A3B26868FF22C25451
:100D500034E0A0B2002877D1788800234FF6FF72E4
:100D6000112146F0CDFE0028686067D0BBF8000076
:100D7000001D6880641C6968BAF80A008855A2B230
:100D8000BAF80A006968000A8854BDF81020798909
:100D90000DF11203504646F0DBFF661C8246741CC0
:100DA000BAF1000FB6B2CCD06968BDF81200885510
:100DB000A2B2BDF812006968000A8854641C304869
:100DC0006B680168BBF80020A6B2981907F0B7FD60
:100DD000BBF800000419BAF1000FA6B222D0BDF88A
:100DE00010207888514607F05BF88146A0B9387921
:100DF0000599234B1B6803908A1F92B20020029230
:100E00000190CDF800B0BDF810207888514600F070
:100E1000EBF8002881469CD0BAF80A10A8F8001018
:100E2000484600E00020A4B2CCB901003989A8F8F6
:100E3000001008BF0A2007B0BDE8F08FBAF80A001A
:100E4000A8F800001120F6E7BBF800006988021D31
:100E5000914204D10599891F801981428ADA6888F4
:100E600096FBF0F028802946788846F0E9FE0028B5
:100E700018BF1620DFE700BF380C0020840F0020C9
:100E8000080F00203EB54D681821144601916A886C
:100E90000092AB88AA682988408800F0A7F9162834
:100EA00002D10021A9603EBD01001CBF298821801C
:100EB0003EBD00002DE9FC4105460E46904600204F
:100EC00000270DE0019060880090A388A2686888E0
:100ED00000F08CF9162817D10021A1607F1CFFB209
:100EE0000D490A78974214DA71680C2313FB07F353
:100EF0000B441C46218861B1781C90421BBF988925
:100F0000002818201620DDE70028E7D02188A8F85F
:100F10000010BDE8F68100BFB50F002070B5054692
:100F20000C4646F0BDFD010006D14FF6FF7046F0BD
:100F3000B7FD010017D00D80002200E0521C0B4BC2
:100F40001D78D0B2A8420ED24B68D6B20C256E43A3
:100F5000334418880028F1D10C222146184607F0A6
:100F6000EEFC002070BD092070BD00BFB50F002051
:100F7000F8B5054600260F4C0BE0B86808B108F03C
:100F8000EBF80C220021384607F00BFD00203880DA
:100F9000761C2178F0B2884207D26A68F3B20C213D
:100FA0004B43D71838880028E7D14FF6FF712980C6
:100FB000F1BD00BFB50F00207CB50C78022C11D11B
:100FC0004C682578647805EB042642F60215B6B223
:100FD000AE4207D1BDF8185000950224019439F0B3
:100FE00089FC76BD012076BD2DE9FE4F0D46824677
:100FF000287AC10693461E464FF000090CD5584684
:1010000046F00EFD030000F0EA800A222946504611
:1010100098475FEA00094DD128780C9F0D9CDDF8B8
:10102000388002281AD168680178407801EB0022E4
:1010300092B24FF42053D21A012A10D9921E3AD0FC
:10104000521E14D0FD3A7BD0521E00F08280521EF8
:101050006ED0521E74D0521E00F09680ACE0002C70
:101060002AD1E868017839800278416888E0002C4C
:1010700022D101203880E9680A783270002168891D
:10108000401C80B246F0A8FE398860B10278921CFC
:1010900051183980418971704289120AB2704168D1
:1010A0000278F01C6DE0091D398004220021701CBB
:1010B00007F077FC95E0002C67D1E86804880421EC
:1010C00039803470220A72700DF10201204646F018
:1010D00083FE5FEA000821D0D8F80C40BDF802205A
:1010E0004FF6FF756B46294646F032FE50B998F828
:1010F0000030D8F804203C48022146F059FF08B9D6
:10110000ADF80050207802280AD161680222301D13
:1011100007F015FC3888801C388001E0ADF80040ED
:10112000BDF80000B070BDF80010090AF17058E079
:10113000002C2AD1E8680168504639F0C4FB02E06F
:101140001CBBE8680088022139803070000A70708A
:1011500047E0E86807F0F1FB82B2A242B8BF4FF067
:1011600007093EDB944208BF002205D008EB0401CA
:101170009142B4BF4246121B3A8092B2E86801190C
:10118000304607F0DCFB2CE014B14FF00B0928E0EF
:10119000E86807213980027832704378737041889B
:1011A000B1704288120AF27001793171C28872718D
:1011B000C088000AB07114E0584646F0E9FE5FEAC4
:1011C00000090CD09DF83C000290CDF804800094FA
:1011D0003B46324629465046C847814601E04FF01B
:1011E0000E094846BDE8FE8F5E0105002DE9FE436D
:1011F0008146884617461E4602A9404646F0ECFD49
:1012000004002CD0BDF8080046F09AFD844620B3B7
:10121000BDF828100B9D0091334601953A462146B2
:101220004846E0470646D8B9FE2D19D02078022856
:1012300016D160680178407801EB002242F6021175
:1012400092B28A420CD13878797800EB012292B2BE
:101250004146484600F072F802E00E2600E0012602
:101260003046BDE8FE8300007CB505464FF6FF76AC
:1012700001AC009402230A4A3146012046F0D8FB13
:101280000BE0E0680168284639F0EEFABDF804206A
:1012900000233146204646F05BFD0400F1D173BDCA
:1012A0004E01050038B50129044606D002293CD17B
:1012B000012146F041FD002837D1204646F0F0FBE1
:1012C00008B1FFF755FE2046FFF7CEFF1749087813
:1012D00098B1174D6888A0420FD129791548491C4B
:1012E000C9B246F061FC297905F1080046F05CFCC2
:1012F00020220021284607F054FB0F4D284608F015
:10130000AFF810E0208958B12146284608F0B7F818
:10131000A17A04F10C0046F047FC204608F0CCF816
:10132000204608F09FF80400ECD131BDF7210020E1
:10133000F8210020380C0020180E0020F8B50D4CC4
:101340000E462178FF290546174611D00A2007F0DE
:101350005DFB68B1B12101700022427002714580CD
:10136000C680078101462078BDE8F44007F012BC32
:10137000F1BD00BF7302002038B51C460A4B1D7832
:10138000012D01D13A2032BD130018BF002C02D02C
:1013900010F47F4F01D0122032BD0B46214601B020
:1013A000BDE8304000F018BFB60F00200B4980B5F3
:1013B00009888DF8011000208DF80000090A8DF8C9
:1013C00002106A46064801788DF8031042F20200C6
:1013D000042146F051FD002002BD00BF382300204B
:1013E000C60F002080B501F0BFF98DF800006A46F5
:1013F00001214FF6744046F03FFD002002BD70B55C
:101400004A1ED2B2002305E0D51AC45C465DC6541C
:1014100044555B1CB3EB510FF6DB70BD2DE9F8436F
:10142000054624480E46017801291746984608D1FA
:1014300021480188491E018089B211B9012046F076
:10144000E3FCDFF8789099F80000FF2478B10C20D5
:1014500007F0DCFA48B39021017002224470458005
:101460000271C7808660014699F8000019E00820E3
:1014700007F0CCFAC8B1012101704470711F4160BE
:1014800002220A7041684D702D0A416845EA08152C
:101490008D704268D7703F0A41680F710146084855
:1014A0000078BDE8F44307F075BB3046BDE8F24371
:1014B00007F052BEB70F0020860F00201F22002029
:1014C0001C220020F1B5234F0D4639781646A9B1EC
:1014D0000C2007F09BFA04003AD0912020703E21A6
:1014E00082226170A2700522BDF80000A080A67162
:1014F0002946E01D07F023FA387826E0142007F08B
:1015000085FA040024D001202070FF2104F1080294
:1015100061706260042010703E2260684270092190
:101520006068817082216068C170022260686946CB
:10153000001D07F004FA606886710522606829467C
:10154000C01D07F0FCF904480078214607F022FB93
:10155000F1BD00BF1E2200201C2200202DE9F04119
:1015600004462D480D46C179880616461F4650D5BB
:101570002A49487801074CD5200004D057EA0600D4
:1015800004BF01260127DFF8988098F80010C1B148
:10159000082007F03BFA00283BD0912101703E2241
:1015A0000C23042E08BF0326042F08BF0327427014
:1015B0008370C47085808671C771014698F80000F9
:1015C00023E0112007F022FA18B301210170FF2255
:1015D000427000F10801416004220A703E234B7002
:1015E00006228A704D710C22CA702D0A0C718D7101
:1015F000CA1D511C042E08BF0326042F167008BFF5
:1016000003270F70014607480078BDE8F04107F056
:10161000C1BABDE8F08100BF280E0020200E0020D6
:101620001E2200201C2200202DE9F0410446114812
:101630000D4601781646CA07984619D50E4F3978D7
:10164000B1B10C2007F0E2F990B106999122027035
:101650003E234370832282704181C4708580C6809E
:10166000A0F8088001463878BDE8F04107F092BA4A
:10167000BDE8F081212200201E22002080B50B4908
:101680000B4A087000200B49107008700A4A0B4979
:101690001070087046F014FC09490A4B7F208870CE
:1016A0000022094802701A7001BD00BF1C220020F0
:1016B0001D2200201E2200201F22002020220020A8
:1016C000200E002021220020B60F002038B50D4644
:1016D000290411D5094A107807F078FA040009D0D6
:1016E0002078032812BF0128E06807F035FD204666
:1016F00007F09EF985F40045284632BD1C220020E3
:1017000001490870704700BF1E220020014908707F
:10171000704700BF1F22002001490870704700BFBA
:1017200020220020F8B50C4F054638680E460624E6
:1017300040B90A49087810FB04F080B207F0ACFE0B
:10174000386040B13868654331462844BDE8F84008
:10175000062207F0F4B8F1BD24220020C10F0020BA
:101760000449096809B9002070470622504308441B
:10177000704700BF2422002078B587B00F9C250059
:1017800013D0BDF8485006950394BDF840509DF81D
:10179000384004950294BDF844600D9D0C9C05965C
:1017A0000195009446F078FA00E0312008B070BD51
:1017B000F8B5002500260C4C11E00C4801683422D5
:1017C00012FB06F288180379DF0706D506220021EE
:1017D000801D07F08CFC00B96D1C761CF6B22078D9
:1017E0008642EADBE8B2F2BDC10F0020180F0020EC
:1017F0002DE9F043A24CA349A34E20700A220020F9
:1018000008600D23A1484FF4097102704380818064
:1018100085B09F4A9F48106037789F480770FF2F18
:101820007178417008BFFF29B2788270F378C37075
:10183000357905717679467114D1FF2A08BFFF2BDF
:1018400010D1FF2D08BFFF2E0CD194490A780270E9
:101850004B7843708A788270CB78C3700A790271B2
:10186000497941718E4902788E4D8F4E8F4F0A70A3
:1018700043784B7082788A70C378CB7002790A7192
:1018800040798B4A4871FF2028706870A870E87012
:1018900028716871002087490880F06B864940787C
:1018A00008708649F06B0078087013888448854971
:1018B0000380F06BC06C08608349F06B90F83C00CB
:1018C00008708249F06B90F83D0008708049F06B19
:1018D00090F860000870F06B406901797D484A1EFD
:1018E0000270F06B7C49C0783870F06B80690860DA
:1018F00008B906F0E7FFF06B7849C069086008B9DD
:1019000006F0E0FFF06B416D75480C2207F017F808
:1019100046F0BAFAF06B7349006A086008B906F03D
:10192000D1FFF06BDFF8C081406AC8F8000008B949
:1019300006F0C8FFF06B6D49806A086008B906F0D0
:10194000C1FFF06B6A49C06D002840D001220A75C2
:10195000F06BC06D02681378C3F3400048B1F06BC0
:10196000C06D02681378C3F3C00000280CBF0120CB
:101970000220487500208860C8600861F06BC06D67
:10198000426890780870F06BC06D4268D0784870FB
:10199000F06BC06D426813788B70F06BC06D42685D
:1019A0005078C870F06BC06D426810790871F06BA8
:1019B000C06D426850794871F06BC06D4268907993
:1019C0008871F06BC06D4268D079C87101E0002267
:1019D0000A7503F0C5FA07280AD103F0E5FB207861
:1019E0004FF4804107F07AF9002006F06BFF43E0E6
:1019F00040480168884781463AF09AFCD8F80000D0
:101A000001688847684641F083FBD8F8002004202D
:101A10008DF80000694652F8043F00209847364987
:101A2000086003F079FDF068344A01883878344B57
:101A3000014311804846196888470C21314803F05A
:101A4000F4FC284646F0E4F946F056FA2E48002108
:101A50004FF6FF7201608280F06B90F858102B48AF
:101A6000006803F063FA0121FF2039F02CFD207893
:101A70004FF4005107F032F905B0BDE8F08300BF24
:101A8000C70F0020380F0020D04F0050700E0020EC
:101A90003C0F0020B63F0050400E0020E8120050DE
:101AA000500E0020480E002058810400C40F002072
:101AB000601100209E0F0020C60F0020D40F0020D0
:101AC0003823002058230020D4230020D5230020D1
:101AD00051230020CB0F0020200F0020240F0020D6
:101AE0003C230020280F00202C0F0020300F002066
:101AF000BC230020501B00204C230020A00F0020FE
:101B0000541B0020FC0D0020800E0020E02300204C
:101B1000704770472DE9F04F0F46380589B018D54A
:101B2000DFF8E4532888FF280ED0C0B203F006FA8D
:101B3000040009D0A079162146F0FAF9204603F0F6
:101B40007BF8204645F080FFFF20288087F4006066
:101B5000D6E1F80504D539F0DBFC87F48070CFE1DD
:101B6000B80604D539F09AFC87F02000C8E1F807E0
:101B70000CD505F023FB30B100218160DFF88C0328
:101B8000006800B1804787F00100B9E1380704D54B
:101B900039F086FC87F00800B2E1F8060FD5002185
:101BA0000022002306910592049103930291019271
:101BB0000091022046F0B0F887F01000A0E1B807CD
:101BC0000FD5002100230691059104910393029102
:101BD0000191009101223C2046F09EF887F002001E
:101BE0008EE179074FF01E08C94EDFF828A340F1B7
:101BF000CD80C9480022002108920791007845F065
:101C00008FFF0446C5488178FF2904BF002006F0F5
:101C100059FEA07A03F092F905469AF8000095F86B
:101C20002E91002805F5947B69D0606D807A02289A
:101C300018BF032807D130680D3046F0F5F810B909
:101C40003068C11D07915946484645F0A5FFA0B32D
:101C5000606D807C3368002818BF012804D11946C4
:101C6000584646F091F804E05A464946184645F071
:101C7000FBFFFF2843D018FB00F8306840440622E1
:101C80005946C01D06F05BFE306810F8081040444D
:101C900000F1010BC01D41F0020908900622616DA0
:101CA000C87A00F0010085F82E01606D00F10C018A
:101CB00005F5947006F043FE21E05946484645F08C
:101CC000BFFEE0B130685A46494645F0CDFFFF28D7
:101CD00015D018FB00F8306840440D3046F0A4F8E9
:101CE00058B9306840440D3046F09EF8002801BFD6
:101CF00030684044417F012901D149F0020905F1D2
:101D00002C004B4601780691428912090592012266
:101D1000698C0491C0880899029140080390CDF81D
:101D200000B0079801900020A97945F0F5FFD5F89B
:101D30009C017B498842A8790CBF0021012146F013
:101D4000C7F87848AB7902682C214B431344012231
:101D50001A73AB7904684B4323445A73AB79046814
:101D60004B4323449A73AB7904684B432344DA739F
:101D7000AB79006811FB03F10144002008740720CF
:101D8000A97939F09DFB87F00400B9E038060FD53A
:101D90000021002306910591049103930291019182
:101DA000009101223B2045F0B7FF87F08000A7E0BB
:101DB000F8045DD55C4930680C680D3046F034F8A5
:101DC000002844D13068C11D0D3046F0D9F83EE0FE
:101DD000606D4178480704F13E0526D52878022831
:101DE0001EBF03286878012830D16978306804F173
:101DF000380245F039FF8146B9F1FF0F15D0306840
:101E000018FB09F948440D3046F00EF868B93068FF
:101E10004844C11D0D3046F0B3F830684844C11D38
:101E2000062204F1380006F08AFD2878022818BF3F
:101E300003280BD130680D3045F0F6FF30B930681B
:101E4000C11D062204F1300006F079FD2468002C43
:101E5000BED13648DAF8042000784FF4805107F0FC
:101E6000CBFB10B18E2045F08BFF87F4805047E00C
:101E7000B80505D544F0E2FD2D4901200860FEE7D4
:101E8000780504D506F058FD87F4806038E07804C2
:101E900005D5812045F074FF87F4804030E0B90417
:101EA0002DD5244C206810B1002006F00BFD4FF01A
:101EB000FF3020600020204C02F082FA216851F8A7
:101EC000202F684690471D494A6B086BC96A2468F1
:101ED0001B4B019200900293ADF810106B46194A0B
:101EE00019491A4803921A4A07922568194AA847BD
:101EF0001949086000F032F887F4005000E0002033
:101F000009B0BDE8F08F00BFF6100020480F002098
:101F1000680F0020880E0020D70F0020780E0020C8
:101F20004DE50110742300204C0F0020C70F002046
:101F30007C052043380F0020200F0020FC100020DB
:101F400025570000355700002822002038220020A5
:101F50001EFB0080EC0A00201C0F0020F8B5564C38
:101F6000564B2568186855F8183F00224FF0FF318E
:101F7000984705F0A9FB5249524AC86B406941791C
:101F800051481170002301680B8000244B800C71B4
:101F900000684371002002F013FA02F04DFA4B483A
:101FA000006845F09DFE45F003FF4948006800B118
:101FB00004734848006800B1C4720026464C474D7F
:101FC00012E06068F1B24FF4D07251434218537975
:101FD000012B08D1F0B202F0B1FF074602F02CFE4F
:101FE000384645F031FD761C2978F0B28842E8D3B6
:101FF00045F05EFF3A483B4A0178117004F014FC4A
:1020000039F06DFA3848394A8078C1074CBF07214A
:102010000521FF2400074CBFFF20FB20014034486E
:1020200001700021334811700023334A03700121ED
:10203000324811700370324A324811700370324ACC
:102040003248334913700370324A334813801B23DC
:1020500003804FF4A470314A314B088010804FF454
:102060002960304A1880FB212F4B1180198044F2DF
:1020700090202E492E4A0880108045F0F9FE45F048
:10208000D3FD39F03DFA39F04CFA39F016FA294906
:10209000294A002008701F21284804704470847069
:1020A000C47001712648047044708470C47001715A
:1020B000252010700020F2BD200F00201C0F0020F2
:1020C00058810400CA0F0020400F00206C0F002030
:1020D000500F0020540F0020780E0020D40F002055
:1020E000C60F0020D30F0020C00C0020CC0F002012
:1020F000C50F0020CD0F0020CE0F0020CF0F0020F5
:10210000D00F0020D10F0020D20F00205C23002030
:102110008C0F00209C0F00208A0F00208E0F0020C3
:10212000900F0020920F0020960F0020940F0020A7
:10213000980F0020C80F002070230020602300208B
:102140006823002010B5040004BF002006F0BAFB8D
:102150001C490878052815D11B480168887A012890
:1021600018BF03282BD0194821780170627842707B
:10217000A1788170E278C27021790171627942712F
:10218000002010BD062807D111480168887A01286F
:1021900015D00328E7D112E01128E4D10D480068DA
:1021A0000028E0D0017A0129F9D1416D4A78D106A1
:1021B000F5D590F83E10012918BF0329EFD10C2066
:1021C00010BD00BFC80F0020500F0020480E002097
:1021D000540F00204C0F00202DE9FC410C00054657
:1021E0001646984605D05FEA080018BFB8F1010FFF
:1021F00001D0122045E024480188914204D28A206F
:1022000045F0BEFD30203CE0284645F0B5FD01001C
:1022100037D1E8B202F092FE1C4F0546387820B95B
:10222000012045F0E9FC07202BE0194801688847A8
:102230003A781849531E3B70D1F800C0E047B5F812
:102240008E01B0420AD232462146284645F00CFEA5
:10225000010016D1204606F07FFF07E01020009015
:102260004346F2B22146284645F022FD04F0A6FF7F
:10227000296800780A78824204BF284645F09CFD10
:102280000020BDE8F68100BF38230020D30F0020D6
:10229000501B0020541B002038B5264C20780928FC
:1022A00018BF0A2801D0212032BD40F2014045F07C
:1022B00017FE207809280DD11F4A2048136801888D
:1022C0001F489980007845F097FD0021002045F0D7
:1022D000CFFB2BE00A2829D117481A4D02682B881A
:1022E0006988A888CB18C31893806988D180A97998
:1022F000802918BF81290FBF7F21134B93F900005C
:10230000091A11721149087838B1002288680A70D8
:1023100008B107F0D1F839F0D0F82888012145F04C
:10232000A7FB002002F04CF802F086F80020207095
:1023300032BD00BFC80F0020440F0020AC0E0020AB
:10234000CA0F0020E40D0020C90F00209C230020AC
:102350002DE9F84304460027002C894644D02C4D33
:102360002878884240D3227912F0E00F3CD12046F1
:1023700045F052FC012837D12978DFF8988089454B
:102380004FF4D07607D04F46D8F80420FBB2734301
:102390001A44507940B3D8F80400F9B271430844A4
:1023A0004279012A31D1F8B202F0C8FD00F1770379
:1023B0002A78197911B11978012902D0597E012999
:1023C00003D1914507D03A200CE001680B78802BAF
:1023D0000CD0914508D12878F9B2814201D28145CB
:1023E000D9D00020BDE8F2831220FBE70021625C17
:1023F0004318491C052983F86120F8DB818EC91D2B
:10240000A0F89210012145F02BFC7F1CE3E700BFF0
:10241000D40F0020780E0020A0F11B0210B5E12A95
:102420003EBFA1F5A47244F249139A4207D20D4A65
:102430001488844222BF0C4B1A888A4201D212208F
:1024400010BD0A4A53789A0601D4112010BD084ADB
:10245000084B094C10800948018019802180002018
:1024600010BD00BF920F0020940F0020C00C002070
:102470008A0F00208E0F0020900F00208C0F00206C
:1024800070B50446012045F057FB002500B1012539
:102490001B4801680A7B012A0CBF0120002005436C
:1024A00018480168CA7A012A0CBF012000200543A0
:1024B00001D00C2070BD144D144E28787CB1012C35
:1024C0001BD1317849B972684FF4805107F094F804
:1024D00008B1032070BD01203070002070BD31783C
:1024E0000029FAD04FF4805107F0C6F828784FF44D
:1024F000805106F059FC0020EEE7122070BD00BFAD
:10250000500F0020540F0020C70F0020880E00201D
:1025100010B5010003D04AF2B911884201DB302026
:1025200010BD0A4A4FF47A71484350601078012870
:102530000AD1074C20784FF4805107F09DF820789D
:102540004FF4805106F0CAFB002010BD880E002019
:10255000C70F002018B591B04121684644F001FD35
:10256000684602F0B1FE044620210DF1010045F05D
:102570006FFB20210DF1210045F06AFB002C0CBF00
:1025800000201F200DF121020DF1010145F0CCFBCF
:10259000002012B010BD10B5A2B0014640220DF1CE
:1025A000010044F0E1FC04218DF800100DF1010060
:1025B000202145F04DFB20210DF1210045F048FB85
:1025C00011A9684602F0CEFE00280CBF00241F248B
:1025D00020210DF1450045F03BFB0DF14501204662
:1025E00045F042FA002022B010BD70B50D0014462F
:1025F00018BF002C064601D1122070BD00202870A3
:102600002070304645F0B8FB01000FD1F0B202F067
:1026100095FC90F89611042908BF0321297090F8C1
:102620009601042808BF03202070002070BD000020
:1026300083B24FF2FF52A3F20153934222BF8BB2F7
:10264000A3F20153934201D212207047094A136842
:10265000188059800A21B3F9000090FBF1F119713B
:102660001068B0F902100A2291FBF2F242710020C8
:10267000704700BF400F002008B9122070470D4A74
:10268000517809B10C2070470B4902784A704278A2
:102690008A708378CB70C0780871D1074CBF07204F
:1026A000052011074CBFFF21FB210840034908709A
:1026B00000207047780E0020C00C0020C50F0020BD
:1026C0002DE9F041064604F079FD0446304645F018
:1026D00053FB010035D1F0B202F030FC050014BF0D
:1026E000002C02202DD01848184F016888478046DA
:1026F0002078802811BF402815498A78964214D145
:1027000040F2014045F0ECFB05F2171001211622C2
:102710000170427021780F48402902D10E4A0260B0
:1027200001E00E490160012103E00D4806804FF4ED
:102730000061387806F0D2FA0A490A6840469047A4
:102740000020BDE8F08100BF501B0020C70F002013
:10275000780E0020480F0020DBB40300D9B403003A
:10276000F6100020541B002010F0070001D11E209D
:102770007047024908700020704700BFF810002021
:1027800070B5094C094D2368286853F8186F00226A
:102790004FF0FF31B0472168286851F8042F904767
:1027A0000020286070BD00BF200F00201C0F0020FB
:1027B00038B5114C88B0002001F002FE216851F8B4
:1027C000202F684690470D494A6B086BC96A2468F8
:1027D0000B4B019200900293ADF810106B46094A22
:1027E00009490A4803920A4A07922568094AA847F4
:1027F0000949086009B030BD200F0020FC100020FE
:1028000025570000355700002822002038220020DC
:102810001EFB0080EC0A00201C0F0020F8B52948A0
:10282000294D0468296801F10D0045F0FDFA0028E2
:1028300044D12868C11D0D3045F0A2FB3EE0606D1B
:102840004178480704F13E0626D5307802281EBF9D
:1028500003287078012830D17178286804F1380293
:1028600045F002FA0746FF2F16D01E20296847437D
:10287000394401F10D0045F0D7FA68B928683844A9
:10288000C11D0D3045F07CFB28683844C11D06226F
:1028900004F1380006F053F83078022818BF0328F6
:1028A0000BD128680D3045F0BFFA30B92868C11D3A
:1028B000062204F1300006F042F82468002CBED154
:1028C000F1BD00BF4C0F0020680F0020F8B5044692
:1028D00022480D4601780226052908D0062912D083
:1028E000112914D012291BD0132905D01DE01C4A30
:1028F000106890F8246018E0032038F00AFEA0B1B8
:1029000090F8B16011E0174801680E7E0DE016489E
:102910000078002145F004F938B190F8B86004E07F
:1029200038F0ECFD08B190F8C660104F38682146C9
:1029300003F06AFF08B9AE420ED20D48016888471D
:10294000012204463A7140F2014045F0C9FA0949B2
:102950000A68204690470120F2BD00BFC80F002042
:10296000500F0020540F0020D50F0020A823002076
:10297000501B0020541B00200249086000200871F1
:10298000704700BFA823002001480079704700BFAE
:10299000A823002030B501460B4BC8681C680A68A4
:1029A000A04208BF196003680B6085888B888C681B
:1029B0008D80838083688B6084600260C268CA6097
:1029C0000021C16030BD00BFB0230020F8B505462E
:1029D0002868416D4A78D10648BF40F6AC5465D4AA
:1029E000066D448B4CB9307CC0F3800100238722F4
:1029F00000F0030045F068F80446286800F144013F
:102A000004F2DC540A6953789A0728D4808C60B9A0
:102A10004A8802B9362296F84000C0F380010023AC
:102A200000F0030045F050F83DE04A78012A14DD3B
:102A30000A7896F84000C0F38001002300F00300FC
:102A400045F042F8296822468C8C91F8451004F52F
:102A50009B74491E01FB042425E0241826E0243041
:102A60000023C27F96F84000C0F3800100F003000D
:102A700045F02AF80746286844304178012914DDDA
:102A8000027896F84000C0F38001002300F00300B4
:102A900045F01AF82A6892F84530214607F59B74EC
:102AA0005B1E03FB0414041900E03C19AC80F1BD6B
:102AB00030B5014609480A4C00682578002201E03B
:102AC000C068521CD3B2AB4205D20028F9D00368CB
:102AD0008B42F5D130BD002030BD00BFB0230020B7
:102AE000B42300202DE9F04706468946FFF7E0FFB2
:102AF00020B10020C9F80000012051E0102006F0AC
:102B0000CBFC040047D0274F26603968264E0029A9
:102B100004BF3078002808D13C60E46045F07CF9BF
:102B200000F5385000F1E0082EE0307801284FF42D
:102B30007A650ED10968086900F5FA5A02F070FC4E
:102B400000F00F083868E06015FB08A83968CC6011
:102B50001AE00868006900F5FA5802F061FC00F01C
:102B60000F0015FB00883D6800E00546E868026834
:102B70001069414603F048FE18B9E8683968884290
:102B8000F3D1E868E060EC603078401C3070C9F840
:102B90000040404604E000210E2045F011F90020DD
:102BA000BDE8F087B0230020B423002070B50546AF
:102BB0000024287E85F87200012634E0686D427A90
:102BC00095F872002B7EA0F12501A3F1250006FAED
:102BD00001F106FA00F0014322EA01011C2212FB76
:102BE00004F201F00701A81841F02401242980F81B
:102BF000721016D1272180F8721012E0002C08BF45
:102C00000328DBD145F008F9297E00F001004118C6
:102C1000491C85F87210C8B22828A4BFC91E85F8BF
:102C20007210641CE4B2E87D411E8C42E6DB70BD8C
:102C300010B504460021207844F072FF08B9422004
:102C400010BD406DB4F8031043780022D80607D5B4
:102C500020290FDBA4F80320C4F80520122010BDA2
:102C6000074803888B4205D2A4F80320C4F8052046
:102C7000072010BD2046BDE81040002145F010B8E7
:102C80006002002010B504460021207844F048FF7F
:102C900008B9422010BD406DB4F8031043780022FB
:102CA000D80607D520290FDBA4F80320C4F8052097
:102CB000122010BD074803888B4205D2A4F80320D8
:102CC000C4F80520072010BD2046BDE810400121B2
:102CD00044F0E6BF600200202DE9F84F05004ED019
:102CE000DFF8E48298F80000092818BF0A2804D009
:102CF0000B281CBF0C280D2801D1212062E1A878E7
:102D0000002144F00DFF040008BF4220F6D0AF4F71
:102D1000A978DFF8BCA2397098F8000010B9A8783B
:102D20008AF8000004F14806F068417801F01201C9
:102D3000022902BF706900280C2012D0607AF0B11D
:102D4000A07B012804D1B5F8030008B1812816DA68
:102D50006878402813DA204645F042F9B06808B98F
:102D600007202FE1B561287801281FD1A07B00281A
:102D70001CBF0128042819D19648007808B91220F0
:102D800020E195494A78824208BF0920F8D0F068CE
:102D9000417848070AD504F1220180204A7F04F1D6
:102DA000380101F0B9FE08B10B200BE1687808B9D1
:102DB000112007E12878DFF82492DFF824B20128F7
:102DC00040F0AF8000212173F166217A012903D1FF
:102DD000B16968794871F4E0012000212072E17244
:102DE0006173254604F03CF96060DBF80000804721
:102DF0007C4A0146106802E06A6842600068002868
:102E0000FAD10846D9F800108847696876484861C1
:102E10000021387838F057FB39780122112038F03A
:102E20004FFBF0684178C80605D5284600F0E2FC63
:102E3000010024D0C6E0688C38F084FB85F82100BE
:102E4000F068007838F04FFB04001CBF94F8B00025
:102E5000002807D0E87F40F02000E877687D40F048
:102E600018006875284638F06BFB0100E2D134B1D8
:102E700094F8B000012804BF284638F03AFBF06807
:102E80004178C8071CD505F14204A18800291CBF60
:102E90003068002814D022788A4211D20F2044F0E2
:102EA0007FFE68B1F06801788DF800100F20A288CD
:102EB000ADF8012021788DF80310694644F080FFB9
:102EC00098F80000A0B94949087800281EBFF068AA
:102ED000417811F0030F03D04548006844F01CFE10
:102EE000112088F800000121297238F0DDFA68E02D
:102EF0002846FFF7DDFD00281CBFB168002960D01F
:102F0000AA7B012A04D02A69808802EB800202E0B1
:102F1000486E2A69821895F8B8101046FFF7D6FC5B
:102F20004FE0207A00284CD0DBF800108847054697
:102F30003878012138F0C7FA00202E4920720A683B
:102F40003E7811460B68187A002802BF586D037846
:102F5000B3421FD0C9689142F4D138789AF8001072
:102F6000884224D104F02AF9616888421FD104F014
:102F7000ABFB40F2014044F0B3FF1F491F4A204819
:102F800008600121107805F0A9FED9F80010284644
:102F9000884716E01B4E30780128DEDD0846FFF733
:102FA000F9FC06F089FA3078411E3170D5E72046E9
:102FB00044F0DAFED9F8001028468847204601F090
:102FC000E1F90020BDE8F28FC80F0020D60F0020E5
:102FD000D50F0020D40F0020780E0020541B0020B5
:102FE000501B00204C0F002085720000880E00202E
:102FF0006C0F0020B0230020480F0020C70F0020D6
:103000006D400000B423002038B51048006800214E
:1030100001E0017200680028FBD10D480D4D0168E8
:103020008847044605E0C16829600022C26006F0B6
:1030300043FA28680028F6D1074A084B2860002187
:10304000117020461C68A04731BD00BF4C0F002006
:10305000501B0020B0230020B4230020541B00206C
:1030600070B51748174C007802280ED12068C46844
:1030700001688288A58883688580A668866025683F
:1030800005602160A280A36070BD032816DB206864
:10309000FFF780FC2668054600E00646F0680168F8
:1030A00028680969006903F0AFFB00281EBFF068BB
:1030B00021688842F1D1F068F560E86070BD00BF1A
:1030C000B4230020B02300202DE9F04144F0A4FEF9
:1030D000364D8046286800281DBF354E30780028C0
:1030E000002061D029680A68107A002841D132781E
:1030F000022A3EDB0846FFF74DFC06F0DDF930788A
:10310000411E317035E002F08BF9296809684B6D7A
:10311000D3F8037027F07F4740F6C4135F434FF0A6
:103120000B0C90FBFCFC0B2303FB1C0080B24FF448
:103130007A640A69604317FA80F082180A610AE02B
:103140000868827B012ADED144F066FE29680A689D
:1031500000F57A601061307802280ADB2868C168BF
:1031600000680A680069116903F04EFB08B1FFF7B7
:1031700077FF286801680969404603F045FB00288D
:103180002968DDD10A68107A0028ABD0506D094B50
:1031900002781A700868016D0069886029680868FB
:1031A0004168026D4A60006DBDE8F081B0230020E7
:1031B000B4230020D50F002010B5184C206844F02F
:1031C00073FE48B30179032926D1007A10F00F0F5E
:1031D0001CBF00F00F01012908D000F00F02022AE5
:1031E0001EBF042900F00F00062815D10C48016805
:1031F0000A6A507880B1C8694078002818BF022850
:103200000AD10848006801784078814204D12068DA
:1032100044F012FC012010BD002010BD8C0A0020DB
:10322000500F0020700F00202DE9F047804608F174
:10323000480517460E46AA68B00702F1A40408F133
:103240002A0918D5E968487810F0030F04BFB9F8C7
:103250001C1000290FD1286868B992F88A0000F084
:10326000FD0082F88A000622EB6803F10C0120467B
:1032700005F065FBA41D300708D5B9F8161004F851
:10328000011BB9F81600000A04F8010BF00608F15A
:10329000210A18D5B9F800109AF800303329E968E6
:1032A0008A7DB4BF40200020511E03F03F03184325
:1032B000C9B2C7F30C07207047EA413767703F0473
:1032C0003F0EA770E41CB00604D52146404638F0F6
:1032D00014F9123470060ED50849094BC86B4169C0
:1032E00008689AF8082002EB420281561A6892F99F
:1032F000040041182170BDE8F08700BF5881040028
:10330000400F00202DE9FE4F0446002000900025CC
:103310000CB905F0D7FA04F1500841F62300D8F8AB
:10332000007038807D8002223A737A7369462046A5
:10333000FFF7D8FB08B9072051E2009901B1B86046
:10334000B8682061DFF89C04017884F8B810D8F8D8
:103350000400407A00F0D0FB25302076207EB87340
:10336000FD73D8F80400017D022904BF002005F098
:10337000A9FAD8F80400007D012802D1002000211C
:1033800004E083280CBF06200220202138747974C1
:1033900004F12406DFF850A4DAF83C00416908681B
:1033A000717901EB41010844B0F801207A82D8F824
:1033B0000400417848060AD5607DC10604D5E07F47
:1033C00040F04000E07702E040F04000607507F117
:1033D0005C0904F1300089F80050B17E890001F0E9
:1033E000040189F80010B866607DC10656D5D8F88A
:1033F000042051788A060CD500F0FE006075D8F8DC
:103400000400417811F0030F03D1E07F00F0FE00CB
:10341000E077607D44F060FBA075421C387CC0F30F
:103420008001002392B200F0030044F04DFBA08322
:103430001E20A28B02F59B7393FBF0F01E2101FB73
:103440001030C0B208B1C0F11E00821802F59B72A4
:1034500062831E20A28B02F5967293B293FBF0F06A
:1034600001FB1030A283C0B208B1C0F11E00801869
:10347000A08380B2E27D618B521E5043401860836E
:1034800007F13005608BB43080003866062089F87B
:103490000300E17F41F00801E17720E040F0010006
:1034A0006075D8F804104A78510744BF40F0020014
:1034B0006075607D44F010FBA0750023401C82B253
:1034C000387CC0F3800100F0030044F0FDFAA083D3
:1034D000A08B00F59670A0833D6689F80350A17D0E
:1034E000207D61F3050007F1880120750870032233
:1034F000607D48708A70B07E800000F0040040F06B
:1035000003008870F27ED20002F008021043887037
:103510000020C870C7F89000B08BC0F30B00B083D8
:10352000D8F80410CA7D40EA0230B0830022617DE1
:1035300001F0FE012046FFF777FE019700271EE00D
:103540001C2010FB07F004EB000B01991C220BF16F
:10355000640005F0F4F90BF16C00052101717F1C8A
:10356000A28B92000260FFB2DAF83C104A6911683F
:10357000737903EB43031944B1F801204281E07DE4
:10358000401E8742DCDB019F2046FFF70FFBE07DFA
:10359000012809D013D3032808D03EBF04F16400EA
:1035A0007860C8F818500AE07D6008E004F1640013
:1035B000786004F18001C8F81810C8F8345041F65A
:1035C000240038860021798607F13C05B868618BB4
:1035D00000EB8100B863022182202870697000210D
:1035E00094F82100E97000F03F00A870D8F80400BA
:1035F000807D012818BF022803D100F07F00401E03
:1036000004E083280CBF0620022020212871697164
:103610004FF0000BDAF83C0041690868727902EB60
:1036200042021044B0F80110E980C7F86CB0D8F835
:103630000400417811F0030F20D044F0D5FAF86669
:10364000DAF818000078C107DAF8181009784CBFCA
:103650001F200F208A07DAF81810097848BF40F0B9
:1036600020004A07DAF81810097848BF40F04000F7
:103670000A0748BF40F0800089F8140089F815B0A7
:10368000D8F80410594A897C01F0030189F8151013
:10369000B07E800000F00400014389F81510F07E30
:1036A000C00000F00800014341F0100189F8151036
:1036B000107838B199F8140000F0FE0041F0400194
:1036C00089F8140089F81510E07F44F005FA84F8B1
:1036D0002000204644F044FCE07FC10636D5D8F8EF
:1036E000040094F820204178521C88074EBFD21E57
:1036F000F07F12182879C0F380010023D2B200F0C5
:10370000030044F0E1F930801E22308800F5967005
:10371000C0F11E0190FBF2F21E2000FB021131717C
:10372000D8F804104878810731884CBF00204FF446
:103730009B70401830807080B86B31883279521895
:10374000A63200EB82007867022002E0C7F874B06E
:10375000002089F8170004F13000C7F8800007F155
:103760008400D8F804104A78510707D504F13802CC
:10377000026099F8150040F0200007E01C490A6833
:103780005168016099F8150000F0DF0089F8150014
:10379000A17F94F8200060F30501A17740F60B00AB
:1037A0002882A5F812B0DAF8380000888000786521
:1037B000DAF83800008800B10720287702206877FF
:1037C00094F84510E983D8F804004178880744BF8D
:1037D0000121E983009808B1FFF7F8F80020BDE85F
:1037E000FE8F00BF5023002058810400880E002067
:1037F0006C0F00202DE9F84F0446002000900CB912
:1038000005F060F804F1500569462E682046FFF780
:1038100069F908B9072015E1A04641F28839DFF8B7
:1038200028B2DFF828A2002469684A7A1820604389
:1038300001233718A3401A420AD098F80E103AF81C
:103840001100388000211BF80420BA73F97302E0DC
:1038500040F6010038800021798007F11800786077
:10386000387B00F0EF00387340F08000387398F830
:103870000E10012916D1397B002C0CBF0220052027
:1038800001F0F0010843387324B944F0C5FA00F59B
:103890007A6000E04846B860787B00F0F00040F0C5
:1038A000020017E0002C0CBF0221002100F0F00004
:1038B0000843387324B944F0AFFA00F57A6000E0A9
:1038C0000020B860022C797B0CBF0120022001F09F
:1038D000F00108437873641C06F14800386106F172
:1038E0006801032C79619FDB98F80E000024012801
:1038F00008F1A80718D108F19C007063182231461E
:1039000005F01DF806F118002865C5F854903978BF
:1039100001F0F00141F005013970787800F0F00015
:1039200040F00200787000E07463B068C8F81000DE
:1039300047480178397444F057F9B06445488169C3
:103940000978CA07826912784CBF1F210F2193079B
:103950008269127848BF41F02001530782691078CC
:1039600048BF41F04001020706F14C0248BF41F058
:103970008001117054706968887C00F0030008F1C0
:103980003E0150700B7863F3820050704978947058
:1039900061F3C3005070D47040F010005070346573
:1039A000746508F13800F06598F80E00012818BF1A
:1039B000042815D0A86830B1B0F803009070A96849
:1039C000D1F805003065E86830B1B0F80300D07078
:1039D000E968D1F8050070651F4801684868F0651E
:1039E00008F13000B065D07D00F0EF00D07540F0F8
:1039F0008000D07500F0F00040F00600D075286916
:103A0000B0F8030000280EBF144849F6404148436F
:103A100070661349087838B15078117840F040004A
:103A200001F0FE01507011700E498B7850785906E4
:103A30004CBF40F0200000F0DF0050700098FEF70F
:103A4000C5FF0020BDE8F28F506E0210F46B02102B
:103A500050230020588104006C0F002000204E00ED
:103A6000880E0020C00C002070B5214B214D197824
:103A700001F00104C1F340010C191978C1F3800170
:103A80000C190022A97B2539060018BF0128C9B2EC
:103A900001D01E2070BDE4B2012C11D0040003D16E
:103AA000022910D04A1C05E001280CD109B90222D4
:103AB00009E04A1ED4B2022C05DDD0B2032815D18C
:103AC000084670BD00221C78012595402C42F4D197
:103AD000040004D1D4B2022CF4D0521CEAE701282D
:103AE000E8D1D4B2002CE2D0521EE3E770BD00BF93
:103AF000F8100020E80B002038B5044601F090FCD7
:103B000004F00102C4F340018A18C4F380018A184A
:103B1000D2B290FBF2F102FB11010025C9B20020E4
:103B200001228240144203D0EAB28A4204D06D1CC2
:103B3000401CC2B2032AF3DBC0B232BDF0B5124B57
:103B40001B7890FBF3F403FB1400FF2100220023F9
:103B50000E4C0025E65CEE40F70704D5D6B287B2DE
:103B6000BE4209D0521C6D1CEEB2082EF2DB5B1C6B
:103B7000052BEEDBC8B2F0BDD90051FA85F1CDB20C
:103B8000FF2DF7D1F3E700BF70230020682300204A
:103B900038B504460D4600210C4A2172107810B148
:103BA000204644F0E1F8204600F0ECFB3C2D18BF25
:103BB000432D0AD106488178880706D52946204634
:103BC000BDE83840FF2244F077B931BDB42300206E
:103BD000200E00202DE9F84F054605F14C0AE87D3E
:103BE0009AF80010DAF8047081424FF00008C0F033
:103BF000938105F1280407F1900907F17306C34684
:103C000040F08C80A87F7075E97FB175DAF80820E4
:103C10005278930710D5EA7FD30604D5C01E70757D
:103C200001F0EF01B175C7F874B086F8008000228A
:103C3000B17D01F0FE016AE1910608D4E08B00B18C
:103C4000E07E3076E08B00B1206AC9F80000DAF837
:103C500008004178CA070DD5E08B00281CBF206AF8
:103C6000002807D0C9F80000A17EE08B814238BF50
:103C700008463076E87FC1060CD5B86B217800EB9A
:103C80008100B863B86BA98CA63100EB810078671E
:103C9000022002E0C7F874B000203070DAF80800A3
:103CA000417811F0030F22D1007837F01CFC5FEA55
:103CB00000081CD098F8B000032809D1E87F8106DD
:103CC00015D440F02000E877B07D40F020000DE0F2
:103CD00068B9E87F81060AD500F0DF00E877707DDB
:103CE000A0F112017175B07D00F0DF00B075E97FC1
:103CF000002201F0FC012846FFF796FAB8F1000F08
:103D000036D0E87F810633D598F8B00002282FD14D
:103D100041462846BDE8F44F37F0E9BBE87F81060D
:103D20000AD500F0DF00E877707DA0F1120171750F
:103D3000B07D00F0DF00B075DAF808004178C80700
:103D400017D5B07D717D00F0F700891E01F03F01AD
:103D500082075CBF891D40F00200420644BF491E35
:103D600000F0BF00B0757175C9F800B086F8188012
:103D7000D2E09AF80020E87D121AD2B289070092A8
:103D800040F18280012A07F140083FD1B86BA98C2D
:103D900000EB8100B863A87F00F03F00A877707542
:103DA000E97FB175DAF8082053785A0703D5801FE8
:103DB000707501F0FD01B1750023707DE17E00F0AA
:103DC0003F00421898F80000521CC0F3800192B2E4
:103DD00000F0030043F078FE00F59B70A8841E21DC
:103DE000A88C90FBF1F18AB2B17D01F0FE0128466A
:103DF000FFF71AFA86F800B0E08B00B1E07E30766B
:103E0000E08B00B1206AC9F8000085E0B86BA98C8E
:103E1000022A00EB8100B86326D1E87FC10706D5EE
:103E2000707D811F7175B07D00F0FE00B0750023BC
:103E3000707DE17E00F03F00421898F80000521CAF
:103E4000C0F3800192B200F0030043F03DFE00F5A4
:103E50009B70A8840022B17D01F0FE012846FFF787
:103E6000E3F9607FA8F81A00617F0098491C081ADE
:103E7000C0B201281CDDB96BAA8CA63201EB82010D
:103E800079670221317014E0B86BA98C00EB8100D6
:103E9000B863617F0098081AE97FCA06C0B207D5E7
:103EA000B96BAA8CA63201EB8201796702213170CD
:103EB00090B395F81F80A97FD9F80020E37E1A44BB
:103EC000C9F8002028F00108DAF8082052785307D2
:103ED00048BF28F00208920748BF28F008080128C8
:103EE00007D1207F3076C7F874B028F0100886F824
:103EF00000B001F0C004404643F0EEFD00F03F008A
:103F00002043707586F81680002208F0FC012846D0
:103F1000BDE8F84FFFF788B9BDE8F18F2DE9F04112
:103F2000044604F1500500202E68708006F17308E5
:103F30006968487AFFF7E0FD2530207604F1220712
:103F4000207EB0732046FEF731FE207D88F81500F4
:103F50000020617D88F8161088F81800C6F89000D7
:103F60003888401C388080B237F0ECFA84F82100A1
:103F70006868417811F0030F42D1007837F0B3FA46
:103F800000283DD000F1B0010878032806D1E27F77
:103F9000930603D442F02002E27731E001280ED1EB
:103FA000E07F40F02000E077607D40F01800607511
:103FB000204637F0C5FA204637F09BFA20E008B1DA
:103FC0000879E8B1E07F00F0DF00E077A86800281A
:103FD00004BFE868002810D16868007D83280CD0F1
:103FE000617D03280A4607D0C80648BF01F0EF02EA
:103FF000100748BF02F0F7026275204637F0A0FABA
:10400000617D002201F0FE012046FFF70DF900203E
:10401000708606F13E0094F8211001F03F01017016
:10402000B168628B01EB8201B1630021018294F8D7
:104030004520828369684A78910709D5BA887A80D1
:10404000A17F01F03F0141F08001A177012181832F
:10405000E07FC10608D5B06B7988A63100EB8100FE
:104060007067022088F80000BDE8F0812DE9F0417A
:10407000DFF85C8198F80000002143F051FD040056
:1040800004F1500602D104F01DFC91E0207A08B939
:10409000002140E0217B491C21733069407920B127
:1040A000C9B2814208BF432135D004F13E07002048
:1040B000B8730B2501F0B4F97168D1F80320D4F876
:1040C00010E022F07F4240F6C41303FB02EE90FBA7
:1040D000F5F50B2202FB1500D6F800C080B24FF4B4
:1040E0007A6148431EFA80F0CCF8080033683948FA
:1040F0009968216133690268B3F8030000281FBF83
:10410000706E0028A37B012B0CD0938801EB8301F8
:10411000814207D33C212046FFF73AFDBDE8F0413C
:1041200037F0C2B92C4D2878012809DDD068016824
:1041300010680969006902F067FB08B1FEF790FF9B
:1041400070684178C8061BD5A17B01290CD10022DB
:104150002272287810B1204643F006FE1F480078EE
:10416000022104F0BBFD0EE0306890F8631001F00E
:10417000E00141F0860180F863101949416602E0D0
:10418000204637F0E3F91749087888B138780228D3
:1041900018BF03280CD1144F38680D3043F044FE8B
:1041A00030B93868C11D062204F1300004F0C7FBA5
:1041B00037F07AF94CB17068017E480605D5414662
:1041C000BDE8F041032043F0FBBDBDE8F08100BF36
:1041D000D50F0020B0230020B4230020C70F0020FB
:1041E00000204E00880E0020680F00202DE9F843C3
:1041F0004F4C2168087B68B943F07AFC2168096A52
:104200000878002804BF8888002840F080800021BA
:1042100009207AE0474D484E0020688043F0FCFDBD
:1042200000F6C410009020683278C16902EB820267
:104230008818C1888088814202BF404908790128D6
:1042400065D03F4F0099386A02F0DEFA68B1786AAB
:1042500018B1009902F0D8FA38B10098A860216826
:104260000868BDE8F24303F047BA0020FFF7FCFB03
:104270002530A87340F6C4122168C86990F802C0BE
:104280003378BCF1050F48D183F00103337003EBA1
:104290008303C86903447879DB7863F3410078715C
:1042A0003078D1F81CC00B6900EB80080CEB0809D2
:1042B000B9F804C002FB0C3CC5F808C0C1F810C036
:1042C00043002B7438BB6874A8683578CB6905EB5C
:1042D00085055E19F38802FB03023A62194A1078D9
:1042E00088B1887A022818BF03280CD1164D286897
:1042F0000D3043F099FD30B928682368C11D0622AE
:10430000181D04F01CFB00210A2043F059FDBDE8F4
:10431000F14337F0C9B82020D5E703EB83031844F5
:10432000D1F810C0808802FB00C0A8600861CBE70C
:10433000500F0020E80B0020D80F0020A8230020F9
:104340008C0A0020880E0020680F002001780129C7
:1043500008D002290AD004290CD0082904D0102939
:1043600006D009E0FEF7B0BE37F0C5B80348704785
:1043700037F0CCB80248704740687047E80B00201F
:10438000040C002010B50446A07A00F0E1FD50B105
:10439000617B8A0707D5017B41F001010173607BD6
:1043A00000F0FD006073616D087E020607D5607B3A
:1043B000C20704D4BDE81040012043F001BD10BD88
:1043C00010B5010018BF012803D002281CBF062821
:1043D000002015494FF4C1520A8000234B8000226F
:1043E0004A608A600A73CA7301234B7388730F4A49
:1043F0000F4813880B82C26B0E4B52684A61C26B26
:1044000092688A61C26BD268CA61C26B12690A6221
:10441000C26B526910681C7804EB44042044B0F865
:1044200001204A8210BD00BFEC0A0020A00F00202E
:1044300058810400CA0F0020F8B58AB002A81C49B0
:104440001C4D1D4C202242F08FFD0026CDE9006658
:104450001A482E68006856F8607F002302AA214699
:10446000B847174AC2E900016188ADF80010BDF8ED
:1044700000000028F9D0B1F5A05F05D0002004F0BD
:1044800021FA892043F000FC0E490F4BC8680F4CFD
:104490004288187802432280C868007881060C4957
:1044A00043BF0C480068400A002008700BB0F0BD04
:1044B000F0800400200F0020EC0A00201C0F0020D8
:1044C000600E002058810400C40F0020A00F0020BF
:1044D000C90F002080130050F8B590B004460D4677
:1044E00008A82049202242F03FFD0020ADF80A0034
:1044F000039040F603079DF815109DF81400ADF8E1
:10450000087001F0F001002200F0600041F00101AC
:1045100004928DF814008DF81510ADF81650ADF812
:1045200018208DF81A408DF81B200792CDE9002243
:104530000D4C0E482568006855F8606F002308AAE6
:1045400002A9B0470A4AC2E90001BDF80A00B0F565
:10455000806F05D0002004F0B5F9882043F094FB6B
:1045600011B0F0BD10810400200F00201C0F0020AE
:10457000600E00201CB50F490F4CCA6B53691A68B6
:1045800000EB40000244B2F8013063821022ADF823
:1045900000200A4BCA6B52691168094A1C6808441A
:1045A0006946B0F80100ADF80200106854F8242FF5
:1045B000904713BD58810400EC0A0020200F002012
:1045C0001C0F0020F8B504461646FF2730000D46A4
:1045D0001DD0104908688047014604202318421E58
:1045E00093F87630FC2B08D1F3B22B44204413F817
:1045F000013C80F87630761E1746D0B200281CBFEA
:10460000F2B2002AEAD1084603490A689047F8B294
:10461000F2BD00BF501B0020541B00202DE9F041CB
:10462000054614480E460168904688470124002735
:10463000291991F87710FF2916D0002200E0521CAA
:10464000D3B216F803C0BCF1FF0F0AD06145F6D112
:104650002A19FC2182F87710F9B2F35C08F80130CE
:104660007F1C641C042CE3DB03490A689047F8B202
:10467000BDE8F081501B0020541B002070B504469B
:1046800004F1380004F190060178174D417030783C
:1046900001281AD120897288401C904215DB04F150
:1046A0006101204643F014FAD4F89C112046884753
:1046B0002A68A1795054A0792A68125C04F161013A
:1046C000FCF700FF0220307006E0D4F89C11204671
:1046D00088472A68A17950542868A179425C2068EB
:1046E00041688A7370BD00BFB823002070B50446CE
:1046F000C0B200F023FC0546E0B200F029FC0646FB
:1047000005F5CB700178012916BF02294C1E8C1EBD
:1047100001796879022908BF002108B9FF2070BD1E
:10472000307CC2070FD495F894300022E0B243F0F9
:10473000CBF9716980B241F6583201F0004102EBC9
:10474000C00211437161002070BD0000F8B58B48B4
:104750008B4D01782A788A4200F00E816A68002425
:1047600000E0641C8C4280F204814FF4D0736343F8
:10477000134418790028F4D1E0B200F0DFFB0121E6
:10478000017100224271426200F1610184710122D3
:1047900000F168034A711A71012400221A609A60BC
:1047A00000F1900602814281047480F83920826110
:1047B0000277C283327000F592749A762275802750
:1047C0001F739A730027FF22DF741A7600F20D130D
:1047D0001F70DF70BC46BE4600F5897783F801C0C4
:1047E00083F802E0A7F800C0A7F802C087F805E048
:1047F00000F1E70386F804C083F800C083F801C025
:1048000000F1EC03C3F800C0C3F804C083F80AE069
:1048100083F80CC083F808C083F80DC083F80EC07D
:1048200083F80FC0A7F808C0A7F80AC0A7F80CC003
:10483000A7F80EC047F23057A76100F5C676C4F856
:1048400000C02273A4F80EC084F81CC084F81DC0F8
:10485000A2770127B7720227F77286F80EE086F872
:104860000CC0484FDFF820E13F78777386F806C028
:1048700084F80AC084F804C084F805C084F806C02F
:1048800084F807C084F808C084F809C000F5B37440
:104890003E4F84F800C086F800C04FF01B0C3F88E4
:1048A000E7803B4F3F882781BEF800706780394F13
:1048B0003F88A780A4F80AC04FF4A477E781278235
:1048C000A4F80CC0E7822783A4F812C0A4F814C08F
:1048D0006783A783E78327846784A784A6F802C039
:1048E0000127377100240719641C042C87F87720EE
:1048F000F9DB294A14780C7057784F7094788C70D3
:104900000446D778CF7012790A710021234A5018D3
:104910006718407887F8FD00491C0829F7DB204814
:10492000306100211974A07900F012FB0646A079CD
:10493000FFF7DCFE1B480178307C717300F0FC004F
:1049400030740022B069F28100F0004040F48530FC
:1049500040F04000B061307F00F0F80030772878F8
:10496000401C2870C0B2012804BFA079A87020465E
:10497000F2BD002003F0A6FF0020F2BDD40F0020FE
:10498000780E0020C50F00208A0F00208C0F002019
:10499000980F0020960F002060230020C00C0020FC
:1049A0004DE50110F410002070B5254E0446306826
:1049B000A2792C2500F11C016A43885808B104F043
:1049C0007BFDA179306869430144886A08B104F02D
:1049D00073FDA17932686943505C00281EBF194BF2
:1049E000D869002803D00023535436F066FDA3791C
:1049F000306815FB03F52C220021284403F0D1FF79
:104A000011480078082818BF072803D1A17901228E
:104A100036F056FD60790D4D40B100216171687826
:104A200008B903F04FFF6878411E69702878401E6E
:104A30002870C0B208B9FF20A8700021217170BD94
:104A40007423002078230020C80F0020780E002057
:104A500038B50446C0B200F071FA0546E0B200F085
:104A600077FA697909B9FF2032BD017CC1F34001B1
:104A700039B96A8E40F6C4114A43816962F31E0156
:104A80008161002032BD0000F8B543F0C5F905464C
:104A900005F6C41500261E4F00E0761C3978F0B2EA
:104AA000884232D200F04AFA044660790028F4D0F5
:104AB00018490A68A07910702946204643F018FA70
:104AC00020680178402902BF04F1820001780129A1
:104AD00002BF41886289914205D1A169C088091845
:104AE000204600F0B9F9A079FF2136F025FDE089D4
:104AF000B4F862114008884205D3207C18B9A07927
:104B0000012136F0E7FCA079F2BDFF20F2BD00BF25
:104B1000D40F0020340F00202DE9F04705460E4643
:104B2000924680281EBF4028002003F0CBFE3C495F
:104B3000487850B33B480078002142F0F1FF040070
:104B400004BF002003F0BEFE802D21D1616D4878A6
:104B5000C20604D5A27B012A18BF042A1FD000F088
:104B60001402042A1BD0C20606D5A07B20B9887C7B
:104B7000022818BF032816D0487810F0140F04D16B
:104B8000887C022818BF03280DD00020BDE8F087DC
:104B9000402DFAD1244801684A69107808B90124E7
:104BA00002E00128F1D100240027204DDFF88080A9
:104BB000DFF880901BE08879504502BF0B78307891
:104BC000834213D148787278904202BF8878B278D5
:104BD00090420BD1C878F278904202BF08793279BE
:104BE000904202BF48797179884217D07F1C99F8AA
:104BF0000010F8B28842C8D200F0A0F90146487906
:104C00000028F3D0002C01F59471D4D18A79D8F81A
:104C1000000043F03DF829788842E7D20120B5E74B
:104C2000780E0020D60F0020540F0020D42300203F
:104C30006C0F0020D40F002003490A78022AA4BF79
:104C400000210167704700BF780E002038B50400CE
:104C50000D4608BF03F036FEA079294643F068F9F7
:104C60002046FFF7E9FF204642F0EEFEBDE8314066
:104C700036F01ABC30B50F4800210022431CCCB2DC
:104C8000491CCDB21A55082DF9DBD02141723022D2
:104C900082727821C17208220273002141738173EC
:104CA000C1730174FF218278417042F05902827011
:104CB00030BD00BFC00C002038B504460B4A6088E8
:104CC00013880025834238BF8A200AD3884238BF20
:104CD0008B2006D343F03CF9A06008B1012502E027
:104CE000812043F04DF8284632BD00BF3823002014
:104CF0002DE9F84F07460C4615469A46C0B200F01B
:104D00001DF98346F8B200F023F9074601263879E9
:104D1000DFF83C81DFF83C91012802D0022859D00D
:104D200094E0BAF1020F0AD1002078803880022284
:104D30003A71B86804F010FA0020B8604DE0388885
:104D400002280FDB7A8841198A420BDA002078802A
:104D5000388002223A71B86804F0FEF90020B86089
:104D60008B203DE001280CD128000AD079882078DA
:104D7000091D41EA0021798038462946FFF79CFF4A
:104D80000646B868002861D0012E5FD13B882A46CC
:104D90002146184403F0D3FD38882D183D80ADB26C
:104DA0007A88954252D19BF87410802917BF8129C7
:104DB0007F2199F80000091A49B200915346B96859
:104DC00098F80200FCF72AFB002078803880022245
:104DD0003A713BE0BAF1020F38D1280004D18C209F
:104DE000BDE8F24F42F0CCBF012D03D13D802178C8
:104DF00079802AE021786078091D41EA00217980D4
:104E000038462946FFF758FF0146B868F0B1012936
:104E10001CD12A46214603F092FD7A88954211D191
:104E20009BF87410802917BF81297F2199F8000011
:104E3000091A49B200910223B96898F80200FCF7F8
:104E4000EDFA03E038882D183D803E71BDE8F18F02
:104E5000780E0020C90F002010B50268536814694D
:104E600040F6C41202FB01449C6081614FF4C87398
:104E7000428A5143B1FBF3F1491C416101684B681F
:104E80009A684169521A9A6001684B689A688A6008
:104E9000BDE8104000F000B87CB5044604F186017E
:104EA00042F0F2FD04F182050021688960842177D7
:104EB000E18304F12E066189E0894118A1812A89E4
:104EC000B188A8898A4204BF3389984202BF6B899E
:104ED000F1888B4206D0000900906B89A1795208B5
:104EE000002004E0000900905208A179302042F02F
:104EF0001BFEB088A4F86401297931702889B0803C
:104F00006989F180A8893081204642F009FF02209A
:104F1000287073BD044B1B6D2BB143F8220001F1C7
:104F2000045141F8280F7047FC100020024A5268D3
:104F30000AB142F821007047FC100020034A536870
:104F40004FF4D07148431844704700BF780E0020DA
:104F500002490A6802EB4010704700BF542300204A
:104F600038B5784D687904F097FA774900280860D9
:104F700063D00022026002730868C2610262A879ED
:104F800004F08AFA71490028086056D000220260B5
:104F9000C27200200A681074052308684374002256
:104FA00009684A61E87A04F077FA694900280860DC
:104FB00043D0684C21782878491D10FB01F080B25D
:104FC00004F06AFA64490028886036D02078002806
:104FD0006FD0698811FB00F080B204F05DFA5F4A7F
:104FE0000028506029D05E482278017811FB02F039
:104FF00080B204F051FA5B49002808601DD00025FA
:105000000AE0E8B2FFF7A4FF00214180816001803F
:105010000223037101736D1C2078E9B28142F0D341
:1050200004F03AFA50490028086006D02078400081
:1050300004F032FA4D49002808607CD020781C2109
:1050400010FB01F080B204F027FA494A00281060F2
:1050500071D02078400104F01FFA4649002808600A
:1050600069D0102004F018FA43490028086062D083
:105070002078000104F010FA4049002808605AD056
:10508000302004F009FA3E490028086053D0207807
:105090002C2110FB01F080B204F0FEF9394A0028FF
:1050A000106048D0207804F0F7F9374900280860EC
:1050B00041D0364C364D2178287800EB4100C000B5
:1050C000103080B204F0E8F932490028086032D08C
:1050D00000F1080141602878227800EB4200C0000E
:1050E000103080B204F0D8F92B49086018B300F1F1
:1050F000080141601E212078401C10FB01F080B2A5
:1051000004F0CAF9254A1060A8B1082004F0C4F9D7
:10511000234C206078B1062004F0BEF921680860B5
:105120002168086838B100204860062004F0B4F90E
:105130001C49086008B9072032BD36F0C7F900B134
:10514000002032BD64110020500F0020540F0020B9
:10515000440F0020D40F0020E4230020780E00200C
:105160007411002054230020340F00204823002015
:10517000980E00209C0E0020A00E0020A40E0020FF
:10518000A80E002074230020B8230020D52300207F
:10519000D42300206C0F0020700F0020680F002027
:1051A000E0230020400F002010B53448006808B10B
:1051B00004F082F93248006808B104F07DF9314802
:1051C000006808B104F078F92F48806808B104F04D
:1051D00073F92E48406808B104F06EF92C48006855
:1051E00008B104F069F92B48006808B104F064F9CB
:1051F0002948006808B104F05FF92848006808B140
:1052000004F05AF92648006808B104F055F9254819
:10521000006808B104F050F92348006808B104F0B0
:105220004BF92248006808B104F046F920480068AC
:1052300008B104F041F91F48006808B104F03CF9D6
:105240001D48006808B104F037F91C4C2168086853
:1052500010B1086804F030F9206808B104F02CF9A6
:105260001748006808B104F027F91648006808B12B
:1052700004F022F9BDE8104036F027B9500F0020A5
:10528000540F0020440F0020E4230020780E00205B
:1052900054230020340F002048230020980E0020C3
:1052A0009C0E0020A00E0020A40E0020A80E0020BE
:1052B0006C0F0020700F0020680F0020E0230020FA
:1052C000400F0020742300202DE9F0411C4CDFF832
:1052D00074801D4D07462021404600F0A6F8236843
:1052E00053F8386F202241462846B0472368174EAE
:1052F000174C394653F83C7F41223046B847154F8A
:10530000396851F8102F204690471349134AC86B4B
:10531000006C20606560A66021463B68106853F809
:10532000182F0F4D9047286010B1002003F0CAFAE3
:105330002021404642F08CFC286840B2BDE8F08154
:10534000280F0020540B0020340D0020440D0020B5
:10535000F00D0020240F002058810400580F002079
:105360005C0F00202DE9F843234D244C2B68DFF817
:10537000909053F8386F07468846202249462046C9
:10538000B0472B681F4E394653F8387F41223046CC
:10539000B8472B681C4F53F83CCF41224146DFF8F9
:1053A0006C801B4D3846E047D8F8001051F8142F98
:1053B000284690471749C86B006C28606C60AE6047
:1053C000EF602021484642F043FCD8F80020124804
:1053D00052F81C3F0068114C294698472060202154
:1053E000484642F035FC206810B1002003F06AFA0C
:1053F000206840B2BDE8F283280F0020340D002061
:10540000540B0020540D0020640D0020240F0020B8
:10541000940D002058810400580F00205C0F0020DC
:1054200080B536F0BDFFC0B202BD00F01DB800006F
:1054300038B50A4B1C680A4684B0014654F83C5FF4
:105440006846A847064A07481368006853F8084F9B
:105450006946A047C0B205B030BD00BF280F00208C
:105460002C0F00204C2300202DE9F041264D0E4644
:1054700029688CB0044611B9002003F023FA234BAD
:10548000234F21461C68324654F83C6F6846B047AB
:10549000204E3068804780462868694637F03CFED9
:1054A000044639684046884714F1030F24D120216F
:1054B00004A8FFF7BDFF10B1002003F003FA306825
:1054C0008047804628680023002204A937F02EFE7A
:1054D000044639684046884714B1002003F0F2F9C9
:1054E0003068804706462868694637F015FE04464E
:1054F00039683046884703E014B1002003F0E2F930
:10550000E0B20CB0BDE8F081D8230020280F0020C5
:10551000541B0020501B0020114800B501688FB0BB
:1055200011B9002003F0CEF9202107A8FFF780FF72
:1055300037F07AFD684637F0F5FC102042F2107122
:105540008DF80000019107AA02926946002037F009
:10555000E1FC0449086008B903F0B4F90FB000BDDC
:105560004C230020D823002073B501F023018DF8CF
:10557000041001AD0E490F4CCA6108611A448B60DA
:10558000CB604A610D20012681F8200004230A4ADD
:105590000C604D608E6181F82130084B1C681068EA
:1055A00054F8142F904710B1002003F08BF973BD0D
:1055B000100B0020D40D0020600F0020280F0020C9
:1055C000F2B501F023018DF8001014461D46069A2D
:1055D0001349144B08610B604A610D20012781F8C3
:1055E00020000422104BC1F804D08F618D60CC6183
:1055F000CD6081F821200D4A1668186856F8183FCA
:10560000984748B122460021284603F0CAF90020F5
:1056100003F058F9002000E0012005490870F1BDB1
:10562000100B0020D40D0020600F0020280F002058
:10563000DC2300202DE9F843044618480D46016894
:1056400016461F468847226880461078802804F155
:10565000BA0902D14A46012103E0402806D14A4650
:105660000021D4F8EC0042F077FA02E0002003F0C9
:1056700029F904F1C70042F0DFFB3B4632462946D8
:105680004846FFF771FFD4F8EC000549401CC4F808
:10569000EC0040460A68BDE8F2431047501B00206A
:1056A000541B00202DE9F843074615460C461E46BC
:1056B000280004BF002003F005F918490868804756
:1056C0003A6880461078802807F1BA0902D14A4624
:1056D000002103E0402806D14A460121D7F8F00016
:1056E00042F03AFA02E0002003F0ECF807F1C700BC
:1056F00042F0A2FB7019009033462A4621464846E4
:10570000FFF75EFFD7F8F0000549401CC7F8F0002E
:1057100040460A6890470120BDE8F283501B0020F4
:10572000541B0020024940F649600880704700BFC2
:10573000F000002170B5024CA56B2E68B04770BD1B
:10574000FC10002010B5044600F06CF8012807D0CA
:10575000204600F06DF801281CBF204600F0ACF890
:10576000002010BD38B514461D46E00648BF00F0C5
:1057700099FB600548BF00F0C7FB60030BD500F044
:10578000D3FB012805D000F0D7FB012818BF00F09B
:1057900007FD24F40024200348BF00F011FD20027F
:1057A00003D5002000F0C2FD04E0A00344BF0120A7
:1057B00000F0F2FD14F0030F0DD000F0B5F8012851
:1057C00009D000F0B9F8012805D000F01FFA01282F
:1057D00018BF00F0A9FA200405D5114890F8201050
:1057E000491C80F82010002C48BF00F091F815F0FB
:1057F000E24113D015F0045314BF012400242046C5
:1058000000F010F8012809D0204600F011F8012816
:1058100004D02046BDE8324000F04EB831BD00BF94
:105820007823002080B501F04FFF002002BD00006A
:105830002DE9F04104461948194E0278194F012507
:10584000112A02D0122A1AD024E0DFF85C8098F8DE
:105850000000002142F064F9144A117811B10020CF
:10586000107018E0B8B114B9FDF78EF898B198F837
:1058700000100022112035F023FE0D4804E014B979
:10588000FDF782F838B10B4838600121307803F019
:1058900025FA00E000252846BDE8F081C80F002069
:1058A000C70F0020480F0020D50F0020DD23002067
:1058B0006D400000EDB4030010B50F490A780124D3
:1058C000072A16D10D4A117811B10020107011E08D
:1058D0000B498A78FF2A0DD010B9FDF755F848B169
:1058E0000849094A094808600121107803F0F6F9CF
:1058F00000E00024204610BDC80F0020DD2300205A
:10590000780E0020480F0020C70F0020DBB40300F2
:1059100080B5002002F0D6FF822042F0B5F9BDE844
:10592000014042F06DB9000002480178481E8041F4
:10593000C00F7047C80F00202DE9FE4F01200190D5
:10594000A74EA848A84F0278112A02D0122A0DD0DB
:1059500040E1A64C2078002142F0E2F8A449054637
:10596000087810B100220A70FCE0002D00F02581BB
:10597000A048DFF88482DFF8849238600122217821
:10598000112035F09DFD286D696D009141F60802EA
:10599000009B9B495C78E30640F1E680044641F2B7
:1059A0000443B4F802C09C451FBFB4F81AE09E45FA
:1059B000B4F832C09C454FF4A05A1CD095F80EC0E4
:1059C000BCF1010F04BFB5F89EE09E4513D0B4F8BA
:1059D00002E041F20A439E451FBFB4F81AB09B454E
:1059E000B4F832E09E4506D0BCF1010F04BFB5F813
:1059F0009EC09C4503D13380C7F800803DE0002362
:105A000040F2FE3B4FF0180C0CFB03FCA444BCF826
:105A100002E0A6F800E0BEF1010FF3D0BEF1000FE6
:105A20005FD0AEF1020EBEF1010F5AD9BEEB0B0EE4
:105A30001AD04FF48063BEEB030363D04FF4406B86
:105A4000B3EB0B034DD09B1E012B4AD91B1F48D033
:105A500040F2FA3BB3EB0B0379D05B1E6BD0D81E40
:105A600050D0001F4ED077E0B4F800C040F6010ED1
:105A7000F44536D15B1C022BC4DD386840452FD17C
:105A8000A06C0168A06C01F1080501680879032881
:105A900004BF94F86C0001281AD1D5F80E00002834
:105AA0001CBF288B002813D095F8220010F0E00FBF
:105AB0000ED105F11E0042F0AFF8012808D1688B25
:105AC000298BAA8B401C89004843B0EB021F70DB76
:105AD000A6F800A0C7F80090A06C0168002008712B
