:020000022000DC
:1070000000000420F9020500210305001D210500F0
:1070100025030500270305002903050000000000E3
:1070200000000000000000000000000079370500AB
:107030002D0305000000000099370500310305000D
:10704000D9540500330305002D5A0500D55A050013
:107050003303050033030500AD5805003303050075
:107060003303050033030500330305003303050034
:10707000330305006D7D0500330305003303050070
:10708000330305009D380500330305003303050075
:1070900033030500330305007176050061F3050035
:1070A00033030500330305003303050033030500F4
:1070B000330305003303050000000000000000005A
:1070C00033030500330305003303050033030500D4
:1070D0007D8C0200330305003303050033030500F4
:1070E00033030500330305003303050000000000EF
:1070F000000000003303050000000000330305001A
:10710000000000000000000000000000000000007F
:10711000000000000000000000000000000000006F
:10712000000000000000000000000000000000005F
:10713000000000000000000000000000000000004F
:10714000000000000000000000000000000000003F
:10715000000000000000000000000000000000002F
:10716000000000000000000000000000000000001F
:10717000000000000000000000000000000000000F
:1071800000000000000000000000000000000000FF
:1071900000000000000000000000000000000000EF
:1071A00000000000000000000000000000000000DF
:1071B00000000000000000000000000000000000CF
:1071C00000000000000000000000000000000000BF
:1071D00000000000000000000000000000000000AF
:1071E000000000000000000000000000000000009F
:1071F000000000000000000000000000000000008F
:1072000010B5054C237833B9044B13B10448AFF3E0
:1072100000800123237010BDB86100200000000031
:10722000081B070008B5034B1BB103490348AFF324
:10723000008008BD00000000BC610020081B0700A2
:10724000154B002B08BF134B9D46A3F5803A002138
:107250008B460F461348144A121A38F029FB0F4B7D
:10726000002B00D098470E4B002B00D098470020F1
:10727000002104000D000D48002802D00C48AFF397
:10728000008038F0ABFA2000290001F0CFF838F088
:107290007FFA00BF0000080000000420000000008A
:1072A00000000000B86100205C1301200000000015
:1072B00000000000BFF34F8F0549064BCA6802F477
:1072C000E0621343CB60BFF34F8F00BFFDE700BF09
:1072D00000ED00E00400FA05074B1B6AD90702D550
:1072E0000123036070479A0701D50223F9E75B0782
:1072F000F8D50423F5E700BFD46100201FB5154B76
:107300008DF807101B6803934FF000031346C2B1BA
:10731000002302AA0DF1070102932CF04FFD029BFE
:1073200043B10D4B4FF080525A6040BFBFF34F8FB7
:10733000BFF36F8F074B1A68039B5A4006D038F093
:1073400031FF0DF107012CF089FCF3E705B05DF882
:1073500004FB00BF7C59060000ED00E0024B012257
:1073600018680621FFF7CABF206300200B460246BB
:1073700000215868FFF7C2BF08B50648064B074909
:10738000C01AC008000440F0030029F0E3FAFFF738
:1073900091FF00BFFC1B0700C41B070080590600BB
:1073A00010B4074B074C02790749E41AE408240497
:1073B000838944F003005DF8044B29F0D8BA00BF7C
:1073C000C41B0700FC1B0700B159060070B50E4B2B
:1073D0000E4CE41AE4082404054644F00304002299
:1073E0006B68934200D870BD02F1500629689E4236
:1073F000114486BF9A1A92B25022204629F0FEFA12
:1074000029F054F93246EBE7C41B0700FC1B0700C8
:1074100013B5074B074C0090E41AE40824048B8949
:107420000A79054944F0010029F0ABFA02B010BD19
:10743000C41B0700FC1B0700D05906001FB50D4BED
:1074400001A81B6803934FF0000310F005FE0A4BE0
:107450000298B0FBF3F0019B4FF47A7202FB030039
:10746000044B1A68039B5A4001D038F09BFE05B0CC
:107470005DF804FB045A060040420F00032827D899
:10748000DFE800F0020B141D4FF0A043D3F8040511
:1074900080F4F030C0F3403070474FF0A043D3F891
:1074A000040580F4F030C0F3803070474FF0A04303
:1074B000D3F8040580F4F030C0F3C03070474FF0CB
:1074C000A043D3F8040580F4F030C0F300407047C7
:1074D0000120704710B51C4C637E032B02D00E2890
:1074E00007D010BD0E38032809D8DFE800F0020AE3
:1074F0002428164B012218681146FFF7FFFE0023CF
:1075000009E0A26B94F83410012303FA01F10A4256
:10751000F5D10A43A26394F84C20002AE1D1002B54
:10752000DFD00A4B012218680221FFF7E7FE012392
:1075300084F84C30D5E7A26B94F83510E4E7A26BE1
:1075400094F83610E0E700BFD461002020630020EB
:1075500070B5164B164C05461648E41A037E03F028
:10756000FD03E408012B0E464FEA044417D12A46D6
:10757000406903F077F9024630B144F001000E494A
:10758000BDE8704029F0EAB944F00300AA890B492C
:1075900029F0E4F93046BDE87040FFF717BF44F02A
:1075A00001000749BDE8704029F0D4B9C41B0700A9
:1075B000FC1B0700D4610020085A0600255A06006B
:1075C0003F5A060070B5364B9CB00446102200218D
:1075D0000AA81B681B934FF0000313AE38F068F93C
:1075E000012500211C2214A81391039538F060F99D
:1075F000202231460AA804F0FBFF21460AA810F019
:107600008BFF284B284C18681B798DF814300D9B84
:107610000490CDE90636254EFF2231460AA804F033
:10762000E7FF04A906AA0AA810F09FFE204B9DF9C7
:107630002810E41AE408240461B10A4644EA05006B
:107640001C4929F08BF9164B1A681B9B5A4024D011
:1076500038F0A8FD03A80191FFF73EFE0D9B0199AC
:10766000099310220FA8089638F022F9039B0E9375
:1076700002238DF83C3040F20133ADF8463044F03F
:1076800003003C230C491095ADF8483029F062F90D
:1076900008A90EA8FFF75CFFD5E71CB070BD00BFBE
:1076A000A05A060043610600FC1B0700216200206F
:1076B000C41B07005A5A06008B5A06002DE9F04FEA
:1076C000DDB0BA4B0490BA4CBA4D1B685B934FF0D7
:1076D0000003B94BE41AE408240444F0030644F020
:1076E000010428F0E3FF80460028FAD1049B4FF004
:1076F000FF32586817A92CF091FB0128F1D1DFF86F
:10770000D092AE48CDF81C80FF2241468DF82080F3
:1077100038F0CEF8A94B189A0A9319A94846CDF823
:10772000248004F065FF09AA07A9484610F054FE1A
:10773000099B03939DF8203002939DF81C30019320
:107740009DF81F309DF81D2000939D499DF81E3027
:10775000304629F040F999F9002022B19949204694
:1077600029F0FCF8BDE79DF81C309DF81D80002B2A
:1077700071D0B8F1030F6ED19DF81F209DF81E3017
:1077800013439DF82020134308D1099B33B98E4938
:10779000304629F0DFF885F81980A2E79DF81F80B0
:1077A000B8F1010F9DD19DF81EA09DF820305AEA36
:1077B000030A96D18549304629F0CCF8DDE9092144
:1077C000834804F015FF834B8DF86AA11B88ADF840
:1077D00068311822514610A838F06AF85AAB7C4834
:1077E000169310A910F0FAFE99F900200AB17A490F
:1077F000B5E79DF84030022B2AD19DF85530FF2B7C
:1078000005D1C5E90E22C5E91022AA6469E7032B58
:1078100018D81699DFF8D4C10B448B423FF461AFFE
:10782000087808FA00FEA86B20EA0E00A86311F899
:10783000010B08FA00FEE86B20EA0E00E8634CF842
:10784000042BEAE765490322204629F090F848E72F
:1078500063491A4683E7B8F1010F7FF442AF9DF800
:107860001EA0BAF1000F7FF43CAF9DF81F30012B32
:107870007FF437AF5B49304629F06CF8DDE9092128
:10788000534804F0B5FE59AB0DA95148CDF864A199
:10789000CDF834A0CDF83CA00E9310F009FE99F974
:1078A000001011B10A46504959E79DF83420531E83
:1078B000012B00F207811C2210A85A91059137F084
:1078C000F7FF059968698DF840805AAB0BAA1493AD
:1078D000CDE90B1103F01CF90B9B0F9A1293934205
:1078E0001CBF9B1A11939DF83530FF2B40F082800E
:1078F0009DF8341002294FF000024FF0A0434FF4DE
:10790000005036D1C3F80C054FF48040C3F8082569
:10791000C3F80C054FF40040C3F80825C3F80C0564
:107920004FF48030C3F80825C3F80C05C3F80825C8
:10793000DFF8BC808DF84C100022022918F8010BEA
:107940002ED1FFF79BFD40B19DF84D3018F8010C8A
:1079500001338DF84D30149B98540132042AECD138
:107960009DF84D20002A00F0A88010A8FFF72AFEFD
:10797000B7E6C3F808054FF48040C3F80C25C3F8F8
:1079800008054FF40040C3F80C25C3F808054FF470
:107990008030C3F80C25C3F80805C3F80C25C7E7E9
:1079A000FFF76CFD80F00100C0B2CCE7705C060010
:1079B000FC1B0700D4610020C41B070040630020AB
:1079C000A45A0600EF5A0600135B0600305B06005F
:1079D0003063002048610600495B06006C5B0600CE
:1079E000A05B0600BD5B0600D55B060014620020AC
:1079F00004620020042B62D80E989DF834E0034402
:107A00004FF0A0424FF4803800214FF400494FF46A
:107A1000804A4FF4005B83421AD18DF84CE000227B
:107A20009DF835309A429BD20E9B985C9DF834307D
:107A3000022B3CD1FFF722FD40B19DF84D300133C0
:107A40008DF84D300E9B995C149B99540132E7E7F9
:107A5000BEF1020F10F801CB14D1BCF1030FDAD83C
:107A6000DFE80CF002070A0DC2F80CB5C2F80815E1
:107A7000D1E7C2F80CA5F9E7C2F80C95F6E7C2F811
:107A80000C85F3E7BCF1030FC5D8DFE80CF0020763
:107A90000A0DC2F808B5C2F80C15BCE7C2F808A573
:107AA000F9E7C2F80895F6E7C2F80885F3E7FFF7AB
:107AB000E5FC80F00100C0B2BEE703494FE6034990
:107AC0000422C1E602494AE6FB5B06001C5C060094
:107AD0004F5C060070B5264B264DC8B01B68479317
:107AE0004FF00003244BED1A90F91230039390F9F4
:107AF000113002934B680193ED08838900932D04A4
:107B000045F003058368027904460E4628461B4962
:107B100028F061FF3046FFF759FC2379032B0DD184
:107B2000A37B5BB1A2891649284628F017FF104BAA
:107B30001A68479B5A4018D038F034FB4FF48472CF
:107B4000002105A837F0B4FEA38972683168ADF84A
:107B5000143007A8069237F083FE0A4800231A461D
:107B600005A900682CF07AF8E1E748B070BD00BFC5
:107B7000D85C0600FC1B0700C41B0700745C0600F1
:107B8000BD5C060024630020034B0360034B0B60C5
:107B90003C231360704700BF7066002040640020E3
:107BA000034B0360034B0B6050231360704700BF0F
:107BB000B866002030650020704700000A46014684
:107BC00001482AF0A4B900BFEFBEADDE37B5144CB2
:107BD000237E208B012B0CBF4FF4A0514FF470413A
:107BE0004FF0000340F201320CBF0525032500933E
:107BF000904214BF0A464FF47052A06804212DF041
:107C000067F8012804D007494FF42870FFF7D6FF22
:107C100060680122294603B0BDE83040FFF76EBB23
:107C2000D4610020DC5C06002DE9F347594B5A4E25
:107C30000278F61AF6083604054646F003070C46A5
:107C40003846564928F08AFE2B78032B14D8DFE8F3
:107C500003F002050795012323760DE00223FBE7DD
:107C6000606902F0C1FC4E49024646F0010028F06E
:107C700075FE0F202AF03EF9AB6800936B792A79E4
:107C80004849DFF82CA1384628F07BFEAB68236218
:107C90006B79237705F10C0804F124090026D8F844
:107CA000003049F8043B324658F8043B5146384608
:107CB000013628F05CFE032EF1D1637E1BB92B79CF
:107CC0000BB901236376237E012B2CD1637E012B1C
:107CD00056D1022363764FF4A054334EB0682DF092
:107CE00025F901280DD100230093B0681A4603211D
:107CF0002CF0EEFF012804D02C4940F26910FFF768
:107D00005DFF00230093B068A4024FF47A7204214F
:107D1000B4FBF2F22CF0DCFF012804D023494FF42D
:107D2000B670FFF74BFFAB68DB0730D4AD8875BB8F
:107D30001D4CA0682DF0FAF801280DD10095A0681F
:107D40002B462A4603212CF0C3FF012804D01749F3
:107D500040F27510FFF732FF00230093A0684FF444
:107D6000A05204212CF0B4FF012810D00F494FF489
:107D7000BC7002B0BDE8F047FFF720BF03236BE7FC
:107D8000032B43F6982418BF4FF4A054A5E702B084
:107D9000BDE8F087C41B0700FC1B0700E35C06007E
:107DA000F65C0600095D0600D4610020DC5C06007C
:107DB000535D06002DE9F0476E4B6F4EA2B00546AD
:107DC000102200210BA800241B6821934FF0000310
:107DD0004FF0010837F06CFD102200210FA8CDF8FC
:107DE000088037F065FD1C2221461AA8CDE905441C
:107DF000199437F05DFD70698DF8445005AA21464D
:107E000002F086FE85BB8DF83D8010F035F98DF8C7
:107E10004450ADF83E00059B109302A80DF1640894
:107E2000FFF75AFA029B8DF83C30202241460BA8FE
:107E300004F0DEFB0BA80FA910F032FC4F4C5048A9
:107E40009DF92C20241AE4082404002A4ED04D4920
:107E500044F0010028F082FD464B1A68219B5A40ED
:107E600000F0858038F09EF9474BDFF82CA11B8885
:107E70008DF83D40ADF83E408DF84480ADF860305F
:107E80008DF8624006F13409274619F8011BB26BE0
:107E900008FA01F3134221D0F26B13421ED11343AF
:107EA000F36322A806EB84033844059A1A6400F8A9
:107EB000281CF0682DF03AF80137FFB2034668B984
:107EC0000090F0684FF4F04204212CF001FF0128EB
:107ED00004D0514640F20B20FFF770FE0134032C12
:107EE000D3D118AB12938DF8457094E70E9B039293
:107EF000CDE90738DFF8A4808DF810204146FF2235
:107F00000BA8022701268DF80D708DF80F6004F084
:107F10006FFB03A907AA0BA810F027FA9DF92C10F4
:107F200021B10A4644EA0600184993E70E9B0A93DA
:107F3000102214A8CDF8248037F0BAFC029B1393CA
:107F40008DF85070159644F0030075B140F201337E
:107F5000ADF85A300E493C23ADF85C3028F0FAFCFD
:107F600009A913A8FFF7F4FA76E70A49F6E722B061
:107F7000BDE8F087BC5D0600D4610020FC1B070053
:107F8000C41B0700FA5E0600486106005A5A060044
:107F9000635D0600905D0600DC5C06002162002047
:107FA0002DE9F04FA34BAFB01B682D934FF00003AA
:107FB000A14B1F93A14B2093A14B2193A14B229343
:107FC000A14B2393A14B249300254FF4E153CDE91A
:107FD00014531EAB169304461E9000F0FBFA179044
:107FE00000F016FB0122CDE9180519A914A8149276
:107FF000974D01F03DFE974BED1AED082D0445F02D
:10800000010703460122A0B19349384628F0AFFC8E
:1080100000236361149328F049FB0028FBD12CF066
:108020000DFA844B1A682D9B5A4000F0B88138F045
:10803000B9F819986061114602F0DCF80122034694
:10804000F0B9864A0092039002464FF4A05184484A
:10805000D4F814902CF01EFE039BA06090B98149C7
:10806000384628F077FCB9F1000FD4D0149948466F
:1080700002F070F9484602F02DFA00236361CAE766
:108080007949C2E7794A009279481A464FF4F0419B
:108090002CF000FEE06008B97649E1E70223764E55
:1080A000237645F0030528F001FB0028FBD160682A
:1080B0004FF0FF320DF113012BF0B0FE0128F2D189
:1080C0009DF81320062A00F2688101A353F822F0DC
:1080D000ED800200F5800200138102007F83020020
:1080E000A78002002181020099820200484602F026
:1080F0006DFAD8E7706902F0ADFC28B15F493846E7
:1081000028F028FCFFF7D6F85D49284628F022FC25
:10811000C9E70120FFF74EFE002386F84C30C2E786
:1081200094F818B0BBF1010F0ED0236ADB07BAD464
:10813000637E012BB7D1227F002AB4D1514B03219A
:108140001868FFF7DBF8AEE794F819A0BAF1020F50
:1081500068D1102200210CA837F0AAFBDFF8348187
:10816000CDF814B01022002110A837F0A1FB40F286
:10817000034300211C22ADF8403026A8A8F10403D7
:10818000129325918DF842B0CDF8448037F090FBE2
:1081900005A8FFF7A1F8059B8DF84C3025AB1946D3
:1081A00020220CA804F024FA10A90CA810F04DF914
:1081B0009DF9302025AB22B13349384628F0CEFB5B
:1081C00071E706928DF81C200F9A8DF819A008F11E
:1081D0001908CDE908234146FF220CA804F008FA4B
:1081E00006A908AA0CA810F0C0F89DF9301011B12A
:1081F0000A462649E1E70F9B0B9310221AA8CDF8F7
:10820000288037F055FB059B2149199328468DF8A6
:1082100068A0CDF86CB028F09DFB0AA919A8FFF75B
:1082200097F940E7BAF1030F7FF43DAF0020FFF765
:10823000C1FD38E77C6006006D730200D57A02004C
:10824000A173020011740200297C020079730200FC
:10825000FC1B0700C41B0700C05D0600CD7B0200AD
:10826000F35D0600315E0600025E06005D730200EB
:10827000515E0600645E0600D4610020865E060042
:10828000B75E060020630020FA5E0600F15E06007D
:10829000245F0600086200204249DFF82881284652
:1082A0004FF0000B28F056FB5946706919AACDE92A
:1082B00019BB02F02DFC3C4908F10C0A18F8010B1F
:1082C000D6F83CC05AF8042B012303FA00F010EA58
:1082D0000C004FD0EAB1199B9B1A1FFA83FB5B4637
:1082E0006246284628F043FBBBF11D0F2E4938D9C2
:1082F00018F8013C012202FA03FBF36B23EA0B039B
:10830000F363B36B23EA0B03B36300234AF8043C23
:108310009B46264B4345D1D1F26B25495B46284607
:1083200028F025FB28F0C2F90028FBD1BBF1000F93
:108330003FF4B9AE4FF47A2101FB0BF100900346F4
:108340004FF47A72F068B1FBF2F204212CF0C0FC19
:1083500001283FF4A8AE174940F2B530FFF72EFCD4
:10836000A1E65AF8040C199A121A9345D1D91FFAAA
:1083700082FBCEE7002ACCD04AF8040CC9E70E49AC
:10838000284628F0E7FA0121484602F073FB02462E
:1083900000283FF488AE09490FE709490DE72FB0DF
:1083A000BDE8F08F4F5F0600765F06000B6200208D
:1083B000C85F0600DC5C06001B6006003260060039
:1083C000626006000862002013B50D4B0D4CCDE92C
:1083D0000001E41AE4082404D2E900320A4944F016
:1083E000010028F0DAFA28F093FB28F05FF9002862
:1083F000FBD1064B1B68DB0700D500BE02B010BDE9
:10840000C41B0700FC1B070080600600F0ED00E0C5
:1084100008B5054903202DF0C9FE18B1BDE8084094
:1084200029F068BD08BD00BFD574020013B52CF05B
:1084300073FE08B129F05EFD29F085FD08B129F031
:1084400059FD504800F0C4FA4F484FF4004128F05D
:10845000D3F808B129F04EFD28F00CF84B4C4C4BEA
:108460004C49E41AE408240444F0030028F072FAAA
:1084700028F01CF90028FBD1FFF7CAFF0FF026FBFC
:10848000024648B1444944F0010028F067FA4349E4
:1084900040F2B540FFF792FB0EF056FE024648B19F
:1084A0003F4944F0010028F059FA3C4940F2BB40F2
:1084B000FFF784FB0FF0D6FD024648B1394944F07E
:1084C000010028F04BFA354940F2C140FFF776FB36
:1084D000354B364C93E807000FF08EF800F094F817
:1084E00023F0D0FA002201210A202BF09DFB20600E
:1084F00010B9042029F0FEFC2D4B2E49196340F2DF
:1085000001219986002203211A8383F83610012263
:1085100021681A77596028482849CDE900234FF48B
:1085200080622BF05DFF012802D0042029F0E2FCDC
:1085300000224FF484710A202BF076FB204B226836
:1085400018601C4612B9042029F0D4FC1D4B226887
:108550005A60022200921C491C4801934FF4806229
:108560002BF03EFF012802D0042029F0C3FC184A5A
:10857000136943F0040313612BF0BCFF0F2029F0B3
:10858000B9FCFBE7586106003D740200FC1B0700C4
:10859000C41B0700AF600600C8600600DC5C060074
:1085A000EE6006000F6106004C61060020630020AB
:1085B000D461002000010203A17F020036610600A1
:1085C00024630020286300203B610600BD76020082
:1085D00000ED00E000487047E061060004220A70E8
:1085E000072216284A704FF001020346CA70A8BF3E
:1085F00016236FF008029342B8BF134600200B7198
:10860000022388704B71704700487047486206002B
:1086100000487047BC6206002DE9F341044618B9D2
:10862000264935200EF0DAFC254D00F005FC6F6878
:10863000AF423FD101202A6804F11003C4E90425A8
:108640002B60536025E0A7F11006214630460FF05D
:1086500059FD38B396E803006D4685E803002146CE
:1086600028460FF0C5FD216A28460FF04BFD034652
:1086700020B996E8030084E803009846324604F1E6
:10868000100352F8101FC4E90412326940465360C7
:10869000336110B1204600F0F3FA00F005FC02B09F
:1086A000BDE8F0817F68AF42C5D08046002FCAD1B7
:1086B0004046C0E74FF00108F8E700BFE46206005B
:1086C0006859002010B5044618B90A4966200EF012
:1086D00085FC00F0B1FBD4E9043203B92AB1136080
:1086E00062695A600023C4E90433BDE8104000F019
:1086F000DBBB00BFE462060010B5034678B171B180
:10870000C0E90612074A92E8030003F1080483E86F
:10871000030084E803000020C3E9040010BD6FF0EB
:108720000A00FBE7D862060010B5044628B1FFF73F
:10873000C9FF0020C4E9060010BD6FF00A00FBE786
:1087400008B518B1FFF7BEFF002008BD6FF00A00A2
:10875000FBE710B5044648B100F06EFB23693BB956
:108760006469003C18BF012400F09EFB204610BD48
:108770000124F9E7F8B50F4616461D46044608B32E
:1087800002B3FFF7E6FFE8B996E803000F4B84E871
:108790000300002D08BF1D4695E8030004F10803FF
:1087A00083E8030047B1012F08D1094B236220461B
:1087B000FFF732FF0020F8BD064BF7E706492E20F1
:1087C0000EF00CFC6FF00A00F5E700BFD86206005F
:1087D000C8620600D0620600E4620600024B002078
:1087E000C3E90033704700BF68590020F0B52A4E36
:1087F00085B00F461FB9294974200EF0EFFB00F039
:108800001BFB7568B54213D100F04EFB244B93E877
:10881000030002AC84E8030000F00EFB7368B3426F
:108820002ED100F041FB204600F02AFA05B0F0BD41
:10883000002DE9D0102DE7D0A5F1100439462046CF
:108840000FF060FC0028DFD1D4E9043213606269C4
:108850005A60C4E9040000F027FBA5F108010846AE
:1088600001910FF015FD019928B920460FF096FCF3
:108870002046FFF7D1FEA369E06921469847B9E792
:10888000002BCED0102BA3F110021CBFD2E90001A7
:10889000C4E90001C5E700BF68590020E462060092
:1088A000D86206007047000010B5D0E900430A689E
:1088B000A21A54B14C689C4207D9013A02604A6836
:1088C0009B1A044A1A44426010BD02604A689B1A0F
:1088D0004360F9E700CA9A3B2DE9F0430C4689B0A2
:1088E0000546002865D0354BDFF8E0E01A684FF008
:1088F000000CD2F810808DF807C09946BFF32F8F77
:108900000DF10703D3E84F3F2D4F0FCF02AE0FC637
:1089100097E8030086E803009EE80300D8F80431D6
:10892000D8F8046585E803000DF10701C1E842CFDE
:10893000002AE3D12BB1D8F804339B0748BF06F1D6
:108940008076D9F800004268B2F5004F03D91D497E
:1089500069200EF043FB22F4FF7121F001018A42ED
:108960004FEA522702D017496B20F2E72968B6FB7D
:10897000F2F20A442A604268B6FBF2F302FB136685
:10898000114BB3FBF7F37343DB086A6803EB830314
:108990009B09192101FB03236B606CB102AD0FCD64
:1089A0000FC495E8030084E80300002009B0BDE887
:1089B000F0836FF00A00F9E72046F7E7006800202F
:1089C0000C680020E062060000127A002468002093
:1089D00010B510B96FF00A0010BD314C2368002BA0
:1089E0005BD1836920606BB14369002BF2D0C06911
:1089F00098470028F0D123682A4A99691160DA69FA
:108A0000294B1A60294B0022C3E900222268D2E9CF
:108A100000301169B3FBF0F3013BC1F808354FF4A6
:108A20008033C1F84833C1F808330233C1F8443306
:108A3000C1F804339468D36860B200284FEA431346
:108A4000ADBF00F160401A4804F00F0400F561402A
:108A5000B9BFDBB20355DBB280F80033906843B294
:108A6000002B09DB01245B0900F01F0004FA00F071
:108A70006033104C44F82300926853B2002B08DB9B
:108A8000012002F01F0200FA02F25B09094840F8D7
:108A9000232001230B6000209EE74FF0FF309BE76F
:108AA000006800207059002004680020246800201D
:108AB00014ED00E000E100E02DE9F74380460F46A9
:108AC000D0E90001E94689E80300104615461C4636
:108AD00036F033FE06461FB91E49E0200EF07EFA3E
:108AE00014B91C49E120F9E7414638460FF00AFB6A
:108AF00010B11849E220F1E74FF08043D3F8183560
:108B0000012B04D0C4E9000003B0BDE8F08339466E
:108B10004846FFF7C9FE104F009AB2FBF7F007FB7B
:108B2000102272434FF47A7CB2FBF7F107FB11225B
:108B300006FB0010019BB3FBFCF37343B3FBFCF398
:108B40000CFB02332060636020460FF00FFBE81738
:108B500040B2D9E7E062060040420F00F0B58BB0AA
:108B600002AD0023CDE9003302936B600446002878
:108B700047D004AE3146FFF7AFFE234B1A8852426E
:108B80006B4612B208A92046FFF796FF00281EDAAE
:108B900069462046FFF788FE204606AF0FF0E6FA4A
:108BA000314638460FF0AEFAD0B197E8030085E8B9
:108BB000030031462846FFF777FE29462046FFF797
:108BC00073FE20460FF0D2FA00200BB0F0BD2368F0
:108BD000009A13442360019A636813446360DBE7DF
:108BE00096E8030085E8030039462846FFF75CFE57
:108BF0002368029A13442360039A636813446360F2
:108C0000DFE76FF00A00E0E70868002007B5174BC0
:108C10001A681369D3F8041189B1D3F804138907CA
:108C20000DD5134950684FF08072B2FBF0F208681E
:108C300002440A600022C3F80421BFF32F8FD3F847
:108C400040217AB1D3F80423D2030BD50022C3F814
:108C500040216846FFF782FF064B074A1B681068F1
:108C60006946984703B05DF804FB00BF0068002028
:108C7000246800207059002004680020FFF7C6BF58
:108C8000F0B589B0002800F0878003C86C4602ADBB
:108C900084E803002846FFF761FF214628460FF0CD
:108CA00031FA18B195E8030084E803003D4F2946E6
:108CB00020460FF09DFA3A684FF080765268B6FB76
:108CC000F2F6009AB24224BF002301934FF0000352
:108CD000CDE9043302936B60334B28BF00961A88AA
:108CE000524204AB12B229462046FFF7E5FE0028A7
:108CF0002ADA94E8030006AD85E8030004A92846B3
:108D00000FF04CFA069BB34203D295E8030084E8C7
:108D100003003968019B4C6818331922B3FBF2F247
:108D2000630A534303F59833204A03F59673B3FB64
:108D3000F2F3009A02FB0434B4F1807F09D91C4994
:108D400040F26D100EF04AF904A920460FF050FAD7
:108D5000DFE71ED0062C38BF06240E6900F06CF841
:108D60000525D6F80425A31823F07F43062CC6F862
:108D7000403505F1FF3505D1D6F80435934201D0D1
:108D8000002DEED100F090F855B9094940F28B1052
:108D9000D8E76FF07F44E0E76FF00A0009B0F0BD5C
:108DA0000020FBE700680020086800202D3101004A
:108DB000E062060030B587B002AD00210190284680
:108DC000CDE90211CDE90411FFF786FD019A0E49A4
:108DD0000E4C04AB2846FFF76FFEA4F1080314EA1B
:108DE000200038BF1846019000F026F8019804A929
:108DF0000FF0D4F995E80300083484E8030000F08C
:108E000053F807B030BD00BF1C6800201468002074
:108E100038B5084D04462888404200B2FFF7CAFF23
:108E20006FF095008442B8BF0446962CA8BF9624E4
:108E30002C8038BD0868002010B5EFF3108472B69E
:108E4000144A936883B901239360134B1348D3F8F2
:108E5000801001401160C3F88000D3F88410516085
:108E60004FF0FF32C3F8842004B962B60C4BBFF355
:108E70005B8F53E8002F511C43E800100028F8D105
:108E8000BFF35B8F082A03D9064928200EF0A6F805
:108E900010BD00BFB812012000E100E0FC06FFBDDC
:108EA0002C680020EC62060008B5114BBFF35B8F05
:108EB00053E8002F511E43E800100028F8D1BFF3FB
:108EC0005B8F1AB90B492D200EF088F8012A0ED1BC
:108ED000094B9A685AB1EFF3108172B6074A1868C5
:108EE00010605868506000229A6001B962B608BDEF
:108EF0002C680020EC620600B812012000E100E0BE
:108F0000036813F0060F14BF0120002070470068AB
:108F100010F0010018BF01F00100704708B5FFF71D
:108F2000EFFF20B111F0060F14BF0120002008BD93
:108F3000C36A13F0060F14BF01200020704770476A
:108F40001FB50F4B0C461B6803934FF0000391B104
:108F5000002201A9104603F081FD28B9D4F8B830E9
:108F6000D4F8BC0001A99847054B1A68039B5A40E6
:108F700004D037F017F96FF00800F5E704B010BD22
:108F80000063060008B508461278002136F090FC10
:108F9000002008BD06F0FCBCF0B5314B89B01B6861
:108FA00007934FF0000320B92E494FF4E3700EF001
:108FB00015F819B92B4940F2C710F8E750F8D83C1A
:108FC000DB07A0F1D80542D5D5F8C8300A685B6840
:108FD0009A423CD10022244C01AF3946104603F09E
:108FE0003DFD224821460FF0A9F8064638B197E822
:108FF000030084E80300EB690133EB6110E03946BC
:1090000003A822460FF02AF93C2305A903A8CDE9BD
:1090100005360FF077F80028EDD0C4E90066EE6160
:10902000EB69092B13D910F017FC012804D9104A59
:10903000002102200EF090FFD5F8C80083680021BF
:109040005B69083098470023C4E90033EB61044BA7
:109050001A68079B5A4001D037F0A4F809B0F0BD58
:109060003C6306000463060030680020AC6606001E
:109070000E63060030B5204B056887B00446142205
:10908000002168461B6805934FF0000336F010FC82
:10909000D5F8C830E26804339A421FD0D5F8CC30F6
:1090A00004339A421CD12B689A071BD403F00403A3
:1090B0000093E3798DF8043094F90600A388ADF8A5
:1090C0000C30AB6880B9DA681968684690470A4B7B
:1090D0001A68059B5A400CD037F064F80123E7E783
:1090E0000023E5E70223E3E71C691A686946A04705
:1090F000EDE707B030BD00BF4063060010B50CF0CF
:10910000D9FA0368BDE81040DB6818472DE9F34140
:1091100004460D46FFF7FBFEA0B92046FFF7F0FE20
:1091200030B12368DB0703D494F8283042B14BB93F
:1091300029462046FFF7F2FE20B902B0BDE8F081D3
:10914000002BF5D1E36A002A3AD02B43012DE362CC
:1091500039D1002A37D12263D4F8AC00FFF7CEFF13
:10916000E36AD4F8C81013F0010F054614BFC826EF
:10917000002631B103683246DF68B4F8D0300431DC
:10918000B8472046FFF7D4FED4F8CC10002814BF0F
:109190006427002741B12B683A46D3F80C80B4F815
:1091A000D23004312846C04710F056FB0128C4D9FC
:1091B00002210E4A0097334608460EF0CDFEBCE76A
:1091C00023EA0503C2E729462046FFF7A7FE002849
:1091D000C2D094F8F01004EB81010B6B1AB143F08C
:1091E00001030B63B8E723F00103FAE744630600C9
:1091F00010B50CF05FFA0368BDE810401B69184712
:109200002DE9F0472A4B0446D0F8C80086B00D4639
:109210001B6805934FF0000330B183685E6B082331
:109220000A4618441121B047D4F8CC3023B1D4F801
:10923000D400294601F0ADFED4F8AC000CF03AFAA7
:1092400000278146D4F8AC00FFF7D2FFCDE90277C2
:1092500002238DF808300497036802AE804600961A
:10926000DC342146D3F804A004AA3B46D047D8F802
:109270000030009604AA1E6829463B464046B04787
:10928000D9F8003029465B6948469847284606F0D9
:109290008DFA28686968064B03C41A68059B5A4012
:1092A00001D036F07FFF384606B0BDE8F08700BF3A
:1092B0005463060010B520B90C4940F2FF200DF0B0
:1092C0008DFED0F8CC307BB103691B7963B10368A4
:1092D0009B0709D5D0F8F800036819B1DB6ABDE82F
:1092E000104018471B6BFAE710BD00BF046306006F
:1092F00010B521B9054940F29E200DF06FFE8B6834
:10930000BDE81040D3E900120120104704630600B5
:1093100008B520B9064940F2B7200DF05FFE19B933
:1093200003494FF42E70F8E7BDE80840FFF768BF27
:10933000046306007FB52F4B04461B6803934FF070
:10934000000320B92C4940F2BF200DF047FE83698D
:10935000002B45D090F8ED3013B1002380F8ED30AC
:1093600001A9D4F8D40001F0FAFD0025D4F8D40006
:109370008DF802500DF1020101F0ACFD9DF80230B4
:10938000D4F8C8005B1B18BF01238DF8033070B1FF
:10939000836809215E6B0DF1030201230830B04799
:1093A000D4F8C800836829465B6908309847236968
:1093B0001B7953B1D4F8CC303BB123689B0704D55B
:1093C000D4F8F80003685B6A98479DF803301BB92E
:1093D0004FF400500EF046FD01A92046FFF710FFA4
:1093E000044B1A68039B5A4001D036F0DBFE04B0F0
:1093F00070BD00BF586306000463060058B151B148
:109400004BB1C0E92E32836943B10A4600F19401A1
:109410003C3031F045BA6FF008007047184670478D
:109420002DE9F04FADB05A4B5A4F054600240DF1CF
:109430005C0B5022214658461B682B934FF00003CB
:10944000129436F035FAD5F8AC00FFF7D1FE80461D
:10945000D5F8AC00FFF752FE022304948DF81030CB
:109460002B68059413F0020F0DF1100906463ED04B
:10947000C8233B803B88A5F8D23013AC2146D5F8F1
:10948000D40001F06CFDD5F8F800036859465B681C
:10949000984703AA0021D5F8D40001F0C1FD10229D
:1094A00000210EA836F004FA05F13C0AD5F8AC000C
:1094B000CDF834A0CDE90B740CF006F90223CDE908
:1094C0000E0B039A10930BA905F1CC0012F022FDAC
:1094D000044680B1304A0346012100200EF03CFDD5
:1094E0002B4B1A682B9B5A404ED036F05BFE5B0725
:1094F000C0D51323BDE7D5F8CC00836821465B684F
:1095000008309847254A1068516815AB03C3D8F84E
:109510000030CDF80090D3F8009012AA234615A988
:109520004046C84704460028DAD1D5F8CC10336845
:1095300004311B6830469847044610B1184A034668
:10954000CAE73368D5F8CC10DC683B886422043164
:109550003046A047044610B1124A0346BCE72B69C7
:109560001B78002BBCD0D5F8D4300693D5F8AC309E
:109570000D49CDE9090006AA05F1FC00CDE9073A3D
:1095800010F002F90446ABE720462DB0BDE8F08F9D
:10959000C4630600285B00205C6306009466060036
:1095A00085630600A5630600F4660600002270B518
:1095B00004460D460120114603F050FAE36A0038D4
:1095C00018BF012084F829004BB3228D3ABB84F8E0
:1095D000242094F8EE207AB3A2696AB3BDB1E96899
:1095E000226B914213D12969626B91420FD1A16B19
:1095F0006A6991420BD194F824102A78914206D1DD
:10960000AA68934203D1228DAB889A4214D0A368F2
:1096100004F124005A691968BDE87040104794F8B5
:10962000ED203AB1DA0705D594F82820012A01D1B6
:109630000322CCE70122CAE770BD0000F0B5154B4C
:1096400089B000F124051B6807934FF0000306461C
:109650008C4617460FCD01AC0FC495E80300D6F831
:10966000CC3084E803000BB163450AD13168304641
:1096700001F006013A46FFF749FD01A93046FFF720
:1096800095FF044B1A68079B5A4001D036F08AFDBB
:1096900009B0F0BDC863060070B5184B88B01B68F0
:1096A00007934FF00003044620B9154940F21330E8
:1096B0000DF094FC00F124060FCE01AD0FC596E825
:1096C0000300A36985E8030073B1236B012243F013
:1096D00002031146204684F8ED202363FFF716FDB0
:1096E00001A92046FFF762FF044B1A68079B5A4006
:1096F00001D036F057FD08B070BD00BFCC63060046
:1097000004630600F0B58DB0314B8DF8071000F101
:1097100024061B680B934FF0000304460F460FCE40
:1097200005AD0FC596E8030087F0010385E8030047
:1097300084F82830384605F03BFFD4F8C80038B12B
:1097400083680DF107025D6B092101230830A847EA
:10975000236973B11B7963B1D4F8CC304BB1236862
:109760009B0706D5D4F8F8009DF8071003689B6A9C
:1097700098479DF80730F3B1072304F1DD022B2150
:109780004FF400500EF07CFA20B112494FF48B6078
:109790000DF024FCD4F8D40004F1DC0101F0F9FB55
:1097A00005A92046FFF702FF094B1A680B9B5A4098
:1097B0000BD036F0F7FC03A9D4F8D40001F0CFFBAE
:1097C00003A92046FFF71CFDEAE70DB0F0BD00BF7E
:1097D000D06306000463060070B5424B8CB000F104
:1097E00024061B680B934FF0000304460FCE05AD13
:1097F0000FC596E8030085E80300D4F8CC0058B103
:1098000023691B79002B64D023689A0761D5D4F8AB
:10981000F80003681B6A984703A9D4F8D400002510
:10982000CDE9035501F09BFB03A805F0CBFF03A98D
:109830002046FFF7E5FCD4F8C80008B38368294642
:109840005B6908309847D4F8C800836808215E6BCC
:109850002A462B460844B047D4F8C8008DF8045077
:10986000836801AA5E6B092101230830B047D4F850
:10987000C80083682A465E6B07212B460830B04734
:1098800040F201120023228501AAE3621146012061
:10989000CDE9013303F002F923691B7953B1D4F800
:1098A000CC303BB123689B0704D5D4F8F80003689B
:1098B000DB69984705A92046FFF778FEA3689A69F7
:1098C00018689047074B1A680B9B5A4007D036F030
:1098D00069FC836800215B68083098479CE70CB0FE
:1098E00070BD00BFD463060037B5164B05466A4607
:1098F0000846002402211B6801934FF000030094E6
:1099000009F08CFBD5F8C830009A04339A4210D085
:10991000D5F8CC3004339A420DD1286883070CD493
:1099200000F00400074B1A68019B5A4007D036F03C
:1099300039FC0120F6E72046F4E70220F2E703B005
:1099400030BD00BFD863060008B520B90A4940F20F
:10995000EE200DF043FBD0F8CC305BB103691B79EE
:1099600043B1036813F0020304D0FFF7BDFF821E6A
:1099700053425341184608BD04630600F0B5284B16
:109980008BB00F4694461B6809934FF000030446C2
:1099900020B924494FF44E700DF020FB00F124064D
:1099A0000FCE03AD0FC596E803002368DB0785E8FB
:1099B000030021D561462046FFF796FF01280546A2
:1099C0001AD127B3236B43F00103236302460146F8
:1099D0002046FFF79BFB94F8EC306BB10023CDE9F8
:1099E0000133D4F8C80084F8EC3083688DF808504F
:1099F0005B6901A90830984703A92046FFF7D6FD07
:109A0000074B1A68099B5A4007D036F0CBFBD4F8B5
:109A1000C800836839465B69ECE70BB0F0BD00BF56
:109A2000DC63060004630600F8B50F4619461546C8
:109A300006461C46FFF758FF0023012814BF96F87E
:109A4000F0201A460C343A6006F1E4012B602046FF
:109A500030F051FC10B101232B60F8BD20460849BD
:109A600030F049FC044608B10223F5E70FF0F4FE9C
:109A70000128F0D9034A214602200EF06DFAEAE7E8
:109A8000FC660600E0630600F0B58DB0254B8DF84E
:109A9000072000F124061B680B934FF000030446D7
:109AA0000F460FCE05AD0FC596E8030085E803000D
:109AB000EFB139462046FFF717FF012818BF21688C
:109AC00002460EBF0146012201F006012046FFF7C3
:109AD0001DFB3B4603AA04A92046FFF7A5FF9DF8FE
:109AE0001030039904EB83031A6B0A431A6305A928
:109AF0002046FFF75BFD94F8283053B9D4F8C8002E
:109B000038B183680DF107025C6B06210123083030
:109B1000A047044B1A680B9B5A4001D036F042FB19
:109B20000DB0F0BD0C640600F0B54F4B89B0074690
:109B30001B6807934FF00003A0F1F404114662B1D3
:109B4000012A00F08A806FF00500474B1A68079BD6
:109B50005A4000F0868036F025FBF42804D14349B2
:109B60004FF413700DF03AFAA0F1D0060FCE01AD0C
:109B70000FC596E8030057F8F43C85E80300D907C1
:109B800002D5A369DA0702D494F8283043B1D4F897
:109B9000C80083685D6B00231A4607210830A84778
:109BA00094F8ED3013B1002384F8ED3005F0E7FDB3
:109BB00008B105F0E1FD05F0ECFD08B105F0E6FDAA
:109BC0002046FFF79DF900283CD0A36913F0060F4B
:109BD00038D094F82830002B34D1D4F8C830CBB129
:109BE00057F8F43CDB0715D4D4F8AC00FFF786FA3D
:109BF000D4F8C810036804319B689847054618B12B
:109C00001A4940F26A20ADE7D4F8C80003689847C3
:109C1000C4F8C8502046FFF78BF998B9D4F8CC3077
:109C200013B92046FFF7FCFBD4F8CC008368012170
:109C30005B6808309847D4F8CC00836801219B68A2
:109C400008309847012120460022FFF75FFA01A95A
:109C50002046FFF7ABFC002077E72046FFF756FAD7
:109C6000F9E709B0F0BD00BF106406000463060008
:109C70002DE9F04F2DED028BC1B09E4B02911B6878
:109C80003F934FF00003834608B301B38368F3B1F9
:109C90005A68E2B19A68D2B1DA68C2B11A69B2B14F
:109CA0005A69A2B19B6993B14168934BA1F5E15206
:109CB0009A420CD8036953B11A795AB19B685A1C5D
:109CC00017D08E4AA3F52843C03B934211D96FF0B9
:109CD0000A0706E0036803F00303022B09D16FF0C3
:109CE0000507844B1A683F9B5A4000F04B8236F0C0
:109CF00059FA834A9162DBF8003013F0070F90465F
:109D0000EDD06FF000429342E9D003F00603062B3A
:109D1000E5D07C4D2F7D2C46002F40F03082DC4674
:109D2000BCE80F002E460FC67749DCF800303360E0
:109D30002A4605F13C00AF6130F0D8FB73492A4652
:109D400005F1940030F011FD714A92E8030006AB72
:109D500083E8030006F1B000194602F087FD2C36B7
:109D600007460028BDD101461C222BA835F0A0FDD6
:109D700005F1D8032C93D5F8C0302D93654B664A76
:109D80002BA905F1AC00CDE92E350BF0E5FB07461C
:109D900030B1624A0346012100200EF0DDF8A0E751
:109DA000D5F8AC000BF086FC0390D5F8AC00FFF7BB
:109DB0001FFA039B23971A6881465269184605F1DA
:109DC000DC019047CDE9087702218DF82010D9F801
:109DD000001008AA00920B689C4648463B4623AAFE
:109DE000674605F1DC01B84705F1DC09074610B10B
:109DF0004B4A0346CFE7D5F8AC304A492A4605F12D
:109E0000C40009F001F9074610B1474A0346C2E70A
:109E1000CDE90A00D5F8C40083680AA95B68083058
:109E20009847074610B1414A0346B4E72846FFF772
:109E300067F82368DF0746BF80F00103DBB2002329
:109E400003F001038342054604D1394940F29140B1
:109E50000DF0C4F893B1D4F8AC702422002117A8F7
:109E600035F026FD2649334815AACDE9156701F0DE
:109E700001F9074610B1304A03468CE7002D74D033
:109E8000D4F8AC702D4D2E4B2B602422002117A846
:109E900035F00EFDCDE91567236920951A791AB1C1
:109EA0009A68501C18BF6A611B792B76236813F0DF
:109EB000020216D0234B012283F824200023C8F885
:109EC00000300F4920484C2235F0CAFC1D491F487C
:109ED00015AA0FF0D9FD074600283BD01C4A0346BF
:109EE00059E7590741BF174BC8F80020022183F8F2
:109EF0002410E6E790650600601E090077E0400048
:109F00002C5B002090590020F1920200418F02004A
:109F10009C660600FD930200C466060014640600F9
:109F200030640600B46606004E64060071640600E4
:109F300004630600645A002093640600785B0020E6
:109F4000958F02009C5A0020DC5A0020885A00207D
:109F5000B3640600D4F8F8008D4903689B689847FD
:109F6000074610B18B4A034615E78B4BD4F8AC007B
:109F70004FF000080125CDE90C388DF835500BF075
:109F800085FB824624A80BF077F80823ADF8A030B3
:109F9000DAF800300CAADB6824A950469847074637
:109FA00010B17E4A0346F6E67D498DF81700D4F8D5
:109FB000D40000F0D4FF0DF11701D4F8D40000F064
:109FC00089FF9DF817308DF8C950003B18BF012359
:109FD0008DF8C83023688DF8CA5003F0010399E862
:109FE000030083F001038DF8CB303C23CDE93336F9
:109FF00035AB83E803006B4B38936B4B39936B4B5A
:10A000003A936B4B3B936B4B3C936B4B3D93D4F828
:10A01000AC103794032332A88DF8F83005F0F4FB28
:10A02000074610B1654A0346B5E60146342216A834
:10A0300035F03EFC624B1793624B1A93624B1C93B4
:10A04000624B1D93D4F8D400614B159415A91E934F
:10A0500000F0D0FF18B15F4940F27260F8E65E4848
:10A06000FEF74EFF90BB23689DF81770DA0739D5CD
:10A07000D4F8C850002D3AD1D4F8AC000BF024FB32
:10A08000E368564ACDE9103621238DF84A304B2338
:10A09000B7F1000A8DF84C3063681493CDE90E09CE
:10A0A0004F4BC4F8F43018BF4FF0010A4FF0C80806
:10A0B0000EA9A2F12C00ADF848808DF84BA003F05A
:10A0C00061FA074678B3474A034664E6D4F8CC30D1
:10A0D000002BC8D14048FFF7A3F9074600287FF4BA
:10A0E00000AEC0E71FB9DBF800305B07C0D49DF8B5
:10A0F00017303948B3FA83F301225B09227584F8DB
:10A10000283084F82920FEF7FBFE40B1DBF8003050
:10A1100013F0040F14BF0223012384F8F030029BD4
:10A1200000271C60DDE5D4F8AC00FEF7E7FFD4F8AB
:10A13000C810036804311B6805469847074610B1EC
:10A14000294A034627E6D4F8C8002849836808301E
:10A150009B69984718B11F4940F2765078E62B6802
:10A16000D4F8C810DF68B4F8D0304246043128462D
:10A17000B84707460028BAD01D4A03460BE66FF0E1
:10A180001907AEE5384641B0BDEC028BBDE8F08F53
:10A19000645A0020CF640600E0930400EA640600DD
:10A1A0006C5A002011930200359302007D99020041
:10A1B0009996020049990200B59202000A650600CC
:10A1C000858F0200D997020005970200899A020044
:10A1D0003D9602000463060090590020845A002036
:10A1E00074590020256506004E650600605A00205F
:10A1F0006E650600F0B5554B87B00E461B6805939B
:10A200004FF000030546002800F09880037D002BE6
:10A2100000F09480002900F0918003688B42C0F028
:10A220008D800B4000F08A806FF00042914208BFA1
:10A230001E46826936EA020300F083803146FEF74B
:10A240006DFE00284CD012F0060F49D1D5F8CC0095
:10A25000836801215B68083098470446002849D18B
:10A26000D5F8CC00836801219B6808309847012706
:10A2700031462846FEF74BFE28B995F82830012BC9
:10A280003FD171073DD5AB69DA073AD4D5F8C8009C
:10A29000836801215B6808309847044620BBAB699E
:10A2A0003343AB6100242B68B3422DD1002201A9B6
:10A2B000104602F0D3FB0446E0B905F5807101A811
:10A2C0000DF096FF019BB3F5E15F1DD303AA114684
:10A2D0000120CDE9034402F0E1FBA8B1044609E006
:10A2E00000276FF02704C3E70346194A0121002025
:10A2F0000DF032FE154B1A68059B5A4023D035F0FD
:10A3000051FF002CCFD1CAE7012385F8EE300021A0
:10A310002846FFF74BF92B691B79002BEAD0002F59
:10A32000E8D02B689B07E5D595F82830012BE1D1C3
:10A33000D5F8F8000368DB699847CFE76FF00A04A7
:10A34000D8E70024D6E7204607B0F0BDAC6506008C
:10A350009465060070B50E460446002800F0AE80F5
:10A36000037D002B00F0AA80002900F0A78003687D
:10A370008B42C0F0A3800B4000F0A0806FF0004241
:10A38000914208BF1E463146FEF7C1FD28B920465E
:10A39000FEF7C4FD002800F09180A56916EA0500CB
:10A3A00000F08F80002384F8EE3031462046FEF71F
:10A3B000AEFD28B994F82830012B13D1700711D5C0
:10A3C000D4F8C80070B1836800215B6808309847F2
:10A3D000054638B13C4A0346012100200DF0BCFD82
:10A3E000284670BD31462046FEF798FDD8B1236956
:10A3F0001B795BB12368990708D594F82830012BA5
:10A4000004D1D4F8F80003681B6A9847D4F8CC004C
:10A4100048B1836800215B6808309847054610B151
:10A420002A4A0346D8E731462046FEF770FD50B170
:10A43000E36A23F00103E362236B23F00303236346
:10A440000023A4F8EC3031462046FEF767FD98B1B2
:10A45000B20742BFE36A23F00203E362730742BF1D
:10A46000E36A23F00403E36294F8F03004EB83031F
:10A470001A6B22F003021A632368B3420CD0012343
:10A48000002184F8EE302046FFF790F8A16921EA18
:10A490000601A1610025A3E704F13C0030F016F9A4
:10A4A000054610B10A4A034696E7024604F5807154
:10A4B00002F0D4FA05460028E1D091E76FF00A05D2
:10A4C0008EE705468CE700BFB0650600CF65060045
:10A4D000EE65060010B53C4B86B01B6805934FF047
:10A4E00000030446002867D0037D002B67D090F856
:10A4F000283033B903AA11460120CDE9033302F015
:10A50000CDFA21682046FFF725FF05F06DF9D4F854
:10A51000C400836808301B689847D4F8C80020B18D
:10A52000036898470023C4F8C83023691B7843B1F7
:10A53000D4F8FC0028B103681B6898470023C4F8CE
:10A54000FC30D4F8CC0020B1036898470023C4F84D
:10A55000CC30D4F8F80038B103681B689847002362
:10A56000C4F8F830C4F8D430D4F8D40020B100F0E6
:10A570005BFD0023C4F8D430D4F8AC000BF068F8CD
:10A5800004F13C0004F19401019030F07CF9019851
:10A5900030F0D5F8D4F8C00008B102F09BF90020E3
:10A5A000C4F8D00084F8F0002075074B1A68059BAA
:10A5B0005A4007D035F0F6FD6FF00A00F5E76FF06E
:10A5C0002700F2E706B010BD0466060030B1037D37
:10A5D00023B183692BB13C302FF0DEBF6FF00A004E
:10A5E00070476FF01C00704720B1037D13B190F9E4
:10A5F000200070476FF00A00704738B50C460346DC
:10A60000F8B1057DEDB16FF00045A94219D04D07B5
:10A6100017D0FEF77CFC20B1B3F8D03013600020D7
:10A6200038BDA10705D519688D0702D5B3F8D2301A
:10A63000F4E7600702D519684907F7D46FF0050001
:10A64000EEE76FF00A00EBE72DE9F04F99466E4B0D
:10A650009FB01B681D934FF0000343689DF8A070E6
:10A660009C6820460D469046FFF73EF94FF0000BE0
:10A670000146824603AA2046CDF80CB0FFF7BDFF85
:10A68000039B9F420ED90093604A3B4602215846E5
:10A690000DF062FC5C4B1A681D9B5A4000F0B080C4
:10A6A00035F080FD95F824603EB10D2EF2D1584A68
:10A6B000594658460DF050FCECE72B4604AA05A974
:10A6C0002046FFF7B1F995F832301B072FD0049BD5
:10A6D000022B2CD0314638220FA835F0E9F805F1CD
:10A6E0000C010FA808F0ECFC064620B1494940F2E5
:10A6F00089300CF073FCAB6A1993AB6811939DF829
:10A700006E308DF86C0060F303038DF86E30D4F872
:10A71000C40003680AAAD3F808B00FA93346D84783
:10A72000034620B13C4A012130460DF015FC0021C2
:10A7300002AA2846ADF8081008F070FC002110228B
:10A740000BA835F0B5F8049B95F832100C93AB6A62
:10A75000ADF8343011F00F019DF808308DF8393024
:10A7600018BF01219DF80930CDF828A0B8F1030FDA
:10A77000CDE906978DF82C808DF838108DF83A3099
:10A7800003D117B901238DF836300DF137020721B7
:10A79000284604F1240608F041FC0FCE0FAD0FC58A
:10A7A0000A9A96E80300012A85E8030015D194F877
:10A7B000EC306BB10023CDE90833D4F8C80084F83D
:10A7C000EC3083688DF824205B6908A9083098472D
:10A7D000012211462046FEF799FC9DF81430049999
:10A7E00004EB830320461A6B0A431A630FA9FEF792
:10A7F000DDFEA36806A99C681A680AA8A04749E775
:10A8000000201FB0BDE8F08F6866060008660600ED
:10A810002F660600046306004866060007B500932D
:10A8200013460222FFF710FF03B05DF804FB07B5E3
:10A83000009313460322FFF707FF03B05DF804FB04
:10A8400007B5009313460122FFF7FEFE03B05DF843
:10A8500004FB07B5009313460022FFF7F5FE03B093
:10A860005DF804FBF0B5784B91B00E4615461B68B9
:10A870000F934FF00003044648B96FF00A00724B83
:10A880001A680F9B5A4000F0DD8035F08BFC037D89
:10A89000002BF2D00029F0D00B68002BEDD04B68D4
:10A8A000013BFE2BE9D8002AE7D0D0F8C00002F027
:10A8B00017F8B0F5967F40F2BC80AB7B2BB1EA7BFA
:10A8C000002ADAD02A8A002AD7D02A79032A03D18B
:10A8D000AA89B2F5804FD0D213B9EB7378232B82BB
:10A8E00094F8243013B1032B40F0A680E26AD1071C
:10A8F00005D42046FEF71CFB002800F09D80296847
:10A90000114200F099806FF0004399420ED000236D
:10A910006A4620460093FFF770FE0028AFD17268A8
:10A92000009B9A420CD96FF00900A8E7B4F8D03028
:10A93000B4F8D220934238BF134672689342F2D3E0
:10A94000AF68022F18BF01270021AF60382201A88D
:10A9500034F0AEFF022F0CBF3C4904F1E40101A822
:10A9600008F0AEFB20B13A4940F2D3700CF036FB50
:10A97000E36ADB0723D529682046FEF7C8FAF0B161
:10A98000AA68236B1A421AD0D4F8C8300433039350
:10A9900004F1B003AA7B02939DF8363062F30303FF
:10A9A0008DF83630EB7B8DF834302B8AADF83830AB
:10A9B0002B79032B43D8DFE803F01C272C31D4F884
:10A9C000CC20002A3BD02046FEF7B2FA002836D031
:10A9D00029682046FEF7A2FA002830D094F8F0301B
:10A9E00004EB8303196BAB68194228D0043203923D
:10A9F000CEE7D4F8C40003681C683379326801A933
:10AA0000A0470B9BAB813AE7D4F8C40003685C68AD
:10AA1000F3E7D4F8C4000368DC68EEE7AB89D4F848
:10AA2000C4000B93036832689C68337901A9A0477E
:10AA300025E76FF0030022E76FF027001FE76FF0B4
:10AA400005001CE711B0F0BD6C660600FC66060050
:10AA50000463060040B1037D33B183693BB1D0F894
:10AA6000D400012100F082B86FF00A0070476FF047
:10AA70001C0070477FB5234B0E461B6803934FF0B5
:10AA80000003054690B3836983B30368DA072DD5C5
:10AA900090F82830012B2CD090F82930012B28D0A9
:10AAA000C36ADB0700D539BB174A92E8030001AB44
:10AAB00083E80300D5F8C80050F8082F8EB112695A
:10AAC00019469047044670B10346104A0121002000
:10AAD0000DF042FA0B4B1A68039B5A400FD035F029
:10AAE00061FB5269ECE785F8EC60F3E76FF00A046C
:10AAF000F0E76FF02704EDE76FF01A04EAE720466D
:10AB000004B070BD90660600A4660600706606007C
:10AB10000B46114638B182692AB121B133B91A46C0
:10AB2000012001F09BBF6FF00A0070476FF0050035
:10AB30007047000010B50C4619B101F1E8039842C6
:10AB400003D009491E200CF049FA8B68988C0DF04F
:10AB500089F9636C94F80011206B9847204600F047
:10AB600054FA002010BD00BF0C67060010B5044663
:10AB70008EB080F8001138220021684634F098FE2B
:10AB8000A26869464732204600F025FA50B10323F7
:10AB90008DF824302068036869461B6F98470020B1
:10ABA0000EB010BDA368E0689A8F04F1E8012FF0A1
:10ABB00023FE0028EED00F30E9D1EBE770B5164642
:10ABC0000D4600F05DFB7378012B04460ED83378F8
:10ABD00080F80031B278C06804F1E8010AB9A368CE
:10ABE0009A8F2FF009FE20B1032300E0062385F899
:10ABF0002430206803682946DB6EBDE870401847A2
:10AC000064230B700020704770477047704770478F
:10AC10006FF0050070477047704790F8E42012B15C
:10AC2000002280F8E42000207047F8B550F81C3C62
:10AC3000A0F1240593F848700C46F0300839002341
:10AC4000DAB2BA420BD250F8046BB1421A4606D0BF
:10AC50000133002EF4D105EB8203C3F8141195F8EB
:10AC60000811236800399B6818BF012120469847C6
:10AC7000AB6E13B1E86E214698470020F8BD002066
:10AC8000704708B5836B243813B1006B08399847B7
:10AC9000002008BD6FF005007047C36B08392438E9
:10ACA0000BB1006B18476FF00500704770B50C468C
:10ACB00019B101F1D003984204D0154940F2E910CE
:10ACC0000CF08CF9096A012034F05AFD064650B1A7
:10ACD0006569226A01460023E069A847054678B104
:10ACE000304634F0A7FD002070BD04EB8303D3F899
:10ACF000140120B1836831469B6A083098470135BA
:10AD0000A36893F84820EBB29A42EED8E8E700BF78
:10AD10002A67060010B541B1002351F823400CB159
:10AD200040F8234001339A42F7D110BD08B500B175
:10AD300019B9084972200CF051F91B2A06D90BB138
:10AD40001C221A6000F026FD002008BD6FF00300F1
:10AD5000FBE700BF2A67060070477047031D1A46CD
:10AD60001F3012F8011F19B98242FAD10120704731
:10AD700013F8012FFF2A02D18342F9D1F6E7002010
:10AD8000704737B50123CDE90031044600256FF047
:10AD90000500A36893F84820EBB29A4201D803B0AB
:10ADA00030BD04EB8303D3F814313BB19A68694694
:10ADB000D26803F1080090470028F0D00135E8E799
:10ADC000F8B51546002207460E46A0F124041146A8
:10ADD000012001F043FEEB1E012B2FD8A36893F84E
:10ADE00046304BB100221146012001F037FEE8B198
:10ADF000204601F0F2F806E007F184012046FFF753
:10AE0000C0FF0028EED0A369E0692A463146984782
:10AE1000032D00D045B9636D33B1E91E4A424A4162
:10AE2000206BA6F1080198470020F8BD94F8B710F0
:10AE30000029E8D1204601F01FF8E4E7002DE2D117
:10AE40000028E0D0204601F00FF82A462946204687
:10AE500001F09EF8D7E7002210B511460446012004
:10AE600001F0FCFD014620B92046BDE8104000F08D
:10AE7000DABC6FF0270010BD2DE9F341002506462E
:10AE80000F468DF80750B36893F84830ECB2A342F0
:10AE900002D86FF0050014E0443406EB84046068C7
:10AEA00090B183680DF10702D3F8348002210123A9
:10AEB0000830C04740B99DF80730012B04D16368C2
:10AEC0003B6002B0BDE8F0810135DCE70A460521B0
:10AED00000F04EBC0A46072100F04ABC70B58AB0AB
:10AEE00000230E460DF1070105468DF80730FFF7E8
:10AEF000F1FF0446C8B9014602901C2203A834F0B1
:10AF0000D7FC0420202202A90CF08CFB9DF807300E
:10AF100002A86BB1FFF722FF68B9A8680723808CED
:10AF200032462B210CF048FE044620460AB070BD84
:10AF3000FFF714FF38B130460CF0D4FB002808BFEF
:10AF40006FF00704F1E7072202A9304634F088FCCD
:10AF5000337803F01F0363F05F033370E5E737B521
:10AF600001230B700D4600F201110191FFF7B6FFAE
:10AF7000044658B9019908462FF07CF90199024618
:10AF8000681C34F06DFC204603B030BD6FF0070440
:10AF9000F9E7F7B5002305460E46684608210093F9
:10AFA00000F0C6FB044698B9019001A92846FFF7B6
:10AFB00063FF044660B9019883685F6B0823112121
:10AFC00018443246B847009B711C5B682846984776
:10AFD000204603B0F0BD13B50C460846019208F0B8
:10AFE0005DF8019A002104F10C002FF047F90020D0
:10AFF00002B010BD08B50E223030FFF78BFE0020E6
:10B0000008BD3030086000207047836893F8263010
:10B010004FF47A7200F1D0015A43C0682FF05ABC45
:10B02000243010600020704710B5114B04460068B2
:10B0300000221A6018B1836808301B689847E068DE
:10B0400004F1D0012FF01FFCE06804F1E8012FF0BB
:10B050001AFCE06804F174012FF015FCE06804F1BB
:10B06000B8012FF010FC2046BDE8104034F0E2BBE0
:10B07000F07300202DE9F0476D4ED6F800A08AB09D
:10B0800007460D469146BAF1000F40F0CA8091F88C
:10B09000481045318900012034F072FB0446002835
:10B0A00000F0C280D9F804000AF0F0FA614B019375
:10B0B0001A225146804603A8CDF808A034F0F8FBC8
:10B0C000D9F800303822C4E90253514604F1300067
:10B0D00034F0EEFB584BE363584B2364584B6364E6
:10B0E000584BA364584BE364584B2365584B636536
:10B0F000584BA365584BE365584B636295F849304C
:10B1000084F80931D9F804000AF0CAFA28356060D9
:10B110000FCD04F18C0CACE80F002B68CCF800309C
:10B12000A26892F846302BB14632514604F1A8008D
:10B130002FF0A4F803A809F09FFF04F110030021E9
:10B1400018461422ADF81C1034F0B2FB444A626178
:10B15000444AC4E906241C22226209F1080105229E
:10B16000FFF7D8FDD9E9090104F1680383E803007A
:10B1700022463D4904F1D0002FF0F7FA20B13B49B7
:10B180004FF42B700BF02AFF3949224604F1E800F6
:10B190002FF0EBFA18B1354940F2AF20F2E735490C
:10B1A000224604F174002FF0E0FA18B12F4940F262
:10B1B000B220E7E73049224604F1B8002FF0D5FA73
:10B1C00018B12A4940F2B520DCE7D9F804302B4900
:10B1D0002246204608F0A2F90546F0B904F2011112
:10B1E0002046FFF77BFE0546B8B92068836809F161
:10B1F0001C015B6808309847054670B9D8F80030E4
:10B2000001AADB6803A940469847054628B934607F
:10B210003C6028460AB0BDE8F0872046FFF704FFEF
:10B22000F7E76FF01905F4E76FF00305F1E700BFEA
:10B23000F0730020E093040001AC020011AC0200A6
:10B2400009AC02005BAD02000BAC02000DAC0200C9
:10B2500059AD02000FAC020017AC0200945B002055
:10B260002DAD020019AC0200ADAC02002A67060049
:10B2700035AB0200E1BE020055BA02004467060089
:10B2800043689868704700007FB50C46164608B1C1
:10B2900004B11AB917491E200BF0A0FE0193002338
:10B2A0000393FFF7EDFF0199054603A800F040FA6C
:10B2B000E0B9039B31461B6828469847B0B9039B09
:10B2C00031465B682846984780B92846FFF79DFEBF
:10B2D00094F832306FF3030384F83230039B324624
:10B2E000DB6821462846984704B070BD032384F8E4
:10B2F0002430EDE7046806007FB50C461E4600B119
:10B300001CB9134934200BF069FE0192FFF7B8FF16
:10B31000002305460199039303A800F009FA90B9A8
:10B32000039B31469B682846984794F832306FF368
:10B33000030384F83230039B3246DB6821462846FB
:10B34000984704B070BD032384F82430EDE700BFB4
:10B350000468060007B504238DF807200DF10702E5
:10B36000FFF792FF03B05DF804FB07B500238DF8EB
:10B37000073004220DF10703FFF7BEFF03B05DF8AD
:10B3800004FB07B508226B46FFF7B6FF03B05DF874
:10B3900004FB0023FFF778BF07B500226B4600923D
:10B3A0008DF80420FFF7A8FF03B05DF804FB70B52B
:10B3B0000C461546FFF764FF012206462946112078
:10B3C00006F0D6FDC0B284F8240010B9012386F837
:10B3D0000831306803682A4621465B6CBDE870403E
:10B3E000184730B585B00C46FFF74AFF10230546D5
:10B3F0001A460021684634F05BFAA8686A461023B2
:10B400000421808C0CF0D8FB84F8240028680368A1
:10B410006A465B6C2146984705B030BD37B5054696
:10B4200000918DF80720FFF72BFF009904460523B4
:10B4300028460DF10702FFF727FF054650B99DF892
:10B440000710206BA36C003918BF012198472046D4
:10B45000FFF701FD284603B030BD07B500238DF886
:10B46000073005220DF10703FFF746FF03B05DF833
:10B4700004FB07B50623019201AAFFF705FF03B0FD
:10B480005DF804FB07B500230193062201ABFFF72B
:10B4900033FF03B05DF804FB30B5B2FA82F285B039
:10B4A0005209054601918DF80F20FFF7E9FE019939
:10B4B0000446072328460DF10F02FFF7E5FE054677
:10B4C00050B99DF80F10E36C206B003918BF0121B3
:10B4D0009847012384F80831284605B030BD03237E
:10B4E000FFF7D2BE07B500238DF8073003220DF118
:10B4F0000703FFF701FF03B05DF804FB002070476E
:10B5000083680A7893F820309A428CBF6FF00A0063
:10B5100000207047006812780368D3F8AC301847F1
:10B52000006803681B6A1847006812780368DB6AC2
:10B530001847006812780368DB6F184782680B6849
:10B54000D269934205D8022B34BF6FF00A00002065
:10B5500070476FF00A0070470068126803689B6DBF
:10B56000184700680368D3F89030184700680368EC
:10B570005B69184713B50C4600F2011108460191AA
:10B580002EF078FE01990246204602B0BDE8104038
:10B5900034F066B913B50446084601912EF06AFEF0
:10B5A0000199024604F2011034F05AF9002002B069
:10B5B00010BD80680A46808C012302210CF060BB1C
:10B5C00080680A46808C012327210CF059BB8068D3
:10B5D0000A46808C01230B210CF052BB80680A467E
:10B5E000808C052303210CF04BBB38B505468068E1
:10B5F0000A46808C04230C210CF042FB044618B947
:10B600000146284600F00FF9204638BD38B50546FA
:10B610008068D1E901230C46808C89890CF0CCFA32
:10B62000A26828B1D4E90010BDE8384034F018B958
:10B63000D4E9000134F006F930B9AB68A189988CDF
:10B64000BDE838400CF0C0BB38BD1FB583681A3365
:10B65000CDE900310123029369460223ADF80C3095
:10B66000FFF7D4FF05B05DF804FB1FB583681933FD
:10B67000CDE900310123029369462723ADF80C3050
:10B68000FFF7C4FF05B05DF804FB1FB58368CDE983
:10B6900000310423029369460C23ADF80C30FFF708
:10B6A000B5FF05B05DF804FB1FB583681833CDE91D
:10B6B00000310123029369460B23ADF80C30FFF7EC
:10B6C000A5FF05B05DF804FB1FB583681033CDE915
:10B6D00000310123029369460823ADF80C30FFF7CF
:10B6E00095FF05B05DF804FB1FB583680433CDE911
:10B6F00000310523029369460323ADF80C30FFF7B0
:10B7000085FF05B05DF804FB70B5044680680A4605
:10B71000808C0E46012308210CF0B2FA054620B9B0
:10B72000236913B13178E0699847284670BD00005D
:10B7300038B520B90C4940F24D100BF04FFC0B4AC4
:10B7400000231446157C8D4205D1142202FB0343CD
:10B750000360002038BD0133072B02F11402F1D140
:10B760006FF00700F6E700BF24680600486806008F
:10B7700073B50023054601A816460193FFF7D8FFCD
:10B78000044620B9019B31469B68284698472046CD
:10B7900002B070BD38B505460C460431FFF7A4FF72
:10B7A00004F109012846FFF7E5FE04F11A012846D5
:10B7B000FFF74BFF04F110012846FFF785FF04F166
:10B7C00018012846FFF770FF04F119012846FFF71A
:10B7D0004CFF21462846FFF758FF05F5857104F117
:10B7E00011000722BDE8384034F03AB813B5002301
:10B7F00001AA062101930446FFF7BAFF019B50B945
:10B8000073B14FF47A72E0685A4304F1B8012EF034
:10B81000F3FF02B010BD002B08BF6FF00A00F8E77D
:10B820006FF00A00F5E74FF47A724A4300F1B8016D
:10B83000C0682FF04FB807B56323019350F8043C5C
:10B8400001AA5B680438984703B05DF804FB000068
:10B850001FB514460EF000F801280BD9E3780293C7
:10B86000A378019363780093044A2378042102208B
:10B870000CF072FB002004B010BD00BFD4680600BD
:10B8800030B5044689B0051F03A801910BF096FF5F
:10B8900054F8043C0199DC6803AA11232846A04708
:10B8A00009B030BD30B585B00D46FFF7E9FC002387
:10B8B000CDE901330446039301A9036C006B98475B
:10B8C00010B1062385F824302068036801AA1B6E96
:10B8D0002946984705B030BDF0B585B00E46FFF754
:10B8E000CFFC836893F84510436B8DF80F10054625
:10B8F00023B90024032386F824300FE0012033F01D
:10B900003FFF04460028F4D00023009301466F6BEC
:10B91000286B0DF10F02B8470028EBD128680368A7
:10B920002246D3F898509DF80F303146A847054677
:10B9300014B1204633F07EFF284605B0F0BD7FB538
:10B9400004460D460192FFF79BFC002340680393D9
:10B95000036801991B6A03AA984754F8043C261F00
:10B96000D3F8883003AA29463046984704B070BD02
:10B9700070B58CB02B2204460D46061F002101A88D
:10B9800033F096FF184834F039FC132828D81648AD
:10B9900034F034FCC0B28DF80400134834F02EFCAF
:10B9A00013281FD8104834F029FCC0B29DF8042099
:10B9B0008DF819000C490DF1050033F051FF9DF889
:10B9C000192009490DF11A0033F04AFF54F8043CDC
:10B9D00001AAD3F8A0302946304698470CB070BD74
:10B9E0001420D8E71420E1E73085060010B504469E
:10B9F00041B1FFF7FBFE28B920460121BDE8104008
:10BA0000FFF711BFE06804F1B8012EF03CFF002001
:10BA100010BD10B5044692B03822002104A833F0BE
:10BA200047FFA2680023473204A92046CDE901332D
:10BA30000393FFF7D0FA50B9236C206B01A9984704
:10BA400028B92068036801AA5B6E04A9984712B060
:10BA500010BD00002DE9F0410C4692B019B101F182
:10BA6000B807874203D02B49B8200BF0B7FA382229
:10BA7000002104A833F01CFFA368012093F84510AF
:10BA80008DF80F1033F07CFE064640B9E0684FF4A5
:10BA90007A7239462EF0B0FE12B0BDE8F081656BC7
:10BAA0008DB104AB009301462346206B0DF10F02CC
:10BAB000A847054628BB2068036832469D6C9DF860
:10BAC0000F3004A9A847A368002193F845208DF8FA
:10BAD0000F20304633F0ECFEA56B95B104AB00931C
:10BAE000206B23460DF10F023146A847054640B9A9
:10BAF000206803683246D3F84C809DF80F3004A9C3
:10BB0000C047304633F096FE0E35BFD02046FFF7D3
:10BB10006DFEC1E7EC68060000680B68984294BFB0
:10BB200000200120704700680A68824294BF00200C
:10BB3000012070470023C0F8B030A0F8B430D0F82E
:10BB40008C300B80022380F8B630704730B585B05A
:10BB50000C460021039103A9CDE90032FFF78CF9CF
:10BB600038B903988168DDE900324D6B0830214611
:10BB7000A84705B030BD000070B5164610B1037A75
:10BB8000042B03D9124941200BF028FA03680B60FB
:10BB90008288104DA2FB0534DA0B42EA44424A6027
:10BBA000037A0D4AC488D35C9C40E30BC4F30E04B3
:10BBB000A4FB05453360E30B43EA45437360084645
:10BBC0000CF0D4FA3046BDE870400CF0CFBA00BF9C
:10BBD0000869060000CA9A3B646A060070B500F165
:10BBE0001405044600F10C012A46012000F036FF3E
:10BBF00020B10B4B93E8030085E8030004F1240611
:10BC00006068324604F11C01FFF7B6FF2368314635
:10BC10002846984700280CBF6FF00A00002070BD2E
:10BC2000546A0600000000007FB50026054602AAFF
:10BC300069460120CDE90066CDE9026600F00EFFFD
:10BC4000044630B1204B6B602E6003232B7204B08E
:10BC500070BD0199009B2B60C80319A3D3E9002391
:10BC6000490C39F003FD0399A88015A3D3E90023FB
:10BC7000C803490C39F0FAFC029B00EBC330B0F565
:10BC8000804F0ED3114B984210D9114B984210D9C6
:10BC9000104B98424FF003030ED943F6FF72EA802F
:10BCA000D4E723462246D040E880CFE7012305228F
:10BCB000F9E702230A22F6E70D22F4E7AFF300804A
:10BCC00000CA9A3B000000000000FF3FE0FF0700B1
:10BCD00000FCFF0000E0FF0730B597B000230DF136
:10BCE0000E0105468DF80E308DF80F30FFF7F2F893
:10BCF00018B128499F200BF071F99DF80E3033B32D
:10BD00003822002108A833F0D3FD05F1A80108A8C6
:10BD100007F0D6F9044640BB34F09EF9C5F8B000F0
:10BD2000049005A8CDE905440794FFF77DFF286836
:10BD3000036804AAD3F8B43008A998470446A0B908
:10BD40009DF82C30012B13D91249BA20D3E70DF1FD
:10BD50000F012846FFF7BAF8044610B10D49A32099
:10BD6000C9E79DF80F30002BCAD1204617B030BD6F
:10BD70000DF072FD0128F8D99DF82C20064B022108
:10BD800053F822300093054A95F8B43008460CF079
:10BD9000E3F8EAE7086906005C6A0600266906001F
:10BDA00038B504460D46FFF797FF20B994F89A304E
:10BDB00084F8B6002B8038BD73B504460D46FFF7F6
:10BDC0008BFF064680BB94F89A302B8094F8B42001
:10BDD00094F89B30511C994228D10B2094F89A601A
:10BDE0000CF09EFA3044288094F8B43094F89B20EC
:10BDF0000133DBB29A4284F8B43015D200221146E6
:10BE0000012000F02BFE60B394F8B5300133DBB2B3
:10BE1000052B84F8B53028BF0523581EC0B204EBAB
:10BE20004004B4F890302B8002B070BD9A42DBD34E
:10BE300002460146012000F011FE0028D4D001A9DD
:10BE400020460196FFF718F80028CDD101988368A5
:10BE500001219B68083098470028C5D184F8B400B8
:10BE6000C2E784F8B600DFE70023C0F8B030A0F8DE
:10BE7000B43080F8B630704737B504460D4600F14F
:10BE80007401C06801912EF0FEFC0022C4F8B020BD
:10BE9000A4F8B4200222D4F88C30019984F8B6209A
:10BEA0006DB99BB26BB1012284F8B720E0684FF402
:10BEB0007A725A4303B0BDE830402EF09DBC2B8807
:10BEC000F0E703B030BD37B501250DF1060104469A
:10BED000ADF80650FFF7D0FF84F8B65003B030BD80
:10BEE000F0B50C4685B039B101F17407874203D132
:10BEF00091F8B630022B04D922494FF4A4700BF00C
:10BF00006DF801260021CDE90211ADF8066013B3EA
:10BF100002AA304600F0A2FD0546E0B9A368029AE5
:10BF200093F838309A4216D90DF096FC20B1164A93
:10BF3000294630460CF010F802AA002511460120CF
:10BF4000CDE9025500F0AAFD0123C4F8B050A4F8D1
:10BF5000B45084F8B63094F8B6200C4B0DF10601BD
:10BF600053F8223020469847BDF8063033B14FF4DD
:10BF70007A72E0685A4339462EF03EFC002005B044
:10BF8000F0BD00BF086906003F690600686A060048
:10BF900038B50446036D006B15469847A5B194F873
:10BFA00009312BB12046FFF734FD002384F8093115
:10BFB000D4F8C03083B9D4F8C4306BB9012120461D
:10BFC000BDE83840FFF712BD2A462946012000F09F
:10BFD00045FD08B12946F2E738BD90F8B630012B8F
:10BFE00001D0FFF770BF7047F0B587B00E46174617
:10BFF000FFF746F90024054604AA02A93846CDE910
:10C000000244CDE90444FFF7B7FD01AA02213046FE
:10C01000019407F003F82A6F019B9A42044612D15B
:10C0200004AA02A9012000F039FD044658B931469E
:10C0300028460122FFF7ACFF21462846FFF71CFFE8
:10C04000204607B0F0BDDDE902231343F8D12846AE
:10C05000FFF7C3FFF4E70000F0B591B014460D46BA
:10C06000FFF70EF9002754F8043B019324223946C8
:10C07000064607A8CDE90277049733F019FC2C4B4C
:10C0800005A8CDE90534FFF7A9FD044600283FD1F6
:10C090000999089B0293C80323A3D3E90023490C01
:10C0A00039F0E4FA0B99ADF80C001FA3D3E9002393
:10C0B000C803490C39F0DAFA0A9A00EBC232B2F539
:10C0C000804F19D31B4B9A421AD91B4B9A421AD94B
:10C0D0001A4B9A424FF0030318D943F6FF72ADF89A
:10C0E0000E208DF810303068036801AAD3F8B830FC
:10C0F0002946984711B0F0BD23462046C240EEE7DE
:10C1000001230520FAE702230A20F7E70D20F5E7CF
:10C110000DF0A2FB0028EDD001210846084B094A8A
:10C120000BF01AFF3846E5E700CA9A3B0000000012
:10C1300027BB0200E0FF070000FCFF0000E0FF0754
:10C140006A6906007369060070B592B015460E461E
:10C15000FFF796F800232A680393D0F8B0309A428C
:10C16000044647D1242200210DEB020033F0A0FB4E
:10C17000464B07930435002304A9204608950493F1
:10C18000FEF77AFE054607A8FFF728FD002877D1BD
:10C1900010AA0EA9012000F081FC002870D13C49B2
:10C1A0000CA80BF0CBFF002835D0012231462046E9
:10C1B000FFF7EEFE002D56D096F82F300BB105F0AC
:10C1C0009BFF35B9049B5B681BB129462046FFF7EE
:10C1D00053FE0DF041FB012809D90C9B0193109BE4
:10C1E00000932C4A2C4B032102200BF0B5FE0020BB
:10C1F00012B070BD03A805F0B1FF2B6810B9039A07
:10C200009342AFD00193D4F8B0300093234A224B2D
:10C2100003210020E9E7CDE905000AA90EA80BF0EB
:10C2200071FFE8B10AAA0EA905A80CF017F80823B7
:10C2300005AA05212046FFF789FC0DF00DFB01281A
:10C24000B3D9069B4FF47A72B3FBF2F30193059BCB
:10C250000093134A104B032102200BF07DFEA4E74C
:10C260000EAA0AA9E0E7B368049A1B6852689A42CA
:10C27000A2D12B462A4614212046FFF767FC9BE7F4
:10C28000236D206B0122314698479AE719BB0200C3
:10C29000546A0600C369060097690600F169060042
:10C2A000A169060030B58FB01546FEF7E9FF2422DC
:10C2B0000446002105A833F0FBFA154BCDE9033500
:10C2C00094F8B630012B1FD003A8FFF787FCD8B92C
:10C2D0000DF0C2FA012807D90C9B009302210D4BE7
:10C2E0000D4A08460BF038FE33F0B6FE052390FBEE
:10C2F000F3F303EB8303C31A01330DF10A01204664
:10C30000ADF80A30FFF7B8FD00200FB030BD00BF18
:10C3100019BB0200196A0600256A0600D0E902234B
:10C3200093423DBF4268D154C368FC233ABF0133F6
:10C33000C36003707047D0E9022393423DBF5A1C8B
:10C34000C2604268FC2332BFD05C0370002070479B
:10C3500030B50368032B03D0042B94BF5B08032381
:10C360000C68032BA2EB040214BF01250225AA428C
:10C3700012D3027902F03F0242EA831222700A6865
:10C38000032B02F101040C6004D1036853700B68A5
:10C3900001330B60002001E06FF0030030BD30B5C9
:10C3A00003685C1CA2421BD31C7804F03F040C7190
:10C3B00004682478A4090C600468651C05600D6895
:10C3C000032D09D1A51CAA420AD363780B60036828
:10C3D00001330360002030BD0123AB400B60F9E75F
:10C3E00003606FF00900F6E7007840FA03F31A40A3
:10C3F0000A7000207047008840FA03F31A400A8050
:10C40000002070470A4002FA03F3027813430370D6
:10C41000002070470A4002FA03F3028813430380A6
:10C4200000207047814294BF6FF0030000207047E6
:10C43000814234BF6FF0030000207047814294BFF7
:10C440006FF0090000207047814234BF6FF009008F
:10C450000020704710B503685C1C94429FBF1B7896
:10C460000B700368013396BF03606FF00900002072
:10C4700010BD0B6810B55C1C94429FBF18700B6810
:10C4800001330B6094BF00206FF0030010BD10B5A6
:10C490000446084621688B1C934207D8022233F0D9
:10C4A000DFF9236802332360002010BD6FF009001C
:10C4B000FBE713B5ADF806000868831C93420C46F1
:10C4C0000AD802220DF1060133F0CAF923680233BB
:10C4D0002360002002B010BD6FF00300FAE70B6884
:10C4E00010B5DC1C94420BD8020C1A700B68020ABF
:10C4F0005A700B6898700B6803330B60002010BDF6
:10C500006FF00300FBE710B50446084621680B1DD9
:10C51000934207D8042233F0A3F92368043323603D
:10C52000002010BD6FF00900FBE713B5019008680B
:10C53000031D93420C460AD804220DEB020133F08E
:10C540008FF9236804332360002002B010BD6FF020
:10C550000300FAE738B504460D46216810464A192B
:10C56000934207D32A4633F07BF92168294421609E
:10C57000002038BD6FF00900FBE770B5166814465F
:10C58000721893420D4609D30A460146304633F0ED
:10C5900067F9216829442160002070BD6FF0030015
:10C5A000FBE71FB50C468DF80C00114602A81A4691
:10C5B000012301920293FFF7CBFE019A10B92046A6
:10C5C000FFF757FF04B010BD37B5069D00920C462B
:10C5D0008DF8040019462A466846FFF7B9FE28B9C7
:10C5E0000A462B4600992046FFF7C7FF03B030BD2F
:10C5F00070B504460E4615460021102233F058F956
:10C60000C4E9016570BDFFF789BE38B50C46090A5B
:10C61000FFF784FEE1B2BDE83840FFF77FBE38B5D2
:10C620000C46090EFFF77AFEC4F30741FFF776FECA
:10C63000C4F30721FFF772FEE1B2BDE83840FFF70F
:10C640006DBE38B50C468D18AC4200D138BD14F81B
:10C65000011BFFF763FEF7E738B50C68032C0D46A6
:10C6600003D0042C94BF64080324297901F03F010E
:10C6700041EA8411C9B2FFF751FE032C04D1297895
:10C68000BDE83840FFF74ABE38BD38B51546FFF75C
:10C69000E3FF2946BDE83840FFF740BE38B51546F0
:10C6A000FFF7DAFF2946BDE83840FFF7AEBF38B5DF
:10C6B0001546FFF7D1FF2946BDE83840FFF7AFBF69
:10C6C00037B515460193FFF7C7FF019A294603B016
:10C6D000BDE83040FFF7B5BF08B5FFF72CFE087086
:10C6E00008BD10B50446FFF726FE00060860204688
:10C6F000FFF721FE0B6843EA004008602046FFF781
:10C700001AFE0B6843EA002008602046FFF713FE7C
:10C710000B681843086010BD38B505468C18A14257
:10C7200000D138BD2846FFF706FE01F8010BF6E7F9
:10C7300010B50446FFF7FFFD94F900305BB900F037
:10C740003F030B7183110B700A68032A04D1204642
:10C75000FFF7F1FD086010BD012393400B60FAE77D
:10C7600070B50646002834D0002934D08B071CBF92
:10C77000033121F0030101F10804082C456938BF99
:10C78000082400F1140215B92C46204670BDD5E9E5
:10C790000031A34221D22A1D0D46F4E72819416039
:10C7A0002B681B1B2B5110602C60B3696B602C46EF
:10C7B000B56154F8082B0021083A204633F078F888
:10C7C0002A68F3689B1A3269F3609342DDD23361C1
:10C7D000DBE70446D9E70C46D7E71B1B072BDDD860
:10C7E0001160E2E730B540B139B18B0705D18269FC
:10C7F000A1F1080300F1180402B930BD9A4255684E
:10C8000023D0141D2A46F7E793422AD910465268CE
:10C810000AB19A42FAD304680519AB4209BF51F82C
:10C82000083C41F8042C1B19036014BF4360034605
:10C830005A68002AE1D0186819188A42DDD11168B7
:10C840000144196052685A60D7E70022256041F818
:10C85000042CC26851F8084C2244C2604269002A84
:10C86000D2D141F8042C4361E2E7000038B50C4610
:10C87000054638B331B349682B2923D92368DA1C1C
:10C8800022F0030293421DD153B9012032F078FF08
:10C890008207034603D00E49E5200AF09FFBA0B1B2
:10C8A00094E8030083E80300002003F1200198616D
:10C8B000596161682039C3E90810C3E9021119619F
:10C8C0002B6038BD6FF00A00FBE76FF00300F8E75C
:10C8D000746A060018B103680BB932F0ABBF704739
:10C8E00008B520B903494FF488700AF077FBC06897
:10C8F00008BD00BF746A0600F0B585B06E4600231F
:10C9000004463046CDE902330BF0A6FB054608BBD2
:10C9100004F11007FCF790FA314638460BF0F2FBB1
:10C92000B0B9009B22699A1A0C4BB3F900305A43F4
:10C930004FF47A73534302A803930BF017FC02A938
:10C9400004F118000BF02AFC96E8030087E80300C6
:10C95000FCF7AAFA284605B0F0BD00BFB05B002086
:10C960002DE9F04393688BB080460F46144663B3BD
:10C970001046E946FFF7C0FF48460BF06DFB064640
:10C98000F8B9FCF759FA0FCC02AD0FC594E80F00C7
:10C9900085E80F00FCF788FAB8F1000F0BD002A968
:10C9A00048460BF025FC04A948460BF0F7FB99E834
:10C9B000030088E8030027B10AAB13E9030087E806
:10C9C000030030460BB0BDE8F0836FF01806F8E7BF
:10C9D0002DE9F0410F468AB015468046002837D031
:10C9E000002935D0104602ACFFF786FF20460BF039
:10C9F00033FB064640BB98E8030004AB83E8030022
:10CA000094E8030006AB83E8030097E803000AAB51
:10CA100003E90300FCF710FA0FCC0FC594E80F00F0
:10CA200085E80F00FCF740FA0CF016FF01280BD93F
:10CA300002214FF47A72059BB3FBF2F30846009390
:10CA4000054A049B0BF088FA30460AB0BDE8F08135
:10CA50006FF00806F8E700BF866A060008B50346CF
:10CA6000022B0846114603D90949A0200AF0B6FA5C
:10CA7000012B05D0022B08D0BDE808400BF0ECBA22
:10CA8000044ABDE80840FFF76BBF034AF9E700BF5F
:10CA90009B6A060014740020F47300200346022BE6
:10CAA000084610B5114603D91749B8200AF096FA7E
:10CAB000012B04D0022B21D06FF0050010BDF8B17E
:10CAC000F2B10368ABB943689BB913688BB954687A
:10CAD0007CB9202221460D4832F0EAFE0CF0BCFE63
