:020000040000FA
:100000008047002059110000C34F00004511000037
:1000100045110000451100004511000000000000DE
:100020000000000000000000000000005912000065
:1000300045110000000000004511000045110000BE
:10004000F5130000F5130000F5130000F513000090
:10005000F5130000F5130000F5130000F513000080
:10006000F5130000F5130000F5130000F513000070
:10007000F5130000F5130000F5130000F513000060
:10008000F5130000F5130000F5130000F513000050
:10009000F5130000F5130000F5130000F513000040
:1000A000F5130000F5130000F5130000F513000030
:1000B000F5130000F5130000F5130000F513000020
:1000C000F5130000F5130000F5130000F513000010
:1000D000F5130000F5130000F5130000F513000000
:1000E000F5130000F5130000F5130000F5130000F0
:1000F000F5130000F5130000F5130000F5130000E0
:10010000F0B5214B214AC3F8002685B0C3F8042678
:10011000C3F80826C3F80C26C3F81026C3F8142623
:10012000C3F81826C3F81C2604F0CBFA01A800F087
:1001300009FC174B1B68834200D0FEE74FF4E041F7
:10014000002005F098F9044600B1FEE769469DF8E5
:10015000080004F095FA009B039D1D44019B1E8935
:1001600000F012FEAF1900F0E5FD01F031F8AB59D7
:1001700083F3088884F31488BFF36F8FBFF36F8F06
:100180007B689847FEE700BF000001403546526E8D
:100190007800002021B1012906D06FF015007047CA
:1001A000044B53F830007047024B03EBC003586810
:1001B000704700BF185900002DE9F04F7E4FDDB0A9
:1001C000DDE9688914461D46DDF8A8B13E6800F0F7
:1001D0007BFD7A4B0122C3F800253CA803F090F97F
:1001E000B8F1000F07D0B9F1000F04DD4A464146CF
:1001F0003CA804F02DFE23896289D4F80CA0134496
:100200009A444FF00008C24551D80FA93CA803F00A
:10021000E9F96A4B0022C3F80025C3F80025BBF1B9
:10022000000F04D020220FA9584604F03AFF002303
:1002300000932A464FF6FF73214609A804F042FABC
:100240000390002844D128460E9C04F030FB8442E1
:100250003ED8DFF870B1DFF864914FF0FF340DF154
:100260001E0307AA08A909A804F07AFA00282FDBC0
:1002700040F09B80BDF81EA0BAF1100F31D1BDF83F
:100280001C80B8F1200F23D1089943463CAA284688
:1002900004F01CFEE0B942463CA90FA804F0D8FACD
:1002A000474B1B68834213D101230393D7E7679B16
:1002B000669AAAEB0809994528BF99464B464146DC
:1002C000284604F003FE28B13C4B0022C3F8002569
:1002D0003E686DE066994A463CA804F0B9FDC84402
:1002E00091E7BAF1010F3FD1BDF81C30202BEFD8B8
:1002F00008993CAA284604F0E9FD04460028E7D105
:100300009DF81C300493202B0AD8DBF80030DFF86E
:10031000B8800593059B9C4205DB0023C9F8003596
:100320004FF0FF349BE700F0CFFCC9F800A51FA8F1
:1003300003F0E6F8D8F8042058F8081B12681FA844
:1003400004F086FD17A91FA803F04CF90022C9F894
:100350000025049A3CA917A804F07CFE10B9C9F83E
:1003600000057CE70134D5E7BAF1220F7FF477AFBF
:10037000631C3FF474AFDBF80030A342D0DDBDF85E
:100380001C30802BA4D808993CAA284604F09EFD76
:1003900000289DD1E4B2BDF81C3000943CAA202175
:1003A0000FA800F013F80646BAE7039B002B8FD086
:1003B00030465DB0BDE8F08F0400002000A0025080
:1003C0007800002020590000245900002DE9F04752
:1003D00096B016461D469DF87820374BDFF8E8802A
:1003E00053F83210019103EBC20307465B68D8F85B
:1003F0000090186802AA0144302301A804F0B6FC5A
:10040000002851D1DDE901431C4403AA06AB214673
:1004100001A804F0D3FC002846D1049A072A43D14E
:100420002649059804F016FE00283DD1079A082AAF
:100430003AD12349089804F00DFEA8BB02AA214630
:1004400001A804F0A7FC78BBDDE901A30AEB0302D5
:10045000944229D1412B27D13544302303AA294680
:1004600002A8029604F082FCE0B9DDE902321344EE
:100470009D4217D32A4602A906A804F0BDF988B9FF
:100480002A4602A90EA804F0B7F958B99AF8003024
:10049000042B07D1202306AA0AF10101384600F0F7
:1004A0002BFC28B1D8F80090484616B0BDE8F0877C
:1004B000044BD3F80090F7E724590000B35C000028
:1004C000AA5C00007800002004000020094A0B7894
:1004D000400052F820108B4209D0013052F8200021
:1004E000834214BF4FF0FF304FF4407070474FF419
:1004F000407070472C5900001FB50F4B13F83000A7
:100500000C4600F077FC50B92068816810236A46D9
:10051000103904F0DBFC28B1206804F0D6FC4FF061
:10052000FF3006E005491022684604F093FD0028DC
:10053000F2D104B010BD00BF2C5900009A5C00003D
:100540002DE9F041324B88B0064600200D461C686C
:10055000FFF720FE06A9C0B200F04CFC002853D1E2
:100560002946FFF717FE2C2407A9C0B204FB056437
:1005700000F040FC00282ED02C276F4306EB070824
:10058000069BD8F8101011F0100133D14FF480728F
:100590000192204A0092CDE90311224602910846B9
:1005A000FFF70AFE04461C4BF25906989A420CD1FA
:1005B000D8F80C20B8F808309B1806D2826893420D
:1005C00003D2164B1B68A3421BD0C5B18268002121
:1005D00004F0A6FC13E0079804F0BFFC0746079858
:1005E00004F073FC631EE21C13F8011FB942C3D16F
:1005F0009342F9D11DB10699304604F02AFA084B0E
:100600001C68069804F061FC204608B0BDE8F08143
:1006100004000020101600203DB8F396780000205A
:10062000000000207FB50D46044600212846CDE994
:10063000021104F0CDF9E8B12368154EB34203D19D
:1006400003AA204604F058F9E36AB34204D102AA8F
:100650000121204604F050F9DDE90232934288BFBF
:100660000393039BAB60039A2946204600F040FAAF
:1006700004B070BD01A9FFF73FFF019805F1080123
:1006800004F0F8F8AB680198039304F01EFCEAE765
:100690003DB8F3962DE9F84FDFF878B01B4C1C4DB0
:1006A000884691469A4600260B9B9E4201D3002025
:1006B0000FE00B9B174A9F1BB7F5806F28BF4FF4C5
:1006C00080673B4606EB0A01404604F0FFFB10B191
:1006D0000120BDE8F88F0A993B465A4671184846F2
:1006E00004F009FC0028F3D1C4F800563E44C4F8D5
:1006F0000456C4F80856C4F80C56C4F81056C4F88A
:100700001456C4F81856C4F81C56CDE70000014032
:100710003546526E7C100020F0B5854B43620E4684
:10072000844B0365002187B004460846FFF732FD7D
:1007300004F12001C0B200F05DFB002859D1012175
:10074000FFF728FD04F14C01C0B200F053FB002874
:100750004FD1204604F011F900284BD10022114658
:10076000204604F0B3F800285BD1204604F06DFA6F
:10077000002856D002A804F022F90146204604F0D1
:10078000BCF900284DD102A804F022F980F0010143
:1007900002AAC9B2204604F099F80246002840D1C6
:1007A00002A804F015F9054600283ED102A920460A
:1007B000FFF738FF9DF80F3084F85830033B012BCA
:1007C00006D8284600F0E4F810B1FF2384F858302A
:1007D0009DF80F30023B022B06D8002000F0C2F833
:1007E00010B1FF2384F8583094F85830FF2B13D100
:1007F000FEE7FEE70123984284F85830AED194F822
:1008000058308DF80F30042B37D8012B3BD84DD002
:10081000FF2384F8583049E002AA0021204604F062
:1008200055F8012384F85830E9E79DF80F70012F3F
:1008300017D1104601F0C4FC831E022B05460DD8CB
:1008400039462046FFF77CFE3B4B1B68984205D09B
:100850003A4B1D68A84214BF0525012584F858505D
:10086000CDE701212046FFF76BFE334B1B68984212
:100870000CBF9DF80F300523D4E7052BC8D100200D
:1008800000F086F810E002A92046FFF7CBFE94F8AE
:100890005830DA1E012A0ED8002000F079F800281E
:1008A000B6D1002000F05EF80028B1D194F858309D
:1008B000FF2B03D1FEE7022BF8D1F2E70022012B38
:1008C0001F4D019213D01146204603F0FFFF70B177
:1008D0002D681022002102A804F0EEFBE06C04F069
:1008E000F4FA206A04F0F1FA284607B0F0BD0021BE
:1008F0002046FFF725FE104F3B688342E8D12A6867
:100900009A42E5D00D4A12689A42E1D0019B013328
:100910000193019B012B00D0FEE7206A03F0B6FE95
:100920003071236A5B6834603D68B360D1E700BF13
:100930007C0800207C0000207800002000000020BF
:100940000400002038B5064D0446602200212846E8
:1009500004F0B2FB21462846FFF7DEFE38BD00BF9B
:100960007C14002013B5094B01A913F8300000F0E6
:1009700041FA48B9019804F03BFE0446019804F09E
:10098000A4FA204602B010BD0124FAE73459000051
:100990001FB50F4B01A913F8300000F02BFAA8B9CE
:1009A000019802A901F0B6FB044668B99DF80B3026
:1009B000032B03D1019804F0E9FD0446019804F0EB
:1009C00084FA204604B010BD0124F7E70124F8E7BB
:1009D000345900002DE9F34106460C4617461D46E2
:1009E0000BB9002628E0184603F0F2FF0028F8D1E2
:1009F0006946FFF781FD009838B90124009804F09A
:100A000064FA204602B0BDE8F08101A903F032FF8C
:100A10000028F2D1009804F058FA3046019904F009
:100A2000A9F8736A5E686B79012B21D1002CD8D1AB
:100A30002B68834298BF002621460020FFF7AAFBBF
:100A40006946C0B200F0D6F90028D6D1009820231C
:100A50003A46314604F03AFA04460028CDD1002D3A
:100A6000CCD03C680D4BE41A18BF4FF0FF34C5E7FB
:100A7000022BB6D12B68012B05D98342B1D8B4FA29
:100A800084F46409ADE7ACD1002CD5D0012CA8D1F9
:100A90002C79023C18BF0124A3E700BF3DB8F396B0
:100AA00073B54B681446114A03F0FF239342064680
:100AB0000D4618D10B68012B15D16946204601F06F
:100AC00029FB9DF80030032B0DD12146304603F061
:100AD000C0FF204604F05AFDA968204603F0D8FE66
:100AE000204601F0F7FA02B070BD00BF000100041B
:100AF0002DE9F04F0C4689B01146054604F03AF84E
:100B00006B6A039020465E6803F062FF90B1E86D67
:100B100003F0A0FEAB6A0022013B3244904201D9AF
:100B2000013BFAE7039A934204D80123E37109B029
:100B3000BDE8F08F06A9032000F05CF907A90120A9
:100B400000F058F9079A21462846FFF7A9FF637974
:100B5000012B4BD1039FDFF858B141E02268039984
:100B6000C2F101030B44BB4239D36B6A196853F8D5
:100B7000370003EBC703012A53F8083CA0EB010937
:100B8000A3EB010A11D1079B0493E368022B08D061
:100B90004146284603F05DFF22464146284603F0C1
:100BA0008DFF0499284603F054FF324649464046DB
:100BB00003F04DFF534642464146CDE90096284694
:100BC000FFF768FD2146284603F00FFF2368013335
:100BD000236020B1DBF800300133CBF80030013F57
:100BE000DDF81880002FB9D101232360022363713F
:100BF0000127039BDDF818909F4206D9484604F070
:100C000064F9079804F061F991E72368BB424DD875
:100C10006A6ADDF81CA052F83710D2F800B00491CF
:100C2000FB00083BD1582A6DD0581368A0EB03088D
:100C30002379012B38D1A1EB0B01324648460591AF
:100C400003F005FF0599009143464A465146019637
:100C50002846FFF71FFD2146284603F0C6FE022363
:100C6000237118B1124A13680133136032464146AA
:100C7000504603F0ECFE049B5246A3EB0B0349469F
:100C8000CDE900862846FFF705FD2146284603F0FA
:100C9000ACFE2368013323600123237130B1044A81
:100CA00013680133136001E0022BDFD00137A0E7A6
:100CB000DC1400200A4619B1024B00211B681847BA
:100CC000704700BF0800002070B5094D2B780BB1AC
:100CD000002070BD074C0126C4F8006502F0B2FC8C
:100CE00018B92E70C4F80005F2E74FF0FF30F0E7B6
:100CF0001017002000A002502DE9F041DFF83080ED
:100D0000ACB01F4606460C461546FFF7DDFF012333
:100D1000C8F800352A4633460097214603A804F058
:100D2000B2FC0023C8F800352CB0BDE8F08100BF4C
:100D300000A00250BFF36F8F72B6124B4FF0FF321C
:100D4000C3F88020C3F88420C3F88820C3F88C201F
:100D5000C3F89020C3F89420C3F89820C3F89C20CF
:100D6000C3F88021C3F88421C3F88821C3F88C21FB
:100D7000C3F89021C3F89421C3F89821C3F89C21AB
:100D8000704700BF00E100E0164A4FF0FF33012139
:100D90005160C2F84833C2F8083302F5C0425160CE
:100DA000C2F84833C2F8083302F598325160C2F8ED
:100DB0004833C2F80833A2F508320021C2F8001502
:100DC000C2F8083302F51832C2F80015C2F8083329
:100DD000A2F51042C2F808354FF08042C2F808333D
:100DE000704700BF00B00040014B03600020704717
:100DF0004059000070B5114B1C680D46DCB1104B1A
:100E0000196800238B4202DB6FF0010070BD22469F
:100E100012F8106B864202D001331446F2E7E06804
:100E200010B96FF01200F1E704F00CFC0028F8D0C4
:100E30002C600020EAE76FF00C00E7E70C000020D0
:100E40004059000070B588B005460C46C0B26946EE
:100E50001646FFF7CFFF00281BDB0098C8B1436898
:100E60000293836822680195CDE903360023CDE91A
:100E700006230593C56804F028F86DB12846084993
:100E800001AA04F07AFA079808B9059B236008B014
:100E900070BD6FF01500FAE76FF01200F7E700BFC2
:100EA000694F0000014802F07DB800BFD45900002E
:100EB00030BFFFF7FDBF00BF704700BF70B5264BC6
:100EC00015469A6A12F0100F9A6A14BF1124102462
:100ED00012F0080F9A6A18BF1224920706460AD524
:100EE000586B9A6A140634D519B19A6A22F08002B6
:100EF0009A62132401E06FF01500174B9A6A12F002
:100F0000010F9A6A18BF142412F0200F9A6A18BFB2
:100F10001524D20602D49B6A9B070AD50E4B5B6848
:100F2000190506D5314600F009FA10B180F3098899
:100F30000224094B9A6A920642BF5A6A22F400526E
:100F40005A629A6A42F0FF029A6200232B7020468E
:100F500070BD6FF01500CCE700ED00E0134B9A6A0E
:100F600012F0007F9A6A14BF1E201D2012F0807FAD
:100F70009A6A18BF1F2012F4002F9A6A18BF212006
:100F800012F4802F9A6A18BF222012F4003F9A6A46
:100F900018BF232012F4803F9A6A6FEA02426FEA78
:100FA00012429A6218BF2420704700BF00ED00E093
:100FB00010B5184B0246986A9C6A10F4805F14BF03
:100FC0001720162014F4006F9C6A18BF1820A4057F
:100FD00008D5986A000404D51AB19A6A22F400422E
:100FE0009A6219200B4B9A6A12F4806F9A6A18BFA2
:100FF0001A20D2050CD49B6A13F4005F18BF1C2082
:10100000044A936A43F47F43936200230B7010BD3C
:101010001B20F5E700ED00E070B5454B5B688AB03A
:101020000546C3F30803002686F31188BFF36F8FCC
:1010300002F07F40B0F17F4F11D102F00C00082880
:101040000DD010074CBF0D4601260022033B8DF842
:101050000720032B05D8DFE803F01E5D615A3546F3
:10106000F3E700249DF807309BB92022294602A807
:1010700004F017F8099B002E54D0C3F3080222B9DC
:101080006FEA53236FEA4323099302A9204603F032
:1010900092FF0AB070BD264BDA6A9107E1D4DA6A92
:1010A000002ADEDBDA6A5200DBD55A69A96942F40C
:1010B00080725A61BFF34F8FBFF36F8F5A6931F857
:1010C000021C22F480725A61BFF34F8FBFF36F8FFF
:1010D0004DF6027291420AD09A6AD2B24AB10DF12B
:1010E000070201212846FFF7E9FE0446BAE72C680B
:1010F000B8E79A6A12F47F4F05D00DF1070101207D
:10110000FFF756FFF1E79B6AB3F5803FA9D3FFF7DE
:1011100025FFEAE70DF107020021E3E70DF10701E2
:101120000020EDE723F4FF7323F00103ACE700BFD9
:1011300000ED00E0024A536943F010035361704729
:1011400000ED00E0EFF30880EFF3098101B572468E
:10115000FFF762FF01BD00BF002080F31488BFF3DA
:101160006F8F00F055FA00200D490860BFF34F8FD4
:101170000C4880F3088800F03DF8202080F31188A7
:1011800009484FF40461401880F30988EFF3148094
:101190000221084380F31488BFF36F8F00F0A0F89A
:1011A00094ED00E08047002040170020BFF34F8FF0
:1011B0000549064BCA6802F4E0621343CB60BFF3F3
:1011C0004F8F00BFFDE700BF00ED00E00400FA050F
:1011D0000749D1F890200023C2F307221846934212
:1011E00000DB7047C1F89830C1F8A0000133F6E782
:1011F00000ED00E008B572B6002383F31388FFF713
:10120000E7FF144B4FF0FF32C3F88020C3F884206F
:10121000C3F88820C3F88C20C3F89020C3F894202A
:10122000C3F89820C3F89C20C3F88021C3F8842118
:10123000C3F88821C3F88C21C3F89021C3F8942106
:10124000C3F89821C3F89C2162B6BFF34F8FBFF358
:101250006F8F08BD00E100E01EF0040F0CBFEFF33C
:101260000880EFF30980816911F8021C0229FFD080
:1012700001B503F0A2FE01BD40B2002807DB044A1D
:101280004109012300F01F00834042F821307047DC
:1012900000E100E0054B420900F01F0053F8222056
:1012A000012303FA00F01040704700BF00E100E0A6
:1012B00040B20028A8BF00F1604001F10101B8BFB1
:1012C000064B4FEA4111ACBF00F5614000F00F0042
:1012D000C9B2B4BF195480F80013704714ED00E090
:1012E000144A08B5144B22F07F029A60BFF34F8F67
:1012F000BFF36F8FD3F8882022F47002C3F88820E0
:10130000D3F8882042F4A002C3F888204FF040426E
:10131000C3F83422BFF34F8FBFF36F8F0023E1EE8A
:10132000103A01F093FD01F0D9FD00F057F801F0FB
:1013300099FD00BF0000000000ED00E010F1160F65
:10134000074B08D0984208D34033834205D98B42DB
:1013500003D9044870474033F9E70020704700BFC5
:10136000801F0020C01F00200446084611461A4670
:101370000023E1EE103A084B202583F3098863B679
:101380004FF0000383F31188BFF36F8FA04785F3FD
:101390001188BFF36F8FFEE7C0470020014910227C
:1013A0000A60704710ED00E072B6404080F311888B
:1013B000BFF36F8FBFF34F8F30BF62B6BFF36F8F36
:1013C000704700BF72B6494081F31188BFF34F8F59
:1013D00020BF80F3118862B6704700BF0448002325
:1013E0002021C2180133302B82F80013F9D1704745
:1013F00000E100E001B5EFF30580A0F110004FEA35
:10140000C0000449014409C99847BDE801400249A8
:10141000084700004C570000B90E0000024B034A79
:101420000348022100F030B8000004200000002032
:10143000DC590000084AC2F898000B6823F01F032B
:10144000034343F01003C2F89C308B6843F0010360
:10145000C2F8A030704700BF00ED00E0044B052249
:10146000C3F89420BFF34F8FBFF36F8F704700BF57
:1014700000ED00E0BFF35F8F024B0022C3F8942021
:10148000704700BF00ED00E010B5034C0123227847
:1014900003F0B2FD207010BD11170020F0B5454DCE
:1014A0002C68082C85B000F28280FFF7E3FF002053
:1014B0000C2684420DD1404D404F2C706846FFF7FA
:1014C00093FC00240646A6420AD1FFF7C7FF00207E
:1014D0001CE0696806FB0011FFF7ACFF0130E8E78C
:1014E000009800EB04114FEA041CCB683B40B3F5B5
:1014F000000F4AD00CD8B3F5001F30D0B3F5800FE1
:1015000038D0B3F5801F12D06FF0150005B0F0BDD4
:10151000B3F1807F42D0B3F1007FF5D150F80C30A9
:1015200088684A6803F058FD40F4802009E050F8CC
:101530000C3088684A6803F04FFD40F0885040F452
:101540003020039028780728CDE90123DCD801A9B1
:10155000FFF770FF2B7801332B700134B3E750F89D
:101560000C3088684A6803F037FD40F0885040F43A
:101570000020E6E750F80C3088684A6803F02CFD3C
:1015800040F0007040F40030DBE750F80C30886821
:101590004A6803F021FD40F08270D2E750F80C3029
:1015A00088684A6803F018FD40F08870C9E74FF07A
:1015B000FF30ABE7F4590000111700200000F0FFE6
:1015C0004FF0804301224FF08051C3F87825D1F8C5
:1015D0003001082808D1D1F83411052904D806486B
:1015E000415C09B1C3F838264FF080430122C3F8AB
:1015F00080250020704700BF255D000020B1034B0F
:10160000800143F001031847704700BF10590000E4
:1016100000F042BE084B70B5C31A0D4607499B1037
:10162000044659430648402203F06BFD2B46014611
:101630002046BDE870401847E0140020B76DDBB6C7
:101640001057000073B50C4C0C4A4023041B009348
:101650000D460B460A49A41061430646094803F0AB
:101660007DFD011E05DA30462B4602B0BDE8704014
:10167000184702B070BD00BFE0140020CF51000039
:10168000B76DDBB61057000010B54FF02003EFF335
:10169000118483F31288BFF36F8F074A136823F016
:1016A0000201DB07116002D4012003F0ACFF84F3D8
:1016B0001188BFF36F8F10BD30150020002270B568
:1016C000012104461046FFF7F3FD0F4800F032FFFA
:1016D0000E4B984215D100F03DFF26690C4930466B
:1016E00003F0D1FB00280BDB012535642469084990
:1016F00004F11C0003F0C7FB002801DBE5640020B7
:1017000070BD6FF00400FBE7491700000000AD0B4F
:10171000145A000070B501460C2309484B43C41805
:10172000D4E90E56403300221844A26303F0D6FCDD
:101730002DB132462B460348BDE87040184770BDB6
:10174000E01400201057000010B1012804D07047A9
:10175000034B1B6C5B0701D1FFF7DCBF704700BF79
:10176000E014002008B54FF02003EFF3118183F35C
:101770001288BFF36F8F124A136843F002001060A3
:10178000DA0708D481F31188BFF36F8F0120BDE819
:10179000084000F0F1BE4FF08043D3F80C24D3F89A
:1017A0000C34DB07EED5074803F098FC81F3118871
:1017B000BFF36F8F0020BDE80840FFF7ABBF00BF4D
:1017C000301500202015002000F1744000F5A6001F
:1017D0000A289ABF024B33F910006FF00F007047D0
:1017E000845C0000024B0B6001231360704700BF54
:1017F000CC5A0000004870474C5A00000268154B54
:10180000FF2A08BF4FF0FF32C3F824254268FF2AA1
:1018100008BF4FF0FF32C3F828258268FF2A08BFAF
:101820004FF0FF32C3F83025C268FF2A08BF4FF0DF
:10183000FF32C3F834250269FF2A08BF4FF0FF3298
:10184000C3F838254269FF2A08BF4FF0FF32C3F8BA
:101850003C257047009002400C4B994210B504465D
:101860000FD14FF02003EFF3118083F31288BFF301
:101870006F8F237833B10023237080F31188BFF377
:101880006F8F10BDFFF79EFDEBE700BF0000AD0BB3
:101890002DE9F04F824685B088461746002A00F0B1
:1018A0008E80002B00F087800029C0F28880CA1843
:1018B0004168C96A8A4200F28280C8F1000505F0D9
:1018C00003059D4228BF1D467A4202F0030207F03D
:1018D000030658BF5642764206F003069E4228BFD2
:1018E0001E465A1B9B1B23F0030322F00309994554
:1018F000C8BF994602F0030BC8BFA2EB030BB9F1B6
:10190000000F18D0BB1908EB050249461846019391
:1019100003F08CFE04460146DAF81000FFF79CFF46
:10192000284A94423DD1B54205D0019B4A4619460A
:10193000781903F09FFBC5B1C5F10406A8EB0602B8
:10194000042102A803F072FE04460146DAF81000F2
:10195000FFF782FF1B4B9C4223D106F108032A4666
:101960000DEB0301384603F09CFBBBF1000F17D0D1
:10197000082108EB05024A440DEB010003F056FE76
:1019800004460146DAF81000FFF766FF0D4B9C4253
:1019900007D109EB05005A4602A9384403F081FB40
:1019A000084CDAF8100003F087FC204605B0BDE8CB
:1019B000F04FFFF709BF184605B0BDE8F08F6FF094
:1019C0001500F9E70000AD0B2DE9FF470F4605466E
:1019D00041681E469046002A73D0002B71D0042B1C
:1019E00001D9B3076DD117F003006AD1002F68DB6E
:1019F000CA6ABB19934264D803F049FC044648B153
:101A0000012003F044FC286903F056FC204604B092
:101A1000BDE8F087032E1CD83A460421684603F03F
:101A200005FE044601462869FFF716FF264B9C4237
:101A300034D132464146684603F033FB3A4604212E
:101A4000684603F0F0FD044601462869FFF704FFED
:101A500024E008F06043B3F1005F02D118F0030FF7
:101A60002BD0DFF864A0102EB14628BF4FF010092C
:101A70004A464146684603F014FB3A4649466846E2
:101A800003F0D1FD044601462869FFF7E5FE544501
:101A900004D1B6EB0906C8444F44E4D12046FFF711
:101AA00093FE0446012003F0F2FB0646286903F08A
:101AB00003FC002C08BF3446A8E73A4631464046AE
:101AC000BFE76FF01504A1E70000AD0B2DE9F84F5B
:101AD0000746D0F804800E46C1F30B039246002A55
:101AE00053D0C2F30B0018434FD100294DDB8B18A4
:101AF000D8F82C20934248D803F0C9FB0446C8B953
:101B0000DFF89090D8F82C30534519D103F091FDAF
:101B1000D346054638692946FFF79EFE4D4524D138
:101B2000BAEB0B0A5E44EDD1012003F0B0FB002CB0
:101B300008BF0446386903F0BFFB2046BDE8F88FB4
:101B4000BAF5803F09D3B3B2A3B93146012001F001
:101B5000A9F84FF4803B0546DCE7BAF5805F09D26F
:101B60000B4938690A4DFFF777FE2846FFF72CFE30
:101B70000446D9E7C6F30B000028F1D1314601F045
:101B800091F84FF4805B0546C4E76FF01504D4E785
:101B90000400AD0B0000AD0B2DE9F04743685D6B11
:101BA00090B007460AAA0021284603F012FC041E42
:101BB0006FDB0A9B2A681979186800F099F9041EEE
:101BC00067DB002201212920FFF772FBD7F8048090
:101BD0003A695549404600F0C7FFFFF7F5FD041E7E
:101BE00052DB524D0FCD0AAC0FC495E8030000261E
:101BF0000DF1040984E803000196AB23C9E90166ED
:101C00008DF804304A4BD3F82425D2B20492D3F88D
:101C10002825D2B20592D3F83025D2B20692D3F855
:101C20003425D2B20792D3F83825D2B20892D3F82D
:101C30003C350AA8DBB20993FFF7E0FD012001F073
:101C400009F804AD01462846FFF7D8FD394B994203
:101C500023D13146484603F0CEFA041E14DB23207C
:101C600003F0EBFC4FF0030A9F2331460AA8CDE9AD
:101C70000A66CDF81090CDF814A08DF828300C9598
:101C800003F0B9FA041E0BDA01F002F808B100F013
:101C9000EDFF204610B0BDE8F0876FF00404F3E7D5
:101CA0005246494608F1300003F0D4F904460028B2
:101CB00034D17A68537F023B012B2DD9167F033E26
:101CC000012E8CBF0026012603F0C6FA002828DB6F
:101CD000C2B2C0F380108642D6D00023012182F028
:101CE00040020AA8ADF800300A938DF80020CDF824
:101CF00010D005910C938DF828100B9503F07BFA0A
:101D000004460028C0D103F0A7FA041E01DBE30754
:101D1000F9D404EAE474B7E70126D5E76FF01204BA
:101D2000B2E70446B0E700BFEF510000D058000012
:101D3000009002400000AD0B024B0B6001231360CA
:101D4000704700BF3415002000487047E85A000073
:101D500010B503F064FC034C206003F05CFC606091
:101D6000002010BD341500204FF08042D2F810152D
:101D7000D2F8103501F01E0123F01F030B4343F08E
:101D80000103C2F81035024B00221A70704700BFE1
:101D9000141700204FF08053D3F83031082B20D196
:101DA0004FF08042D2F81015CB071AD5D2F8103573
:101DB00001F01E0123F01F030B43C2F81035D2F8C7
:101DC00008315BB1D2F8103523F01F030B4343F009
:101DD0000103C2F810356FF08B007047024B0122EF
:101DE0001A700020704700BF141700202DE9F04141
:101DF0000D46164603F00FFC31460746284603F011
:101E000060FA28B3B5FBF7F307FB135303BBB6FB2C
:101E1000F7F407FB1464DCB9B74213D803F0FBFBFB
:101E2000DFF834800746FFF7B5FF044668B9284657
:101E300000F036FC98F800300BB1FFF795FFF61B69
:101E40003D44F0D12046BDE8F0816FF08B04F9E706
:101E50006FF01504F6E700BF141700202DE9F843D2
:101E60000E463046194617461C4603F02AFA30B390
:101E700046EA040515F0030521D11CB3DFF84C90A8
:101E80006319032BA6EB050807D80F4AD2F80034D4
:101E9000DB07FBD50020BDE8F883FFF77BFF58B9CF
:101EA0007B1B4046196800F01BFC99F800300BB111
:101EB000FFF75AFF043DE3E76FF08B00EBE76FF0AD
:101EC0001500E8E72046E6E700E00140141700208F
:101ED000036803F01F025B09026004D0012B034872
:101EE00018BF002070474FF0A0407047000300501B
:101EF0002DE9F04FDFF89881DFF8989185B015460D
:101F0000824600EB8101514503D1002005B0BDE8B8
:101F1000F08FDAF80030D804C3F3432203F07F04D3
:101F200000F1AF807F2C4FEA134318F8027008BF0E
:101F30004FF0FF34222B00F2A780DFE803F01222DB
:101F400028432B3243A5A5A5A54672A5A5A5A5A501
:101F5000A5A5A5A575808386A5A5A5899194979A21
:101F60009D00C5F80C45601C18D003A80394FFF72A
:101F7000AFFF039B012606FA03F3C0F80835B3460A
:101F80002CE0C5F81445631C08D00026F7E7C5F817
:101F90000845E8E7621CC5F8084570D10AF1040A53
:101FA000B1E7631CC5F80C45F8D0012603A80394DB
:101FB000FFF78EFF039B4FF0010B0BFA03F3C0F802
:101FC0000C350BE0C5F81045DDE7C5F80845002FD6
:101FD000D9D1671CE2D00026B3460627DAF80030D4
:101FE000019303F40052002A03A81CBF4FF0000B1A
:101FF00001260394FFF76CFF039A019B00EB82001C
:10200000C3F3C114D0F800273B0243EA840343EA38
:102010000B0302EA0902134343EA4603C0F8003700
:10202000BCE7C5F80C45D2E7C5F86045661CDAF890
:102030000030B3D0C3F38033002BB6D095E7C5F89A
:102040006445F3E7C5F86845F0E7C5F86C45EDE78A
:10205000C5F82445621CA1D04FF0000B0126BDE756
:10206000C5F828457FE7C5F83045F3E7C5F834459E
:10207000F0E7C5F83845EDE7C5F83C45EAE7002646
:1020800094E76FF0150041E76FF085003EE700BF71
:10209000615D0000F0F8FCFF30B50C490C4D0B6899
:1020A0000246002405EB0310D0F80808C0B218B9A6
:1020B00004B10B60002007E00133072B4FF001044F
:1020C000F0D90B606FF01B00136030BD3C15002091
:1020D00000E0014030B5816885B0103921F0070477
:1020E000054602F03AFF10220146684602F0E4FF7E
:1020F00007491022684602F0D4FF10236A462146A1
:10210000284602F0F8FE003818BF012005B030BDA7
:102110009A5C000030B50D46816887B0102302AA92
:102120001039044602F0D2FE002802DA012007B07E
:1021300030BD102202A9204603F0C3F900283AD18D
:102140001E49102202A802F085FF00280CBF0123BF
:1021500002232B70204603F0A0F9012301460DF164
:102160000702204602F0B2FE0028DFDB9DF80730B0
:1021700003F00F021B096A702B7101220DF1070198
:10218000204603F09EF910B96B78042B03D9012384
:102190006B7000232B71A268183A22F00702083AEC
:1021A000A91C204603F0A0F90028BFD1E91C204655
:1021B00003F0F3F9BBE70323CBE700BF9A5C000011
:1021C0007FB5264D4400694655F8240003F0EBF92D
:1021D000002835D1013402A955F8240003F0E3F9B1
:1021E00001282BD103238DF808308DF80B309DF892
:1021F00000509DF808601A4A00241078294603F020
:1022000052F918B35078314603F04DF9F0B1937894
:10221000042B03D09DF80310994217D1D378042BD7
:1022200003D09DF80B10994210D11379042B09D1DA
:102230005079831E022B03D804B070BD0028D6D07D
:10224000FF20F9E79DF802109942F1D00134032CE8
:1022500002F10602D1D10120EEE700BFF05A0000E2
:10226000695D00004FF08053D3F83021082A06D171
:10227000D3F83431052B02D8024AD05C70470020D5
:10228000704700BF815D0000024AD2F80034002B85
:10229000FBD0704700E0014010B54FF08053D3F8F9
:1022A0003021082A4ED14FF080420021C2F80C1193
:1022B000C2F81011C2F8381502F54042D3F80414E0
:1022C000C2F82015D3F80814C2F82415D3F80C145A
:1022D000C2F82815D3F81014C2F82C15D3F814142A
:1022E000C2F83015D3F81814C2F83415D3F81C14FA
:1022F000C2F84015D3F82014C2F84415D3F82414BA
:10230000C2F84815D3F82814C2F84C15D3F82C1489
:10231000C2F85015D3F83014C2F85415D3F8341459
:10232000C2F86015D3F83814C2F86415D3F83C1419
:10233000C2F86815D3F84014C2F86C15D3F84434C9
:10234000C2F87035FFF78EFF18B1414B414AC3F810
:102350008C26FFF787FF18B13F4BFB22C3F81825E7
:10236000FFF780FF70B14FF080414FF08053D1F8FC
:10237000E42ED3F8583222F00F0203F00F03134378
:10238000C1F8E43EFFF76EFF20B1344B4FF400720A
:10239000C3F840264FF08053D3F83031082B09D1D1
:1023A0004FF08043D3F80024D20744BF6FF00102FE
:1023B000C3F800242A4AD2F8883043F47003C2F8E4
:1023C0008830BFF34F8FBFF36F8F4FF08053D3F838
:1023D0003021082A0ED1D3F83431052B02D8214AF6
:1023E000D35C3BB14FF01023D3F808224FF0804369
:1023F000C3F858254FF01023D3F80022002A03DB3E
:10240000D3F80432002B22DA174901234FF01020B1
:10241000C1F804351224FFF737FFC0F80042FFF778
:1024200033FFC0F80442FFF72FFF0023C1F8043543
:10243000FFF72AFFBFF34F8F09490C4BCA6802F41C
:10244000E0621343CB60BFF34F8F00BFFDE710BDC9
:10245000005000404881030000F00040009002401E
:1024600000ED00E07B5D000000E001400400FA05A3
:10247000F7B5044618B1012823D003B0F0BD4FF0E2
:1024800080430222C3F808230122DA60C3F8040162
:10249000D3F80431064601238DF8073042F2107557
:1024A0004FF08047D4B1012CE7D1D7F80C3403F4B6
:1024B0008033AEBB83B3012003F0A3F8013DF4D118
:1024C0002AE04FF080430022C3F808035860C3F8A5
:1024D0000021D3F800310DF10706DCE7D7F81834F6
:1024E00003F480333EB9002BC7D0012003F089F8F4
:1024F000013DF3D1C1E7D7F8182402F0030232609E
:10250000002BBAD09DF80700012803D103F079F819
:10251000013DC7D1012CB0D1054B00225A71ACE767
:10252000D7F80C2402F001023270002BEAD1F3E755
:1025300040150020044B1A7922B9012218609A80B4
:102540000248704702487047401500200000AD0B5C
:102550000C00AD0B08B5074B1B682BB10020FEF734
:1025600099FE08B9FEF788FE4FF080430022C3F8B9
:10257000182508BD4015002010B510B1012843D022
:1025800010BD4FF08043D3F81814D3F81824C803B3
:1025900021D502F00303012B04D013B10020FFF773
:1025A00067FF00234FF080420220C2F8183508224E
:1025B0004FF4827303F180430021196002F18042DD
:1025C0001C6801241460154A12680AB34FF0804356
:1025D000C3F80403D4E7D3F81424D107E1D5D3F822
:1025E0001C249207DAD40D4A12681AB10222C3F8E9
:1025F0000423C5E7D3F80421002AFBD00022C3F846
:102600000421D3F80431BBE700224FF48073D1E7F3
:102610001A68002AFCD019601B68B1E74015002039
:1026200010B54FF08043D3F800216AB10022C3F8FF
:102630000021D3F800210122C3F80823114B587957
:1026400010B95A711B6898474FF08043D3F80421A2
:1026500072B10022C3F80421D3F80421D3F818245E
:10266000D3F81824920704D10122C3F818259A60E0
:1026700010BD0222C3F80823024BBDE810401B68BE
:102680000120184740150020044AD2F80034DB0727
:10269000FBD50160BFF35F8F704700BF00E00140D2
:1026A0004FF080531A69B0FBF2F302FB130373B9C6
:1026B000084B0222C3F80425C3F80805D3F8002408
:1026C000D207FBD500220448C3F80425704703480D
:1026D000704700BF00E001400000AD0B0A00AD0BE9
:1026E00010B5054C0123C4F80435FFF7CDFF0023D6
:1026F000C4F8043510BD00BF00E0014070B5104DB6
:102700006C6B9CB14FF47A735C430A23B4FBF3F413
:102710000C4ED6F8003163B995F839304BB90A2020
:1027200002F06FFF013CF4D1074870BD4CF2503409
:10273000EEE795F83930002BF6D10448F5E700BFF5
:1027400048150020009002400700AD0B0000AD0BC3
:10275000094B10B500220124C3F80045C3F800213D
:102760001C6038B1FFF7CAFF044B984203D1044BF9
:1027700083F83840014810BD009002400000AD0BC6
:102780004815002070B500F06044B4F1005F5DD1E1
:1027900084075BD12F4C94F83050012D05D09D4219
:1027A00056D194F83850002D52D02B4D022B0BBF30
:1027B000C5F81025C5F80425C5F81405C5F80805A1
:1027C0000CBFC5F81815C5F80C154FF0000684F8B5
:1027D000396026680CBF08250425BEB994F8383046
:1027E0006BB11D4B05F1804505F524350022C3F87A
:1027F000002101232B60BDE87040FFF77FBF01205F
:10280000FFF7A6FF154B9842EBD170BDA66826B125
:10281000E0606161E2611248F7E7A2610E4A84F864
:1028200030300123A0602161C2F80061C2F8043396
:1028300094F8382002F0FF0012B9FFF789FFEAE7A9
:1028400005F1804505F524352B60E4E70548DCE714
:102850000548DAE748150020009002400700AD0B5C
:102860000000AD0B0A00AD0B0B00AD0B084B9A68D6
:102870005A621A699A629A69DA62DA689A6032B1BF
:102880005A691A61DA699A610022DA607047704702
:102890004815002000F01F0340090FD0012810D177
:1028A0000B4A02EB83020B4BD2F80007034043EACA
:1028B000012343F00203C2F8003770474FF0A042F3
:1028C000EFE7002203F5E07352F82330FFDE00BF8C
:1028D00000030050F0F8FCFF10B50E4B0238D3F89F
:1028E0003C26D3F83836072813D8DFE800F0110F5C
:1028F0000D0B0A080604100EC871100C8871100A1E
:1029000048710A711A0ECA701A0C8A701A0A4A7033
:102910000B7010BD00900240023807281FD8DFE876
:1029200000F02927251123211F04CB791B068A7962
:1029300043EA02434A7943EA02230A7913430E4ADF
:10294000C2F83C36CB781B068A7843EA02434A78C1
:1029500043EA02230A781343074AC2F8383670471D
:102960000023E4E70023E5E70023E6E70023EBE7A5
:102970000023ECE70023EDE7009002400268154BCE
:10298000FF2A08BF4FF0FF32C3F824254268FF2A10
:1029900008BF4FF0FF32C3F828258268FF2A08BF1E
:1029A0004FF0FF32C3F83025C268FF2A08BF4FF04E
:1029B000FF32C3F834250269FF2A08BF4FF0FF3207
:1029C000C3F838254269FF2A08BF4FF0FF32C3F829
:1029D0003C257047009002400A4B002283F83820C3
:1029E000094B01214FF08050C3F808131961D0F84A
:1029F0003001082808BF5965C3F80025C3F8002135
:102A0000704700BF481500200090024030B5194DB6
:102A10000FCD8DB006AC0FC495E8030084E8030029
:102A20001549D1F82435DBB20093D1F82835DBB253
:102A30000193D1F83035DBB20293D1F83435DBB2F3
:102A40000393D1F83835DBB20493D1F83C3506A8AE
:102A5000DBB20593FFF792FF0023C1F80031012399
:102A60000B60D1F80031002BFBD06846FFF786FFE2
:102A70000DB030BDE85800000090024070B590F8ED
:102A80002930044613B190F82A204ABB6068FF2819
:102A900060D0A268FF2A5DD0E268FF2A5AD022697E
:102AA000FF2A57D0B3B90321FFF7F4FEA068FFF760
:102AB000F1FEE068FFF7EEFE2069FFF7EBFE6069CC
:102AC000FF2801D0FFF7E6FEA069FF2802D003210E
:102AD000FFF7E0FE94F82A3013B9201DFFF74EFFF0
:102AE0001D4E636A73631D4D94F8293086F83A30A1
:102AF0000123C5F80833FFF789FF2368C5F840357F
:102B0000A37F617F227F9B0143EAC1031343E27FDE
:102B100043EAC213C5F84435D5F8002694F82030AE
:102B200022F07F4222F0FF02134394F8212043EA6F
:102B3000026394F8222043EA426394F8232043EA94
:102B40000273C5F80036336813B12920FEF794FBF1
:102B5000034870BD0348FCE7481500200090024080
:102B60000000AD0B0400AD0B38B50C4C94F83050A0
:102B700095B9C4E9001248B90023C4E9023301221F
:102B8000074884F8302084F8383038BDFFF776FFE6
:102B9000034B9842F9D1EFE70248F6E748150020C9
:102BA0000000AD0B0C00AD0B2DE9F843DFF8A09051
:102BB000074699F830000128884614463DD199F817
:102BC00038301F4E6BB31F4D0123C5F80833FFF794
:102BD0001DFFB8F1000F2BD14FF0000889F83980A4
:102BE000C5F80081BB787A781B0343EA02233A7860
:102BF0001343FA7843EA42333A7943EA82337A79E3
:102C000043EAC233C5F83436FFF778FDB0420CD042
:102C1000C5F800811CB178782146FFF75DFE0A48AF
:102C200004E0FFF795FDB042CDD10548BDE8F8833B
:102C300078784146FFF770FECEE70448F6E700BF1C
:102C40000700AD0B009002400000AD0B0B00AD0B78
:102C500048150020034B93F838300BB9FFF778BDC7
:102C600001487047481500200C00AD0B08B5054B16
:102C700093F83030012B03D1FFF7AEFE024808BDB8
:102C80000248FCE7481500200000AD0B0B00AD0B1F
:102C9000034B93F83000003818BF0120704700BF85
:102CA0004815002038B511F0030539D11E4B1A68BC
:102CB000D2B193F83040012C34D11C4AC2F81C1513
:102CC0000421C2F8200583F8395083F83010C2F887
:102CD0000051C2F8044393F8383003F0FF00EBB919
:102CE000FFF736FD124818E0104CC4F81C15C4F864
:102CF000200583F8392093F8383043B10023C4F815
:102D000000310123E360BDE83840FFF7F7BC012044
:102D1000FFF71EFD074B9842F0D138BDD460E1E7C4
:102D20000548FAE70548F8E74815002000900240FA
:102D30000000AD0B0700AD0B0A00AD0B0B00AD0B97
:102D400010B5224BD3F8002192B1214C0022C3F8D8
:102D5000002194F8381094F8302071B90121032A29
:102D600084F8381005D0042A05D0022A00D19960D1
:102D700010BD5960FCE7D960FAE7032A19D0042A8C
:102D800019D0022A04D1012384F82030FFF76EFD08
:102D9000A36813B9012384F8303094F8393003F074
:102DA000FF0013B9D4E900319847002384F820309C
:102DB000DEE70223E8E7032284F82020D3F81C256D
:102DC0006262D3F8203584F82830E1E700900240B1
:102DD00048150020104B70B553F82040013053F8CF
:102DE0002060A64200D870BDD4E9003595B153B13A
:102DF0002846984738B10028B8BF4042EB68FF2802
:102E0000A8BFFF201870EA68537843F0010353709D
:102E10000834E6E79847FBE7F85A000008B5094B85
:102E2000012203201A70FFF7D5FF02F02AFC0420CC
:102E3000FFF7D0FFFDF764F9034A137B23F001038A
:102E4000137308BD151700208415002008B503482A
:102E5000034A0021121A02F010FC08BD780000207D
:102E60001817002008B50020FFF7B4FF184B83F3B4
:102E70000888184C636943F4007363610025E023FC
:102E800084F82230E57725766576A57684F820509B
:102E9000636A43F4E023636284F82350FEF74AF93F
:102EA000FEF77CFA4FF0FF33A362E362FEF7F6FA17
:102EB000FEF7B4FA02F0C5FB0120FFF78BFF0220FA
:102EC000FFF788FF04482B462A462946FEF74CFAAE
:102ED000801F002000ED00E01D2E000008B5064810
:102EE000064A0749121A02F0CAFBBDE80840054A23
:102EF0000549064802F0C3BB000000207600002010
:102F0000885D000000000000885D000000000020D7
:102F100010B50A4C23681BB101232360002010BDAB
:102F200000F048F80028F7D00138062803D8044BF1
:102F300053F8200010BD034810BD00BFF815002055
:102F4000105B0000FE8FFFFFBFF34F8F0549064B5C
:102F5000CA6802F4E0621343CB60BFF34F8F00BF37
:102F6000FDE700BF00ED00E00400FA0510B40A4BD5
:102F70000A490B4C4FF0FE32C3F800244968C3F8ED
:102F80000424C3F80824C3F80C240023C4F8003533
:102F90005DF8044B084700BF00B00250100000204D
:102FA00000A00250D0E90012014BC3E900127047A3
:102FB0001000002038B500F02FF820B1032400F0F5
:102FC00063F8204638BD00F031F898B900F0ACF84D
:102FD00098B90F4DD5F828391B0EF02B08D1D5F82C
:102FE000242A0C4B9A420AD0072400F017F8E6E78F
:102FF0000624FAE70424204638BD0024F5E7012022
:1030000000F092F804460028F7D1C5F80C0AD8E77A
:1030100000B002500000E020002070470020704700
:10302000014BC3F8040A704700B0025010B51148B4
:1030300000F048F800B110BD0F4800F043F8002838
:10304000F9D10E4C204600F03DF80028F3D10C4B8E
:103050000C481C6000F036F801460028EBD100F067
:103060002DF8044608B1204610BD00F03FF8204678
:10307000FAE700BF280000202400002020000020E4
:10308000180000201C00002008B5084800F024F8B3
:10309000074800F021F8074800F01EF8064800F045
:1030A0001BF8BDE8084000F00BB800BF2800002066
:1030B00024000020200000201C0000200020704779
:1030C000704700BF08B5034B02681B68106898473B
:1030D000002008BD4000002008B5034B02685B6873
:1030E00010689847002008BD4000002070B5094CCA
:1030F000094D2069AB68984718B1084B08485B68D0
:103100009847084AEB68206900211160BDE87040CB
:10311000184700BF2C0000204000002010000020B5
:103120002C5B0000FC150020F8B51A4D1A4E044621
:10313000B26828699047E8B9184F3B684CB1A3B111
:10314000012B19D0013B3B602869F36898470020A8
:10315000F8BD43B9124A0121C2F800151149D1F84E
:103160001029002AFBD101333B60F3682869984796
:103170000020F8BD0C48F8BD0A4AD2F81039002BDF
:10318000FBD1074A6FF07E40C2F80035FFF748FFD9
:103190003B68D7E72C00002040000020FC150020F1
:1031A00000A0025000B00250E98FFFFF10B50446A6
:1031B00050B1636813F0685F05D0064A934202D0AD
:1031C00000232360626010BD034B04485B6898478E
:1031D000EFE700BF2C5F5CA9100000204C5B0000F3
:1031E000C8B143680D4A934213D013F0685F0ED004
:1031F000012350E8002F194640E8001C9CF0000F06
:10320000F7D1012AF5D0BFF35F8F00207047044843
:103210007047044870476FF4E04070472C5F5CA92A
:10322000E98FFFFFEA8FFFFF80B14368094A9342AD
:103230000AD013F0685F05D0BFF35F8F00230360EF
:103240001846704704487047044870476FF4E040E0
:10325000704700BF2C5F5CA9E98FFFFFEA8FFFFF7B
:1032600010B5044620B1044B63600022226010BDFB
:103270000248FFF77BFEF6E73A00003A745B000075
:1032800030B10268034B04489A4208BF00207047DF
:1032900002487047DD55AABB8208F0007108F000B3
:1032A00038B50D460446B0B1A0220021043002F02A
:1032B00003FA95B10822294604F1640002F002FAEB
:1032C000082205F1200104F1840002F0FBF9044B0F
:1032D0002360002038BD0348FCE70348FAE700BF3D
:1032E000DD55AABB7108F0008308F0002DE9F74313
:1032F00005460E4699461146FFF7C2FF04460028D0
:1033000040F08480002E00F08580002900F0848049
:10331000B9F1200F40F0828005F14404082205F144
:103320000408204602F0CEF905F1240708223146B0
:10333000404602F0C7F906F120010822384602F0A3
:10334000C1F902A94FF4807041F8049D02F0AEF972
:10335000002865D1334A4FF48073136001219360D4
:103360000823314A00F02EFB0121084605232F4A8D
:1033700000F028FB0823424601211C2000F022FB1C
:1033800008233A460121032000F01CFB22460823B3
:103390000121022000F016FB0823254A01211A20F2
:1033A00000F010FB0523234A01211B2000F00AFB3B
:1033B0000823214A0121142000F004FB08231F4A9E
:1033C0000121152000F0FEFA082305F16402012115
:1033D000162000F0F7FA082305F1840201211720D6
:1033E00000F0F0FA0823164A01210B2000F0EAFA57
:1033F00000F044FB0446019800F0D2FA114B002C77
:1034000018BF1C46A421284602F058F9204603B0F4
:10341000BDE8F0830C4CF9E70C4CF7E70C4CF5E7F2
:10342000084CEFE790B00250D85B0000505C000001
:10343000985B00003C5C0000FC5B00001C5C000032
:10344000B85B00008408F0007608F0008008F00007
:103450008108F0000C4BC2691A60826943F8042CA1
:10346000426943F8082C026943F80C2CC26843F8FF
:10347000102C826843F8142C426843F8182C026818
:1034800043F81C2C704700BF5CB602500C4B1B6805
:10349000C3610C4B1B6883610B4B1B6843610B4B77
:1034A0001B6803610A4B1B68C3600A4B1B6883607F
:1034B000094B1B684360094B1B680360704700BFE2
:1034C0005CB6025058B6025054B6025050B6025084
:1034D0004CB6025048B6025044B6025040B60250B4
:1034E00030B10268034B04489A4208BF002070477D
:1034F00002487047DD55AABB0202F0000002F0004E
:1035000038B5044668B1051D7021284602F0D6F88A
:1035100028462022044902F0CDF8044B2360002005
:1035200038BD0348FCE700BF645C0000DD55AABB62
:103530000002F0002DE9F043284B04460E461546E4
:103540000FCB85B06F4687E80F002DB94FF000090B
:10355000484605B0BDE8F0832046FFF7C1FF81462D
:103560000028F5D1231D0193636AA3BB236F8BB1A0
:10357000C3F14008A84528BFA84604F130003146F1
:103580001844424602F096F8236F434446442367AA
:10359000A5EB0805226F402A06D104F13001384618
:1035A00000F0AEFB0023236705F03F0835F03F0530
:1035B00005D031462A46384600F0A2FB2E44B8F129
:1035C000000FC3D04246314604F1300002F072F8D9
:1035D000C4F87080BCE7DFF80890B9E70059000034
:1035E0000C02F0002DE9FF41144B04460E460FCBB0
:1035F0006F4687E80F002046FFF772FF8046B0B99C
:10360000CEB1636A251D01953BB901236362226F28
:1036100004F13001384600F073FB2B46043E24349D
:1036200053F8042B12BAA34246F8042FF8D14046AF
:1036300004B0BDE8F081DFF80880F8E70059000029
:103640000502F000084B1B681B0EF02B08D1074B3E
:103650001A68074B9A4205D1064B00201860704744
:10366000052070470620704728B9025024BA02503E
:103670000000E0200CBA0250002230B54900134689
:10368000023840F6FC7502F1A05404F52C44A40065
:10369000904202F10102CABF236025605B181E2A16
:1036A000F1D1044A13600B445360034B034A1A6080
:1036B00030BD00BF78B0025084B0025020F80F0037
:1036C00030B51E4B85B01A46196800910099CC0799
:1036D000FAD500F1A05000F52C4080000168136875
:1036E0000193019BD807FAD5154B164C1868164D57
:1036F0001F30202390FBF3F00138002810DA00235C
:103700000130400153B1A0F120014FF000421342BB
:1037100004D1013888424FEA5202F8D105B030BDD9
:1037200013680393039BDB07FAD5431823602B68C8
:103730000293029B002BE3D10138DEE7B4B00250C4
:10374000ACB00250E4B00250DCB00250F0B51D68DD
:1037500085B001F01F040DB91F2C25D1154D2E4643
:103760002F680197019FFF07FAD500F1A05000F5DF
:103770002C408000006835680395039DED07FAD55D
:103780000D4D00EB611028600C48006802901F2C62
:1037900018BFC94302980FBF106001F01F0100FA63
:1037A00001F111600021196010684300C00F13601F
:1037B00005B0F0BDB4B00250E4B00250DCB002502D
:1037C0000C4B18603F3020F03F00890140305860BA
:1037D0009960D9601961596199611C330648196073
:1037E00082B002680192019AD207FAD5196002B03C
:1037F000704700BF90B00250B4B0025038B5A0F18D
:103800002003B3F5426F05462CD88F2826D800F147
:10381000470300F16604DB064FEA541400D001347C
:1038200064013F34A409013411B1A1421AD30C46FA
:10383000E3004FF48050B0FBF3F0202828BF202095
:1038400002B11060084B01221A602146FFF714FFF5
:1038500028462146FFF7B4FF002038BD00F11F04C1
:103860006409DDE70148F8E71CB802502221F000A6
:10387000F0B5454B89B01D461C680194019CE407D6
:10388000FAD5424BDFF80CE1DFF80CC113449B0082
:1038900000241A680B181E2B88BFC0F11E011F32AE
:1038A0000B1852095343B3F5806F82BF4FF4806108
:1038B000B1FBF2F1091A00F1A05000F52C402746A7
:1038C000A14233DC2B680493049BDB07FAD5304B11
:1038D0001B68296805910599CF07FAD52D4C2E490B
:1038E000236000231E46934203F1010040D120F0E3
:1038F00001022948194600268A423CD829680691C7
:103900000699CE07FAD525490968286807900798CF
:10391000C007FAD52160204800210C468B422DD1EA
:103920001D4900209A422CD809B0F0BD2B680293A3
:10393000029BDB07FAD503199B001B682E680396D0
:10394000039EF607FAD5CEF800300023934203F128
:10395000010306D1164623F00103B34204D8013413
:10396000AEE7CCF80070F1E7CCF800700136F4E770
:103970000E600346B7E706600131BDE70460013120
:10398000CCE708600133CDE7B4B0025024AC00149A
:103990007CB00250D4B00250D8B0025078B002507F
:1039A00008B540B1202801464FF0070228BF20216A
:1039B0000020FFF75DFF024B00221A6008BD00BF28
:1039C0001CB80250F0B5294D85B02C462E680096E3
:1039D000009EF607FAD500F1A05000F52C408000BB
:1039E0000568206801900198C707FAD52048214F43
:1039F000056002EB8306B24229D15A1C1D4E22F00B
:103A0000010200279A4227D823680293029BDE070F
:103A1000FAD5194B0B449B001B681F335B099A4274
:103A200013D2216803910399C907FAD515440021DF
:103A30009B1A104A056008468B4210D85A1C0D4943
:103A400022F0010200209A420CD805B0F0BD52F8D5
:103A500004CBC7F800C0CEE737600133D2E710606F
:103A60000131E9E708600133EDE700BFB4B002506F
:103A7000D4B00250D8B0025024AC00142DE9F0416B
:103A8000814B1D6898682033A0B01E461A680192C9
:103A9000019AD707FAD57D4B7D4A1A6032680292A7
:103AA000029AD407FAD57B4A1A607B4A14461168F9
:103AB00003910399C907FAD5784A1168C1F34021E7
:103AC00037680497049FFF07FAD5754F1F60276872
:103AD0000597059FFF07FAD51768002900F0CF80EA
:103AE000B90540F1CC80316806910699CF07FAD527
:103AF0006C491960216807910799C907FAD51168BF
:103B0000C1F3402137680897089FFF07FAD5664F31
:103B10001F6027680997099FFF07FAD512680029D7
:103B200000F0AF80910540F1AC8032680A920A9AA9
:103B3000D207FAD5564A1A6032680B920B9AD70709
:103B4000FAD55A4A1A6031680C910C99CC07FAD50B
:103B50005749196031680D910D99C907FAD5554932
:103B6000196031680E910E99CF07FAD55249196044
:103B700031680F910F99CC07FAD550491960504B15
:103B80001E46196810911099C907FAD53F4C4D4B44
:103B9000236033681193119BDB07FAD54A4B2360EE
:103BA00033681293129BDF07FAD5484B23603A4BD8
:103BB0009846196813911399C907FAD5324F38609E
:103BC00033681493149BDB07FAD52260336815938E
:103BD000159BD807FAD53E4B236033681693169B86
:103BE000D907FAD53B4B236033681793179BDA0745
:103BF000FAD5394B236033681893189BDB07FAD545
:103C0000364B236033681993199BD807FAD5344B88
:103C1000236033681A931A9BD907FAD5314B236076
:103C200033681B931B9BDA07FAD52F4B236000F0F8
:103C30001DFC08BBD8F800301C931C9BDB07F9D592
:103C40003D6033681D931D9BD907FAD5274B236030
:103C500033681E931E9BDA07FAD5254B2360D8F8EC
:103C600000301F931F9BDB07F9D50C4B1B6813F427
:103C7000805F204B08BF184620B0BDE8F0811E4889
:103C8000FAE71E48F8E700BF90B0025080B002503B
:103C900000100251C01F7229B4B0025088B0025007
:103CA000C0CF0129C01F0E29C03F00294001024991
:103CB000003184A800001649400108A1804408880A
:103CC000B0B00250C044708880077A41C0077E417E
:103CD00000006A498006164940006E490002002132
:103CE00000822021408220218082242140A161A1E4
:103CF00000C861510308F1000108F1000208F10059
:103D00002DE9F74F314B44688046924699461A6830
:103D1000002AFCD12E4B9B461A68002AFCD14FF09A
:103D2000FF30019100F094FC802000F097FC294DB9
:103D3000294A2A4F2A4E012307202B60A2F59E72A2
:103D4000C2F83C011360636A3B60A36A3360D8F831
:103D5000003042F8043CD8F80830204698470199D2
:103D6000D9F80030002BFBD1BAF1000F20D11D4B48
:103D700004221A60D9F80030002BFBD1DBF800A038
:103D8000BAF1000FFAD1D8F80C30204698473B68BA
:103D900063623368A362144BC3F800A0C3F844A164
:103DA000D9F80030002BFBD12B6003B0BDE8F08FB9
:103DB000236A012B04BF0C4A13600C4B402019608E
:103DC000C3F804A000F050FCD4E700BF10B90250C3
:103DD00020BC025018B8025000B90250CCB70250B3
:103DE000D0B70250C8B7025084B6025028BC025067
:103DF00010B5544B98B019461A680192019AD2072F
:103E0000FAD5514B514A1A600A680292029AD407B5
:103E1000FAD54F4A1A600A680392039AD007FAD576
:103E20004C4818600A680492049AD207FAD54A4AA4
:103E30001A600A680592059AD407FAD5474A1A60AB
:103E40000A680692069AD207FAD5454A1A600A68A5
:103E50000792079AD407FAD5424A1A600A6808926C
:103E6000089AD207FAD5404A1A600A680992099A54
:103E7000D407FAD53D4A1A600A680A920A9AD2070C
:103E8000FAD53B4A1A600A680B920B9AD407FAD506
:103E9000384A1A600A680C920C9AD207FAD5364A48
:103EA0001A600A680D920D9AD407FAD5334A1A603F
:103EB0000A680E920E9AD207FAD5314A1A600A6839
:103EC0000F920F9AD407FAD52E4A1A600A681092F8
:103ED000109AD207FAD52C4A1A601A4B19461C6858
:103EE0001194119CE407FAD5174B186008681290DA
:103EF0001298C407FAD51A600A681392139AD00769
:103F0000FAD5124A1A600A681492149AD207FAD59E
:103F10001E4A1A600A681592159AD407FAD51C4AE7
:103F20001A600A681692169AD007FAD5194A1A60CA
:103F30000A681792179AD207FAD5174A1A6018B06A
:103F400010BD00BFB0B0025080B002500093652198
:103F500000043190409665900083612100C33021B8
:103F600000C36490008161900046102100811121FE
:103F70000041442100C320290C4610C8008631218D
:103F800000C3602140C1282940966521001331906B
:103F900040962529594614C84004324910B5494B6A
:103FA00094B019461A680092009AD207FAD5464B87
:103FB000464A1A600A680192019AD407FAD5444A1F
:103FC0001A600A680292029AD007FAD5414818602E
:103FD0000A680392039AD207FAD53F4A1A600A6820
:103FE0000492049AD407FAD53C4A1A600A680592EA
:103FF000059AD207FAD53A4A1A600A680692069AD2
:10400000D407FAD5374A1A600A680792079AD20786
:10401000FAD5354A1A600A680892089AD407FAD580
:10402000324A1A600A680992099AD207FAD5304AC8
:104030001A600A680A920A9AD407FAD52D4A1A60B9
:104040000A680B920B9AD207FAD52B4A1A600A68B3
:104050000C920C9AD407FAD5284A1A600A680D9275
:104060000D9AD207FAD5264A1A600A680E920E9A5D
:10407000D407FAD5234A1A600A680F920F9AD2071A
:10408000FAD5214A1A600F4B19461C681094109CEF
:10409000E407FAD50C4B1860086811901198C40712
:1040A000FAD51A600A681292129AD007FAD5174AFE
:1040B0001A600A681392139AD207FAD5144A1A6042
:1040C00014B010BDB0B0025080B002508090652195
:1040D000000409904096659080806121802008212D
:1040E00080206490008161900046102100811121A0
:1040F0000041442180202029024610C80086092161
:10410000802060214021282940966521409625295C
:10411000594614C810B5504B96B01C461A68019207
:10412000019AD207FAD54D4B4D4A1A602268029285
:10413000029AD207FAD54B4A1A604B4A42EA8040AB
:1041400022680392039AD207FAD518602268049273
:10415000049AD007FAD5454A1A60A2F5800242EACD
:10416000814122680592059AD207FAD51960226822
:104170000692069AD007FAD53D4A1A60226807923D
:10418000079AD107FAD53B4A1A6022680892089A22
:10419000D207FAD5384A1A6022680992099AD007DC
:1041A000FAD5364A1A6022680A920A9AD107FAD5D5
:1041B000334A1A6022680B920B9AD207FAD5314A19
:1041C0001A6022680C920C9AD007FAD52E4A1A600F
:1041D00022680D920D9AD107FAD52C4A1A602268EE
:1041E0000E920E9AD207FAD5294A1A6022680F92C7
:1041F0000F9AD007FAD5274A1A60216810911099B2
:10420000C907FAD51A60144B1A4619681191119909
:10421000C807FAD5114B20491960116812911299FB
:10422000C907FAD51D491960116813911399CC0774
:10423000FAD50B491960116814911499C807FAD579
:1042400017491960116815911599C907FAD5154ACA
:104250001A6016B010BD00BFB0B0025080B002505E
:104260004004419000862929D81001C8401441908B
:1042700040142129401465210034409000310C90F5
:10428000C0400C90C030202940960D9000416090B5
:10429000031645C80086112100416021594644C8D3
:1042A0004014459040142D9070B5264888B00546BE
:1042B00004680094009CE607FAD52348234C046068
:1042C000234C44EA83432C680194019CE407FAD50B
:1042D0000360930143EA824242F0104444F4C04434
:1042E0002B680293029BDE07FAD504602B680393C8
:1042F000039BDB07FAD5174B03608B0143EA81412F
:1043000041F0104343F4C0432E680496049EF60720
:10431000FAD503602B680593059BDE07FAD5046088
:1043200041F058412B680693069BDC07FAD50160E3
:1043300042F058422B680793079BDB07FAD50260CF
:1043400008B070BDB0B0025080B00250C021022948
:104350008071009880611890354B8EB019461A68AC
:104360000092009AD207FAD5324B334A1A600A6893
:104370000192019AD007FAD5304A1A600A6802926F
:10438000029AD207FAD52E4A1A600A680392039A53
:10439000D007FAD52B4A1A600A680492049AD20709
:1043A000FAD5294A1A600A680592059AD007FAD503
:1043B000264A1A600A680692069AD207FAD5244A53
:1043C0001A600A680792079AD007FAD5214A1A603C
:1043D0000A680892089AD207FAD51F4A1A600A6832
:1043E0000992099AD007FAD51C4A1A600A680A92FB
:1043F0000A9AD207FAD51A4A1A6008680B900B98E5
:10440000C007FAD51A600A680C920C9AD007FAD540
:10441000144A1A600A680D920D9AD207FAD5124A08
:104420001A600E210D230F2200200EB0FFF73CBFB3
:10443000B0B0025080B0025080430129406339215E
:10444000807001298020542100D13490C0403490E4
:10445000C0302029C0530D9000413890832308C8F4
:1044600080E3102100413821CF4308C82DE9F041F5
:10447000012392B0CDE90333624B1D461A680592C1
:10448000059AD207FAD5604C604B2360604B194601
:104490001A680692069AD707FAD55E4B1A68D604B0
:1044A00000F1A8802A680792079AD007FAD55A4ADD
:1044B00022600A680892089AD207FAD51E68C6F3E5
:1044C0000036002E40F098801220FFF7F9F80746DA
:1044D0001320FFF7F5F887428CBF12201320FFF757
:1044E000EFF8471EFFF738FF03AB01AA3946122049
:1044F000FFF72CF904AB804602AA39461320FFF7D8
:1045000025F900EB4800022832D003283ED00128CC
:1045100074D12B680993099BDB07FAD53F4B2360C5
:104520002B680A930A9BD807FAD53D4B23602B686A
:104530000F930F9BD907FAD53A4B23602B68109342
:10454000109BDA07FAD5384B23602B681193119B27
:10455000DB07FAD5354B2360013F25D510231922FF
:1045600018210020FFF7A0FE304612B0BDE8F08110
:104570002B680B930B9BD907FAD52D4B23602B6827
:104580000C930C9BDA07FAD52A4BCFE72B680D93D7
:104590000D9BDB07FAD5284B23602B680E930E9BEF
:1045A000D807FAD5254BC1E703AB01AA394612203B
:1045B000FFF7CCF804AB044602AA39461320FFF7F4
:1045C000C5F810EB440402D1FFF712FCC4E7FFF773
:1045D000E5FC022C08D0032C09D0012C10D11721A6
:1045E0001620FFF797FDB7E715211420F9E70F21F3
:1045F0000E20F6E7124EB7E7124EB5E7124EB3E7BC
:10460000124EB1E7B0B0025080B0025000084A51DB
:10461000B4B0025088B0025000084E5100065A490A
:1046200040065E49000442410014424940042E49BC
:10463000000652494006564900063A4940063E499E
:104640000608F1000708F1000408F1000508F10070
:10465000014B1860704700BF08BA0250014B186048
:10466000704700BF04BA0250034A13681842FCD0D6
:10467000024A10601846704700BA025008BA025049
:1046800008B9086070476FF0150070470020704748
:1046900030B583688B4285B0044615460ED96368F1
:1046A000C068194401AA00F064FE28B96268019B41
:1046B0009B1A2B60029B6B6005B030BD6FF0210030
:1046C000FAE770472DE9F7430E4617469946044628
:1046D00028B94FF0FF38404603B0BDE8F083002909
:1046E000F7D0002AF5D0CB680D891D4404230DEBCB
:1046F00003022946384600F0E9FB80460028E8D14D
:10470000BDF80410738946F60812914225D1BDF810
:1047100006109942DDD104230DEB030229443846EB
:1047200000F0D4FB0028D4D1BDF8042046F60713CE
:104730009A42CED1C4E900679DF82830A4F80890C9
:10474000A3727389BDF806202B44E3607389134478
:104750002B44043563612561BDE7002BE4D0B8E745
:104760002DE9F3410E4617461D46044620B94FF089
:10477000FF3002B0BDE8F0810368002BF7D043683A
:10478000002BF4D04FF6FF78D4E904239A4216D2D6
:1047900023685B8923B1E368934204BF0433236138
:1047A0000423216960680DEB030200F08FFB0028F1
:1047B000DDD1A37A2BB1D4E903329A4201D301208F
:1047C000D7E72389BDF80610434501F1040203D061
:1047D000BDF804C09C450BD115B1BDF804302B8049
:1047E0002369043333603980236913442361C0E7AC
:1047F000236913442361C7E773B50C460646114687
:10480000022301AA204600F0B1FA0546E8B9019A50
:104810001F2A0ED92368A2F1200119442022304614
:1048200000F03FFC2368019A13442360284602B03D
:1048300070BD0146C2F12002304600F03DFC019AF5
:104840002168C2F120003044EAE76FF00205EDE78D
:1048500000F000BC4FF4407358433030704710B53F
:10486000044600F073FBA3684FF44072303B02FB38
:10487000103010BD70B50D46044600F00EFE2A46FD
:10488000A0F1080104232046BDE8704000F01EBBE3
:1048900013B50446019100F000FE0423A0F10801C5
:1048A0000DEB0302204600F03BFE02B010BD13B535
:1048B0000446FFF7D4FF6A4601462046FFF7E8FEAC
:1048C00010B9009802B010BD0020FBE770B5134688
:1048D0000E461546002102460446FCF77BF850B907
:1048E0002B4604F12C0201212046FCF773F810B18D
:1048F000002E08BF002070BD73B5044600200D4691
:104900001646FBF747FC6946C0B2FCF773FA30BBAA
:104910002C2303FB05440098E36825891D440423E8
:104920000DEB0302294600F0D1FAC0B9BDF804200E
:104930006489009846F608139A4215D1BDF80630EE
:104940009C420CD104230DEB0302611900F0BEFA66
:1049500028B9BDF8042046F607139A4207D00098FC
:1049600000F0B3FA02B070BD002CF2D0F7E7BDF84A
:104970000610214429443160F1E737B50446426A04
:104980004FF4807501A903200195FCF75BFA58B933
:10499000019B226DA36201A901200195FCF752FA47
:1049A000054628B1092500E00125284603B030BDA1
:1049B000019B206A636500F0C9FAE065F5E7012311
:1049C000036003F1012343600023C0E90233704711
:1049D0004379012B07D10368012B04D10079431ED1
:1049E000584258417047002070477FB506460D4633
:1049F000032001A9FCF7FEF938BB0198FFF72FFF50
:104A0000F16D0446284600F00DF90444019800F0C9
:104A10009DFA0646019800F0A0FA082201460DEB27
:104A2000020000F049FB2B798DF8083021460198EF
:104A3000334602AA00F05FFA041E019818BF012451
:104A400000F043FA204604B070BD0124FAE700F0FC
:104A500067BA2DE9F8430E46002107460846FBF7E2
:104A600099FB012104460020FBF794FB3378A34215
:104A700020D0834220D101252C2303FB0575F86D3E
:104A8000AC6AFFF7E7FE013C804600276B6A03EB48
:104A9000C40253F83410D2F804901B684A46C91A6D
:104AA00030464F44FFF7D3FFB84504F1FF34EDD84B
:104AB000BDE8F8830025DFE70120F9E737B51546A3
:104AC0000C460120694600F06EFDE979012903D00A
:104AD0000022204600F07BFD9DF80330012B02D11F
:104AE000204600F053FDA9682046FFF7D1FE20467E
:104AF000FDF7F0FA002003B030BD73B50D46064651
:104B000000F0CCF80446E86058B302282ED101A981
:104B10000320FCF76FF958BB01982A46314600F094
:104B200033F80446D0B9019800F0B7FC01230146E0
:104B30000DF10302019800F0C9F90446A0B90198EB
:104B400001220DF1030100F0BCFC10B101238DF82E
:104B500003309DF8033003F00F03EB71019800F070
:104B6000B4F9204602B070BD0124F7E70724F8E746
:104B70000124F6E7436A00205A68034613448B4237
:104B800000F10100FAD370472DE9F34707460C46C0
:104B9000014600201646FBF799FC051E3EDB384611
:104BA000E46DFFF75CFE5FFA84F96B1E09FB0308F6
:104BB0004FF0FF3465B9631C06D0FF2C22DC0134B2
:104BC00040F201133460B380284602B0BDE8F0879C
:104BD00001230DF107024146384600F077F900281D
:104BE00005F1FF3A1CDB01220DF10701384600F008
:104BF00068FC18B9B4F1FF3F08BF2C46A8EB0908C0
:104C00005546D7E70223A4F580747371631004F04E
:104C100001040133013433603471D5E70725D3E74C
:104C20000125D1E710B543790279012B14BF0B029E
:104C3000002302F1FF3201FB0233026814BF4C0073
:104C40000C46013A04FB023010BD30B5826A446D57
:104C5000944202D0631C93421CD1B2F5807F19D8D4
:104C600000231946A34209D1934215D2426A02EBAE
:104C7000C3035868431A5842584130BD416A056D14
:104C800001EBC30105EBC30549686D688D4201D195
:104C90000133E7E70020F0E70120EEE71FB503202E
:104CA000694600F080FC02A9012000F07CFC9DF820
:104CB00000309DF80800012B0AD19DF80230032B2B
:104CC00006D1013818BF0120400005B05DF804FB93
:104CD0000020FAE770B50368CD1A002D02DC6FF0F2
:104CE0005F0070BD93F900601C78002E0ADB5C1C2D
:104CF00004601B7813600368C91A13688B42EED8EE
:104D00000020EEE704F07F04013C032C2BD8DFE801
:104D100004F0020A1421012DE1D05B7813600368CE
:104D200002330360E7E7022DD9DDB3F801305BBA47
:104D30009BB2136003680333F3E7032DCFDD9C7848
:104D40005D78DB78240244EA05442343136003685A
:104D50000433E6E7042DC2DDD3F801301BBA13603B
:104D600003680533DDE76FF06300BAE770B40468E9
:104D70000E1B002E07DD26789E4208D10134046008
:104D800070BCFFF7A7BF6FF05F0070BC70476FF09B
:104D90006100FAE738B503230446FFF7E7FF18B9C7
:104DA000136813B96FF0670038BD013B13602368C7
:104DB0001A78002AF6D101332360F5E72DE9F34193
:104DC00090461F4601AA302305460E46FFF7CEFF48
:104DD0000446F0B92B68F61A002E34DD42461B78E3
:104DE00042F8043B019B2E681E44314606232846A8
:104DF000FFF7BCFF044660B92B68D8F80420C8F858
:104E000008309918B142296007D10C213846FBF7C8
:104E100051FF204602B0BDE8F0819B5C3A46314626
:104E200042F8043B2B6801332B602846FFF752FF02
:104E300060B92B687A68BB601344B3422B6018BF1B
:104E40006FF06504E5E76FF05F04E2E70446E0E732
:104E5000F8B5B1F1005F00AF0546144610D2D31D7E
:104E600023F007036E46ADEB030D684600F019F919
:104E7000694622462846FEF75DFBB546BD46F8BDAD
:104E8000FEF758FBFAE738B50C46054658B151B164
:104E90000B6843B14B6833B11C22002100F00CF9C0
:104EA0002C61002038BD6FF01500FBE708B54FF00E
:104EB0002002EFF3118382F31288BFF36F8FFCF7A8
:104EC00075F9FCF771FAFCE770477047002930B4B8
:104ED000044618460BDBA5680844A84207D8E068DA
:104EE0006468214484682468A44630BC60476FF03D
:104EF000150030BC7047002930B4044618460BDB5F
:104F0000A5680844A84207D8E0686468214484681A
:104F10006468A44630BC60476FF0150030BC704731
:104F20000029034610B410460BDB9C680844A042DD
:104F300007D8D8685B68194483685DF8044B9B68A0
:104F400018476FF015005DF8044B704708B5C0684E
:104F50008368DB689847006808BD08B5C068836847
:104F6000DB689847007908BD70B54C680368A342B8
:104F700001D2012070BD8A682244934201D30020EF
:104F8000F8E7D1E903254E69B54203D36FF00B036F
:104F90008B61F4E71B1B42F835304368086902EB6C
:104FA000C00253600B6901330B61E2E708B50020D2
:104FB000FFF77CFF704700F050BB0146006800F02F
:104FC0004CBB08B5FBF774FFBDE80840FBF774BFA6
:104FD00000210120FFF7EFBF202809D9B0F1004FD1
:104FE00008D80138B0FA80F0C0F11F0040007047C7
:104FF000082070473E2070472DE9FF410E46984635
:10500000144605460027B74220DA6868C8B1B8F1EF
:10501000000F07D0431E184216D11F2814D92A6842
:10502000134211D12B680193FFF7D6FFAB680343FE
:105030000393E3B2072B07D8204601A9FCF7FAF93E
:10504000013401370C35DEE76FF01504204604B05B
:10505000BDE8F08110B55AB10139841810F8012B60
:1050600011F8013FA04201D09A42F7D0D01A10BDEA
:105070001046FCE7431A934210B500EB020308D335
:10508000013902469A420BD011F8014F02F8014B48
:10509000F8E70A4412F8014D03F8014D8A42F9D1AC
:1050A00010BD10B5431E0A44914200D110BD11F845
:1050B000014B03F8014FF7E7C9B20244034693429C
:1050C00000D1704703F8011BF9E70369C9B20C224C
:1050D00001FB0233186C00F0070070474FF020030B
:1050E000EFF3118283F31288BFF36F8F036803F02D
:1050F000C00343F00203036082F31188BFF36F8F94
:10510000704770B5C9B203694FF02004EFF3118501
:1051100084F31288BFF36F8F0C2606FB0134246CD6
:1051200014F0C00408D0A24206D085F31188BFF362
:105130006F8F4FF0FF3070BD06FB013301221A6400
:1051400085F31188BFF36F8F436803EBC1035B687E
:1051500098470020EFE78022FFF7D3BFF8B5069FFE
:105160000469C9B24FF02005EFF3118685F3128868
:10517000BFF36F8F0C2505FB0144256C05F0070C70
:10518000BCF1010F0CD1276486F31188BFF36F8F38
:10519000C4E90E23436853F8313098470020F8BD26
:1051A00005F0C005AF4286F31188BFF36F8F0CBFC7
:1051B0006FF077004FF0FF30F1E713B580240094D3
:1051C000FFF7CCFF02B010BD6FF08500704710B440
:1051D0000069CBB21C2403FB040000215DF8044BE2
:1051E00010470020FDF7C8B9002000F00CBA08B93C
:1051F00001230B70704737B50D46416811B3D1E9F3
:105200000013846804B3D4E90024F4B1EBB19C42E8
:105210001ED10133092B1BD800788DF8013040F2E4
:1052200001138DF80000ADF80230684600238DF8B8
:1052300004308DF80550FDF7B7FC03B0BDE83040F1
:10524000FCF7C2BA0B46DCE7224601332344E1E710
:105250006FF0150003B030BD7FB5FF238DF803302C
:105260000DF10303002101930123CDE90231052350
:105270008DF80C3003A801AB04910593FFF7BBFF39
:105280000028A8BF9DF8030007B05DF804FB1FB518
:10529000002188420CBF0623042301A8CDE9011197
:1052A00003918DF80430FFF7A6FF002818BF6FF0B8
:1052B000040005B05DF804FB43780BB9FDF7D6BCDC
:1052C000704738B505460C4600F09FF9002D07DB06
:1052D000A84205D9401B84428CBF0020012038BD64
:1052E0000020FCE770B50D462846194616461C46B8
:1052F000FFF7E7FF38B124B1224629463046FFF7D1
:10530000D0FE002070BD6FF01500FBE72DE9F341E2
:105310001C469046002382682360A36013690D46F3
:1053200001AA69469847019B5A1E019223B96FF062
:10533000150002B0BDE8F0810098A26847682168B6
:10534000676085B9A8EB02030668B34228BF3346FD
:105350001A4403FB07112160A26002689A4206D832
:1053600008300090DFE76B1AB3FBF7F3ECE700209F
:10537000DFE713460022FFF7C9BF2DE9F047836836
:1053800086B01B698846914601A902AA9847002465
:10539000A2462546029BAB4202D806B0BDE8F08784
:1053A000019F07EBC50700267B6804933A68B24269
:1053B0000AEB060302D801359A46EBE703940593FE
:1053C000494603A8C0470028E7D0049B01361C4487
:1053D000ECE730B543681360057A446804EBC50414
:1053E000A34202D36FF0010030BD5C798C4201D042
:1053F0000833F0E70020F7E773B5054601A80C462F
:105400001646FCF749FE70BB4FF080531969B5FB97
:10541000F1F201FB125242BB1969B4FBF1F201FB3C
:10542000124212BB1A695B695343A3421DD3E4B114
:10543000019B1B0103F1804101F5F031C1F80058D7
:10544000C1F80448C1F80868D1F8002895420FD186
:10545000D1F8042894420BD1D1F80838DBB2B3421A
:1054600018BF6FF00D0002B070BD6FF01500FAE7C5
:105470006FF00D00F7E70222FFF7BEBF08B500206E
:10548000FBF794FEFDF744BD08B5FBF70BFDFFF7F6
:1054900091FDBDE80840FDF73BBD8068183820F05D
:1054A000070010387047042809D0052803D1481E8A
:1054B00018BF01207047431A5842584170470120D5
:1054C000704738B515460C4661B15AB1FFF745FD36
:1054D0002544214611F8013B834203D1A942F9D169
:1054E000012038BD0020FCE738B50C4601231146E9
:1054F00022460546FFF7EAFC00280FDB0122214681
:105500002846FFF7DEFF38B92378012B14BF0223AA
:1055100001232370002038BD0323FAE70120FAE7B6
:105520002DE9F7431D4606460F469046FFF70EFD50
:105530006C1E044440420440082C1AD83046FFF741
:105540000CFD2A46814641466846FFF7AAFD621BCC
:1055500049460DEB0500FFF7AFFD23466A46394685
:105560003046FFF7C8FC003818BF012003B0BDE883
:10557000F0834FF0FF30F9E707B501238DF80420E1
:1055800001AAFFF7CDFF03B05DF804FB816818396D
:10559000012221F00701FFF7EFBF8268183A22F0DD
:1055A0000702FFF7A1BF13B50C46C0B201A9FBF774
:1055B00021FC50B921460198FCF7ACFD0446019846
:1055C000FFF783FC204602B010BD0124FAE713B5B3
:1055D00041EA021104468DF80710FFF75EFF012330
:1055E00001460DF107022046FFF79AFF02B010BDF9
:1055F0008168183921F0070101220839FFF7BCBF83
:10560000004700F01AB8FCF733BF4FF080531A6917
:105610005869504370474FF08053186970474FF0F6
:105620008053586970470223FDF7ACB80323FDF798
:10563000A9B800210220FDF735BB08B1FBF7DEBF9A
:105640007047704740B1C368587810F001001EBF22
:105650001878B0FA80F04009704710B54FF0200379
:10566000EFF3118483F31288BFF36F8FFFF706FF08
:1056700084F31188BFF36F8F10BDFFF71DBDFFF7D7
:1056800010BD704770472DE9F041069F044615464E
:105690001E46FDF705FE38B93B46324629462046F0
:1056A000BDE8F041FDF722BEBDE8F0810A460021C9
:1056B000FEF7A4B8FFF7F5BCFFF7FEBC0A460021D1
:1056C000FFF7FABC01EB820204388A4201D10020C4
:1056D000704752F8043D1BBA40F8043FF5E700005C
:1056E000C115000000000000BD16000010570000AA
:1056F00085540000000000008954000000000000F4
:10570000991B000024570000511D0000385700006D
:105710002B5D0000205A0000305A0000700000206D
:10572000E01400203A5D0000545A0000B85A00000E
:105730007200002012170020475D000000000000EA
:10574000D45A000074000020000000002126000050
:105750000156000000000000D14F000000000000D2
:10576000D14F000000000000D14F000000000000F9
:10577000D14F000000000000D14F000000000000E9
:10578000D14F000000000000D14F000000000000D9
:10579000D14F000000000000D14F000000000000C9
:1057A000D14F000000000000D14F000000000000B9
:1057B000D14F000000000000D14F000000000000A9
:1057C000D14F000000000000D14F00000000000099
:1057D000D14F000000000000D14F00000000000089
:1057E000D14F000000000000D14F00000000000079
:1057F000D14F000000000000D14F00000000000069
:10580000D14F000000000000D14F00000000000058
:10581000D14F000000000000D14F00000000000048
:10582000D14F000000000000D14F00000000000038
:10583000D14F000000000000D14F00000000000028
:10584000D14F000000000000D14F00000000000018
:10585000D14F000000000000D14F00000000000008
:10586000D14F000000000000D14F000000000000F8
:10587000D14F000000000000D14F000000000000E8
:10588000D14F000000000000D14F000000000000D8
:10589000D14F0000412D0000015600000000000023
:1058A000D14F000000000000D14F000000000000B8
:1058B000D14F000000000000D14F000000000000A8
:1058C000D14F000000000000D14F0000FFFFFFFF9C
:1058D000FF000000FF000000FF000000FF000000CC
:1058E000FF000000FF000000FF000000FF000000BC
:1058F000FF000000FF000000FF000000FF000000AC
:105900000200000000000000553400008D3400004B
:105910000338FDD8704700000300000001000000BC
:1059200001000000BB5C00003C59000003000000C7
:105930000100000003000000010000005B00000007
:1059400009000000000000000000000000700000DE
:1059500038570000010000000000000000600F0048
:105960002457000002000000007000000002000048
:1059700038570000030000000070000000600F00B6
:10598000385700000400000000720000005E0F00A5
:10599000385700000500000000720000005E0F0094
:1059A000385700000600000000600F0000A07000E3
:1059B000245700000700000000D00F000020000066
:1059C000385700000800000000F00F000010000031
:1059D0003857000000000000AD4F0000000000201C
:1059E0000000000000000B06801F002040000000A7
:1059F00000000B1502000000FC5900000000000030
:105A0000165D000026000202000000201E5D00005E
:105A100022000B11451600001516000000000000C2
:105A20006517000089160000E3510000E9510000ED
:105A3000C951000057510000BB5100000000000098
:105A4000CB50000000000000000000000400000037
:105A5000FF00000000000000000000000000000047
:105A60000000000000000000000000000000000036
:105A70000403000000000003F40100000001010025
:105A800000008000C22817008C5A000000900240DD
:105A9000985A000001000000A05A00000600000013
:105AA00013061D0014061F0015062000160621000F
:105AB0001706220011061E0091180000C9190000E7
:105AC000CD1A0000F5170000E517000000080000DF
:105AD00000100000E55200005D1E0000ED1D0000FA
