:020000022000DC
:1070000000000420B1010500D9010500D51F0500CD
:10701000DD010500DF010500E101050000000000C1
:1070200000000000000000000000000031360500F4
:10703000E50105000000000051360500E9010500EA
:1070400091530500EB010500E55805008D59050039
:10705000EB010500EB01050065570500EB0105009C
:10706000EB010500EB010500EB010500EB0105005C
:10707000EB010500257C0500EB010500EB01050097
:10708000EB01050055370500EB010500EB0105009C
:10709000EB010500EB0105002975050019F205005B
:1070A000EB010500EB010500EB010500EB0105001C
:1070B000EB010500EB0105000000000000000000EE
:1070C000EB010500EB010500EB010500EB010500FC
:1070D000D58B0200EB010500EB010500EB0105007B
:1070E000EB010500EB010500EB01050000000000CD
:1070F00000000000EB01050000000000EB010500AE
:10710000000000000000000000000000000000007F
:10711000000000000000000000000000000000006F
:10712000000000000000000000000000000000005F
:10713000000000000000000000000000000000004F
:10714000000000000000000000000000000000003F
:10715000000000000000000000000000000000002F
:10716000000000000000000000000000000000001F
:10717000000000000000000000000000000000000F
:1071800000000000000000000000000000000000FF
:1071900000000000000000000000000000000000EF
:1071A00000000000000000000000000000000000DF
:1071B00000000000000000000000000000000000CF
:1071C00000000000000000000000000000000000BF
:1071D00000000000000000000000000000000000AF
:1071E000000000000000000000000000000000009F
:1071F000000000000000000000000000000000008F
:1072000010B5054C237833B9044B13B10448AFF3E0
:1072100000800123237010BDB86100200000000031
:107220004819070008B5034B1BB103490348AFF3E6
:10723000008008BD00000000BC6100204819070064
:10724000154B002B08BF134B9D46A3F5803A002138
:107250008B460F461348144A121A38F085FA0F4B22
:10726000002B00D098470E4B002B00D098470020F1
:10727000002104000D000D48002802D00C48AFF397
:10728000008038F007FA2000290001F07BF838F080
:10729000DBF900BF0000080000000420000000002F
:1072A00000000000B86100205C1301200000000015
:1072B00000000000BFF34F8F0549064BCA6802F477
:1072C000E0621343CB60BFF34F8F00BFFDE700BF09
:1072D00000ED00E00400FA05074B1B6AD90702D550
:1072E0000123036070479A0701D50223F9E75B0782
:1072F000F8D50423F5E700BFD46100201FB5154B76
:107300008DF807101B6803934FF000031346C2B1BA
:10731000002302AA0DF1070102932CF0ABFC029BA3
:1073200043B10D4B4FF080525A6040BFBFF34F8FB7
:10733000BFF36F8F074B1A68039B5A4006D038F093
:107340008DFE0DF107012CF0E5FBF3E705B05DF8CC
:1073500004FB00BF2C58060000ED00E0024B0122A8
:1073600018680621FFF7CABF206300200B460246BB
:1073700000215868FFF7C2BF08B50648064B074909
:10738000C01AC008000440F0030029F03FFAFFF7DC
:1073900091FF00BF3C1A0700041A0700305806008E
:1073A00010B4074B074C02790749E41AE408240497
:1073B000838944F003005DF8044B29F034BA00BF20
:1073C000041A07003C1A07006158060070B50E4BFE
:1073D0000E4CE41AE4082404054644F00304002299
:1073E0006B68934200D870BD02F1500629689E4236
:1073F000114486BF9A1A92B25022204629F05AFAB6
:1074000029F0B0F83246EBE7041A07003C1A0700EF
:1074100013B5074B074C0090E41AE40824048B8949
:107420000A79054944F0010029F007FA02B010BDBD
:10743000041A07003C1A0700805806001FB50D4BC0
:1074400001A81B6803934FF0000310F061FD0A4B85
:107450000298B0FBF3F0019B4FF47A7202FB030039
:10746000044B1A68039B5A4001D038F0F7FD05B071
:107470005DF804FBB458060040420F00032827D8EB
:10748000DFE800F0020B141D4FF0A043D3F8040511
:1074900080F4F030C0F3403070474FF0A043D3F891
:1074A000040580F4F030C0F3803070474FF0A04303
:1074B000D3F8040580F4F030C0F3C03070474FF0CB
:1074C000A043D3F8040580F4F030C0F300407047C7
:1074D0000120704710B51C4C637E032B02D00E2890
:1074E00007D010BD0E38032809D8DFE800F0020AE3
:1074F0002428164B012218681146FFF7FFFE0023CF
:1075000009E0A26B94F83410012303FA01F10A4256
:10751000F5D10A43A26394F84C20002AE1D1002B54
:10752000DFD00A4B012218680221FFF7E7FE012392
:1075300084F84C30D5E7A26B94F83510E4E7A26BE1
:1075400094F83610E0E700BFD461002020630020EB
:1075500070B5164B164C05461648E41A037E03F028
:10756000FD03E408012B0E464FEA044417D12A46D6
:10757000406903F023F9024630B144F001000E499E
:10758000BDE8704029F046B944F00300AA890B49D0
:1075900029F040F93046BDE87040FFF717BF44F0CE
:1075A00001000749BDE8704029F030B9041A07000E
:1075B0003C1A0700D4610020B8580600D5580600D0
:1075C000EF58060070B5364B9CB0044610220021DF
:1075D0000AA81B681B934FF0000313AE38F0C4F8E1
:1075E000012500211C2214A81391039538F0BCF842
:1075F000202231460AA804F057FF21460AA810F0BD
:10760000E7FE284B284C18681B798DF814300D9B29
:107610000490CDE90636254EFF2231460AA804F033
:1076200043FF04A906AA0AA810F0FBFD204B9DF910
:107630002810E41AE408240461B10A4644EA05006B
:107640001C4929F0E7F8164B1A681B9B5A4024D0B6
:1076500038F004FD03A80191FFF73EFE0D9B019950
:10766000099310220FA8089638F07EF8039B0E931A
:1076700002238DF83C3040F20133ADF8463044F03F
:1076800003003C230C491095ADF8483029F0BEF8B2
:1076900008A90EA8FFF75CFFD5E71CB070BD00BFBE
:1076A00050590600AB5F06003C1A0700216200201B
:1076B000041A07000A5906003B5906002DE9F04F4D
:1076C000DDB0BA4B0490BA4CBA4D1B685B934FF0D7
:1076D0000003B94BE41AE408240444F0030644F020
:1076E000010428F03FFF80460028FAD1049B4FF0A8
:1076F000FF32586817A92CF0EDFA0128F1D1DFF814
:10770000D092AE48CDF81C80FF2241468DF82080F3
:1077100038F02AF8A94B189A0A9319A94846CDF8C7
:10772000248004F0C1FE09AA07A9484610F0B0FD64
:10773000099B03939DF8203002939DF81C30019320
:107740009DF81F309DF81D2000939D499DF81E3027
:10775000304629F09CF899F9002022B19949204639
:1077600029F058F8BDE79DF81C309DF81D80002BCE
:1077700071D0B8F1030F6ED19DF81F209DF81E3017
:1077800013439DF82020134308D1099B33B98E4938
:10779000304629F03BF885F81980A2E79DF81F8054
:1077A000B8F1010F9DD19DF81EA09DF820305AEA36
:1077B000030A96D18549304629F028F8DDE90921E8
:1077C000834804F071FE834B8DF86AA11B88ADF8E5
:1077D00068311822514610A837F0C6FF5AAB7C48D2
:1077E000169310A910F056FE99F900200AB17A49B3
:1077F000B5E79DF84030022B2AD19DF85530FF2B7C
:1078000005D1C5E90E22C5E91022AA6469E7032B58
:1078100018D81699DFF8D4C10B448B423FF461AFFE
:10782000087808FA00FEA86B20EA0E00A86311F899
:10783000010B08FA00FEE86B20EA0E00E8634CF842
:10784000042BEAE765490322204628F0ECFF48E7CD
:1078500063491A4683E7B8F1010F7FF442AF9DF800
:107860001EA0BAF1000F7FF43CAF9DF81F30012B32
:107870007FF437AF5B49304628F0C8FFDDE90921C6
:10788000534804F011FE59AB0DA95148CDF864A13D
:10789000CDF834A0CDF83CA00E9310F065FD99F919
:1078A000001011B10A46504959E79DF83420531E83
:1078B000012B00F207811C2210A85A91059137F084
:1078C00053FF059968698DF840805AAB0BAA149351
:1078D000CDE90B1103F07AF80B9B0F9A12939342A8
:1078E0001CBF9B1A11939DF83530FF2B40F082800E
:1078F0009DF8341002294FF000024FF0A0434FF4DE
:10790000005036D1C3F80C054FF48040C3F8082569
:10791000C3F80C054FF40040C3F80825C3F80C0564
:107920004FF48030C3F80825C3F80C05C3F80825C8
:10793000DFF8BC808DF84C100022022918F8010BEA
:107940002ED1FFF79BFD40B19DF84D3018F8010C8A
:1079500001338DF84D30149B98540132042AECD138
:107960009DF84D20002A00F0A88010A8FFF72AFEFD
:10797000B7E6C3F808054FF48040C3F80C25C3F8F8
:1079800008054FF40040C3F80C25C3F808054FF470
:107990008030C3F80C25C3F80805C3F80C25C7E7E9
:1079A000FFF76CFD80F00100C0B2CCE7205B060061
:1079B0003C1A0700D4610020041A0700406300202D
:1079C000545906009F590600C3590600E0590600A5
:1079D00030630020B05F0600F95906001C5A06000B
:1079E000505A06006D5A0600855A0600146200209F
:1079F00004620020042B62D80E989DF834E0034402
:107A00004FF0A0424FF4803800214FF400494FF46A
:107A1000804A4FF4005B83421AD18DF84CE000227B
:107A20009DF835309A429BD20E9B985C9DF834307D
:107A3000022B3CD1FFF722FD40B19DF84D300133C0
:107A40008DF84D300E9B995C149B99540132E7E7F9
:107A5000BEF1020F10F801CB14D1BCF1030FDAD83C
:107A6000DFE80CF002070A0DC2F80CB5C2F80815E1
:107A7000D1E7C2F80CA5F9E7C2F80C95F6E7C2F811
:107A80000C85F3E7BCF1030FC5D8DFE80CF0020763
:107A90000A0DC2F808B5C2F80C15BCE7C2F808A573
:107AA000F9E7C2F80895F6E7C2F80885F3E7FFF7AB
:107AB000E5FC80F00100C0B2BEE703494FE6034990
:107AC0000422C1E602494AE6AB5A0600CC5A060037
:107AD000FF5A060070B5264B264DC8B01B68479369
:107AE0004FF00003244BED1A90F91230039390F9F4
:107AF000113002934B680193ED08838900932D04A4
:107B000045F003058368027904460E4628461B4962
:107B100028F0BDFE3046FFF759FC2379032B0DD129
:107B2000A37B5BB1A2891649284628F073FE104B4F
:107B30001A68479B5A4018D038F090FA4FF4847274
:107B4000002105A837F010FEA38972683168ADF8EE
:107B5000143007A8069237F0DFFD0A4800231A46C2
:107B600005A900682BF0D6FFE1E748B070BD00BF63
:107B7000885B06003C1A0700041A0700245B060015
:107B80006D5B060024630020034B0360034B0B6016
:107B90003C231360704700BF7066002040640020E3
:107BA000034B0360034B0B6050231360704700BF0F
:107BB000B866002030650020704700000A46014684
:107BC00001482AF000B900BFEFBEADDE13B50F4C7F
:107BD000218BA068002340F20132914214BF4FF480
:107BE000A0524FF47052009304212CF0CDFF0128D5
:107BF00004D007494FF42870FFF7E0FF60680122C6
:107C0000052102B0BDE81040FFF778BBD461002029
:107C10008C5B06002DE9F347454B464E0278F61A79
:107C2000F6083604054646F003070C463846424936
:107C300028F0F0FD2B78032B14D8DFE803F00205C1
:107C4000076D012323760DE00223FBE7606902F054
:107C500077FC3A49024646F0010028F0DBFD0F2090
:107C60002AF0A4F8AB6800936B792A793449DFF8DD
:107C7000DCA0384628F0E1FDAB6823626B792377FE
:107C800005F10C0804F124090026D8F8003049F861
:107C9000043B324658F8043B51463846013628F03A
:107CA000C2FD032EF1D1637E1BB92B790BB90123E1
:107CB0006376237E012B38D1637E012B2ED10223E4
:107CC00063764FF4A0541F4DA8682DF08BF801285F
:107CD0000DD100230093A8681A4603212CF054FF0D
:107CE000012804D0184940F26910FFF767FF00230C
:107CF0000093A868A4024FF47A720421B4FBF2F254
:107D00002CF042FF012810D00F494FF4B67002B09A
:107D1000BDE8F047FFF752BF032393E7032B43F679
:107D2000982418BF4FF4A054CDE702B0BDE8F08707
:107D3000041A07003C1A0700935B0600A65B0600C6
:107D4000B95B0600D46100208C5B0600035C060072
:107D50002DE9F0476E4B6F4EA2B005461022002170
:107D60000BA800241B6821934FF000034FF001087B
:107D700037F0FAFC102200210FA8CDF8088037F068
:107D8000F3FC1C2221461AA8CDE90544199437F0CA
:107D9000EBFC70698DF8445005AA214602F016FEEE
:107DA00085BB8DF83D8010F0C3F88DF84450ADF8D8
:107DB0003E00059B109302A80DF16408FFF78CFAB2
:107DC000029B8DF83C30202241460BA804F06CFB4E
:107DD0000BA80FA910F0C0FB4F4C50489DF92C2068
:107DE000241AE4082404002A4ED04D4944F001002E
:107DF00028F010FD464B1A68219B5A4000F0858000
:107E000038F02CF9474BDFF82CA11B888DF83D404A
:107E1000ADF83E408DF84480ADF860308DF862409A
:107E200006F13409274619F8011BB26B08FA01F371
:107E3000134221D0F26B13421ED11343F36322A8E5
:107E400006EB84033844059A1A6400F8281CF0688D
:107E50002CF0C8FF0137FFB2034668B90090F06804
:107E60004FF4F04204212CF08FFE012804D051463B
:107E700040F20B20FFF7A2FE0134032CD3D118AB44
:107E800012938DF8457094E70E9B0392CDE9073865
:107E9000DFF8A4808DF810204146FF220BA80227AE
:107EA00001268DF80D708DF80F6004F0FDFA03A91E
:107EB00007AA0BA810F0B5F99DF92C1021B10A46BC
:107EC00044EA0600184993E70E9B0A93102214A86F
:107ED000CDF8248037F048FC029B13938DF8507046
:107EE000159644F0030075B140F20133ADF85A30F5
:107EF0000E493C23ADF85C3028F088FC09A913A892
:107F0000FFF726FB76E70A49F6E722B0BDE8F087DF
:107F10006C5C0600D46100203C1A0700041A0700BC
:107F2000AA5D0600B05F06000A590600135C060051
:107F3000405C06008C5B0600216200202DE9F04FBA
:107F40009C4BAFB01B682D934FF000039A4B1F93CF
:107F50009A4B20939A4B21939A4B22939A4B2393BB
:107F60009A4B249300244FF4E153CDE914431EAB04
:107F7000169305461E9000F0D9FA179000F0F4FA17
:107F80000522CDE9180419A914A81492904C01F007
:107F90001BFE904BE41AE408240444F00107034656
:107FA0000522A0B18C49384628F03DFC00236B61C6
:107FB000149328F0D7FA0028FBD12CF09BF97D4BC5
:107FC0001A682D9B5A4000F09A8138F047F81998AA
:107FD0006861114602F0BAF805220346F0B97F4AFB
:107FE0000092039002464FF4A0517D48D5F814A0AA
:107FF0002CF0ACFD039BA86090B97A49384628F074
:1080000005FCBAF1000FD4D01499504602F04EF995
:10801000504602F00BFA00236B61CAE77249C2E7CF
:10802000724A009272481A464FF4F0412CF08EFDCD
:10803000E86008B96F49E1E702236F4E2B7644F000
:10804000030428F08FFA0028FBD168684FF0FF3254
:108050000DF113012BF03EFE0128F2D19DF8132003
:10806000062A00F24A8101A353F822F08980020017
:1080700091800200AF800200438002004380020032
:10808000BD80020015820200504602F04BFAD8E78C
:10809000706902F08BFC28B15849384628F0B6FBCD
:1080A000FFF708F95649204628F0B0FBC9E7012040
:1080B000FFF74EFE002386F84C30C2E795F818B063
:1080C000BBF1010FBDD195F81990B9F1020F68D13C
:1080D000102200210CA837F047FBDFF83481CDF8DF
:1080E00014B01022002110A837F03EFB40F20343E9
:1080F00000211C22ADF8403026A8A8F104031293F9
:1081000025918DF842B0CDF8448037F02DFB05A8BD
:10811000FFF7E2F8059B8DF84C3025AB194620227D
:108120000CA804F0C1F910A90CA810F0EAF89DF908
:10813000302025AB22B13349384628F06BFB80E76D
:1081400006928DF81C200F9A8DF8199008F11908E5
:10815000CDE908234146FF220CA804F0A5F906A9A1
:1081600008AA0CA810F05DF89DF9301011B10A466C
:108170002549E1E70F9B0B9310221AA8CDF8288020
:1081800037F0F2FA059B2149199320468DF8689043
:10819000CDF86CB028F03AFB0AA919A8FFF7D8F976
:1081A0004FE7B9F1030F7FF44CAF0020FFF7D0FD8C
:1081B00047E700BFE45E06006D730200D57A020057
:1081C000A173020011740200157C02007973020091
:1081D0003C1A0700041A0700705C0600CD7B020001
:1081E000A35C0600E15C0600B25C06005D73020061
:1081F000015D0600145D0600D4610020365D0600B6
:10820000675D0600AA5D0600A15D0600D45D06005C
:10821000086200203B49DFF8048120464FF0000B44
:1082200028F0F4FA5946706919AACDE919BB02F091
:10823000CDFB354908F10C0918F8010BD6F83CC004
:1082400059F8042B012303FA00F010EA0C004FD078
:10825000EAB1199B9B1A1FFA83FB5B4662462046D4
:1082600028F0E1FABBF11D0F274938D918F8013C75
:10827000012202FA03FBF36B23EA0B03F363B36BF4
:1082800023EA0B03B363002349F8043C9B461F4BCE
:108290004345D1D1F26B1E495B46204628F0C3FA14
:1082A00028F060F90028FBD1BBF1000F3FF4C9AE04
:1082B0004FF47A2101FB0BF1009003464FF47A72E0
:1082C000F068B1FBF2F204212CF05EFC01283FF4CF
:1082D000B8AE104940F2B530FFF770FCB1E659F87E
:1082E000040C199A121A9345D1D91FFA82FBCEE7D2
:1082F000002ACCD049F8040CC9E707491CE72FB085
:10830000BDE8F08FFF5D0600265E06000B620020D0
:10831000785E06008C5B0600CB5E060008620020DB
:1083200013B50D4B0D4CCDE90001E41AE40824040B
:10833000D2E900320A4944F0010028F08AFA28F014
:1083400043FB28F00FF90028FBD1064B1B68DB0725
:1083500000D500BE02B010BD041A07003C1A070089
:10836000E85E0600F0ED00E008B5054903202DF0B9
:1083700079FE18B1BDE8084029F018BD08BD00BF5E
:10838000D574020013B52CF023FE08B129F00EFDC0
:1083900029F035FD08B129F009FD504800F0C4FA74
:1083A0004F484FF4004128F083F808B129F0FEFC53
:1083B00027F0BCFF4B4C4C4B4C49E41AE408240416
:1083C00044F0030028F022FA28F0CCF80028FBD172
:1083D000FFF7CAFF0FF0D6FA024648B1444944F00D
:1083E000010028F017FA434940F2B540FFF7E6FBD9
:1083F0000EF006FE024648B13F4944F0010028F065
:1084000009FA3C4940F2BB40FFF7D8FB0FF086FD6C
:10841000024648B1394944F0010028F0FBF93549DA
:1084200040F2C140FFF7CAFB354B364C93E80700DA
:108430000FF03EF800F094F823F080FA00220121BA
:108440000A202BF04DFB206010B9042029F0AEFC6F
:108450002D4B2E49196340F20121998600220321F8
:108460001A8383F83610012221681A775960284848
:108470002849CDE900234FF480622BF00DFF01283D
:1084800002D0042029F092FC00224FF484710A20CB
:108490002BF026FB204B226818601C4612B90420E2
:1084A00029F084FC1D4B22685A60022200921C496C
:1084B0001C4801934FF480622BF0EEFE012802D09D
:1084C000042029F073FC184A136943F00403136174
:1084D0002BF06CFF0F2029F069FCFBE7C05F060062
:1084E0003D7402003C1A0700041A0700175F0600DB
:1084F000305F06008C5B0600565F0600775F060063
:10850000B45F060020630020D46100200001020354
:108510003D7F02009E5F0600246300202863002048
:10852000A35F0600BD76020000ED00E00048704742
:108530004860060004220A70072216284A704FF08D
:1085400001020346CA70A8BF16236FF008029342C7
:10855000B8BF134600200B71022388704B7170471F
:1085600000487047B060060000487047246106006C
:108570002DE9F341044618B9264935200EF08AFC4E
:10858000254D00F005FC6F68AF423FD101202A68FD
:1085900004F11003C4E904252B60536025E0A7F122
:1085A0001006214630460FF009FD38B396E8030067
:1085B0006D4685E80300214628460FF075FD216AC7
:1085C00028460FF0FBFC034620B996E8030084E838
:1085D00003009846324604F1100352F8101FC4E914
:1085E0000412326940465360336110B1204600F0F6
:1085F000F3FA00F005FC02B0BDE8F0817F68AF42FD
:10860000C5D08046002FCAD14046C0E74FF00108D0
:10861000F8E700BF4C6106006859002010B5044619
:1086200018B90A4966200EF035FC00F0B1FBD4E918
:10863000043203B92AB1136062695A600023C4E9A5
:108640000433BDE8104000F0DBBB00BF4C61060006
:1086500010B5034678B171B1C0E90612074A92E835
:10866000030003F1080483E8030084E8030000200A
:10867000C3E9040010BD6FF00A00FBE7406106008B
:1086800010B5044628B1FFF7C9FF0020C4E9060071
:1086900010BD6FF00A00FBE708B518B1FFF7BEFF89
:1086A000002008BD6FF00A00FBE710B5044648B192
:1086B00000F06EFB23693BB96469003C18BF0124DC
:1086C00000F09EFB204610BD0124F9E7F8B50F46E7
:1086D00016461D46044608B302B3FFF7E6FFE8B9A5
:1086E00096E803000F4B84E80300002D08BF1D46E9
:1086F00095E8030004F1080383E8030047B1012F64
:1087000008D1094B23622046FFF732FF0020F8BD55
:10871000064BF7E706492E200EF0BCFB6FF00A006F
:10872000F5E700BF406106003061060038610600D1
:108730004C610600024B0020C3E90033704700BFC4
:1087400068590020F0B52A4E85B00F461FB9294957
:1087500074200EF09FFB00F01BFB7568B54213D12F
:1087600000F04EFB244B93E8030002AC84E80300C6
:1087700000F00EFB7368B3422ED100F041FB20469F
:1087800000F02AFA05B0F0BD002DE9D0102DE7D099
:10879000A5F11004394620460FF010FC0028DFD167
:1087A000D4E90432136062695A60C4E9040000F03D
:1087B00027FBA5F10801084601910FF0C5FC0199BE
:1087C00028B920460FF046FC2046FFF7D1FEA369EA
:1087D000E06921469847B9E7002BCED0102BA3F1D2
:1087E00010021CBFD2E90001C4E90001C5E700BFC7
:1087F000685900204C610600406106007047000087
:1088000010B5D0E900430A68A21A54B14C689C42E2
:1088100007D9013A02604A689B1A044A1A44426026
:1088200010BD02604A689B1A4360F9E700CA9A3B90
:108830002DE9F0430C4689B00546002865D0354B3C
:10884000DFF8E0E01A684FF0000CD2F810808DF8E5
:1088500007C09946BFF32F8F0DF10703D3E84F3FB1
:108860002D4F0FCF02AE0FC697E8030086E8030036
:108870009EE80300D8F80431D8F8046585E80300C1
:108880000DF10701C1E842CF002AE3D12BB1D8F89E
:1088900004339B0748BF06F18076D9F80000426890
:1088A000B2F5004F03D91D4969200EF0F3FA22F406
:1088B000FF7121F001018A424FEA522702D0174985
:1088C0006B20F2E72968B6FBF2F20A442A6042689C
:1088D000B6FBF2F302FB1366114BB3FBF7F37343E2
:1088E000DB086A6803EB83039B09192101FB03235F
:1088F0006B606CB102AD0FCD0FC495E8030084E846
:108900000300002009B0BDE8F0836FF00A00F9E72A
:108910002046F7E7006800200C6800204861060048
:1089200000127A002468002010B510B96FF00A0018
:1089300010BD314C2368002B5BD1836920606BB183
:108940004369002BF2D0C06998470028F0D1236812
:108950002A4A99691160DA69294B1A60294B002269
:10896000C3E900222268D2E900301169B3FBF0F3B9
:10897000013BC1F808354FF48033C1F84833C1F8E2
:1089800008330233C1F84433C1F804339468D36820
:1089900060B200284FEA4313ADBF00F160401A48AF
:1089A00004F00F0400F56140B9BFDBB20355DBB240
:1089B00080F80033906843B2002B09DB01245B0987
:1089C00000F01F0004FA00F06033104C44F823005C
:1089D000926853B2002B08DB012002F01F0200FA5C
:1089E00002F25B09094840F8232001230B600020B4
:1089F0009EE74FF0FF309BE7006800207059002091
:108A0000046800202468002014ED00E000E100E08C
:108A10002DE9F74380460F46D0E90001E94689E891
:108A20000300104615461C4636F0E3FD06461FB906
:108A30001E49E0200EF02EFA14B91C49E120F9E796
:108A4000414638460FF0BAFA10B11849E220F1E772
:108A50004FF08043D3F81835012B04D0C4E900004F
:108A600003B0BDE8F08339464846FFF7C9FE104F12
:108A7000009AB2FBF7F007FB102272434FF47A7CA6
:108A8000B2FBF7F107FB112206FB0010019BB3FBC1
:108A9000FCF37343B3FBFCF30CFB02332060636015
:108AA00020460FF0BFFAE81740B2D9E74861060048
:108AB00040420F00F0B58BB002AD0023CDE900338A
:108AC00002936B600446002847D004AE3146FFF79E
:108AD000AFFE234B1A8852426B4612B208A92046B9
:108AE000FFF796FF00281EDA69462046FFF788FE4A
:108AF000204606AF0FF096FA314638460FF05EFA80
:108B0000D0B197E8030085E8030031462846FFF717
:108B100077FE29462046FFF773FE20460FF082FAC3
:108B200000200BB0F0BD2368009A13442360019A23
:108B3000636813446360DBE796E8030085E803009D
:108B400039462846FFF75CFE2368029A13442360E7
:108B5000039A636813446360DFE76FF00A00E0E79D
:108B60000868002007B5174B1A681369D3F8041179
:108B700089B1D3F8041389070DD5134950684FF014
:108B80008072B2FBF0F2086802440A600022C3F867
:108B90000421BFF32F8FD3F840217AB1D3F80423F7
:108BA000D2030BD50022C3F840216846FFF782FFAD
:108BB000064B074A1B6810686946984703B05DF882
:108BC00004FB00BF006800202468002070590020CA
:108BD00004680020FFF7C6BFF0B589B0002800F098
:108BE000878003C86C4602AD84E803002846FFF77F
:108BF00061FF214628460FF0E1F918B195E803001E
:108C000084E803003D4F294620460FF04DFA3A68AC
:108C10004FF080765268B6FBF2F6009AB24224BF5B
:108C2000002301934FF00003CDE9043302936B60FE
:108C3000334B28BF00961A88524204AB12B2294621
:108C40002046FFF7E5FE00282ADA94E8030006AD87
:108C500085E8030004A928460FF0FCF9069BB342FF
:108C600003D295E8030084E803003968019B4C684F
:108C700018331922B3FBF2F2630A534303F5983316
:108C8000204A03F59673B3FBF2F3009A02FB043417
:108C9000B4F1807F09D91C4940F26D100EF0FAF84A
:108CA00004A920460FF000FADFE71ED0062C38BFDB
:108CB00006240E6900F06CF80525D6F80425A318E3
:108CC00023F07F43062CC6F8403505F1FF3505D16A
:108CD000D6F80435934201D0002DEED100F090F883
:108CE00055B9094940F28B10D8E76FF07F44E0E7AF
:108CF0006FF00A0009B0F0BD0020FBE7006800201B
:108D0000086800202D3101004861060030B587B0A9
:108D100002AD002101902846CDE90211CDE90411F0
:108D2000FFF786FD019A0E490E4C04AB2846FFF76B
:108D30006FFEA4F1080314EA200038BF1846019022
:108D400000F026F8019804A90FF084F995E80300D3
:108D5000083484E8030000F053F807B030BD00BFCA
:108D60001C6800201468002038B5084D0446288887
:108D7000404200B2FFF7CAFF6FF095008442B8BFCF
:108D80000446962CA8BF96242C8038BD0868002085
:108D900010B5EFF3108472B6144A936883B90123B7
:108DA0009360134B1348D3F8801001401160C3F84F
:108DB0008000D3F8841051604FF0FF32C3F8842054
:108DC00004B962B60C4BBFF35B8F53E8002F511C04
:108DD00043E800100028F8D1BFF35B8F082A03D9BD
:108DE000064928200EF056F810BD00BFB812012029
:108DF00000E100E0FC06FFBD2C6800205461060085
:108E000008B5114BBFF35B8F53E8002F511E43E8A9
:108E100000100028F8D1BFF35B8F1AB90B492D2041
:108E20000EF038F8012A0ED1094B9A685AB1EFF3C7
:108E3000108172B6074A18681060586850600022A6
:108E40009A6001B962B608BD2C6800205461060022
:108E5000B812012000E100E0036813F0060F14BF10
:108E6000012000207047006810F0010018BF01F0D9
:108E70000100704708B5FFF7EFFF20B111F0060FB2
:108E800014BF0120002008BDC36A13F0060F14BFF1
:108E900001200020704770471FB50F4B0C461B6820
:108EA00003934FF0000391B1002201A9104603F093
:108EB00031FD28B9D4F8B830D4F8BC0001A99847DE
:108EC000054B1A68039B5A4004D037F0C7F86FF07F
:108ED0000800F5E704B010BD6861060008B5084653
:108EE0001278002136F040FC002008BD06F0ACBC32
:108EF000F0B5314B89B01B6807934FF0000320B9E0
:108F00002E494FF4E3700DF0C5FF19B92B4940F21B
:108F1000C710F8E750F8D83CDB07A0F1D80542D5D8
:108F2000D5F8C8300A685B689A423CD10022244CCC
:108F300001AF3946104603F0EDFC224821460FF000
:108F400059F8064638B197E8030084E80300EB6956
:108F50000133EB6110E0394603A822460FF0DAF83E
:108F60003C2305A903A8CDE905360FF027F8002812
:108F7000EDD0C4E90066EE61EB69092B13D910F05E
:108F8000C7FB012804D9104A002102200EF040FF3F
:108F9000D5F8C800836800215B6908309847002332
:108FA000C4E90033EB61044B1A68079B5A4001D0B7
:108FB00037F054F809B0F0BDA46106006C610600FA
:108FC00030680020F06406007661060030B5204B62
:108FD000056887B004461422002168461B68059383
:108FE0004FF0000336F0C0FBD5F8C830E268043318
:108FF0009A421FD0D5F8CC3004339A421CD12B684A
:109000009A071BD403F004030093E3798DF804302E
:1090100094F90600A388ADF80C30AB6880B9DA6823
:109020001968684690470A4B1A68059B5A400CD04D
:1090300037F014F80123E7E70023E5E70223E3E72D
:109040001C691A686946A047EDE707B030BD00BF4C
:10905000A861060010B50CF089FA0368BDE810405D
:10906000DB6818472DE9F34104460D46FFF7FBFE88
:10907000A0B92046FFF7F0FE30B12368DB0703D428
:1090800094F8283042B14BB929462046FFF7F2FE4A
:1090900020B902B0BDE8F081002BF5D1E36A002AC7
:1090A0003AD02B43012DE36239D1002A37D1226314
:1090B000D4F8AC00FFF7CEFFE36AD4F8C81013F081
:1090C000010F054614BFC826002631B10368324699
:1090D000DF68B4F8D0300431B8472046FFF7D4FE3B
:1090E000D4F8CC10002814BF6427002741B12B68A6
:1090F0003A46D3F80C80B4F8D23004312846C04741
:1091000010F006FB0128C4D902210E4A009733460D
:1091100008460EF07DFEBCE723EA0503C2E72946B8
:109120002046FFF7A7FE0028C2D094F8F01004EB09
:1091300081010B6B1AB143F001030B63B8E723F015
:109140000103FAE7AC61060010B50CF00FFA0368F2
:10915000BDE810401B6918472DE9F0472A4B04462B
:10916000D0F8C80086B00D461B6805934FF0000389
:1091700030B183685E6B08230A4618441121B0475A
:10918000D4F8CC3023B1D4F8D400294601F05FFEE6
:10919000D4F8AC000CF0EAF900278146D4F8AC0012
:1091A000FFF7D2FFCDE9027702238DF8083004974C
:1091B000036802AE80460096DC342146D3F804A052
:1091C00004AA3B46D047D8F80030009604AA1E688F
:1091D00029463B464046B047D9F8003029465B69EE
:1091E00048469847284606F03DFA28686968064BC5
:1091F00003C41A68059B5A4001D036F02FFF384649
:1092000006B0BDE8F08700BFBC61060010B520B90C
:109210000C4940F2FF200DF03DFED0F8CC307BB180
:1092200003691B7963B103689B0709D5D0F8F8007F
:10923000036819B1DB6ABDE8104018471B6BFAE7F9
:1092400010BD00BF6C61060010B521B9054940F2A0
:109250009E200DF01FFE8B68BDE81040D3E9001280
:10926000012010476C61060008B520B9064940F29C
:10927000B7200DF00FFE19B903494FF42E70F8E72F
:10928000BDE80840FFF768BF6C6106007FB52F4B53
:1092900004461B6803934FF0000320B92C4940F2A9
:1092A000BF200DF0F7FD8369002B45D090F8ED301D
:1092B00013B1002380F8ED3001A9D4F8D40001F0F7
:1092C000ACFD0025D4F8D4008DF802500DF1020158
:1092D00001F05EFD9DF80230D4F8C8005B1B18BF9A
:1092E00001238DF8033070B1836809215E6B0DF1A5
:1092F000030201230830B047D4F8C8008368294628
:109300005B690830984723691B7953B1D4F8CC3096
:109310003BB123689B0704D5D4F8F80003685B6A67
:1093200098479DF803301BB94FF400500EF0F6FC3F
:1093300001A92046FFF710FF044B1A68039B5A400F
:1093400001D036F08BFE04B070BD00BFC0610600D6
:109350006C61060058B151B14BB1C0E92E3283693E
:1093600043B10A4600F194013C3031F0F5B96FF099
:1093700008007047184670472DE9F04FADB05A4BC2
:109380005A4F054600240DF15C0B502221465846E9
:109390001B682B934FF00003129436F0E5F9D5F8D3
:1093A000AC00FFF7D1FE8046D5F8AC00FFF752FEC7
:1093B000022304948DF810302B68059413F0020FEB
:1093C0000DF1100906463ED0C8233B803B88A5F826
:1093D000D23013AC2146D5F8D40001F01EFDD5F8EB
:1093E000F800036859465B68984703AA0021D5F83E
:1093F000D40001F073FD102200210EA836F0B4F95C
:1094000005F13C0AD5F8AC00CDF834A0CDE90B74D9
:109410000CF0B6F80223CDE90E0B039A10930BA9BA
:1094200005F1CC0012F0D2FC044680B1304A03466C
:10943000012100200EF0ECFC2B4B1A682B9B5A40AC
:109440004ED036F00BFE5B07C0D51323BDE7D5F831
:10945000CC00836821465B6808309847254A10682D
:10946000516815AB03C3D8F80030CDF80090D3F89D
:10947000009012AA234615A94046C8470446002872
:10948000DAD1D5F8CC10336804311B6830469847E0
:10949000044610B1184A0346CAE73368D5F8CC1021
:1094A000DC683B88642204313046A047044610B192
:1094B000124A0346BCE72B691B78002BBCD0D5F8B9
:1094C000D4300693D5F8AC300D49CDE9090006AA91
:1094D00005F1FC00CDE9073A10F0B2F80446ABE71D
:1094E00020462DB0BDE8F08F2C620600285B0020DE
:1094F000C4610600D8640600ED6106000D62060036
:1095000038650600002270B504460D46012011465C
:1095100003F000FAE36A003818BF012084F829003C
:109520004BB3228D3ABB84F8242094F8EE207AB312
:10953000A2696AB3BDB1E968226B914213D129696E
:10954000626B91420FD1A16B6A6991420BD194F881
:1095500024102A78914206D1AA68934203D1228D21
:10956000AB889A4214D0A36804F124005A691968A0
:10957000BDE87040104794F8ED203AB1DA0705D500
:1095800094F82820012A01D10322CCE70122CAE75E
:1095900070BD0000F0B5154B89B000F124051B68C3
:1095A00007934FF0000306468C4617460FCD01ACDB
:1095B0000FC495E80300D6F8CC3084E803000BB163
:1095C00063450AD13168304601F006013A46FFF79B
:1095D00049FD01A93046FFF795FF044B1A68079B28
:1095E0005A4001D036F03AFD09B0F0BD30620600B5
:1095F00070B5184B88B01B6807934FF00003044602
:1096000020B9154940F213300DF044FC00F1240656
:109610000FCE01AD0FC596E80300A36985E80300EE
:1096200073B1236B012243F002031146204684F8F4
:10963000ED202363FFF716FD01A92046FFF762FF27
:10964000044B1A68079B5A4001D036F007FD08B05A
:1096500070BD00BF346206006C610600F0B58DB0CD
:10966000314B8DF8071000F124061B680B934FF067
:10967000000304460F460FCE05AD0FC596E8030064
:1096800087F0010385E8030084F82830384605F0A8
:10969000EBFED4F8C80038B183680DF107025D6BAA
:1096A000092101230830A847236973B11B7963B1ED
:1096B000D4F8CC304BB123689B0706D5D4F8F8001A
:1096C0009DF8071003689B6A98479DF80730F3B12F
:1096D000072304F1DD022B214FF400500EF02CFA89
:1096E00020B112494FF48B600DF0D4FBD4F8D400B4
:1096F00004F1DC0101F0ABFB05A92046FFF702FFF6
:10970000094B1A680B9B5A400BD036F0A7FC03A9F3
:10971000D4F8D40001F081FB03A92046FFF71CFD1B
:10972000EAE70DB0F0BD00BF386206006C610600CC
:1097300070B5424B8CB000F124061B680B934FF0C0
:10974000000304460FCE05AD0FC596E8030085E87B
:109750000300D4F8CC0058B123691B79002B64D0E6
:1097600023689A0761D5D4F8F80003681B6A984704
:1097700003A9D4F8D4000025CDE9035501F04DFB31
:1097800003A805F07BFF03A92046FFF7E5FCD4F80A
:10979000C80008B3836829465B6908309847D4F845
:1097A000C800836808215E6B2A462B460844B047F0
:1097B000D4F8C8008DF80450836801AA5E6B0921B3
:1097C00001230830B047D4F8C80083682A465E6B8E
:1097D00007212B460830B04740F2011200232285B2
:1097E00001AAE36211460120CDE9013303F0B2F88A
:1097F00023691B7953B1D4F8CC303BB123689B0764
:1098000004D5D4F8F8000368DB69984705A9204619
:10981000FFF778FEA3689A6918689047074B1A68A3
:109820000B9B5A4007D036F019FC836800215B6817
:10983000083098479CE70CB070BD00BF3C62060042
:1098400037B5164B05466A460846002402211B68B8
:1098500001934FF00003009409F03CFBD5F8C830A9
:10986000009A04339A4210D0D5F8CC3004339A428F
:109870000DD1286883070CD400F00400074B1A6848
:10988000019B5A4007D036F0E9FB0120F6E720465D
:10989000F4E70220F2E703B030BD00BF40620600EB
:1098A00008B520B90A4940F2EE200DF0F3FAD0F8DD
:1098B000CC305BB103691B7943B1036813F0020339
:1098C00004D0FFF7BDFF821E53425341184608BD26
:1098D0006C610600F0B5284B8BB00F4694461B68B0
:1098E00009934FF00003044620B924494FF44E7009
:1098F0000DF0D0FA00F124060FCE03AD0FC596E8A7
:1099000003002368DB0785E8030021D56146204674
:10991000FFF796FF012805461AD127B3236B43F0C2
:1099200001032363024601462046FFF79BFB94F8A0
:10993000EC306BB10023CDE90133D4F8C80084F8D2
:10994000EC3083688DF808505B6901A908309847AE
:1099500003A92046FFF7D6FD074B1A68099B5A401A
:1099600007D036F07BFBD4F8C800836839465B69C2
:10997000ECE70BB0F0BD00BF446206006C6106006E
:10998000F8B50F461946154606461C46FFF758FF20
:109990000023012814BF96F8F0201A460C343A60D0
:1099A00006F1E4012B60204630F001FC10B10123E8
:1099B0002B60F8BD2046084930F0F9FB044608B199
:1099C0000223F5E70FF0A4FE0128F0D9034A21464F
:1099D00002200EF01DFAEAE7406506004862060024
:1099E000F0B58DB0254B8DF8072000F124061B68DB
:1099F0000B934FF0000304460F460FCE05AD0FC585
:109A000096E8030085E80300EFB139462046FFF7EA
:109A100017FF012818BF216802460EBF0146012228
:109A200001F006012046FFF71DFB3B4603AA04A9EF
:109A30002046FFF7A5FF9DF81030039904EB830340
:109A40001A6B0A431A6305A92046FFF75BFD94F8D9
:109A5000283053B9D4F8C80038B183680DF1070233
:109A60005C6B062101230830A047044B1A680B9B4E
:109A70005A4001D036F0F2FA0DB0F0BD7462060023
:109A8000F0B54F4B89B007461B6807934FF00003B2
:109A9000A0F1F404114662B1012A00F08A806FF04F
:109AA0000500474B1A68079B5A4000F0868036F045
:109AB000D5FAF42804D143494FF413700DF0EAF9B4
:109AC000A0F1D0060FCE01AD0FC596E8030057F800
:109AD000F43C85E80300D90702D5A369DA0702D46C
:109AE00094F8283043B1D4F8C80083685D6B002334
:109AF0001A4607210830A84794F8ED3013B1002327
:109B000084F8ED3005F097FD08B105F091FD05F002
:109B10009CFD08B105F096FD2046FFF79DF9002851
:109B20003CD0A36913F0060F38D094F82830002BEE
:109B300034D1D4F8C830CBB157F8F43CDB0715D496
:109B4000D4F8AC00FFF786FAD4F8C81003680431E3
:109B50009B689847054618B11A4940F26A20ADE75C
:109B6000D4F8C80003689847C4F8C8502046FFF7E7
:109B70008BF998B9D4F8CC3013B92046FFF7FCFB29
:109B8000D4F8CC00836801215B6808309847D4F88A
:109B9000CC00836801219B6808309847012120464A
:109BA0000022FFF75FFA01A92046FFF7ABFC002077
:109BB00077E72046FFF756FAF9E709B0F0BD00BF96
:109BC000786206006C6106002DE9F04F2DED028BE6
:109BD000C1B09E4B02911B683F934FF00003834638
:109BE00008B301B38368F3B15A68E2B19A68D2B19D
:109BF000DA68C2B11A69B2B15A69A2B19B6993B16C
:109C00004168934BA1F5E1529A420CD8036953B1D4
:109C10001A795AB19B685A1C17D08E4AA3F528436B
:109C2000C03B934211D96FF00A0706E0036803F0C6
:109C30000303022B09D16FF00507844B1A683F9B81
:109C40005A4000F04B8236F009FA834A9162DBF801
:109C5000003013F0070F9046EDD06FF000429342B2
:109C6000E9D003F00603062BE5D07C4D2F7D2C4672
:109C7000002F40F03082DC46BCE80F002E460FC6B5
:109C80007749DCF8003033602A4605F13C00AF61CB
:109C900030F088FB73492A4605F1940030F0C1FC8E
:109CA000714A92E8030006AB83E8030006F1B000B6
:109CB000194602F037FD2C3607460028BDD1014673
:109CC0001C222BA835F050FD05F1D8032C93D5F8B4
:109CD000C0302D93654B664A2BA905F1AC00CDE948
:109CE0002E350BF095FB074630B1624A0346012141
:109CF00000200EF08DF8A0E7D5F8AC000BF036FC94
:109D00000390D5F8AC00FFF71FFA039B23971A685E
:109D100081465269184605F1DC019047CDE9087784
:109D200002218DF82010D9F8001008AA00920B68C3
:109D30009C4648463B4623AA674605F1DC01B847E6
:109D400005F1DC09074610B14B4A0346CFE7D5F8C9
:109D5000AC304A492A4605F1C40009F0B1F807467B
:109D600010B1474A0346C2E7CDE90A00D5F8C4005E
:109D700083680AA95B6808309847074610B1414AD2
:109D80000346B4E72846FFF767F82368DF0746BFB6
:109D900080F00103DBB2002303F001038342054698
:109DA00004D1394940F291400DF074F893B1D4F8E0
:109DB000AC702422002117A835F0D6FC2649334880
:109DC00015AACDE9156701F0B3F8074610B1304A7E
:109DD00003468CE7002D74D0D4F8AC702D4D2E4B7B
:109DE0002B602422002117A835F0BEFCCDE91567B1
:109DF000236920951A791AB19A68501C18BF6A61B4
:109E00001B792B76236813F0020216D0234B012214
:109E100083F824200023C8F800300F4920484C2242
:109E200035F07AFC1D491F4815AA0FF089FD074639
:109E300000283BD01C4A034659E7590741BF174B3E
:109E4000C8F80020022183F82410E6E7F863060032
:109E5000601E090077E040002C5B00209059002034
:109E600049920200998E0200E064060055930200B8
:109E7000086506007C62060098620600F864060029
:109E8000B6620600D96206006C610600645A0020C2
:109E9000FB620600785B0020ED8E02009C5A0020D9
:109EA000DC5A0020885A00201B630600D4F8F80012
:109EB0008D4903689B689847074610B18B4A034653
:109EC00015E78B4BD4F8AC004FF000080125CDE925
:109ED0000C388DF835500BF035FB824624A80BF07A
:109EE00027F80823ADF8A030DAF800300CAADB68B8
:109EF00024A950469847074610B17E4A0346F6E625
:109F00007D498DF81700D4F8D40000F086FF0DF1DC
:109F10001701D4F8D40000F03BFF9DF817308DF8FE
:109F2000C950003B18BF01238DF8C83023688DF855
:109F3000CA5003F0010399E8030083F001038DF890
:109F4000CB303C23CDE9333635AB83E803006B4B94
:109F500038936B4B39936B4B3A936B4B3B936B4BF7
:109F60003C936B4B3D93D4F8AC103794032332A849
:109F70008DF8F83005F0A4FB074610B1654A03469A
:109F8000B5E60146342216A835F0EEFB624B179376
:109F9000624B1A93624B1C93624B1D93D4F8D4000E
:109FA000614B159415A91E9300F082FF18B15F490B
:109FB00040F27260F8E65E48FEF74EFF90BB236801
:109FC0009DF81770DA0739D5D4F8C850002D3AD16A
:109FD000D4F8AC000BF0D4FAE368564ACDE9103659
:109FE00021238DF84A304B23B7F1000A8DF84C300D
:109FF00063681493CDE90E094F4BC4F8F43018BFD1
:10A000004FF0010A4FF0C8080EA9A2F12C00ADF8DC
:10A0100048808DF84BA003F011FA074678B3474A01
:10A02000034664E6D4F8CC30002BC8D14048FFF793
:10A03000A3F9074600287FF400AEC0E71FB9DBF89C
:10A0400000305B07C0D49DF817303948B3FA83F36A
:10A0500001225B09227584F8283084F82920FEF754
:10A06000FBFE40B1DBF8003013F0040F14BF0223F5
:10A07000012384F8F030029B00271C60DDE5D4F852
:10A08000AC00FEF7E7FFD4F8C810036804311B6882
:10A0900005469847074610B1294A034627E6D4F8F3
:10A0A000C8002849836808309B69984718B11F4940
:10A0B00040F2765078E62B68D4F8C810DF68B4F820
:10A0C000D030424604312846B84707460028BAD067
:10A0D0001D4A03460BE66FF01907AEE5384641B05E
:10A0E000BDEC028BBDE8F08F645A00203763060098
:10A0F000E0930400526306006C5A0020699202004B
:10A100008D920200D5980200F1950200A1980200FC
:10A110000D92020072630600DD8E0200319702008C
:10A120005D960200E1990200959502006C610600BF
:10A1300090590020845A0020745900208D63060035
:10A14000B6630600605A0020D6630600F0B5554B92
:10A1500087B00E461B6805934FF0000305460028A4
:10A1600000F09880037D002B00F09480002900F01F
:10A17000918003688B42C0F08D800B4000F08A8094
:10A180006FF00042914208BF1E46826936EA020320
:10A1900000F083803146FEF76DFE00284CD012F0AF
:10A1A000060F49D1D5F8CC00836801215B680830DF
:10A1B00098470446002849D1D5F8CC00836801218E
:10A1C0009B6808309847012731462846FEF74BFE2A
:10A1D00028B995F82830012B3FD171073DD5AB69DF
:10A1E000DA073AD4D5F8C800836801215B680830E3
:10A1F0009847044620BBAB693343AB6100242B680E
:10A20000B3422DD1002201A9104602F083FB04467F
:10A21000E0B905F5807101A80DF046FF019BB3F58B
:10A22000E15F1DD303AA11460120CDE9034402F0EA
:10A2300091FBA8B1044609E000276FF02704C3E7AB
:10A240000346194A012100200DF0E2FD154B1A6862
:10A25000059B5A4023D035F001FF002CCFD1CAE72F
:10A26000012385F8EE3000212846FFF74BF92B69D2
:10A270001B79002BEAD0002FE8D02B689B07E5D58F
:10A2800095F82830012BE1D1D5F8F8000368DB6997
:10A290009847CFE76FF00A04D8E70024D6E72046B6
:10A2A00007B0F0BD14640600FC63060070B50E46EE
:10A2B0000446002800F0AE80037D002B00F0AA8049
:10A2C000002900F0A78003688B42C0F0A3800B40F8
:10A2D00000F0A0806FF00042914208BF1E46314658
:10A2E000FEF7C1FD28B92046FEF7C4FD002800F0A6
:10A2F0009180A56916EA050000F08F80002384F89C
:10A30000EE3031462046FEF7AEFD28B994F82830ED
:10A31000012B13D1700711D5D4F8C80070B1836830
:10A3200000215B6808309847054638B13C4A03462F
:10A33000012100200DF06CFD284670BD31462046FD
:10A34000FEF798FDD8B123691B795BB123689907A3
:10A3500008D594F82830012B04D1D4F8F80003680C
:10A360001B6A9847D4F8CC0048B1836800215B6829
:10A3700008309847054610B12A4A0346D8E73146C7
:10A380002046FEF770FD50B1E36A23F00103E3625B
:10A39000236B23F0030323630023A4F8EC3031463E
:10A3A0002046FEF767FD98B1B20742BFE36A23F08B
:10A3B0000203E362730742BFE36A23F00403E3622C
:10A3C00094F8F03004EB83031A6B22F003021A6353
:10A3D0002368B3420CD00123002184F8EE302046DC
:10A3E000FFF790F8A16921EA0601A1610025A3E722
:10A3F00004F13C0030F0C6F8054610B10A4A0346A5
:10A4000096E7024604F5807102F084FA05460028BA
:10A41000E1D091E76FF00A058EE705468CE700BFB3
:10A4200018640600376406005664060010B53C4BFD
:10A4300086B01B6805934FF000030446002867D0E0
:10A44000037D002B67D090F8283033B903AA11465A
:10A450000120CDE9033302F07DFA21682046FFF7A1
:10A4600025FF05F01DF9D4F8C400836808301B6887
:10A470009847D4F8C80020B1036898470023C4F86F
:10A48000C83023691B7843B1D4F8FC0028B10368B5
:10A490001B6898470023C4F8FC30D4F8CC0020B1E6
:10A4A000036898470023C4F8CC30D4F8F80038B1DA
:10A4B00003681B6898470023C4F8F830C4F8D43008
:10A4C000D4F8D40020B100F00DFD0023C4F8D4303E
:10A4D000D4F8AC000BF018F804F13C0004F194013E
:10A4E000019030F02CF9019830F085F8D4F8C000D4
:10A4F00008B102F04BF90020C4F8D00084F8F00055
:10A500002075074B1A68059B5A4007D035F0A6FD09
:10A510006FF00A00F5E76FF02700F2E706B010BD14
:10A520006C64060030B1037D23B183692BB13C30EC
:10A530002FF08EBF6FF00A0070476FF01C0070475D
:10A5400020B1037D13B190F9200070476FF00A002D
:10A55000704738B50C460346F8B1057DEDB16FF094
:10A560000045A94219D04D0717D0FEF77CFC20B159
:10A57000B3F8D0301360002038BDA10705D51968A5
:10A580008D0702D5B3F8D230F4E7600702D5196819
:10A590004907F7D46FF00500EEE76FF00A00EBE72C
:10A5A0002DE9F04F99466E4B9FB01B681D934FF0FD
:10A5B000000343689DF8A0709C6820460D469046B5
:10A5C000FFF73EF94FF0000B0146824603AA2046F2
:10A5D000CDF80CB0FFF7BDFF039B9F420ED900934F
:10A5E000604A3B46022158460DF012FC5C4B1A684B
:10A5F0001D9B5A4000F0B08035F030FD95F8246086
:10A600003EB10D2EF2D1584A594658460DF000FC85
:10A61000ECE72B4604AA05A92046FFF7B1F995F807
:10A6200032301B072FD0049B022B2CD0314638220E
:10A630000FA835F099F805F10C010FA808F09CFC63
:10A64000064620B1494940F289300CF023FCAB6A40
:10A650001993AB6811939DF86E308DF86C0060F320
:10A6600003038DF86E30D4F8C40003680AAAD3F847
:10A6700008B00FA93346D847034620B13C4A012110
:10A6800030460DF0C5FB002102AA2846ADF808109F
:10A6900008F020FC002110220BA835F065F8049B7F
:10A6A00095F832100C93AB6AADF8343011F00F010D
:10A6B0009DF808308DF8393018BF01219DF8093018
:10A6C000CDF828A0B8F1030FCDE906978DF82C80BE
:10A6D0008DF838108DF83A3003D117B901238DF871
:10A6E00036300DF137020721284604F1240608F020
:10A6F000F1FB0FCE0FAD0FC50A9A96E80300012AB1
:10A7000085E8030015D194F8EC306BB10023CDE956
:10A710000833D4F8C80084F8EC3083688DF824201E
:10A720005B6908A908309847012211462046FEF7C8
:10A7300099FC9DF81430049904EB830320461A6BAE
:10A740000A431A630FA9FEF7DDFEA36806A99C68F9
:10A750001A680AA8A04749E700201FB0BDE8F08F9B
:10A76000D064060070640600976406006C61060001
:10A77000B064060007B5009313460222FFF710FFEE
:10A7800003B05DF804FB07B5009313460322FFF7FF
:10A7900007FF03B05DF804FB07B5009313460122E1
:10A7A000FFF7FEFE03B05DF804FB07B50093134608
:10A7B0000022FFF7F5FE03B05DF804FBF0B5784B1F
:10A7C00091B00E4615461B680F934FF000030446E8
:10A7D00048B96FF00A00724B1A680F9B5A4000F09C
:10A7E000DD8035F03BFC037D002BF2D00029F0D05A
:10A7F0000B68002BEDD04B68013BFE2BE9D8002AFB
:10A80000E7D0D0F8C00001F0C7FFB0F5967F40F266
:10A81000BC80AB7B2BB1EA7B002ADAD02A8A002AE3
:10A82000D7D02A79032A03D1AA89B2F5804FD0D292
:10A8300013B9EB7378232B8294F8243013B1032BD4
:10A8400040F0A680E26AD10705D42046FEF71CFB43
:10A85000002800F09D802968114200F099806FF077
:10A86000004399420ED000236A4620460093FFF72A
:10A8700070FE0028AFD17268009B9A420CD96FF02D
:10A880000900A8E7B4F8D030B4F8D220934238BF1A
:10A89000134672689342F2D3AF68022F18BF0127A4
:10A8A0000021AF60382201A834F05EFF022F0CBFF8
:10A8B0003C4904F1E40101A808F05EFB20B13A49EB
:10A8C00040F2D3700CF0E6FAE36ADB0723D529687F
:10A8D0002046FEF7C8FAF0B1AA68236B1A421AD0D4
:10A8E000D4F8C8300433039304F1B003AA7B029375
:10A8F0009DF8363062F303038DF83630EB7B8DF82C
:10A9000034302B8AADF838302B79032B43D8DFE86D
:10A9100003F01C272C31D4F8CC20002A3BD0204651
:10A92000FEF7B2FA002836D029682046FEF7A2FAD0
:10A93000002830D094F8F03004EB8303196BAB6837
:10A94000194228D004320392CEE7D4F8C400036839
:10A950001C683379326801A9A0470B9BAB813AE7A9
:10A96000D4F8C40003685C68F3E7D4F8C400036853
:10A97000DC68EEE7AB89D4F8C4000B930368326857
:10A980009C68337901A9A04725E76FF0030022E70F
:10A990006FF027001FE76FF005001CE711B0F0BD56
:10A9A000D4640600406506006C61060040B1037D7A
:10A9B00033B183693BB1D0F8D400012100F034B841
:10A9C0006FF00A0070476FF01C0070470B4611468D
:10A9D00038B182692AB121B133B91A46012001F098
:10A9E00099BF6FF00A0070476FF0050070470000D4
:10A9F00010B50C4619B101F1E803984203D009499A
:10AA00001E200CF047FA8B68988C0DF087F9636C68
:10AA100094F80011206B9847204600F054FA00206B
:10AA200010BD00BF5065060010B504468EB080F81A
:10AA3000001138220021684634F096FEA26869466B
:10AA40004732204600F025FA50B103238DF8243018
:10AA50002068036869461B6F984700200EB010BD40
:10AA6000A368E0689A8F04F1E8012FF021FE002826
:10AA7000EED00F30E9D1EBE770B516460D4600F089
:10AA80005DFB7378012B04460ED8337880F80031D3
:10AA9000B278C06804F1E8010AB9A3689A8F2FF070
:10AAA00007FE20B1032300E0062385F82430206848
:10AAB00003682946DB6EBDE87040184764230B70BD
:10AAC0000020704770477047704770476FF005006F
:10AAD00070477047704790F8E42012B1002280F868
:10AAE000E42000207047F8B550F81C3CA0F1240584
:10AAF00093F848700C46F03008390023DAB2BA42B5
:10AB00000BD250F8046BB1421A4606D00133002E26
:10AB1000F4D105EB8203C3F8141195F808112368EA
:10AB200000399B6818BF012120469847AB6E13B1CE
:10AB3000E86E214698470020F8BD0020704708B510
:10AB4000836B243813B1006B08399847002008BD87
:10AB50006FF005007047C36B083924380BB1006BE8
:10AB600018476FF00500704770B50C4619B101F138
:10AB7000D003984204D0154940F2E9100CF08AF94C
:10AB8000096A012034F058FD064650B16569226A11
:10AB900001460023E069A847054678B1304634F005
:10ABA000A5FD002070BD04EB8303D3F8140120B190
:10ABB000836831469B6A083098470135A36893F84B
:10ABC0004820EBB29A42EED8E8E700BF6E65060077
:10ABD00010B541B1002351F823400CB140F8234097
:10ABE00001339A42F7D110BD08B500B119B908492F
:10ABF00072200CF04FF91B2A06D90BB11C221A60E7
:10AC000000F026FD002008BD6FF00300FBE700BF49
:10AC10006E65060070477047031D1A461F3012F814
:10AC2000011F19B98242FAD10120704713F8012F90
:10AC3000FF2A02D18342F9D1F6E70020704737B5E9
:10AC40000123CDE90031044600256FF00500A3681B
:10AC500093F84820EBB29A4201D803B030BD04EB20
:10AC60008303D3F814313BB19A686946D26803F183
:10AC7000080090470028F0D00135E8E7F8B5154600
:10AC8000002207460E46A0F124041146012001F0DF
:10AC900041FEEB1E012B2FD8A36893F846304BB131
:10ACA00000221146012001F035FEE8B1204601F0F6
:10ACB000F0F806E007F184012046FFF7C0FF002806
:10ACC000EED0A369E0692A4631469847032D00D0AB
:10ACD00045B9636D33B1E91E4A424A41206BA6F182
:10ACE000080198470020F8BD94F8B7100029E8D172
:10ACF000204601F01DF8E4E7002DE2D10028E0D065
:10AD0000204601F00DF82A462946204601F09CF81D
:10AD1000D7E7002210B511460446012001F0FAFDE4
:10AD2000014620B92046BDE8104000F0DABC6FF0C3
:10AD3000270010BD2DE9F341002506460F468DF88A
:10AD40000750B36893F84830ECB2A34202D86FF0D2
:10AD5000050014E0443406EB8404606890B1836815
:10AD60000DF10702D3F83480022101230830C047D7
:10AD700040B99DF80730012B04D163683B6002B0F5
:10AD8000BDE8F0810135DCE70A46052100F04EBC44
:10AD90000A46072100F04ABC70B58AB000230E466F
:10ADA0000DF1070105468DF80730FFF7F1FF044666
:10ADB000C8B9014602901C2203A834F0D5FC042037
:10ADC000202202A90CF08AFB9DF8073002A86BB183
:10ADD000FFF722FF68B9A8680723808C32462B2131
:10ADE0000CF046FE044620460AB070BDFFF714FF83
:10ADF00038B130460CF0D2FB002808BF6FF00704D2
:10AE0000F1E7072202A9304634F086FC337803F0DC
:10AE10001F0363F05F033370E5E737B501230B7061
:10AE20000D4600F201110191FFF7B6FF044658B933
:10AE3000019908462FF07AF901990246681C34F00E
:10AE40006BFC204603B030BD6FF00704F9E7F7B59F
:10AE5000002305460E4668460821009300F0C6FB15
:10AE6000044698B9019001A92846FFF763FF0446FC
:10AE700060B9019883685F6B08231121184432463A
:10AE8000B847009B711C5B6828469847204603B072
:10AE9000F0BD13B50C460846019208F05BF8019A24
:10AEA000002104F10C002FF045F9002002B010BD84
:10AEB00008B50E223030FFF78BFE002008BD303081
:10AEC000086000207047836893F826304FF47A7248
:10AED00000F1D0015A43C0682FF058BC24301060F4
:10AEE0000020704710B5114B0446006800221A601C
:10AEF00018B1836808301B689847E06804F1D001F6
:10AF00002FF01DFCE06804F1E8012FF018FCE06868
:10AF100004F174012FF013FCE06804F1B8012FF084
:10AF20000EFC2046BDE8104034F0E0BBF07300207A
:10AF30002DE9F0476D4ED6F800A08AB007460D46C1
:10AF40009146BAF1000F40F0CA8091F8481045319F
:10AF50008900012034F070FB0446002800F0C28014
:10AF6000D9F804000AF0EEFA614B01931A22514617
:10AF7000804603A8CDF808A034F0F6FBD9F80030DD
:10AF80003822C4E90253514604F1300034F0ECFB9E
:10AF9000584BE363584B2364584B6364584BA3648A
:10AFA000584BE364584B2365584B6365584BA36576
:10AFB000584BE365584B636295F8493084F8093182
:10AFC000D9F804000AF0C8FA283560600FCD04F102
:10AFD0008C0CACE80F002B68CCF80030A26892F81B
:10AFE00046302BB14632514604F1A8002FF0A2F8AA
:10AFF00003A809F09DFF04F1100300211846142254
:10B00000ADF81C1034F0B0FB444A6261444AC4E914
:10B0100006241C22226209F108010522FFF7D8FD4F
:10B02000D9E9090104F1680383E8030022463D4998
:10B0300004F1D0002FF0F5FA20B13B494FF42B700A
:10B040000BF028FF3949224604F1E8002FF0E9FA15
:10B0500018B1354940F2AF20F2E73549224604F1F4
:10B0600074002FF0DEFA18B12F4940F2B220E7E762
:10B070003049224604F1B8002FF0D3FA18B12A491A
:10B0800040F2B520DCE7D9F804302B4922462046AF
:10B0900008F0A0F90546F0B904F201112046FFF7C7
:10B0A0007BFE0546B8B92068836809F11C015B681E
:10B0B00008309847054670B9D8F8003001AADB6817
:10B0C00003A940469847054628B934603C602846A5
:10B0D0000AB0BDE8F0872046FFF704FFF7E76FF0FE
:10B0E0001905F4E76FF00305F1E700BFF0730020E6
:10B0F000E0930400BDAA0200CDAA0200C5AA020086
:10B1000017AC0200C7AA0200C9AA020015AC0200CF
:10B11000CBAA0200D3AA0200945B0020E9AB020094
:10B12000D5AA020069AB02006E650600F1A9020013
:10B1300099BD020011B9020088650600436898684D
:10B14000704700007FB50C46164608B104B11AB925
:10B1500017491E200BF09EFE019300230393FFF777
:10B16000EDFF0199054603A800F040FAE0B9039B02
:10B1700031461B6828469847B0B9039B31465B6847
:10B180002846984780B92846FFF79DFE94F832304C
:10B190006FF3030384F83230039B3246DB682146A9
:10B1A0002846984704B070BD032384F82430EDE7A7
:10B1B000486606007FB50C461E4600B11CB913490F
:10B1C00034200BF067FE0192FFF7B8FF002305461D
:10B1D0000199039303A800F009FA90B9039B314643
:10B1E0009B682846984794F832306FF3030384F83D
:10B1F0003230039B3246DB6821462846984704B02C
:10B2000070BD032384F82430EDE700BF48660600D4
:10B2100007B504238DF807200DF10702FFF792FF11
:10B2200003B05DF804FB07B500238DF80730042256
:10B230000DF10703FFF7BEFF03B05DF804FB07B590
:10B2400008226B46FFF7B6FF03B05DF804FB00234E
:10B25000FFF778BF07B500226B4600928DF80420F7
:10B26000FFF7A8FF03B05DF804FB70B50C46154668
:10B27000FFF764FF012206462946112006F0D4FD9F
:10B28000C0B284F8240010B9012386F80831306870
:10B2900003682A4621465B6CBDE87040184730B50C
:10B2A00085B00C46FFF74AFF102305461A460021D9
:10B2B000684634F059FAA8686A4610230421808C45
:10B2C0000CF0D6FB84F82400286803686A465B6C9F
:10B2D0002146984705B030BD37B5054600918DF839
:10B2E0000720FFF72BFF00990446052328460DF1A0
:10B2F0000702FFF727FF054650B99DF80710206B9E
:10B30000A36C003918BF012198472046FFF701FDC3
:10B31000284603B030BD07B500238DF8073005225D
:10B320000DF10703FFF746FF03B05DF804FB07B517
:10B330000623019201AAFFF705FF03B05DF804FBA5
:10B3400007B500230193062201ABFFF733FF03B0DB
:10B350005DF804FB30B5B2FA82F285B052090546B9
:10B3600001918DF80F20FFF7E9FE019904460723AC
:10B3700028460DF10F02FFF7E5FE054650B99DF88E
:10B380000F10E36C206B003918BF0121984701238F
:10B3900084F80831284605B030BD0323FFF7D2BE3C
:10B3A00007B500238DF8073003220DF10703FFF7DF
:10B3B00001FF03B05DF804FB0020704783680A7842
:10B3C00093F820309A428CBF6FF00A00002070473B
:10B3D000006812780368D3F8AC3018470068036837
:10B3E0001B6A1847006812780368DB6A1847006810
:10B3F00012780368DB6F184782680B68D269934242
:10B4000005D8022B34BF6FF00A00002070476FF0A0
:10B410000A0070470068126803689B6D184700684F
:10B420000368D3F890301847006803685B691847D1
:10B4300013B50C4600F20111084601912EF076FE7C
:10B4400001990246204602B0BDE8104034F064B9CC
:10B4500013B50446084601912EF068FE0199024694
:10B4600004F2011034F058F9002002B010BD8068D9
:10B470000A46808C012302210CF05EBB80680A46DC
:10B48000808C012327210CF057BB80680A46808CF2
:10B4900001230B210CF050BB80680A46808C0523E9
:10B4A00003210CF049BB38B5054680680A46808CFC
:10B4B00004230C210CF040FB044618B90146284631
:10B4C00000F00FF9204638BD38B505468068D1E94F
:10B4D00001230C46808C89890CF0CAFAA26828B135
:10B4E000D4E90010BDE8384034F016B9D4E90001C1
:10B4F00034F004F930B9AB68A189988CBDE83840C4
:10B500000CF0BEBB38BD1FB583681A33CDE90031DE
:10B510000123029369460223ADF80C30FFF7D4FFF4
:10B5200005B05DF804FB1FB583681933CDE9003120
:10B530000123029369462723ADF80C30FFF7C4FFBF
:10B5400005B05DF804FB1FB58368CDE90031042325
:10B55000029369460C23ADF80C30FFF7B5FF05B038
:10B560005DF804FB1FB583681833CDE90031012372
:10B57000029369460B23ADF80C30FFF7A5FF05B029
:10B580005DF804FB1FB583681033CDE9003101235A
:10B59000029369460823ADF80C30FFF795FF05B01C
:10B5A0005DF804FB1FB583680433CDE90031052342
:10B5B000029369460323ADF80C30FFF785FF05B011
:10B5C0005DF804FB70B5044680680A46808C0E4620
:10B5D000012308210CF0B0FA054620B9236913B104
:10B5E0003178E0699847284670BD000038B520B929
:10B5F0000C4940F24D100BF04DFC0B4A0023144651
:10B60000157C8D4205D1142202FB03430360002008
:10B6100038BD0133072B02F11402F1D16FF007009E
:10B62000F6E700BF686606008C66060073B5002367
:10B63000054601A816460193FFF7D8FF044620B936
:10B64000019B31469B6828469847204602B070BD52
:10B6500038B505460C460431FFF7A4FF04F1090193
:10B660002846FFF7E5FE04F11A012846FFF74BFFD5
:10B6700004F110012846FFF785FF04F11801284660
:10B68000FFF770FF04F119012846FFF74CFF214630
:10B690002846FFF758FF05F5857104F111000722D0
:10B6A000BDE8384034F038B813B5002301AA0621AC
:10B6B00001930446FFF7BAFF019B50B973B14FF4F1
:10B6C0007A72E0685A4304F1B8012EF0F1FF02B03B
:10B6D00010BD002B08BF6FF00A00F8E76FF00A00FA
:10B6E000F5E74FF47A724A4300F1B801C0682FF0D1
:10B6F0004DB807B56323019350F8043C01AA5B6879
:10B700000438984703B05DF804FB00001FB51446E9
:10B710000DF0FEFF01280BD9E3780293A378019383
:10B7200063780093044A2378042102200CF070FB14
:10B73000002004B010BD00BF1867060030B50446F5
:10B7400089B0051F03A801910BF094FF54F8043C45
:10B750000199DC6803AA11232846A04709B030BD2F
:10B7600030B585B00D46FFF7E9FC0023CDE9013384
:10B770000446039301A9036C006B984710B106239C
:10B7800085F824302068036801AA1B6E2946984773
:10B7900005B030BDF0B585B00E46FFF7CFFC83682D
:10B7A00093F84510436B8DF80F10054623B900241C
:10B7B000032386F824300FE0012033F03DFF0446D8
:10B7C0000028F4D00023009301466F6B286B0DF125
:10B7D0000F02B8470028EBD1286803682246D3F847
:10B7E00098509DF80F303146A847054614B12046C1
:10B7F00033F07CFF284605B0F0BD7FB504460D460A
:10B800000192FFF79BFC00234068039303680199B2
:10B810001B6A03AA984754F8043C261FD3F88830C3
:10B8200003AA29463046984704B070BD70B58CB065
:10B830002B2204460D46061F002101A833F094FF79
:10B84000184834F037FC132828D8164834F032FC56
:10B85000C0B28DF80400134834F02CFC13281FD814
:10B86000104834F027FCC0B29DF804208DF8190070
:10B870000C490DF1050033F04FFF9DF819200949DF
:10B880000DF11A0033F048FF54F8043C01AAD3F834
:10B89000A0302946304698470CB070BD1420D8E738
:10B8A0001420E1E77483060010B5044641B1FFF7A8
:10B8B000FBFE28B920460121BDE81040FFF711BF6B
:10B8C000E06804F1B8012EF03AFF002010BD10B579
:10B8D000044692B03822002104A833F045FFA26844
:10B8E0000023473204A92046CDE901330393FFF733
:10B8F000D0FA50B9236C206B01A9984728B9206869
:10B90000036801AA5B6E04A9984712B010BD00003D
:10B910002DE9F0410C4692B019B101F1B807874208
:10B9200003D02B49B8200BF0B5FA3822002104A827
:10B9300033F01AFFA368012093F845108DF80F101B
:10B9400033F07AFE064640B9E0684FF47A72394621
:10B950002EF0AEFE12B0BDE8F081656B8DB104AB88
:10B96000009301462346206B0DF10F02A8470546C0
:10B9700028BB2068036832469D6C9DF80F3004A9EF
:10B98000A847A368002193F845208DF80F20304682
:10B9900033F0EAFEA56B95B104AB0093206B234610
:10B9A0000DF10F023146A847054640B920680368EB
:10B9B0003246D3F84C809DF80F3004A9C04730467A
:10B9C00033F094FE0E35BFD02046FFF76DFEC1E781
:10B9D0003067060000680B68984294BF0020012081
:10B9E000704700680A68824294BF002001207047B7
:10B9F0000023C0F8B030A0F8B430D0F88C300B8001
:10BA0000022380F8B630704730B585B00C4600216F
:10BA1000039103A9CDE90032FFF78CF938B90398F7
:10BA20008168DDE900324D6B08302146A84705B03A
:10BA300030BD000070B5164610B1037A042B03D94F
:10BA4000124941200BF026FA03680B608288104DE2
:10BA5000A2FB0534DA0B42EA44424A60037A0D4AFB
:10BA6000C488D35C9C40E30BC4F30E04A4FB0545DF
:10BA70003360E30B43EA4543736008460CF0D2FAA7
:10BA80003046BDE870400CF0CDBA00BF4C670600F0
:10BA900000CA9A3BA868060070B500F11405044678
:10BAA00000F10C012A46012000F034FF20B10B4BBD
:10BAB00093E8030085E8030004F124066068324639
:10BAC00004F11C01FFF7B6FF23683146284698476A
:10BAD00000280CBF6FF00A00002070BD98680600B7
:10BAE0007FB50026054602AA69460120CDE9006619
:10BAF000CDE9026600F00EFF044630B1204B6B60CA
:10BB00002E6003232B7204B070BD0199009B2B6043
:10BB1000C80319A3D3E90023490C39F0FFFC0399AA
:10BB2000A88015A3D3E90023C803490C39F0F6FC1B
:10BB3000029B00EBC330B0F5804F0ED3114B9842FF
:10BB400010D9114B984210D9104B98424FF0030373
:10BB50000ED943F6FF72EA80D4E723462246D0404E
:10BB6000E880CFE701230522F9E702230A22F6E75E
:10BB70000D22F4E7AFF3008000CA9A3B00000000FA
:10BB80000000FF3FE0FF070000FCFF0000E0FF07B0
:10BB900030B597B000230DF10E0105468DF80E303B
:10BBA0008DF80F30FFF7F4F818B128499F200BF0FB
:10BBB00071F99DF80E3033B33822002108A833F014
:10BBC000D3FD05F1A80108A807F0D6F9044640BB4B
:10BBD00034F09EF9C5F8B000049005A8CDE90544FD
:10BBE0000794FFF77DFF2868036804AAD3F8B430F0
:10BBF00008A998470446A0B99DF82C30012B13D909
:10BC00001249BA20D3E70DF10F012846FFF7BCF81F
:10BC1000044610B10D49A320C9E79DF80F30002B51
:10BC2000CAD1204617B030BD0DF072FD0128F8D9F9
:10BC30009DF82C20064B022153F822300093054A30
:10BC400095F8B43008460CF0E3F8EAE74C670600D4
:10BC5000A06806006A67060038B504460D46FFF77F
:10BC600097FF20B994F89A3084F8B6002B8038BD3D
:10BC700073B504460D46FFF78BFF064680BB94F86C
:10BC80009A302B8094F8B42094F89B30511C994240
:10BC900028D10B2094F89A600CF09EFA304428804A
:10BCA00094F8B43094F89B200133DBB29A4284F8C4
:10BCB000B43015D200221146012000F02BFE60B3F3
:10BCC00094F8B5300133DBB2052B84F8B53028BFCA
:10BCD0000523581EC0B204EB4004B4F890302B800A
:10BCE00002B070BD9A42DBD302460146012000F04B
:10BCF00011FE0028D4D001A920460196FFF71AF8BA
:10BD00000028CDD10198836801219B6808309847AD
:10BD10000028C5D184F8B400C2E784F8B600DFE794
:10BD20000023C0F8B030A0F8B43080F8B6307047C7
:10BD300037B504460D4600F17401C06801912EF03C
:10BD4000FEFC0022C4F8B020A4F8B4200222D4F8EB
:10BD50008C30019984F8B6206DB99BB26BB1012289
:10BD600084F8B720E0684FF47A725A4303B0BDE814
:10BD700030402EF09DBC2B88F0E703B030BD37B5C6
:10BD800001250DF106010446ADF80650FFF7D0FF7E
:10BD900084F8B65003B030BDF0B50C4685B039B16B
:10BDA00001F17407874203D191F8B630022B04D910
:10BDB00022494FF4A4700BF06DF801260021CDE963
:10BDC0000211ADF8066013B302AA304600F0A2FDDE
:10BDD0000546E0B9A368029A93F838309A4216D91A
:10BDE0000DF096FC20B1164A294630460CF010F8AA
:10BDF00002AA002511460120CDE9025500F0AAFD56
:10BE00000123C4F8B050A4F8B45084F8B63094F8C4
:10BE1000B6200C4B0DF1060153F82230204698470E
:10BE2000BDF8063033B14FF47A72E0685A433946B0
:10BE30002EF03EFC002005B0F0BD00BF4C670600B0
:10BE400083670600AC68060038B50446036D006BD6
:10BE500015469847A5B194F809312BB12046FFF754
:10BE600036FD002384F80931D4F8C03083B9D4F802
:10BE7000C4306BB901212046BDE83840FFF714BD3E
:10BE80002A462946012000F045FD08B12946F2E77F
:10BE900038BD90F8B630012B01D0FFF770BF704766
:10BEA000F0B587B00E461746FFF748F9002405465F
:10BEB00004AA02A93846CDE90244CDE90444FFF7BB
:10BEC000B9FD01AA02213046019407F003F82A6F58
:10BED000019B9A42044612D104AA02A9012000F053
:10BEE00039FD044658B9314628460122FFF7ACFF18
:10BEF00021462846FFF71CFF204607B0F0BDDDE9CC
:10BF000002231343F8D12846FFF7C3FFF4E70000EC
:10BF1000F0B591B014460D46FFF710F9002754F81C
:10BF2000043B019324223946064607A8CDE902774F
:10BF3000049733F019FC2C4B05A8CDE90534FFF725
:10BF4000ABFD044600283FD10999089B0293C80322
:10BF500023A3D3E90023490C39F0E0FA0B99ADF89B
:10BF60000C001FA3D3E90023C803490C39F0D6FA0B
:10BF70000A9A00EBC232B2F5804F19D31B4B9A429A
:10BF80001AD91B4B9A421AD91A4B9A424FF0030303
:10BF900018D943F6FF72ADF80E208DF810303068D6
:10BFA000036801AAD3F8B8302946984711B0F0BD0C
:10BFB00023462046C240EEE701230520FAE702238C
:10BFC0000A20F7E70D20F5E70DF0A2FB0028EDD0E1
:10BFD00001210846084B094A0BF01AFF3846E5E7ED
:10BFE00000CA9A3B00000000E3B90200E0FF07002E
:10BFF00000FCFF0000E0FF07AE670600B767060021
:10C0000070B592B015460E46FFF798F800232A68DF
:10C010000393D0F8B0309A42044647D1242200213D
:10C020000DEB020033F0A0FB464B079304350023D1
:10C0300004A9204608950493FEF77CFE054607A850
:10C04000FFF72AFD002877D110AA0EA9012000F0E1
:10C0500081FC002870D13C490CA80BF0CBFF0028D4
:10C0600035D0012231462046FFF7EEFE002D56D096
:10C0700096F82F300BB105F09BFF35B9049B5B6838
:10C080001BB129462046FFF753FE0DF041FB012866
:10C0900009D90C9B0193109B00932C4A2C4B032134
:10C0A00002200BF0B5FE002012B070BD03A805F011
:10C0B000B1FF2B6810B9039A9342AFD00193D4F823
:10C0C000B0300093234A224B03210020E9E7CDE959
:10C0D00005000AA90EA80BF071FFE8B10AAA0EA983
:10C0E00005A80CF017F8082305AA05212046FFF73C
:10C0F0008BFC0DF00DFB0128B3D9069B4FF47A722F
:10C10000B3FBF2F30193059B0093134A104B0321F9
:10C1100002200BF07DFEA4E70EAA0AA9E0E7B368AF
:10C12000049A1B6852689A42A2D12B462A461421CF
:10C130002046FFF769FC9BE7236D206B0122314607
:10C1400098479AE7D5B90200986806000768060084
:10C15000DB67060035680600E567060030B58FB07E
:10C160001546FEF7EBFF24220446002105A833F014
:10C17000FBFA154BCDE9033594F8B630012B1FD0EF
:10C1800003A8FFF789FCD8B90DF0C2FA012807D936
:10C190000C9B009302210D4B0D4A08460BF038FE14
:10C1A00033F0B6FE052390FBF3F303EB8303C31ACE
:10C1B00001330DF10A012046ADF80A30FFF7B8FD52
:10C1C00000200FB030BD00BFD5B902005D68060089
:10C1D00069680600D0E9022393423DBF4268D1540A
:10C1E000C368FC233ABF0133C36003707047D0E9D2
:10C1F000022393423DBF5A1CC2604268FC2332BFF7
:10C20000D05C03700020704730B50368032B03D067
:10C21000042B94BF5B0803230C68032BA2EB0402DE
:10C2200014BF01250225AA4212D3027902F03F026F
:10C2300042EA831222700A68032B02F101040C60A7
:10C2400004D1036853700B6801330B60002001E0D8
:10C250006FF0030030BD30B503685C1CA2421BD3F5
:10C260001C7804F03F040C7104682478A4090C6065
:10C270000468651C05600D68032D09D1A51CAA4240
:10C280000AD363780B60036801330360002030BD7C
:10C290000123AB400B60F9E703606FF00900F6E79C
:10C2A000007840FA03F31A400A70002070470088B3
:10C2B00040FA03F31A400A80002070470A4002FA4D
:10C2C00003F3027813430370002070470A4002FA18
:10C2D00003F302881343038000207047814294BF18
:10C2E0006FF0030000207047814234BF6FF00300FD
:10C2F00000207047814294BF6FF009000020704712
:10C30000814234BF6FF009000020704710B5036808
:10C310005C1C94429FBF1B780B700368013396BF6F
:10C3200003606FF00900002010BD0B6810B55C1CA5
:10C3300094429FBF18700B6801330B6094BF0020BC
:10C340006FF0030010BD10B50446084621688B1C31
:10C35000934207D8022233F0DFF9236802332360C7
:10C36000002010BD6FF00900FBE713B5ADF8060023
:10C370000868831C93420C460AD802220DF106017C
:10C3800033F0CAF9236802332360002002B010BDE5
:10C390006FF00300FAE70B6810B5DC1C94420BD871
:10C3A000020C1A700B68020A5A700B6898700B68BE
:10C3B00003330B60002010BD6FF00300FBE710B5E6
:10C3C0000446084621680B1D934207D8042233F027
:10C3D000A3F9236804332360002010BD6FF0090027
:10C3E000FBE713B501900868031D93420C460AD879
:10C3F00004220DEB020133F08FF92368043323602C
:10C40000002002B010BD6FF00300FAE738B5044613
:10C410000D46216810464A19934207D32A4633F045
:10C420007BF9216829442160002038BD6FF00900A4
:10C43000FBE770B516681446721893420D4609D38F
:10C440000A460146304633F067F9216829442160E5
:10C45000002070BD6FF00300FBE71FB50C468DF8A0
:10C460000C00114602A81A46012301920293FFF71D
:10C47000CBFE019A10B92046FFF757FF04B010BD5C
:10C4800037B5069D00920C468DF8040019462A46E1
:10C490006846FFF7B9FE28B90A462B4600992046A0
:10C4A000FFF7C7FF03B030BD70B504460E46154612
:10C4B0000021102233F058F9C4E9016570BDFFF77F
:10C4C00089BE38B50C46090AFFF784FEE1B2BDE823
:10C4D0003840FFF77FBE38B50C46090EFFF77AFEED
:10C4E000C4F30741FFF776FEC4F30721FFF772FE9E
:10C4F000E1B2BDE83840FFF76DBE38B50C468D1887
:10C50000AC4200D138BD14F8011BFFF763FEF7E71A
:10C5100038B50C68032C0D4603D0042C94BF640876
:10C520000324297901F03F0141EA8411C9B2FFF7E0
:10C5300051FE032C04D12978BDE83840FFF74ABEEC
:10C5400038BD38B51546FFF7E3FF2946BDE838404A
:10C55000FFF740BE38B51546FFF7DAFF2946BDE8BC
:10C560003840FFF7AEBF38B51546FFF7D1FF294673
:10C57000BDE83840FFF7AFBF37B515460193FFF769
:10C58000C7FF019A294603B0BDE83040FFF7B5BFA9
:10C5900008B5FFF72CFE087008BD10B50446FFF77C
:10C5A00026FE000608602046FFF721FE0B6843EADE
:10C5B000004008602046FFF71AFE0B6843EA00209F
:10C5C00008602046FFF713FE0B681843086010BD93
:10C5D00038B505468C18A14200D138BD2846FFF772
:10C5E00006FE01F8010BF6E710B50446FFF7FFFD64
:10C5F00094F900305BB900F03F030B7183110B70AD
:10C600000A68032A04D12046FFF7F1FD086010BD37
:10C61000012393400B60FAE770B50646002834D03A
:10C62000002934D08B071CBF033121F0030101F135
:10C630000804082C456938BF082400F1140215B914
:10C640002C46204670BDD5E90031A34221D22A1DD7
:10C650000D46F4E7281941602B681B1B2B51106015
:10C660002C60B3696B602C46B56154F8082B00212F
:10C67000083A204633F078F82A68F3689B1A326942
:10C68000F3609342DDD23361DBE70446D9E70C4621
:10C69000D7E71B1B072BDDD81160E2E730B540B1AF
:10C6A00039B18B0705D18269A1F1080300F11804A3
:10C6B00002B930BD9A42556823D0141D2A46F7E7C7
:10C6C00093422AD9104652680AB19A42FAD30468B2
:10C6D0000519AB4209BF51F8083C41F8042C1B195D
:10C6E000036014BF436003465A68002AE1D018680B
:10C6F00019188A42DDD111680144196052685A60E4
:10C70000D7E70022256041F8042CC26851F8084C94
:10C710002244C2604269002AD2D141F8042C43610C
:10C72000E2E7000038B50C46054638B331B3496836
:10C730002B2923D92368DA1C22F0030293421DD14E
:10C7400053B9012032F078FF8207034603D00E4927
:10C75000E5200AF09FFBA0B194E8030083E8030002
:10C76000002003F120019861596161682039C3E913
:10C770000810C3E9021119612B6038BD6FF00A007F
:10C78000FBE76FF00300F8E7B868060018B103682C
:10C790000BB932F0ABBF704708B520B903494FF46D
:10C7A00088700AF077FBC06808BD00BFB868060053
:10C7B000F0B585B06E46002304463046CDE902331D
:10C7C0000BF0A6FB054608BB04F11007FCF7E0FAE6
:10C7D000314638460BF0F2FBB0B9009B22699A1A39
:10C7E0000C4BB3F900305A434FF47A73534302A809
:10C7F00003930BF017FC02A904F118000BF02AFCBC
:10C8000096E8030087E80300FCF7FAFA284605B02B
:10C81000F0BD00BFB05B00202DE9F04393688BB002
:10C8200080460F46144663B31046E946FFF7C0FF43
:10C8300048460BF06DFB0646F8B9FCF7A9FA0FCC99
:10C8400002AD0FC594E80F0085E80F00FCF7D8FA99
:10C85000B8F1000F0BD002A948460BF025FC04A943
:10C8600048460BF0F7FB99E8030088E8030027B17E
:10C870000AAB13E9030087E8030030460BB0BDE8BC
:10C88000F0836FF01806F8E72DE9F0410F468AB003
:10C8900015468046002837D0002935D0104602AC16
:10C8A000FFF786FF20460BF033FB064640BB98E8B7
:10C8B000030004AB83E8030094E8030006AB83E8BD
:10C8C000030097E803000AAB03E90300FCF760FAF2
:10C8D0000FCC0FC594E80F0085E80F00FCF790FA25
:10C8E0000CF016FF01280BD902214FF47A72059B38
:10C8F000B3FBF2F308460093054A049B0BF088FA59
:10C9000030460AB0BDE8F0816FF00806F8E700BFD6
:10C91000CA68060008B50346022B0846114603D92B
:10C920000949A0200AF0B6FA012B05D0022B08D045
:10C93000BDE808400BF0ECBA044ABDE80840FFF738
:10C940006BBF034AF9E700BFDF68060014740020DC
:10C95000F47300200346022B084610B5114603D994
:10C960001749B8200AF096FA012B04D0022B21D0E7
:10C970006FF0050010BDF8B1F2B10368ABB94368C0
:10C980009BB913688BB954687CB9202221460D48A5
:10C9900032F0EAFE0CF0BCFE012804D90A4A214616
:10C9A00002200BF035FA2046E4E7064ABDE81040C5
:10C9B000FFF76ABF054AF9E76FF00800DAE700BF42
:10C9C000DF68060014740020EB680600F473002092
:10C9D00070DF704774DF704776DF70477ADF70472B
:10C9E0007CDF70477FDF70478FDF7047A8DF7047BD
:10C9F000AADF7047AEDF7047B0DF7047B1DF704726
:10CA000062DF704766DF704736DF704708B5064B58
:10CA100093F85400FFF7DEFF30F0080006BF034B29
:10CA2000D8774FF0FF3008BD34740020987800208C
:10CA3000044B988B4FF6FF73984202D03B21FFF7CF
:10CA4000CBBF7047987800200020704730B51F4B4F
:10CA50001F4C87B01B6805934FF00003A37E63B3A0
:10CA60001C4B988A4FF6FF75A84226D09D7D25B3B2
:10CA700031B32AB3248B944222D39B88ADF804307F
:10CA80000DF10203ADF8022004910022039301A9E5
:10CA90000123CDF807208DF80B208DF80630FFF725
:10CAA000A9FF00280CBF00206FF00C00074B1A688C
:10CAB000059B5A4007D033F0D1FA6FF01700F5E725
:10CAC0006FF00A00F2E707B030BD00BF086906004A
:10CAD000987800207C78002078B1036883B143689F
