:020000040000FA
:1000000080080120C1CF0100B79D040095CF0100F9
:1000100095CF010095CF010095CF010000000000B1
:1000200000000000000000000000000061C70100A7
:1000300095CF010000000000D1C6010095CF01005E
:10004000D1C801002DC70400D1C80100D1C80100EA
:10005000D1C80100D1C80100D1C80100D1C8010038
:10006000F5C60400D1C80100D1C8010013C70400BF
:10007000D1C80100D1C80100D1C80100D1C8010018
:10008000D1C80100D1C80100D1C80100D1C8010008
:10009000D1C80100D1C80100D1C80100D1C80100F8
:1000A000D1C80100D1C80100D1C80100D1C80100E8
:1000B000D1C80100D1C80100D1C80100D1C80100D8
:1000C000D1C80100D1C80100D1C80100D1C80100C8
:1000D000D1C80100D1C80100D1C80100D1C80100B8
:1000E000D1C80100D1C80100D1C80100D1C80100A8
:1000F000D1C80100D1C80100D1C80100D1C8010098
:1001000001F0FF01102A2BDB10F0070F08D010F8C8
:10011000013B013A8B422DD010F0070F42B3F6D1CC
:10012000F0B441EA012141EA014122F007047FF0E5
:1001300000070023F0E80256083C85EA010586EA3C
:10014000010685FA47F5A3FA87F586FA47F6A5FA78
:1001500087F68EB9EED1F0BC01F0FF0102F0070284
:1001600032B110F8013B013A83EA010313B1F8D12F
:100170000020704701387047002D06BF3546033810
:10018000073815F0010F07D1013015F4807F02BF49
:10019000013015F4C03F0130F0BC0138704700BF9A
:1001A00053B94AB9002908BF00281CBF4FF0FF31DE
:1001B0004FF0FF3000F00CB8ADF1080C6DE904CE43
:1001C0000EF030FFDDF804E0DDE9022304B07047F3
:1001D000704700BF2DE9F14F03F11C0402EB840CC2
:1001E0004FEA930B8A68CB680868496800F046F9C3
:1001F0003CE9F0006040694072407B400BF1060E24
:100200004EE083EA134480EA134582EA134746BA74
:1002100096EA3444604000F00F1684EA063420F079
:100220000F1684EA161054BA94EA0106724002F0DE
:100230000F1486EA043622F00F1486EA14124CBA20
:100240006540694001F00F1485EA043521F00F1470
:1002500085EA14115CBA67407B4003F00F1487EA0B
:10026000043723F00F1487EA141344BA44404DBAFC
:100270004D4056BA56405FBA5F4087EA174886EA53
:10028000174B84EA17464FEA38488BEA1B4485EA45
:100290001B4788EA1B4580EA3440694072407B4036
:1002A00000F0703400F0803500F00F3040EA440078
:1002B00040EAD50080EA900404F0332480EA840008
:1002C000604001F0703401F0803501F00F3141EAF7
:1002D000440141EAD50181EA910404F0332481EA22
:1002E0008401614002F0703402F0803502F00F3278
:1002F00042EA440242EAD50282EA920404F033243C
:1003000082EA8402624003F0703403F0803503F027
:100310000F3343EA440343EAD50383EA930404F02A
:10032000332483EA84036340C943DB4381EA000446
:1003300083EA044686EA020183EA014382EA3345FE
:1003400083EA14435C4084EA00077FEA040A8AEAED
:10035000024A8AEA010B87EA11488AEA374A80EAA8
:10036000060181EA1A418AEA030A04EA0A004540C2
:1003700088EA040707EA0B0041408AEA0B0608EA0C
:10038000060084EA34428AEA3A4602EA0603584002
:100390004540414087EA37438BEA3B4003EA000986
:1003A00085EA090582EA0309464006EA0906714022
:1003B00085EA010005EA3546464006EA314181EA10
:1003C000304181EA364606EA304686EA3546344010
:1003D0000F4086EA010508EA050886EA3640024031
:1003E00088EA020881EA314213405C4080EA020355
:1003F00009EA030987EA0907674088EA040806EA68
:100400000A0601EA0B018AEA0B0425408AEA3A440B
:10041000204045408BEA3B4B02EA0B02564084EAFF
:100420000B04234059406E40694087EA364080EA19
:10043000384080EA060380EA104481EA134585EAE1
:10044000344585EA17427D4082EA354180EA05401D
:100450003CE9F0006040694072407B40BEF1010E13
:100460003FF6CFAE20BC00F05FF828606960AA605C
:10047000EB60BDE8F08F00BF00F000BA80EA101416
:1004800004F0F01480EA0410604081EA111404F0D2
:10049000F01481EA0411614082EA121404F0F014AD
:1004A00082EA0412624083EA131404F0F01483EA2F
:1004B0000413634080EA102404F47F4480EA04209B
:1004C000604081EA112404F47F4481EA0421614000
:1004D00082EA122404F47F4482EA0422624083EA1E
:1004E000132404F47F4483EA0423634081EA500424
:1004F00004F0553480EA4400614083EA520404F079
:10050000553482EA4402634082EA900404F03334B2
:1005100080EA8400624083EA910404F0333481EA83
:1005200084016340704700BF82EA900404F03334D2
:1005300080EA8400624083EA910404F0333481EA63
:100540008401634081EA500404F0553480EA440099
:10055000614083EA520404F0553482EA4402634065
:1005600080EA102404F47F4480EA0420604081EA99
:10057000112404F47F4481EA0421614082EA1224B8
:1005800004F47F4482EA0422624083EA132404F4E0
:100590007F4483EA0423634080EA101404F0F014DB
:1005A00080EA0410604081EA111404F0F01481EA3A
:1005B0000411614082EA121404F0F01482EA041279
:1005C000624083EA131404F0F01483EA04136340D6
:1005D000704700BF2DE9F14F94464FEA930B8A68AC
:1005E000CB6808684968FFF749FF0BF1060E33E056
:1005F00083EA134480EA134582EA134746BA96EA2F
:100600003444604000F00F1684EA063420F00F16E0
:1006100084EA161054BA94EA0106724002F00F14EC
:1006200086EA043622F00F1486EA14124CBA6540AA
:10063000694001F00F1485EA043521F00F1485EAB2
:1006400014115CBA67407B4003F00F1487EA04374B
:1006500023F00F1487EA1413BCE8F00060406940EF
:1006600072407B4000F0E03400F0103500F00F30B5
:1006700040EA540040EAC50080EA900404F03324C4
:1006800080EA8400604001F0E03401F0103501F0B0
:100690000F3141EA540141EAC50181EA910404F0B5
:1006A000332481EA8401614002F0E03402F0103525
:1006B00002F00F3242EA540242EAC50282EA920490
:1006C00004F0332482EA8402624003F0E03403F051
:1006D000103503F00F3343EA540343EAC50383EABA
:1006E000930404F0332483EA8403634081EA3247AD
:1006F00087EA134581EA354690EA060484EA034B0B
:1007000082EA1B4280EA044484EA054483EA144AEC
:1007100085EA14448BEA044B84EA374481EA0B41AE
:1007200081EA164104EA0A00454082EA04082BEAFD
:10073000080041408AEA0B0602EA060084EA3443D4
:100740008AEA3A4603EA060778404540414088EA8B
:1007500038478BEA3B4007EA000985EA090583EA46
:100760000709464006EA0906714085EA010005EAE4
:100770003546464006EA314181EA304181EA364653
:1007800006EA304686EA3546344008EA010886EA39
:1007900001052A4086EA364003405A4081EA314347
:1007A0001F407C4080EA030709EA070988EA090834
:1007B000544088EA020806EA0A0601EA0B018AEABE
:1007C0000B0215408AEA3A42104045408BEA3B4012
:1007D00003405E404240174079404D404E40E44364
:1007E000F64386EA18435D4085EA054083EA1343F1
:1007F00086EA034183EA384284EA114383EA0443E8
:100800005FEA3343BEF1010E3FF6F2AE1ED4BCE800
:10081000F0006040694072407B4020BCFFF784FEDE
:1008200028606960AA60EB60BDE8F08F2DE9E041C7
:100830004FF2F00280EA1031114080EA0130484066
:1008400041088208C3084FF0000E4FE700F0113056
:1008500001F0113102F0113203F0113340EA41008E
:1008600040EA820040EAC3004FF2F00280EA103111
:10087000114080EA01304840BDE8E0812DE9F04FA9
:1008800002F11C050646074600EB850851F8040BEB
:10089000043A46F8040BF9D14FF0010CFFF7C6FFFC
:1008A0005FEA302080EA0C001ECF41404A405340AE
:1008B0005C401EC62000464517D04FEA4C0C1CF485
:1008C000807F18BFACF1E50C2C2DE7D03C2D06D174
:1008D000FFF7ACFF06CF41404A4006C6100006CFE6
:1008E00041404A4006C61000D8E736E90F00FFF73E
:1008F000C5FD043D86E80F00F7D1BDE8F08F00BFCD
:1009000070B491E87800B2E802105B1854EB0C0464
:10091000B2E802104D4156EB0C0680E878008041A9
:10092000013070BC704700BF70B491E87800B2E845
:1009300002105B1A74EB0C04B2E802108D4176EBE6
:100940000C0680E878008041404270BC704700BFD0
:100950002DE9F00791E80017C0CAA8FB063440F85B
:10096000043BA9FB0615E8FB6741EAFB665140F82A
:10097000044BA9FB0743ECFB661344CAE8FB625433
:10098000EAFB6714ECFB673440F8045BA9FB0275D3
:10099000EAFB6235ECFB6245E8FB6617E9FB66376C
:1009A000EAFB6647ECFB6657BAC0BDE8F007704744
:1009B0002DE9F00391E8F803B2E802105B1854EB5C
:1009C0000C04B2E802104D4156EB0C0692E80610FA
:1009D0004F4158EB020859EB0C0980E8F8038041BD
:1009E0000130BDE8F00370472DE9F00391E8F8030A
:1009F000B2E802105B1A74EB0C04B2E802108D41ED
:100A000076EB0C0692E806108F4178EB020879EB42
:100A10000C0980E8F80380414042BDE8F0037047CC
:100A20002DE9F003524290E83800B1E88003174006
:100A3000DB1918EA020854EB080419EA020955EB1D
:100A4000090538C090E8780091E8820311404B41D5
:100A500017407C4118EA020855EB080519EA02091B
:100A600056EB090678C080410130BDE8F0037047BD
:100A70002DE9F003524290E83800B1E880031740B6
:100A8000DB1B18EA020874EB080419EA020975EB8B
:100A9000090538C090E8780091E8820311408B4145
:100AA0001740BC4118EA020875EB080519EA02096B
:100AB00076EB090678C080414042BDE8F0037047FC
:100AC0002DE9F00152424FF0030890E8300091E820
:100AD000C000A31B1340E41AF618EB1B1340ED1AD9
:100AE000FF1830C0C0C1B8F10108EED104680E682B
:100AF000A31B1340E41AF61804600E60BDE8F00171
:100B0000704700BF00B592EC070AB1E8005E07EE3F
:100B1000101A56EC102A58EC117AA9FB0250AAFBC5
:100B20000234E9FB6603EBFB624340EC145AAAFB78
:100B30000605ECFB6235E9FB6740E9FB6830EEFB3C
:100B40006250AAFB0721EAFB6851EBFB680112EE39
:100B5000108AEBFB6632ECFB6652EAFB6802EBFBA9
:100B6000681243EC154AA9FB084312EE908AE9FB90
:100B70006803EAFB6813EBFB6823EBFB6754EEFBAF
:100B8000660413EE108AE9FB6814EAFB6824EBFBA9
:100B9000683406EE105A17EE109A99E8000CACFB78
:100BA000076511EE909AECFB6915EEFB6925EAFBEF
:100BB0006935EBFB694510EE109AEAFB6906EBFB21
:100BC000691612EE109AECFB6926EEFB6936EAFB19
:100BD0006946EBFB695610EE909AAAFB0987EBFB7E
:100BE000692712EE909AECFB6937EEFB6947EAFB46
:100BF0006957EBFB696711EE109AEEFB6918EAFB87
:100C00006928EBFB693813EE109AECFB6948EEFBA0
:100C10006958EAFB6968EBFB697800BD2DE9F04F84
:100C200007EE900AFFF76EFF17EE909AA9EC054ABF
:100C300089E8FF01BDE8F08F00B591E8805FA7FB70
:100C40000750A7FB0834E7FB6803E7FB694340EC68
:100C5000145AA7FB0905E7FB6A35E8FB6840E7FB88
:100C60006A30E7FB6B50A8FB0921E7FB6B51E7FB00
:100C70006C01E8FB6932E8FB6A52E7FB6C02E7FBB8
:100C80006E1243EC154AA8FB0A43E8FB6B03E7FB33
:100C90006E13E8FB6E23E9FB6954E8FB6B04E8FB89
:100CA0006C14E8FB6E24E9FB6E3406EE105AA9FBC7
:100CB0000A65E8FB6C15E9FB6C25E9FB6E35EAFB80
:100CC0006E45E9FB6A06E9FB6B16E9FB6C26EAFB5D
:100CD0006C36EAFB6E46EBFB6E56A9FB0B87EAFB14
:100CE0006B27EAFB6C37EBFB6C47EBFB6E57ECFBBF
:100CF0006E67EAFB6A18EAFB6B28EBFB6B38EBFBD1
:100D00006C48ECFB6C58ECFB6E68EEFB6E7800BD3B
:100D10002DE9F04F07EE900AFFF78EFF17EE909A3D
:100D2000A9EC054A89E8FF01BDE8F08F2DE9F0073D
:100D300091E8F807B2E802105B1854EB0C04B2E833
:100D400002104D4156EB0C06B2E802104F4158EB31
:100D50000C08B2E8021059EB01095AEB0C0A80E8C2
:100D6000F80780410130BDE8F00770472DE9F00732
:100D700091E8F807B2E802105B1A74EB0C04B2E8D1
:100D800002108D4176EB0C06B2E802108F4178EB31
:100D90000C08B2E8021079EB01097AEB0C0A80E842
:100DA000F80780414042BDE8F00770472DE9F007A1
:100DB000524290E87800B1E880071740DB1918EA42
:100DC000020854EB080419EA020955EB09051AEA6E
:100DD000020A56EB0A0678C090E87800B1E880076E
:100DE00017407B4118EA020854EB080419EA02098B
:100DF00055EB09051AEA020A56EB0A0678C080414B
:100E00000130BDE8F00770472DE9F007524290E845
:100E10007800B1E880071740DB1B18EA020874EB82
:100E2000080419EA020975EB09051AEA020A76EBC9
:100E30000A0678C090E87800B1E880071740BB4107
:100E400018EA020874EB080419EA020975EB0905AF
:100E50001AEA020A76EB0A0678C080414042BDE8F1
:100E6000F00770472DE9F00152424FF0040890E876
:100E7000300091E8C000A31B1340E41AF618EB1BE6
:100E80001340ED1AFF1830C0C0C1B8F10108EED10F
:100E9000BDE8F001704700BF00B592EC080AB1E868
:100EA000805707EE101A53EC102A56EC114AA7FB94
:100EB0000251A8FB020BE7FB6310E9FB62B041ECB7
:100EC000145AA8FB0351EAFB6201E7FB64B5E7FB98
:100ED0006605E8FB661505EE10BAA9FB03B6EAFB4A
:100EE0006316ECFB6356E8FB640BE9FB641BEAFB4F
:100EF000645BECFB646B05EE900AACFB023012EE17
:100F0000104AEEFB6250E9FB6460EAFB64B0E7FB69
:100F10006431E8FB645112EE904AE8FB6461E9FB3E
:100F200064B1EAFB640106EE103AA7FB043213EE4B
:100F3000104AE7FB6462E8FB64B2E9FB6402EAFB87
:100F4000641211EE904AE9FB6453EAFB646313EE0A
:100F5000904AE7FB64B3E8FB6403E9FB6413EAFB34
:100F6000642306EE905A17EE109A99E8000610EEE8
:100F7000108AA9FB0854EAFB68B412EE108AECFB55
:100F80006804EEFB6814E9FB6824EAFB683410EEA1
:100F9000908AEEFB6865E9FB68B5EAFB680512EE2E
:100FA000908AECFB6815EEFB6825E9FB6835EAFBE7
:100FB000684507EE106A11EE108AAEFB0876E9FB71
:100FC0006806EAFB681613EE108AECFB6826EEFB57
:100FD0006836E9FB6846EAFB685611EE908AECFB3E
:100FE00068B7EEFB6807E9FB6817EAFB682713EEB2
:100FF000908AECFB6837EEFB6847E9FB6857EAFB31
:10100000686700BD2DE9F04F07EE900AFFF744FF37
:1010100017EE908A07EE90BAA8EC084A88E8FF001D
:10102000BDE8F08F00B591E89857A3FB0352A3FBEE
:101030000401E3FB6420E3FB671042EC145AA3FBBA
:101040000752E3FB6802E4FB6415E3FB6805E3FB7E
:101050006925A4FB07B6E3FB6926E3FB6A56E4FBBC
:10106000670BE4FB682BE3FB6A5BE3FB6C6B40EC18
:10107000151AA4FB0810E4FB6950E3FB6C60E3FB6A
:101080006EB0E7FB6721E4FB6951E4FB6A61E3FBB7
:101090006EB1E4FB6E0106EE102AA7FB0832E4FBFA
:1010A0006A62E4FB6CB2E4FB6E02E7FB6E12E7FBE4
:1010B0006853E7FB6963E4FB6CB3E7FB6C03E7FB96
:1010C0006E13E8FB6E2306EE905AA7FB0954E7FB6C
:1010D0006AB4E7FB6C04E8FB6C14E8FB6E24E9FBE4
:1010E0006E34E8FB6865E7FB6AB5E8FB6A05E8FB78
:1010F0006C15E9FB6C25E9FB6E35EAFB6E4507EEE6
:10110000106AA8FB0976E8FB6A06E9FB6A16E9FBA8
:101110006C26EAFB6C36EAFB6E46ECFB6E56E8FB8F
:1011200069B7E9FB6907E9FB6A17EAFB6A27EAFB8B
:101130006C37ECFB6C47ECFB6E57EEFB6E6700BD4B
:101140002DE9F04F07EE900AFFF76CFF17EE908A3B
:1011500007EE90BAA8EC084A88E8FF00BDE8F08FD7
:101160002DE9F14FFEC8F0EC030A90E8005F4FF064
:101170000A0003EE100A10EE900ADB199CEA030C39
:1011800018EB3C4897EA080713EB375393EA3C4CBB
:1011900018EB3C6898EA375724189EEA040E19EBBE
:1011A0003E4990EA090014EB305494EA3E4E19EBA4
:1011B0003E6999EA305049EC128A59EC118A491972
:1011C0009AEA010A18EB3A4895EA080511EB3551FD
:1011D00091EA3A4A18EB3A6898EA355592199BEA2F
:1011E000020B19EB3B4996EA090612EB365292EADA
:1011F0003B4B19EB3B6999EA365613EB706393EA64
:101200003B6B18EB3B4898EA706013EB305393EA62
:101210003B4B5FEA3B6B18EB0B0898EA30505FEAF8
:10122000706014EB756494EA3C6C19EB3C4999EAE4
:10123000756514EB355494EA3C4C5FEA3C6C19EB51
:101240000C0999EA35555FEA756549EC118A59EC44
:10125000128A11EB766191EA3E6E18EB3E4898EAED
:10126000766611EB365191EA3E4E5FEA3E6E18EB20
:101270000E0898EA36565FEA766612EB776292EAD3
:101280003A6A19EB3A4999EA776712EB375292EAD0
:101290003A4A5FEA3A6A19EB0A0999EA37575FEA6C
:1012A000776700EE900A13EE100A01387FF461AF01
:1012B00001BCFEC0E0EC030AA0E8005FBDE8F08FCF
:1012C00030B44FF0000310F8014B11F8015B013A04
:1012D00084EA050443EA0403F5D1A3F101034FEACC
:1012E000D37030BC704700BF4FF0000310F8012BE3
:1012F000013943EA0203F9D1A3F101034FEAD370A4
:10130000704700BF30B411F8014B12F8015B6C401C
:1013100000F8014B013BF6D130BC704702EAE371A3
:101320004FEA430002EAE07C9CEA4101404102EAC4
:10133000E07C9CEA4101404102EAE07C9CEA4101F8
:10134000404102EAE07C9CEA4101404102EAE07C43
:101350009CEA4101404102EAE07C9CEA41014041B3
:1013600002EAE07C9CEA4101404102EAE07C9CEA1E
:101370004101404102EAE07C9CEA4101404102EA2D
:10138000E07C9CEA4101404102EAE07C9CEA4101A8
:10139000404102EAE07C9CEA4101404102EAE07CF3
:1013A0009CEA4101404102EAE07C9CEA4101404163
:1013B00002EAE07C9CEA4101404102EAE07C9CEACE
:1013C0004101404102EAE07C9CEA4101404102EADD
:1013D000E07C9CEA4101404102EAE07C9CEA410158
:1013E000404102EAE07C9CEA4101404102EAE07CA3
:1013F0009CEA4101404102EAE07C9CEA4101404113
:1014000002EAE07C9CEA4101404102EAE07C9CEA7D
:101410004101404102EAE07C9CEA4101404102EA8C
:10142000E07C9CEA4101404102EAE07C9CEA410107
:10143000404102EAE07C9CEA4101404102EAE07C52
:101440009CEA4101404102EAE07C9CEA41014041C2
:1014500002EAE07C9CEA4101404149184041704762
:101460002DE9F34FD0F80080D1F80090D0F804A017
:10147000D1F804B098FA88F899FA89F99AFA8AFAB0
:101480009BFA8BFB42464B46FFF748FF04000D00DA
:1014900052465B46FFF742FF45400F0095EA0106C2
:1014A000654082EA080283EA0903FFF737FF4540F7
:1014B0004E4003BC01B4F0B484688D68C668CF6840
:1014C00024BA2DBA36BA3FBA88EA040089EA05017F
:1014D0008AEA060A8BEA070B03B422002B00FFF707
:1014E0001DFF8046894632003B00FFF717FF89EA5F
:1014F00000090F0089EA010689EA080962406B4089
:10150000FFF70CFF89EA000971403846FCBC4C40EB
:1015100084EA510485EAC17584EA910485EA8175FB
:1015200084EAD11485EA4165454085EA500586EA9A
:10153000C07685EA900586EA807685EAD01586EA47
:10154000406688EA060889EA070988EA040689EA03
:101550000507FFF7E3FE464047404F4088EA010891
:1015600082EA0A0283EA0B03FFF7D8FE474088EAC3
:10157000010852465B46FFF7D1FE474088EA000863
:1015800088EA010889EA010994EA080484EA58040F
:1015900085EAC87584EA980485EA887584EAD814CF
:1015A00085EA486595EA090585EA590586EAC97616
:1015B00085EA990586EA897685EAD91586EA496633
:1015C00001BC24BA04602DBA456036BA86603FBAC1
:1015D000C760BDE8F08F00BF30B40168426883681F
:1015E000C46809BA12BA1BBA24BACD1705F0870528
:1015F00095EA44045B415241494109BA016012BA7B
:1016000042601BBA836024BAC46030BC704700BF1C
:101610002DE9F00391E8F803B2E802105B1854EBEF
:101620000C04B2E802104D4156EB0C0692E806108D
:101630004F4158EB020859EB0C098941013B74F109
:10164000000475F1000576F1FF3677F1FF3778F188
:10165000FF3879F1FF3951F1000113EBD17354F1E7
:10166000000455F100054E414F4158EB010859EB7C
:10167000010980E8F803BDE8F00370472DE9F003A5
:1016800091E8F803B2E802105B1A74EB0C04B2E8BC
:1016900002108D4176EB0C0692E806108F4178EB34
:1016A000020879EB0C09894113EBD17354F1000462
:1016B00055F100054E414F4158EB010859EB010926
:1016C00080E8F803BDE8F003704700BF2DE9F04F54
:1016D00007EE900AFFF716FA5AEC359AB9EB0509AE
:1016E0007AEB060AB84171EB080172F1000273F15E
:1016F000000374F100046BEB0B0B491972417B4141
:1017000054EB08044BF1000557EC146A15EE108AEF
:10171000BEEB0E0E59EB02095AEB030A6041694118
:101720005EF1000E96419F4178EB040879EB0509C4
:101730007AF1000A70F1000B71F1000C6EF1010EEC
:1017400016EBDE7657F1000758F1000859EB0E0949
:101750005AEB0E0A5BEB0E0B5CEB0E0C17EE900ACD
:1017600080E8C01FBDE8F08F2DE9F04F07EE900A2A
:10177000FFF762FAB0E700BF2DE9F00791E8F8073C
:10178000B2E802105B1854EB0C04B2E802104D41B1
:1017900056EB0C06B2E802104F4158EB0C08B2E8C9
:1017A000021059EB01095AEB0C0A8941B3F1FF33DE
:1017B00074F1FF3475F1FF3576F1000677F100071B
:1017C00078F1000879F101097AF1FF3A51F100014D
:1017D0005B184C414D4156F1000657F1000758F196
:1017E000000859EBD1795AEB010A80E8F807BDE807
:1017F000F00770472DE9F00791E8F807B2E802100A
:101800005B1A74EB0C04B2E802108D4176EB0C0607
:10181000B2E802108F4178EB0C08B2E8021079EBC5
:1018200001097AEB0C0A89415B184C414D4156F194
:10183000000657F1000758F1000859EBD1795AEB2F
:10184000010A80E8F807BDE8F007704718EB0408C4
:1018500059EB05095AEB060A5BEB070B5FF0000C2E
:101860004CF1000C18EB050859EB06095AEB070A76
:101870005BEB070B50EB0C005FF0000C51EB0C0125
:1018800052EB0C0263414CF1000CB8EB070879F104
:1018900000097AF1000A7BEB040BA841B141A24197
:1018A000B3416CF1000CBBEB050BB041B941AA414F
:1018B000BB416CF1000C6FEAEC74B8EB040879EBF7
:1018C00004097AEB040A7BF1000B70F1000071F15E
:1018D000000172EBD472A3416CF1000C18EBEC78B0
:1018E00059EBEC795AEBEC7A5BF1000B50F1000408
:1018F00051F1000552EBDC7653EBEC774CF1000C28
:1019000018EBEC7059EBEC715AEBEC725BF10003E5
:1019100054F1000455F1000556EBDC7657EBEC77FB
:10192000704700BF2DE9F04F07EE900AFFF7B4FAB9
:1019300059EC168A17EE10AAFFF788FF59EC148AA3
:101940005BEC15AAFFF782FF17EE908A88E8FF008C
:10195000BDE8F08F2DE9F04F07EE900AFFF762FB2C
:1019600059EC168A17EE10AAFFF770FF59EC148A8B
:101970005BEC15AAFFF76AFF17EE908A88E8FF0074
:10198000BDE8F08F2DE9F00791E8F807B2E8021002
:101990005B1854EB0C04B2E802104D4156EB0C06F8
:1019A000B2E802104F4158EB0C08B2E8021059EBB4
:1019B00001095AEB0C0A4FF0260261EB010122EA01
:1019C00001015B1854F1000455F1000556F10006C1
:1019D00057F1000758F1000859F100095AF1000ABF
:1019E00061EB010122EA01010B4480E8F807BDE840
:1019F000F00770472DE9F00791E8F807B2E8021008
:101A00005B1A74EB0C04B2E802108D4176EB0C0605
:101A1000B2E802108F4178EB0C08B2E8021079EBC3
:101A200001097AEB0C0A4FF0260261EB010102EA90
:101A300001015B1A74F1000475F1000576F10006EE
:101A400077F1000778F1000879F100097AF1000ACE
:101A500061EB010102EA0101A3EB010380E8F80751
:101A6000BDE8F007704700BF2DE9F04F07EE900A80
:101A7000FFF712FA4FF0260C59EC148A4FF0000AC7
:101A8000E0FB0C8AE1FB6C9A51EC150AE2FB6CA0BE
:101A9000E3FB6C0153EC162AE4FB6C12E5FB6C23B0
:101AA0005EEC174AE6FB6C34E7FB6CB40CFB04F409
:101AB00018EB040459F100055AF1000650F1000733
:101AC00051F1000852F1000953F1000A5BF1000BDB
:101AD00060EB00002CEA000004448EE8F00FBDE843
:101AE000F08F00BF2DE9F04F07EE900AFFF79AFA4A
:101AF000C0E700BF2DE9F00391E8F8134FF4EE3191
:101B0000BF390022E3FB6123E4FB6134E5FB61455F
:101B1000E6FB6156E7FB6167E8FB6178E9FB6189F9
:101B2000ECFB619C4FF0260101FB0CFC12EB0C025C
:101B300053F1000354F1000455F1000556F100067D
:101B400057F1000758F1000859F100096CEB0C0C33
:101B500021EA0C010A4480E8FC03BDE8F003704769
:101B60002DE9F00390E8F8134FEAEC7202F013024B
:101B70002CF0004C02F11301591854F1000155F1F9
:101B8000000156F1000157F1000158F1000159F12F
:101B900000015CF100014FEAE17101F01301114411
:101BA0005B1854F1000455F1000556F1000657F199
:101BB000000758F1000859F100094CF1000C2CF015
:101BC000004C80E8F813BDE8F00370472DE9F14FB1
:101BD000F8C892E8005E19EB03095AEB040A5BEBC4
:101BE000050B5CEB060C4EEB070E91E8E001A9FB40
:101BF0000502AAFB0543E9FB6624EAFB6634A9FB60
:101C00000765E9FB6845B1E80003EBFB6836ECFBD0
:101C10006846EEFB6856ABFB0987ECFB6957EEFBA9
:101C2000696791E80202EAFB6148EBFB6158ECFB53
:101C30006168EEFB61784FF00001EAFB0951EBFBB4
:101C40006961ECFB6971EEFB69814FF4A03C4FEADE
:101C5000154949EA06495FF0000AE9FB0C0A4FEA18
:101C6000164646EA0746E6FB6C2A4FEA174747EA5C
:101C70000847E7FB6C3A4FEA184848EA0148E8FB96
:101C80006C4AADB25544AF0805F0030507EB870772
:101C9000C01952F1000153F1000254F1000345F163
:101CA000000420BC1FC5BDE8F08F00BF30B490E831
:101CB0003C10511D53F1000154F1000155F1000198
:101CC0004CF100014FEA9101494201F0050152181F
:101CD00053F1000354F1000455F100054CF1000CE0
:101CE0000CF0030C80E83C1030BC70472DE9F04F3D
:101CF00090E8F00F00F140004FF0040E59E0F0B40E
:101D0000826BC36B04680525242687593C444FEA3F
:101D1000724787EAF24787EA92273C4442684FEAD3
:101D2000F21787EAB24787EAD2073C4440F8044BEF
:101D3000032D08BF6FF01B0687593A444FEA7347DB
:101D400087EAF34787EA93273A4443684FEAF31751
:101D500087EAB34787EAD3073A4440F8042B875908
:101D60003B444FEA744787EAF44787EA94273B44A9
:101D700044684FEAF41787EAB44787EAD4073B443C
:101D800040F8043B013DC0D1A0F13C00076A3C444F
:101D90004FEA724787EAF24787EA92273C44026893
:101DA0004FEAF21787EAB24787EAD2073C44C46396
:101DB000F0BC4FF0020288EA781C8CEAF84C0BEB7E
:101DC000BC1C8AEA090303EA080383EA0A039C4469
:101DD00050F8043B9C4451F8043B9C44674444EA5B
:101DE000050B0BEA060B04EA05034BEA030BE3447D
:101DF00084EAF42383EA34530BEBB30B87EA771CB2
:101E00008CEAF74C0AEBBC1C89EA080303EA0703D7
:101E100083EA09039C4450F8043B9C4451F8043B7A
:101E20009C4466444BEA040A0AEA050A0BEA0403E6
:101E30004AEA030AE2448BEAFB2383EA3B530AEBB8
:101E4000B30A86EA761C8CEAF64C09EBBC1C88EADD
:101E5000070303EA060383EA08039C4450F8043BA3
:101E60009C4451F8043B9C4465444AEA0B0909EA46
:101E700004090AEA0B0349EA0309E1448AEAFA235E
:101E800083EA3A5309EBB30985EA751C8CEAF54CF1
:101E900008EBBC1C87EA060303EA050383EA070391
:101EA0009C4450F8043B9C4451F8043B9C446444DB
:101EB00049EA0A0808EA0B0809EA0A0348EA03089B
:101EC000E04489EAF92383EA395308EBB30884EA4A
:101ED000741C8CEAF44C07EBBC1C86EA050303EA8D
:101EE000040383EA06039C4450F8043B9C4451F8E5
:101EF000043B9C44E34448EA090707EA0A0708EA66
:101F0000090347EA0307674488EAF82383EA38535A
:101F100007EBB3078BEA7B1C8CEAFB4C06EBBC1C83
:101F200085EA040303EA0B0383EA05039C4450F8A3
:101F3000043B9C4451F8043B9C44E24447EA0806B5
:101F400006EA090607EA080346EA0306664487EA42
:101F5000F72383EA375306EBB3068AEA7A1C8CEA46
:101F6000FA4C05EBBC1C84EA0B0303EA0A0383EA80
:101F700004039C4450F8043B9C4451F8043B9C44AB
:101F8000E14446EA070505EA080506EA070345EACB
:101F90000305654486EAF62383EA365305EBB30569
:101FA00089EA791C8CEAF94C04EBBC1C8BEA0A0325
:101FB00003EA090383EA0B039C4450F8043B9C4466
:101FC00051F8043B9C44E04445EA060404EA070453
:101FD00005EA060344EA0304644485EAF52383EA38
:101FE000355304EBB304013A7FF4E5AEA0F14000B1
:101FF000BEF1010E7FF483AEA0F1400C9CE80F000F
:10200000001949199219DB19ACE80F009CE80F0080
:102010004044494452445B44ACE80F00BDE8F08FB3
:102020002DE90050ACF1400204EE90CAB2EC020A75
:10203000C0CAB2EC021AB2E80003B2EC022AB2E85B
:10204000000CB2EC023AB2E8005055EC124A84EAB5
:10205000D46080EA451085EAD56181EA441180EABE
:10206000141080EA057081EA151181EA04711CEBF5
:10207000903C4EEB913E1CEB814C4EEB804E53EC72
:10208000132A82EA0A0083EA0B01204029405040CB
:1020900059401CEB000C5EEB010E51EC140AD0E928
:1020A00000451CEB040C5EEB050ED1E900451CEB72
:1020B000040C5EEB050E18EB0C0859EB0E09D0E989
:1020C000024512196B41D1E9024512196B4155ECD9
:1020D000124A8AEA04008BEA050110EA080011EAB4
:1020E000090190EA0A0091EA0B0112184B4188EAB3
:1020F000D86080EA491089EAD96181EA481180EA0A
:10210000181080EA097081EA191181EA087112EB4E
:10211000903243EB913312EB814243EB804343EC2B
:10212000132A53EC102A55EC114A82EAD22080EA95
:10213000435083EAD32181EA425180EA921080EA37
:10214000836081EA931181EA82611CEB107C4EEB83
:10215000117E1CEB011C4EEB001E82EA0601324090
:1021600001EA040050401CEB000C01EA0C00504056
:1021700083EA07023B4012EA050159405EEB010E7B
:1021800002EA0E01594053EC132AA4185D4145ECB4
:10219000114A12184B418CEADC2080EA4E508EEA3C
:1021A000DE2181EA4C5180EA9C1080EA8E6081EA4F
:1021B0009E1181EA8C6112EB107243EB117312EBEA
:1021C000011243EB001343EC132A84EAD46080EA43
:1021D000451085EAD56181EA441180EA141080EA4D
:1021E000057081EA151181EA04711AEB903A4BEB04
:1021F000913B1AEB814A4BEB804B53EC122A82EA5B
:10220000080083EA090120402940504059401AEB58
:10221000000A5BEB010B51EC140AD0E904451AEB00
:10222000040A5BEB050BD1E904451AEB040A5BEBEE
:10223000050B16EB0A0657EB0B07D0E906451219FA
:102240006B41D1E9064512196B4155EC114A88EAF8
:10225000040089EA05013040394090EA080091EA1B
:10226000090112184B4186EAD66080EA471087EAD6
:10227000D76181EA461180EA161080EA077081EA88
:10228000171181EA067112EB903243EB913312EB96
:10229000814243EB804343EC122A53EC132A55EC62
:1022A000104A82EAD22080EA435083EAD32181EAAD
:1022B000425180EA921080EA836081EA931181EAB8
:1022C00082611AEB107A4BEB117B1AEB011A4BEB84
:1022D000001B82EA0C0112EA0C0201EA04005040E1
:1022E0001AEB000A01EA0A00504083EA0E0213EAE0
:1022F0000E0312EA050159405BEB010B02EA0B01E8
:10230000594053EC122AA4185D4145EC104A1218AA
:102310004B418AEADA2080EA4B508BEADB2181EAE2
:102320004A5180EA9A1080EA8B6081EA9B1181EA27
:102330008A6112EB107243EB117312EB011243EB43
:10234000001343EC122A84EAD46080EA451085EA3F
:10235000D56181EA441180EA141080EA057081EAAF
:10236000151181EA047118EB903849EB913918EB9B
:10237000814849EB804953EC112A82EA060083EA3E
:102380000701204029405040594018EB000859EB04
:10239000010951EC140AD0E9084518EB040859EB7F
:1023A0000509D1E9084518EB040859EB05091CEBB0
:1023B000080C5EEB090ED0E90A4512196B41D1E910
:1023C0000A4512196B4155EC104A86EA040087EA67
:1023D000050110EA0C0011EA0E0170407940121854
:1023E0004B418CEADC6080EA4E108EEADE6181EAC5
:1023F0004C1180EA1C1080EA0E7081EA1E1181EAFD
:102400000C7112EB903243EB913312EB814243EBB0
:10241000804343EC112A53EC122A55EC134A82EA0A
:10242000D22080EA435083EAD32181EA425180EAF4
:10243000921080EA836081EA931181EA826118EB4D
:10244000107849EB117918EB011849EB001982EA71
:102450000A0112EA0A0201EA0400504018EB0008DF
:1024600001EA0800504083EA0B0213EA0B0312EA68
:102470000501594059EB010902EA0901594053ECA1
:10248000112AA4185D4145EC134A12184B4188EA01
:10249000D82080EA495089EAD92181EA485180EA66
:1024A000981080EA896081EA991181EA886112EBCB
:1024B000107243EB117312EB011243EB001343EC68
:1024C000112A84EAD46080EA451085EAD56181EA60
:1024D000441180EA141080EA057081EA151181EA3E
:1024E000047116EB903647EB913716EB814647EBBC
:1024F000804753EC102A82EA0C0083EA0E01204048
:1025000029405040594036184F4151EC140AD0E947
:102510000C4536196F41D1E90C4536196F411AEB5C
:10252000060A5BEB070BD0E90E4512196B41D1E9A6
:102530000E4512196B4155EC134A8CEA04008EEAE1
:10254000050110EA0A0011EA0B0190EA0C0091EA79
:102550000E0112184B418AEADA6080EA4B108BEACE
:10256000DB6181EA4A1180EA1A1080EA0B7081EA85
:102570001B1181EA0A7112EB903243EB913312EB9B
:10258000814243EB804343EC102A53EC112A55EC73
:10259000124A82EAD22080EA435083EAD32181EAB8
:1025A000425180EA921080EA836081EA931181EAC5
:1025B000826116EB107647EB117716EB011647EBAD
:1025C000001782EA080112EA080201EA04005040FA
:1025D000361801EA0600504083EA090213EA0903AB
:1025E00012EA050159404F4102EA0701594053ECF4
:1025F000102AA4185D4145EC124A12184B4186EA94
:10260000D62080EA475087EAD72181EA465180EAFE
:10261000961080EA876081EA971181EA866112EB61
:10262000107243EB117312EB011243EB001343ECF6
:10263000102A84EAD46080EA451085EAD56181EAEF
:10264000441180EA141080EA057081EA151181EACC
:1026500004711CEB903C4EEB913E1CEB814C4EEB1D
:10266000804E53EC132A82EA0A0083EA0B012040D1
:102670002940504059401CEB000C5EEB010E51EC20
:10268000140AD0E910451CEB040C5EEB050ED1E9F1
:1026900010451CEB040C5EEB050E18EB0C0859EB17
:1026A0000E09D0E9124512196B41D1E912451219F0
:1026B0006B4155EC124A8AEA04008BEA050110EAE4
:1026C000080011EA090190EA0A0091EA0B011218C8
:1026D0004B4188EAD86080EA491089EAD96181EAE9
:1026E000481180EA181080EA097081EA191181EA1C
:1026F000087112EB903243EB913312EB814243EBC2
:10270000804343EC132A53EC102A55EC114A82EA19
:10271000D22080EA435083EAD32181EA425180EA01
:10272000921080EA836081EA931181EA82611CEB56
:10273000107C4EEB117E1CEB011C4EEB001E82EA5E
:102740000601324001EA040050401CEB000C01EA93
:102750000C00504083EA07023B4012EA0501594051
:102760005EEB010E02EA0E01594053EC132AA41845
:102770005D4145EC114A12184B418CEADC2080EA9D
:102780004E508EEADE2181EA4C5180EA9C1080EAAC
:102790008E6081EA9E1181EA8C6112EB107243EB2C
:1027A000117312EB011243EB001343EC132A84EA7A
:1027B000D46080EA451085EAD56181EA441180EA57
:1027C000141080EA057081EA151181EA04711AEB90
:1027D000903A4BEB913B1AEB814A4BEB804B53EC1D
:1027E000122A82EA080083EA090120402940504069
:1027F00059401AEB000A5BEB010B51EC140AD0E9CB
:1028000014451AEB040A5BEB050BD1E914451AEBEE
:10281000040A5BEB050B16EB0A0657EB0B07D0E936
:10282000164512196B41D1E9164512196B4155EC49
:10283000114A88EA040089EA05013040394090EAEB
:10284000080091EA090112184B4186EAD66080EA35
:10285000471087EAD76181EA461180EA161080EABC
:10286000077081EA171181EA067112EB903243EB8F
:10287000913312EB814243EB804343EC122A53EC39
:10288000132A55EC104A82EAD22080EA435083EAA8
:10289000D32181EA425180EA921080EA836081EA82
:1028A000931181EA82611AEB107A4BEB117B1AEBE0
:1028B000011A4BEB001B82EA0C0112EA0C0201EA3E
:1028C000040050401AEB000A01EA0A00504083EA73
:1028D0000E0213EA0E0312EA050159405BEB010BED
:1028E00002EA0B01594053EC122AA4185D4145EC51
:1028F000104A12184B418AEADA2080EA4B508BEAE0
:10290000DB2181EA4A5180EA9A1080EA8B6081EAF1
:102910009B1181EA8A6112EB107243EB117312EB87
:10292000011243EB001343EC122A84EAD46080EADC
:10293000451085EAD56181EA441180EA141080EAE5
:10294000057081EA151181EA047118EB903849EBA2
:10295000913918EB814849EB804953EC112A82EAFE
:10296000060083EA0701204029405040594018EBF7
:10297000000859EB010951EC140AD0E9184518EB8D
:10298000040859EB0509D1E9184518EB040859EB7F
:1029900005091CEB080C5EEB090ED0E91A4512196B
:1029A0006B41D1E91A4512196B4155EC104A86EA80
:1029B000040087EA050110EA0C0011EA0E017040DC
:1029C000794012184B418CEADC6080EA4E108EEAA6
:1029D000DE6181EA4C1180EA1C1080EA0E7081EA07
:1029E0001E1181EA0C7112EB903243EB913312EB22
:1029F000814243EB804343EC112A53EC122A55ECFD
:102A0000134A82EAD22080EA435083EAD32181EA42
:102A1000425180EA921080EA836081EA931181EA50
:102A2000826118EB107849EB117918EB011849EB2A
:102A3000001982EA0A0112EA0A0201EA040050407F
:102A400018EB000801EA0800504083EA0B0213EA81
:102A50000B0312EA0501594059EB010902EA090189
:102A6000594053EC112AA4185D4145EC134A121841
:102A70004B4188EAD82080EA495089EAD92181EA85
:102A8000485180EA981080EA896081EA991181EAC8
:102A9000886112EB107243EB117312EB011243EBDE
:102AA000001343EC112A84EAD46080EA451085EAD9
:102AB000D56181EA441180EA141080EA057081EA48
:102AC000151181EA047116EB903647EB913716EB3E
:102AD000814647EB804753EC102A82EA0C0083EAD8
:102AE0000E01204029405040594036184F4151ECCA
:102AF000140AD0E91C4536196F41D1E91C45361935
:102B00006F411AEB060A5BEB070BD0E91E45121961
:102B10006B41D1E91E4512196B4155EC134A8CEA01
:102B200004008EEA050110EA0A0011EA0B0190EA9E
:102B30000C0091EA0E0112184B418AEADA6080EA31
:102B40004B108BEADB6181EA4A1180EA1A1080EAB5
:102B50000B7081EA1B1181EA0A7112EB903243EB90
:102B6000913312EB814243EB804343EC102A53EC48
:102B7000112A55EC124A82EAD22080EA435083EAB5
:102B8000D32181EA425180EA921080EA836081EA8F
:102B9000931181EA826116EB107647EB117716EB01
:102BA000011647EB001782EA080112EA080201EA5F
:102BB00004005040361801EA0600504083EA09023A
:102BC00013EA090312EA050159404F4102EA0701DD
:102BD000594053EC102AA4185D4145EC124A1218D2
:102BE0004B4186EAD62080EA475087EAD72181EA1E
:102BF000465180EA961080EA876081EA971181EA5F
:102C0000866112EB107243EB117312EB011243EB6E
:102C1000001343EC102A51EC140A803004EE100A21
:102C2000A1F14001A1EC020AC0C1A1EC021AA1E885
:102C30000003A1EC022AA1E8000CA1EC023AA1E8F1
:102C40000050BDE8009000BF00B59CE8F00FDCE943
:102C50001201DCE91C23241845EB01054FEA560E4E
:102C60008EEAC77E8EEA162E8EEA076E8EEAD61E92
:102C70008EEA476E14EB0E044FEA570E8EEAC67EBC
:102C80008EEA172E8EEA066E8EEAD71E45EB0E05EB
:102C90004FEAD24E8EEA433E8EEAC20E8EEA537E51
:102CA0008EEA921E8EEA836E14EB0E044FEAD34E28
:102CB0008EEA423E8EEAC30E8EEA527E8EEA931E62
:102CC00045EB0E05DCE91401DCE91E23361847EB61
:102CD00001074FEA580E8EEAC97E8EEA182E8EEA58
:102CE000096E8EEAD81E8EEA496E16EB0E064FEA82
:102CF000590E8EEAC87E8EEA192E8EEA086E8EEA8A
:102D0000D91E47EB0E074FEAD24E8EEA433E8EEABB
:102D1000C20E8EEA537E8EEA921E8EEA836E16EB08
:102D20000E064FEAD34E8EEA423E8EEAC30E8EEA7C
:102D3000527E8EEA931E47EB0E07DCE9160118EB74
:102D4000000849EB01094FEA5A0E8EEACB7E8EEA63
:102D50001A2E8EEA0B6E8EEADA1E8EEA4B6E18EB96
:102D60000E084FEA5B0E8EEACA7E8EEA1B2E8EEAB2
:102D70000A6E8EEADB1E49EB0E094FEAD44E8EEA4C
:102D8000453E8EEAC40E8EEA557E8EEA941E8EEA89
:102D9000856E18EB0E084FEAD54E8EEA443E8EEA59
:102DA000C50E8EEA547E8EEA951E49EB0E09DCE9CB
:102DB0001801DCE908231AEB000A4BEB010B4FEA80
:102DC000520E8EEAC37E8EEA122E8EEA036E8EEAD1
:102DD000D21E8EEA436E1AEB0E0A4FEA530E8EEAAB
:102DE000C27E8EEA132E8EEA026E8EEAD31E4BEB63
:102DF0000E0B4FEAD64E8EEA473E8EEAC60E8EEA9C
:102E0000577E8EEA961E8EEA876E1AEB0E0A4FEAFE
:102E1000D74E8EEA463E8EEAC70E8EEA567E8EEA80
:102E2000971E4BEB0E0BACE8F00FDCE91201DCE96E
:102E30000267121843EB01034FEA560E8EEAC77E73
:102E40008EEA162E8EEA076E8EEAD61E8EEA476E40
:102E500012EB0E024FEA570E8EEAC67E8EEA172E4E
:102E60008EEA066E8EEAD71E43EB0E034FEAD84E6B
:102E70008EEA493E8EEAC80E8EEA597E8EEA981E88
:102E80008EEA896E12EB0E024FEAD94E8EEA483E68
:102E90008EEAC90E8EEA587E8EEA991E43EB0E0327
:102EA000DCE91401DCE90489361847EB01074FEA35
:102EB000580E8EEAC97E8EEA182E8EEA096E8EEAC8
:102EC000D81E8EEA496E16EB0E064FEA590E8EEAB0
:102ED000C87E8EEA192E8EEA086E8EEAD91E47EB5E
:102EE0000E074FEADA4E8EEA4B3E8EEACA0E8EEAA3
:102EF0005B7E8EEA9A1E8EEA8B6E16EB0E064FEA0A
:102F0000DB4E8EEA4A3E8EEACB0E8EEA5A7E8EEA7F
:102F10009B1E47EB0E07DCE91601DCE906AB18EB5C
:102F2000000849EB01094FEA5A0E8EEACB7E8EEA81
:102F30001A2E8EEA0B6E8EEADA1E8EEA4B6E18EBB4
:102F40000E084FEA5B0E8EEACA7E8EEA1B2E8EEAD0
:102F50000A6E8EEADB1E49EB0E094FEAD24E8EEA6C
:102F6000433E8EEAC20E8EEA537E8EEA921E8EEAAF
:102F7000836E18EB0E084FEAD34E8EEA423E8EEA7D
:102F8000C30E8EEA527E8EEA931E49EB0E09DCE9EF
:102F900008011AEB040A4BEB050B4FEA500E8EEAC0
:102FA000C17E8EEA102E8EEA016E8EEAD01E8EEA67
:102FB000416E1AEB0E0A4FEA510E8EEAC07E8EEA7F
:102FC000112E8EEA006E8EEAD11E4BEB0E0B4FEAED
:102FD000D64E8EEA473E8EEAC60E8EEA577E8EEABF
:102FE000961E8EEA876E1AEB0E0A4FEAD74E8EEACD
:102FF000463E8EEAC70E8EEA567E8EEA971E4BEB51
:103000000E0BACE8CC0F5CE90E45DCE90267001959
:1030100041EB05014FEA560E8EEAC77E8EEA162E68
:103020008EEA076E8EEAD61E8EEA476E10EB0E0011
:103030004FEA570E8EEAC67E8EEA172E8EEA066E8D
:103040008EEAD71E41EB0E014FEAD84E8EEA493E7A
:103050008EEAC80E8EEA597E8EEA981E8EEA896E36
:1030600010EB0E004FEAD94E8EEA483E8EEAC90EAA
:103070008EEA587E8EEA991E41EB0E015CE90C4502
:10308000DCE90489361947EB05074FEA580E8EEA4A
:10309000C97E8EEA182E8EEA096E8EEAD81E8EEA56
:1030A000496E16EB0E064FEA590E8EEAC87E8EEA7E
:1030B000192E8EEA086E8EEAD91E47EB0E074FEAEC
:1030C000DA4E8EEA4B3E8EEACA0E8EEA5B7E8EEABE
:1030D0009A1E8EEA8B6E16EB0E064FEADB4E8EEAD8
:1030E0004A3E8EEACB0E8EEA5A7E8EEA9B1E47EB54
:1030F0000E075CE90A45DCE906AB18EB040849EB6E
:1031000005094FEA5A0E8EEACB7E8EEA1A2E8EEA17
:103110000B6E8EEADA1E8EEA4B6E18EB0E084FEA43
:103120005B0E8EEACA7E8EEA1B2E8EEA0A6E8EEA4D
:10313000DB1E49EB0E094FEAD04E8EEA413E8EEA85
:10314000C00E8EEA517E8EEA901E8EEA816E18EBDA
:103150000E084FEAD14E8EEA403E8EEAC10E8EEA4C
:10316000507E8EEA911E49EB0E09DCE908451AEB08
:10317000020A4BEB030B4FEA540E8EEAC57E8EEA31
:10318000142E8EEA056E8EEAD41E8EEA456E1AEB78
:103190000E0A4FEA550E8EEAC47E8EEA152E8EEA8E
:1031A000046E8EEAD51E4BEB0E0B4FEAD64E8EEA1E
:1031B000473E8EEAC60E8EEA577E8EEA961E8EEA4D
:1031C000876E1AEB0E0A4FEAD74E8EEA463E8EEA1B
:1031D000C70E8EEA567E8EEA971E4BEB0E0BACE8BE
:1031E000C30F5CE90E23DCE90267A41845EB030575
:1031F0004FEA560E8EEAC77E8EEA162E8EEA076ECC
:103200008EEAD61E8EEA476E14EB0E044FEA570E76
:103210008EEAC67E8EEA172E8EEA066E8EEAD71EDC
:1032200045EB0E054FEAD84E8EEA493E8EEAC80EAF
:103230008EEA597E8EEA981E8EEA896E14EB0E0491
:103240004FEAD94E8EEA483E8EEAC90E8EEA587E83
:103250008EEA991E45EB0E055CE90C23DCE9048936
:10326000B61847EB03074FEA580E8EEAC97E8EEA7E
:10327000182E8EEA096E8EEAD81E8EEA496E16EB7B
:103280000E064FEA590E8EEAC87E8EEA192E8EEA95
:10329000086E8EEAD91E47EB0E074FEADA4E8EEA29
:1032A0004B3E8EEACA0E8EEA5B7E8EEA9A1E8EEA4C
:1032B0008B6E16EB0E064FEADB4E8EEA4A3E8EEA26
:1032C000CB0E8EEA5A7E8EEA9B1E47EB0E075CE918
:1032D0000A23DCE906AB18EB020849EB03094FEAC5
:1032E0005A0E8EEACB7E8EEA1A2E8EEA0B6E8EEA8C
:1032F000DA1E8EEA4B6E18EB0E084FEA5B0E8EEA72
:10330000CA7E8EEA1B2E8EEA0A6E8EEADB1E49EB1F
:103310000E094FEAD44E8EEA453E8EEAC40E8EEA7E
:10332000557E8EEA941E8EEA856E18EB0E084FEAE3
:10333000D54E8EEA443E8EEAC50E8EEA547E8EEA63
:10334000951E49EB0E095CE918231AEB000A4BEBBA
:10335000010B4FEA520E8EEAC37E8EEA122E8EEADF
:10336000036E8EEAD21E8EEA436E1AEB0E0A4FEA05
:10337000530E8EEAC27E8EEA132E8EEA026E8EEA1B
:10338000D31E4BEB0E0B4FEAD64E8EEA473E8EEA2B
:10339000C60E8EEA577E8EEA961E8EEA876E1AEB6E
:1033A0000E0A4FEAD74E8EEA463E8EEAC70E8EEAE6
:1033B000567E8EEA971E4BEB0E0B8CE8F00FACF1AD
:1033C000600C00BD2DE9F04F04EE101A00F1400C26
:1033D000B0E8F807ACE8F807B0E8F807ACE8F80799
:1033E000FEF71EFEFFF730FCFEF71AFEFFF72CFC7F
:1033F000FEF716FEFFF728FCFEF712FEFFF724FC8F
:10340000FEF70EFEACF1800808F1400998E80F0CB9
:10341000B9E8F0500019694192197B411AEB0C0A86
:103420004BEB0E0BA8E80F0C98E80F0CB9E8F05026
:103430000019694192197B411AEB0C0A4BEB0E0BF8
:10344000A8E80F0C98E80F0099E8F000001969410E
:1034500092197B4188E80F00BDE8F08F1FB5144C2E
:10346000207A8DF80100E0798DF80000A079ADF8A0
:1034700004006079ADF80200684606F02BF908B147
:10348000A72110E0E068029002A806F039F908B11F
:10349000AB2108E007480068039003A80FF0F1FA99
:1034A000002803D0AF21032000F0DCF81FBD00008E
:1034B000202400206C37000010B528B114220449E4
:1034C00010F059FA002010BD6FF0150010BD00007B
:1034D0009037000070B56FF02C03B8BB1E4C6078BD
:1034E00008B1981170BD01B36FF01505AAB11B4862
:1034F000891E06292BD2DFE801F0030616192A1CC3
:103500001178417017E0917839B1D17829B11178EB
:103510001B2902D351781B2901D2284670BD11689E
:10352000C0F8051007E01168C16004E011788170EF
:1035300001E0118841820122084900200BF0D4FEED
:10354000B0F5803F05DB6FF00B0070BDFFE718465C
:10355000FBE70121A170F8E72800002020240020CB
:1035600010B5074C607820B106F0A8FB20780BF06E
:1035700079FC00F087FD00F05FFE0020607010BD58
:103580002800002070B50C46050002D00CB1600781
:1035900002D06FF0150070BD00F020F9A8B12846E8
:1035A0000BF026FC0A4D00220A49287020460BF039
:1035B0009BFE0FF087FE0021287806F069FBFFF7DD
:1035C0004DFF01206870002070BD4FF0FF3070BDCE
:1035D000280000202024002030B589B004000CD041
:1035E0000BF0ACFB4FF0FF3520B10BF03FFAB0F51C
:1035F000FA7F05D9284609B030BD6FF01500FAE70B
:10360000134D14486C6000F00BFA00206870A8702D
:1036100001462022684610F028FA20220E4968460A
:1036200010F0A9F9202269460C4810F0A4F9EFF334
:10363000108472B600F034FD094800F009FE18B19C
:10364000C521032000F00EF804B962B60020D2E7CD
:10365000280000205D340000703700002024002086
:10366000093800000EB572B6154A5568DDB1002262
:1036700003466E460A2403E0B0FBF4F0521CD2B2BB
:103680000028F9D1B0540AE0D8B2B0FBF4F7B3FB8C
:10369000F4F304FB1700521ED2B23030B054002AAB
:1036A000F2D13046A847BFF34F8F06480168064A5B
:1036B00001F4E06111430160BFF34F8F00BFFDE7EC
:1036C000280000200CED00E00400FA05064810B5C3
:1036D00081784078014302D04FF0FF3010BD06F0F2
:1036E000FDFA002010BD000028000020064810B59B
:1036F00081784078014302D04FF0FF3010BD06F0D2
:103700004BF8002010BD000028000020064810B52E
:1037100081784078014302D04FF0FF3010BD0FF0A8
:103720004FFB002010BD000028000020064810B507
:1037300081784078014302D04FF0FF3010BD06F091
:10374000DFFA002010BD000028000020064810B558
:1037500081784078014302D04FF0FF3010BD0FF068
:103760003FFB002010BD00002800002001000000E9
:1037700000010100001B1B03020000004C1D0000A3
:1037800000001F000000000000000000000000001A
:10379000D80C2D2F36AEE25C8026804C3F4D165360
:1037A0005096C773054A10B5526812B1BDE8104073
:1037B000104792210420FFF755FF0000402400200D
:1037C000054A10B5926812B1BDE810401047982123
:1037D0000420FFF747FF000040240020054801684F
:1037E00029B1416819B1806808B1012070470020F3
:1037F000704700004024002002490DC881E80D00F8
:103800000020704740240020F8B5124C002625689F
:1038100011E00098022802D003280CD106E02068AD
:1038200010B10020266005E028210CE0206868B176
:1038300001202660A847684600F0D0FC0028E8D0A8
:10384000052805D035210420FFF70CFF2D21FAE7CC
:10385000F8BD0000300000202DE9FC41254E054652
:10386000001D06F144073060387858B1BA783C46FC
:10387000791C2846921C10F07EF80020207004204D
:10388000BDE8FC811B4801F05DFF0446022804D01E
:10389000042C07D0082C27D02AE0164928460BF024
:1038A000C3FD25E03078082804D105213E200BF027
:1038B0008DFD60B10F4928460BF01BFE0028D3D0C8
:1038C000A97828780BF082FD0028CDD010E0B088D0
:1038D000ADF8000001A968460CF0FAF80028C3D042
:1038E000A7210820FFF7BEFE024928460BF0CAFDBB
:1038F0002046C5E74C24002070B50A7882703AB3A0
:10390000012A25D81323037000230AE001EB4304A6
:1039100000EB4305A678EE706488240A5B1C2C71CA
:10392000DBB29342F2D300230BE000BF01EB43056F
:1039300000EB43042E796671AD882D0A5B1CA571DE
:10394000DBB29342F2D3012101EB8200C0B270BD21
:10395000002070BD402803D2401EC1B2054805E0DA
:10396000FF2805D04038C1B2024808300BF0A3BF91
:10397000012070473C000020401EC1B201480BF0FE
:103980009ABF00004C00002010B5074A0168064BA2
:1039900091614068D0611C681832A1431160596878
:1039A0008843506010BD000034000020064A0168C2
:1039B00091604068D060083241F48C211160034965
:1039C000084350607047000034000020F8074002B0
:1039D000024902680A61406848617047340000206B
:1039E00007484FF0FF3100220160C90C416000F12F
:1039F00008011F200A604A600831C1E900027047CF
:103A00003C00002010B5FFF7EBFF0FF052F9044621
:103A10000248006800B18047204610BD54000020D5
:103A20000149086070470000540000200221018015
:103A3000418000210171D821417142F60C51C180B1
:103A400001498160002070472F36AEE210B5022890
:103A500004D340F203211720FFF704FE0149085C5C
:103A600010BD000094250020F8B5050000950DD08C
:103A70000026087849780446A14200D90C46AA07D6
:103A800006D04FF4E5711720FFF7ECFD0126F0E7B3
:103A9000124F387079703146684600F0D3F8002133
:103AA0000B460098C01C20F00300009066B907EB9D
:103AB0008102D060002005E0D2F80CC04CF8203024
:103AC000401CC0B2A042F7D30098491C00EB840010
:103AD000C9B200900229E4D3401BF8BD9425002010
:103AE00070B50446857900F0E9F80C4AE17902EBFB
:103AF00085020EE0D36853F8213043B1481CE071D1
:103B0000A180D06850F821002060002070BD491CC1
:103B1000C9B28142EED3E171052070BD9425002029
:103B2000F0B421B1012902D0F0BC002070470F4A47
:103B300000252B464FF6FF7402EB8106575C0AE026
:103B40005A19D6F80CC092B25CF822C0BCF1000F32
:103B500004D05B1C9BB29F42F2D8224602801046E2
:103B6000A242E1D0F0BC00F035B80000942500205E
:103B70002DE9F0410646A0F57F400C4643F20207CE
:103B8000FF3820D0022C02D30720BDE8F081304658
:103B900000F048F8050016D00C48294650F82420BB
:103BA000304690470A48002100EB8407F86840F847
:103BB0002610204600F078F80246294678680CF076
:103BC0001FFA0020E1E73846DFE70000D43C0000A0
:103BD0009425002070B50E4605460CF04BFA58B1FE
:103BE0000F4800EB8604E06850F8250038B14FF428
:103BF000C5711720FFF736FD40F28911F9E76068BB
:103C000000280BD0304600F04FF8014660680CF0F9
:103C10009FF9002802D0E16841F8250070BD00003E
:103C20009425002070B50C4605460CF023FA0028B8
:103C300005D0034800EB8400C06850F8250070BD33
:103C4000942500202DE9F843164E884605460024A9
:103C50002868C01C20F003002860204600F024F8EB
:103C6000315D4843B8F1000F01D0002200E02A681E
:103C70000146009232B100274FEA0D000CF099F98D
:103C80001FB106E001270020F8E706EB8401009A47
:103C90004A602968641C0844E4B22860022CD7D327
:103CA000BDE8F88394250020034931F810004FF651
:103CB000FC71C01C08407047D03C000003490878E4
:103CC0004978884200D208467047000094250020B9
:103CD000F8021801711D01001B1301002DE9FF4FAF
:103CE000244C064681B020689A46934658B1017A22
:103CF000B14203D9406850F8260040B143F20200B7
:103D000005B0BDE8F08FA5211820FFF7ABFC1946E0
:103D100002980CF0D2F9804658460E990CF0C3F97F
:103D2000054608EB0500001D87B22068A14639460C
:103D300000680CF00DF904001AD067802580294630
:103D4000201D0E9D07465A46092300950CF07AF86F
:103D50002088414638440A23029ACDF800A00CF08E
:103D600071F8D9F80000406840F826400020C7E705
:103D70000420C5E75800002070B5144C23688BB1AF
:103D8000197A814212D95A6852F8201071B100256F
:103D900042F820504A8818680CF032F92168002057
:103DA0000A7A0CE0C6211820FFF75CFC43F20200FF
:103DB00070BD4B6853F8203033B9401CC0B282420A
:103DC000F7D808680CF011F9002070BD58000020E9
:103DD0002DE9F0410D46040090464FF0000606D054
:103DE0000027A00705D086211820FFF73BFC0127FC
:103DF000F7E7CDB1114600200CF0DBF80C3000EBFA
:103E000085068FB90A4F04F10C00AA003C602572A8
:103E1000606000EB85002060002160680FF025FEE7
:103E2000414638680CF0C5F83046BDE8F081000026
:103E30005800002070B5084D286800280AD00024DA
:103E400004E02046FFF798FF641CE4B22868007A7B
:103E5000A042F6D870BD000058000020094910B5F6
:103E600002460968002049B10B7A934205D9496896
:103E700051F82210002900D0081D10BDEC21182097
:103E8000FFF7F0FB580000200A4910B50246096808
:103E9000002059B10B7A934207D9496851F8221092
:103EA000002902D031F8040B084410BDFA21182073
:103EB000FFF7D8FB5800002070B51E4B456804463C
:103EC0000022A1B101206070588881085FF00000D5
:103ED00004EB400304EB80061A83198400FB0153B2
:103EE00073602318401C1A750428F1D370BD6270EA
:103EF0005FF0000004EB40010A830A8404EB8001B8
:103F00004A602118401C0A750428F3D35888B0F57C
:103F1000FF7F01D2460800E0FF260CF042F9656001
:103F200020842918A1606684E560A0842161E6846C
:103F300070BD00005C0000202DE9F04158B1002563
:103F40001144244ECCB200273470810705D04E2195
:103F50000920FFF787FB0125F2E71F2B04D84FF656
:103F6000FF7101EA830109E05900FF2B0CD903F12D
:103F7000FF02B2EB430F00D2114689B24FF6FC723A
:103F8000C91C114035B107E07C22B2EB430FF4D3DA
:103F90007C21F2E77060718004EB840207EBC203BE
:103FA000002276684FF0010C0DE04DB902EB82075C
:103FB00000EB030E06F837C006EBC707C7F804E0AE
:103FC000521C0B44D2B2A242EFD3DB1D23F00700F8
:103FD000BDE8F0815C00002070B5104A00205168F7
:103FE000127814E000EB800311F833306BB100EB72
:103FF000800011EBC0040CD00025A57001212046E3
:10400000FFF75AFF2570204670BD401CC0B2904299
:10401000E8D3A9210920FFF725FB00005C00002060
:10402000044810B5408884080CF0BBF8844200D3E3
:10403000204610BD5C00002030B50D4901204860CD
:10404000821EC1F808230B4988600023C1F80032A2
:10405000C1F80823084C2360251D28608860C1F83A
:1040600008232360286006490448086030BD00002A
:1040700000E0004000F0004000F500400000F63F86
:1040800008F5014010B5FFF7D7FF0CF061F90349BF
:104090000148086010BD00000000F63F08F501402F
:1040A00010B5FFF7C9FF0CF053F900F087F8054988
:1040B0000348086000F0B8F8BDE8104000F0DCB834
:1040C0000000F63F08F501402DE9F84F82463848D8
:1040D0000FF06FFBDFF8D8B028B101260BF101001B
:1040E000FF21017000E000264FF48075314C4FF045
:1040F00000082F1D01216160C4F80081C4F804810B
:10410000C4F804A52160DFF8B0901CE0D9F80000E5
:10411000C00618D50E200CF02AF9EFF3108000909D
:1041200072B603212046C4F8041329460CF02CF97A
:1041300030B9394620460CF027F908B90FF0D0FB0A
:10414000009800B962B6294620460CF01DF928B93E
:10415000394620460CF018F90028D7D039462046B9
:104160000CF012F90028C5D106BB9BF801108DF8A0
:104170000010009900919DF8001009B1012500E0A0
:1041800000250BF1010080F800800320C4F808032B
:10419000C4F80481C4F800810E200CF0E8F804484B
:1041A0000FF01EFB15B11120BDE8F88F0020FBE7D2
:1041B0006003002000E0004010ED00E010B506486C
:1041C0000FF00AFB18B127211D20FFF74BFA024818
:1041D0000021417010BD00006003002070B511493E
:1041E0000A68EAB100231D4601244A68521C4A604D
:1041F000092A00D34D600E7904FA06F20E681642C1
:104200000BD0EFF3108372B60C6894430C6003B9C3
:1042100062B649680160002070BD5B1C092BE4D3C5
:10422000052070BD6400002002480021016041604B
:10423000704700006400002010B5044C2078FF286F
:1042400003D00AF00FFEFF20207010BD00000020F8
:1042500010B5084C617809B10F2010BD0AF0C8FDF7
:104260002070FF2801D0002010BD73211F20FFF710
:10427000F9F9000000000020014900204870704753
:10428000000000200648074A818C5288914204D1E0
:1042900090F8220008B1002070470120704700000C
:1042A000B82A00204C0300200149488070470000D4
:1042B0004C0300200848094A818C5288914209D158
:1042C0004FF6FF71818410F8221F19B1002101708F
:1042D0000120704700207047B82A00204C030020BE
:1042E000074810F8221F012907D001210170054855
:1042F000034900888884012070470020704700002F
:10430000B82A00204C0300200649074B8A8C5B88A2
:104310009A4205D191F8222012B101600120704724
:1043200000207047B82A00204C03002009498A8CDD
:10433000A2F57F43FF3B02D00021016007E091F826
:1043400022200449012A02D0016001207047002088
:1043500070470000B82A002001490880704700001B
:104360004C0300200549002081F822004FF6FF7021
:10437000888403490880488070470000B82A0020DC
:104380004C03002005498A8C824205D1002081F827
:1043900022004FF6FF70888470470000B82A002082
:1043A0000A4A10B1012807D00EE0507860B1D2F867
:1043B00002000860D08804E0107828B19068086096
:1043C0009089888001207047002070476203002098
:1043D000084A012338B1012804D11370086890609D
:1043E00088889081704753700868C2F802008888F6
:1043F000D080704762030020064910B1012802D026
:1044000005E0487800E0087808B1012070470020F6
:1044100070470000620300200149087770470000E0
:10442000FA23002001488078704700006C000020CB
:104430000148C078704700006C00002070B50C4641
:10444000054600F01FF918B1D0212720FFF70AF91F
:10445000034801210CF0D1FB0248C0E90B5470BDA8
:10446000D82300206C0000200149012048717047CA
:104470006C0000202DE9F84F5B4D0A9C2E78002E31
:104480006BD1002A69D0002B67D0002C65D005F1D4
:104490001406C5E90F0186E81C0000276F712F7113
:1044A000AF706F70EF70AF81EF8100F03DF906469D
:1044B00000F034F9044606F085F805F0DDFD94F9C6
:1044C0006E0006F003F9E06906F0E6F9606906F0AF
:1044D000D9F996F8330006F00FFA05F13C00406870
:1044E00090F81A0208B105F0EDFF94F86B10012066
:1044F00005F02CFF002870D03C4805F093FF208881
:10450000FFF7C2FC68632088FFF7A8FC06F1880269
:10451000A86392E80C11DFF8D89089E80C11D6F85E
:104520009820C9F81920D6F89C10C9F81D1000F081
:1045300033F90146208FBA460CF0BCF8A18E8142B7
:1045400000D20846A871A84694F86B10E08F96F840
:104550002370A58F082904D102E040F2451140E004
:1045600004210CF0A7F80FB9001D80B2854200D2DB
:104570002846C5B288F8075088F8085096F82300F6
:10458000D04690B1012789F81870D6E92012C9E900
:10459000041294F86B000BF083FF03462A4614497B
:1045A0003846CDF8008005F0D3FC012000F054FB24
:1045B00010480068032812D00B2810D00C480E2297
:1045C00000214A300FF051FA0948B18A4A3041803F
:1045D0002188018096F833100171BDE8F88F40F210
:1045E00002212720FFF73EF86C0000205C4E0000FF
:1045F000B0230020501500402DE9FC4188460746B5
:1046000000F092F81A4C0546B807616A4E7816D544
:10461000A06A30B36289D21C0FF0ADF9A06A606263
:10462000694601AAA06B0BF08AFB00980BF03DFBDA
:10463000C8F8000031460122A06B0BF0EDFAF80734
:104640000DD0D5E920011835401C41F10001C5E924
:104650001A0115F81809012808D001202876BDE8AC
:10466000FC8140F266412720FEF7FCFF0020F5E7C1
:104670006C0000200248C089C0F380207047000011
:104680006C0000200448007808B10C2070470349F2
:1046900000200877704700006C000020FA230020FB
:1046A0000C4810B5017849B100F13C0100780228AE
:1046B00008D040F21E212720FEF7D4FFBDE81040AD
:1046C00000F0D8B94868D0F83002BDE8104005F0D5
:1046D000B1BE00006C000020F8B5002605464E7003
:1046E0001D20094F0C4608702E720E223946201DDF
:1046F0000FF041F9287A8DF80000009800909DF89D
:1047000000000028F0D1F8BD08240020024A938957
:1047100003439381526910476C00002001484068B0
:1047200070470000A80000200148406880307047B2
:10473000A8000020014A0021526910476C000020A7
:1047400070B50546012918D8124CA1698847A0B157
:10475000207990B9E5B904F110000178C80605D4B4
:10476000E06A0078C00601D4012000E00020A26ABF
:104770002AB962891AB1C90601D4012070BDA18984
:104780008A0703D5226AD278022A01D00843F4D1DD
:10479000002070BD6C00002010B5FFF7BFFF04467D
:1047A000FFF7C2FF0246417F1648252910D026296F
:1047B0000ED0927F252A0BD020290DD021290BD095
:1047C000232A0FD094F86A00042800D1082010BDD5
:1047D000406890F8CE120EE0232A03D0406890F88B
:1047E0003E0105E0416891F83E0191F863100840F0
:1047F0000BF04CFE014694F86A00BDE810400BF047
:104800005DBE0000A80000202DE9FF5F8B468146B9
:10481000FFF78AFF0026664C07468DF8086003966E
:10482000019620783546022804D040F2EA4127203C
:10483000FEF718FFA07B400606D44020FFF77AFF62
:10484000E08940F04000E08197F82300B9F1000FC3
:104850003AD080B105F04AFC05F024FC58B9606AF2
:10486000417841B10078397EC0F3C000884202D15E
:104870000120607097E0606A4178618121B1A06B8E
:104880000BF033FBA06200E0A562E08940F4807089
:10489000E081606AF97D0078C0F38000884207D02B
:1048A00003A800F08BF9E08940F48060E08100E02B
:1048B0000126606A397E0078C0F3C00088420DD1BD
:1048C00002A800F031F909E008B105F009FCA07870
:1048D000401CA070E08940F40070E081DFF8D0A0B7
:1048E00097F822000AF13C0A90B1FFF717FF31490F
:1048F0000D76D7E91E23C1E9042390F86A000BF076
:10490000CFFD0346FB222B492846009505F020FBEE
:104910004FF00008BBF1000F04D1A1780120FFF790
:104920000FFF20B105F09AFF4FF0010802E00020D0
:1049300000F0D0F99DF8080018B101A90220FFF796
:104940005BFE1C48BA8A4A303EB11AB9C2880AB91D
:10495000028912B14289521C4281B9F1000F08D07C
:10496000C188491CC1801248A5703C3001F03EFA54
:1049700002E00189491C0181039840B10BF095F9CF
:10498000DAF80410401C05720E220CF0B4F90198FC
:1049900030B1DAF8041005722A2201980CF0ABF954
:1049A000B8F1000F01D000F065F8BDE8FF9F0000EE
:1049B0006C000020B02300202DE9F8438846814692
:1049C000FFF7B2FE294D04462878012804D040F2B2
:1049D00075412720FEF746FE207C0027012628B1DE
:1049E000277400210420FFF791FEA674296A087835
:1049F000C043800709D1A07D88BB0220FFF786FE57
:104A0000286A0078C043800729D0286A407810B10E
:104A10000220A07500E0A67594F8230098B1FFF776
:104A20007DFE13492D7A0E76D4E92023C1E90423B3
:104A300090F86B000BF034FD03462A460C493046D3
:104A4000009705F085FA38EA090004D000210846ED
:104A5000FFF776FE28B1BDE8F84300F00BB803205D
:104A6000D7E7BDE8F843002000F0F6B86C0000205E
:104A7000B023002010B505F0DFFB05F0FDFA0D4C6A
:104A8000E089FFF757FE0C48007F58B10A490E2213
:104A900001F10E000EF06FFF0748242207491D3078
:104AA0000CF03DF9E2692179607890470020207090
:104AB00010BD00006C000020FA230020D946000041
:104AC000084810B50078022804D040F24D21272074
:104AD000FEF7C8FD044901200873BDE81040FFF748
:104AE000C9BF00006C000020FA23002030B4044647
:104AF0000C48007A0BB1001DC0B23AB9FF2805D1AD
:104B000094F86B2094F86A309A4209D021B194F855
:104B10006B1030BC05F0C6BEFF2094F86A10F8E7B1
:104B200030BC70476C0000202DE9F0410746FFF7CC
:104B3000FBFD214C05460126616A087800F0030060
:104B400001280CD002280AD003281BD12E74E0893A
:104B500040F40060E0810120FFF7D8FD12E04878C2
:104B600080B1E18941F40061E181A16A002918D096
:104B7000FB2818D8607920B1BDE8F0412020FFF76C
:104B8000D9BD3E70287E012812D02E76606A40780A
:104B9000002806D0F5E92001401C41F10001C5E9DB
:104BA0000001BDE8F081207940F010002071F8E7A5
:104BB00000202876EAE700006C00002070B505466A
:104BC000FFF7B2FD0446807D00282DD002280CD1CD
:104BD0001B482946406B0AF0F7FF30B3D4E91E01A9
:104BE000401C41F10001C4E91E010025A575A07C0F
:104BF00020B1A57400211020FFF788FD607C70B102
:104C00006574FFF757FB98B100210820FFF77EFD80
:104C1000D4E91E01401C41F10001C4E91E01E07D00
:104C200001280AD00120E07570BD40F2E33101E0B7
:104C300040F2FA312720FEF715FDE57570BD000042
:104C40006C00002003480078002801D0FFF712BF55
:104C5000704700006C0000202DE9F0410646FFF788
:104C60005DFD8046FFF760FD184C05463246E06A60
:104C7000606295F8233001214046FFF737FF95F831
:104C80002300002770B1206B05F042FD1048012180
:104C90000176D5E92012C0E90412216B606A05F0A3
:104CA000A9F904E0606A05F033FD05F0E5F916B9ED
:104CB000384605F0E3FB002198F86A20084605F025
:104CC000AFFD02202070BDE8F08100006C000020E4
:104CD000B02300202DE9FC470446FFF725FD0546DB
:104CE000FFF71CFD00278DF800700646DFF8649181
:104CF00095F8233022463946FFF7F8FEA87D4FF09D
:104D00000108A9F1200440B1012820D002282FD0A9
:104D100003283BD040F2FF2157E0A0795021ADF8A5
:104D2000040088534846FFF7EFFA30B18020216A2B
:104D3000FFF7ECFC85F811802CE06A4601A9606B56
:104D40000BF0C6FB206210B195F85B1011B1424820
:104D500020621FE09DF8001021B9078087700121B3
:104D60000BF04BFFBDF80410206A0BF0CEFE11E0F3
:104D7000B6F85000ADF804006A4601A9606B0BF06C
:104D8000A7FB206230B940F2E9211EE04846FFF758
:104D9000BBFAC0B1206A0823017801F0F701017065
:104DA000EA7D03EAC202114301F0FB0101702A7E91
:104DB000042303EA8202114301F0EF010170C943A9
:104DC000890705D007E040F2F2212720FEF74AFCD0
:104DD000C07802280FD0606B0AF0F4FF08B10121FF
:104DE0000AE0206A0078C043800704D0FFF74AFA3F
:104DF00080F0010100E00021206A027842EA0111FE
:104E0000017095F8221081B1417871B1206B05F0E5
:104E10007FFC114828380776D5E91E12C0E9041234
:104E2000216A206B05F0E6F803E005F071FC05F05F
:104E300023F996F86B200121002005F0F1FC84F89D
:104E40000380216A0A8822828978A17484F800800C
:104E5000BDE8FC878C000020D8230020C14A000058
:104E600009480000B9490000454C0000004870475F
:104E7000B12C002004498A78824203D9084490F872
:104E80004301704700207047DE2A002004498A78D9
:104E9000824203D901EB0010833070470020704735
:104EA000DE2A0020054A01EB410102EB41010268C4
:104EB000C1F80B218088A1F80F017047DE2A00207D
:104EC0002DE9F0410E4607461546062130460BF007
:104ED000E3FC0D4C60B1002004E02118401C81F877
:104EE0003B51C0B2A1788142F7D80120BDE8F081E2
:104EF000314638460BF0FBFA082803D0204480F8EE
:104F00003B51F2E70020F1E7DE2A002004498A78CD
:104F1000824203D901EB0010C01C7047002070478B
:104F2000DE2A002010B540F2D312002108480EF00E
:104F30009CFD0822FF2107480EF097FD054800213F
:104F4000001F017041704FF46171418010BD00007D
:104F5000DE2A002054030020014908707047000039
:104F600050030020014800787047000050030020E3
:104F70000B4B10B59C7884420FD9184490F803016C
:104F800003EBC00090F853310B70D0F8541111604E
:104F9000B0F858019080012010BD002010BD000025
:104FA000DE2A002007498A78824209D9084490F80D
:104FB000030101EBC00090F85A0100F001007047B6
:104FC00000207047DE2A00202DE9F04798469146E0
:104FD0000C46054600F036F90646102806D000F0CB
:104FE00001F9102802D01220BDE8F087184FB878D8
:104FF00008282AD2102E05D100222146284600F08A
:1050000005F90646BC781022601CB87007EB041541
:10501000E81C49460BF0D2FB05F183001022414603
:105020000BF0CCFB102140460BF036FC3C44102129
:1050300084F84301484604F596740BF02DFCE077A4
:1050400004F8296C0020E073CEE70720CCE70000CD
:10505000DE2A0020064810B58078401E44B204E0E5
:10506000E0B200F04DF9641E64B2002CF8DA10BD15
:10507000DE2A0020014840887047000050030020CD
:1050800038B14AF2B811884203D803494880012058
:1050900070470020704700005003002005498A78BF
:1050A000824203D9084490F83B0108B100207047C0
:1050B00001207047DE2A002070B50D46064600F03C
:1050C000C1F8104C102807D004EBC00191F85A1118
:1050D000C90701D0012070BD6178082910D21028BD
:1050E00008D004EBC000012180F85A116078401C00
:1050F0006070EFE701222946304600F087F8F5E7B7
:10510000002070BDDE2A002070B50B4D2878401EAF
:1051100044B20AE005EBC40090F85A01C00702D07F
:10512000E0B200F035F9641E64B2002CF2DA0349F3
:105130000020487070BD0000DE2A002050030020CF
:105140002DE9F04100242546184E29E006EBC5075D
:1051500097F85A01C00721D0284600F043F80346CB
:10516000FFF7D4FE01460020102B09D0F21892F868
:105170003BC1BCF1010F02D092F84B2102B10120DA
:10518000401E01420AD10A4807F5AA71035520467C
:10519000641C97F85321E4B205F068FC6D1CEDB275
:1051A0003078A842D2D8BDE8F0810000DE2A002085
:1051B000540300200246094810B500780B4658B148
:1051C0000748817841B10BB1C01C01E0044883302D
:1051D00004F018FE012010BD002010BD5003002077
:1051E000DE2A0020084910B5034600208A7806E030
:1051F0000C1894F803419C4204D0401CC0B2824277
:10520000F6D8102010BD0000DE2A002070B50C4B2F
:1052100004461878451C1D70102803D34621282009
:10522000FEF720FA03EBC0030D68C3F854518988D8
:10523000A3F8581183F8534183F85A2170BD000038
:10524000DE2A0020F0B51A4C0346002025782AE01B
:1052500004EBC0020F7892F854C192F8536187EAC8
:105260000C075E403E444F7892F855C187EA0C0720
:105270003E448F7892F856C187EA0C073E44CF78B7
:1052800092F857C187EA0C073E440F7992F858C14B
:1052900092F8592187EA0C073E444F795740F7426C
:1052A00004D0401CC0B28542D2D81020F0BD00000E
:1052B000DE2A002070B50546FFF794FF10281CD1A8
:1052C0000E4C2078401EC0B22070A84215D004EBCE
:1052D000C00204EBC50102F58070D2F85321C1F879
:1052E0005321D0F85700C1F857012078FFF77AFF13
:1052F000102802D0204480F8035170BDDE2A00201F
:105300002DE9F047214C0646A719A078401EC5B2EA
:10531000A57097F80381AE422AD004EB051A04EB7E
:1053200006190AF1030109F1030010220EF023FB14
:105330000AF1830109F1830010220EF01CFB6019B1
:1053400005EB450290F8031187F8031106EB4601BF
:1053500004EB420204EB4101D2F80B31C1F80B31EE
:10536000B2F80F21A1F80F2190F83B0187F83B011B
:1053700004EBC80090F85A01C00704D14046BDE8CC
:10538000F047FFF797BFBDE8F0870000DE2A002056
:1053900005494A78521E4A7001EBC001002281F88B
:1053A0005A21FFF787BF0000DE2A00202DE9F047D1
:1053B000044600F180054FF0010971B104F1A60720
:1053C0007E1E012925D002294AD003291FD1394642
:1053D0003046BDE8F0470BF0BDBA4FF43E720021F5
:1053E0000EF043FB85F825902248E86607202867E1
:1053F00014F8EC0F20F004002070FE2085F8A600C1
:105400007F2068761C48A8600020C5E90000BDE840
:10541000F0874FF00008A4F8368284F82B822169C7
:1054200016480A460844B0FBF1F0C4F8C40040F640
:10543000B830A4F8C800638B284600F021F839463C
:1054400030460BF087FA0EF027FA18B1606900F0C9
:1054500053FB10B184F81A82D9E784F81A92D6E780
:105460000169B4F8DA32D4F8D4222846BDE8F0470E
:1054700000F006B82F49043400E0FCFF7FC3C901E7
:1054800010B50024A0F84C4030F8504F4C43B4FB0A
:10549000F2F420F8104940F27124634302EB031345
:1054A0005B1EB3FBF2F3C381094BB3FBF2F35B1C4E
:1054B00083820389634302EB03135B1EB3FBF2F3A6
:1054C000436003684B43B3FBF2F1016010BD000081
:1054D000005A6202024991F900100BF0ECB9000089
:1054E0007003002008B57F208DF80000684605F0A5
:1054F000BDF940B105484078404241B29DF90000F5
:105500000BF0D9F908BD9DF9000008BD700300201B
:1055100070B590F8322090F83130012403FB01215E
:105520002522B1FBF2F302FB131100EBD10280F84C
:10553000321001F0070392F8262004FA03F31A420E
:1055400004D000BF80F83310002070BD90F83020E8
:10555000B1FBF2F302FB1311491CC9B20023C518B9
:1055600095F82B208A4212D395F82650002200BFCE
:1055700004FA02F6354201D0491EC9B221B1521CCB
:10558000D2B2082AF4D304E002EBC301DAE7891AA5
:10559000C9B25B1CDBB2052BE1D31F2070BD00003C
:1055A00070B5491C0023C9B20124C518AA798A42E2
:1055B00012D395F80150002204FA02F6354201D0C8
:1055C000491EC9B221B1521CD2B2082AF4D305E057
:1055D00002EBC300C0B270BD891AC9B25B1CDBB25A
:1055E000052BE2D39D214620FEF73CF8417841B1DE
:1055F000C0782B2803D2044A105C884201D10120D4
:105600007047002070470000B43B010010B5012234
:10561000C1702B2902D2064A525C06E0FF2904D051
:1056200040F275412A20FEF71DF8427010BD0000BF
:10563000B43B01000449897C490700D408B100202B
:105640007047012070470000A82500200348807C97
:10565000800701D40120704700207047A825002052
:105660000348807CC00701D00020704701207047AC
:10567000A82500202DE9FE43884699461546044694
:1056800069460AF077FFE0BB019E002780367DB1B6
:105690002046FEF7F9FB04000ED029460AF064FB11
:1056A00018B11B494988A94208D20020BDE8FE83F1
:1056B000012086F8240024E0672125E0014602AAA3
:1056C00020460AF04AFB02980780877096F824105B
:1056D00009B14FF0020841460BF08FFA02982A46B2
:1056E0004946C01C0EF047F9204629460AF0F3FA55
:1056F00048B168460BF0DCFA0198A0F8227286F8EF
:1057000024700120D2E77C212B20FDF7ABFF0000A5
:10571000A8250020094882B0007A8DF80000009882
:1057200000909DF80000002805D10222044903489A
:1057300002B00BF0E0BA02B070470000C0250020B4
:105740003D0D01002DE9F84FDFF89881DFF898A1B1
:1057500083464FF001090026D8F80400007A8DF83E
:105760000000009800909DF800102A2906D19AF8B0
:10577000131019B1BAF8140000287DD000278DF855
:105780000060684600F012F99DF800100029F8D179
:10579000002871D00446007A8DF80000009800902F
:1057A0009DF80050A81E302867D2DFE800F01827C7
:1057B00085218585276F696F6F6F2D6F85218585A1
:1057C0006F6F21858585856F4585856F216F6F8515
:1057D0006F2185854F55758585858585854F6268DF
:1057E00012B94FF4D27164E05946204690473CE02C
:1057F0006268002AF8D140F2BB115AE06268002AC0
:10580000F2D140F24B2154E060685D4680B10488DB
:105810002046FEF739FB68B16E700D222A70EC80CD
:10582000A5F80890314685F804900AF034FB57E05B
:10583000CE213EE0AE213CE0626822B159462046CE
:105840009047012711E040F2632132E06268002AAC
:10585000CAD140F26F212CE08BF8016016218BF841
:105860000010D4F80910CBF804102672212D26D090
:10587000142D27D0222D01E017E01DE029D02DE0C6
:105880006268002AB0D140F2812112E06268002AE9
:10589000AAD140F296210CE01448026822B1606857
:1058A00028B10088594690470220BDE8F88F40F2A1
:1058B0009F211020FDF7D6FE40F2BD21F9E7FFF74A
:1058C000C5FE08E09BF80E0000F00100FFF7B2FEF5
:1058D00001E0FFF7C5FE00287FF43EAF002FFBD1AB
:1058E0000420E2E7D4250020A8250020B0000020F5
:1058F0000149087000F0B0B8720300200249014865
:10590000086070470D590000B000002038B50D0048
:1059100014D0A88000216972FEF7A0FA04460AF0AC
:10592000FEF968B101466A4620460AF016FAE88098
:1059300048B1FB280AD94FF4867132E0FC2130E0EF
:1059400040F205112DE04FF485712AE000980BF02C
:1059500000F9012804D0022802D04FF48E7120E013
:1059600028722868A8B10099EA88C91C0EF003F8CB
:1059700020460AF09CF978B1204600210AF08BFA03
:1059800068B10948C17C002902D0818A491E818200
:1059900038BD40F2231104E04FF4947101E040F26D
:1059A0002D111020FDF75EFEA825002038B5024617
:1059B000114B002010705868017A8DF80010009982
:1059C00000919DF800500124012D06D0EFF31081C5
:1059D00072B605685D6011B102E0002038BD62B6A4
:1059E000017A8DF80010009900919DF80030002B8D
:1059F000F4D1147038BD0000D425002038B5D0B1E2
:105A0000416000F108010A70EFF3108372B6104C88
:105A10000460211F4A684AB1127A8DF80020009A6A
:105A200000929DF80050012D00D10C600A681060B2
:105A300008602BB105E040F2E2211020FDF712FED4
:105A400062B604480078BDE8384009F0EFB90000BC
:105A5000D825002072030020084810B500214161BC
:105A60008161C161016212220DF0FFFF0348143011
:105A700001210173011D4160016010BDC02500209E
:105A8000F0B450810C89134694818A89DA8148895F
:105A90001882CD895D82CE8DAE4208D14D8D854272
:105AA00005D10D8E954202D18A8DA24201D00122EC
:105AB00000E000221A754885588AC885988988852B
:105AC000D8890886F0BC1422014918460BF027B982
:105AD000FB0E01005081888A9081C88AD081088B92
