:020000040000FA
:1000000080530120B9C40100434206008DC40100A1
:100010008DC401008DC401008DC4010000000000EA
:100020000000000000000000000000002DBC0100E6
:100030008DC40100000000009DBB01008DC40100C3
:100040009DBD0100396F06009DBD01009DBD0100F1
:100050009DBD01009DBD01009DBD01009DBD010034
:10006000016F06009DBD01009DBD01001F6F0600D0
:100070009DBD01009DBD01009DBD01009DBD010014
:100080009DBD01009DBD01009DBD01009DBD010004
:100090009DBD01009DBD01009DBD01009DBD0100F4
:1000A0009DBD01009DBD01009DBD01009DBD0100E4
:1000B0009DBD01009DBD01009DBD01009DBD0100D4
:1000C0009DBD01009DBD01009DBD01009DBD0100C4
:1000D0009DBD01009DBD01009DBD01009DBD0100B4
:1000E0009DBD01009DBD01009DBD01009DBD0100A4
:1000F0009DBD01009DBD01009DBD01009DBD010094
:1001000001F0FF01102A2BDB10F0070F08D010F8C8
:10011000013B013A8B422DD010F0070F42B3F6D1CC
:10012000F0B441EA012141EA014122F007047FF0E5
:1001300000070023F0E80256083C85EA010586EA3C
:10014000010685FA47F5A3FA87F586FA47F6A5FA78
:1001500087F68EB9EED1F0BC01F0FF0102F0070284
:1001600032B110F8013B013A83EA010313B1F8D12F
:100170000020704701387047002D06BF3546033810
:10018000073815F0010F07D1013015F4807F02BF49
:10019000013015F4C03F0130F0BC0138704700BF9A
:1001A0007BB972B90029BEBF00204FF0004106E0C4
:1001B00008BF00281CBF6FF000414FF0FF3000F077
:1001C00057B8ADF1080C6DE904CE002909DB002B0E
:1001D0001ADB0EF0BFFADDF804E0DDE9022304B01B
:1001E0007047404261EB4101002B1BDB0EF0B2FA7D
:1001F000DDF804E0DDE9022304B0404261EB410197
:10020000524263EB43037047524263EB43030EF0E9
:10021000A1FADDF804E0DDE9022304B0404261EB1D
:1002200041017047524263EB43030EF093FADDF84D
:1002300004E0DDE9022304B0524263EB430370475C
:1002400053B94AB9002908BF00281CBF4FF0FF313D
:100250004FF0FF3000F00CB8ADF1080C6DE904CEA2
:100260000EF078FADDF804E0DDE9022304B070470F
:10027000704700BF80EA101404F0F01480EA041004
:10028000604081EA111404F0F01481EA0411614025
:1002900082EA121404F0F01482EA0412624083EA43
:1002A000131404F0F01483EA0413634080EA10246A
:1002B00004F47F4480EA0420604081EA112404F4BD
:1002C0007F4481EA0421614082EA122404F47F44DD
:1002D00082EA0422624083EA132404F47F4483EA1E
:1002E0000423634081EA500404F0553480EA44005A
:1002F000614083EA520404F0553482EA44026340C8
:1003000082EA900404F0333480EA8400624083EA95
:10031000910404F0333481EA84016340704700BFE4
:1003200082EA900404F0333480EA8400624083EA75
:10033000910404F0333481EA8401634081EA50047B
:1003400004F0553480EA4400614083EA520404F02A
:10035000553482EA4402634080EA102404F47F4466
:1003600080EA0420604081EA112404F47F4481EA99
:100370000421614082EA122404F47F4482EA0422C8
:10038000624083EA132404F47F4483EA0423634035
:1003900080EA101404F0F01480EA0410604081EA4E
:1003A000111404F0F01481EA0411614082EA12147D
:1003B00004F0F01482EA0412624083EA131404F099
:1003C000F01483EA04136340704700BF2DE9F14F36
:1003D00094464FEA930B8A68CB6808684968FFF730
:1003E00049FF0BF1060E33E083EA134480EA13451C
:1003F00082EA134746BA96EA3444604000F00F168A
:1004000084EA063420F00F1684EA161054BA94EAEF
:100410000106724002F00F1486EA043622F00F142F
:1004200086EA14124CBA6540694001F00F1485EA5F
:10043000043521F00F1485EA14115CBA67407B4043
:1004400003F00F1487EA043723F00F1487EA14131C
:10045000BCE8F0006040694072407B4000F0E0344E
:1004600000F0103500F00F3040EA540040EAC500BB
:1004700080EA900404F0332480EA8400604001F0B4
:10048000E03401F0103501F00F3141EA540141EA46
:10049000C50181EA910404F0332481EA84016140BA
:1004A00002F0E03402F0103502F00F3242EA54025A
:1004B00042EAC50282EA920404F0332482EA84020A
:1004C000624003F0E03403F0103503F00F3343EAE9
:1004D000540343EAC50383EA930404F0332483EA14
:1004E0008403634081EA324787EA134581EA35464F
:1004F00090EA060484EA034B82EA1B4280EA044441
:1005000084EA054483EA144A85EA14448BEA044BDE
:1005100084EA374481EA0B4181EA164104EA0A0081
:10052000454082EA04082BEA080041408AEA0B06AB
:1005300002EA060084EA34438AEA3A4603EA0607F6
:1005400078404540414088EA38478BEA3B4007EA1B
:10055000000985EA090583EA0709464006EA090613
:10056000714085EA010005EA3546464006EA314118
:1005700081EA304181EA364606EA304686EA354667
:10058000344008EA010886EA01052A4086EA364036
:1005900003405A4081EA31431F407C4080EA030710
:1005A00009EA070988EA0908544088EA020806EAC5
:1005B0000A0601EA0B018AEA0B0215408AEA3A426E
:1005C000104045408BEA3B4003405E4042401740AC
:1005D00079404D404E40E443F64386EA18435D407F
:1005E00085EA054083EA134386EA034183EA3842F9
:1005F00084EA114383EA04435FEA3343BEF1010E08
:100600003FF6F2AE1ED4BCE8F00060406940724094
:100610007B4020BCFFF784FE28606960AA60EB6025
:10062000BDE8F08F2DE9E0414FF2F00280EA103191
:10063000114080EA0130484041088208C3084FF069
:10064000000E4FE700F0113001F0113102F01132CD
:1006500003F0113340EA410040EA820040EAC3005F
:100660004FF2F00280EA1031114080EA0130484038
:10067000BDE8E0812DE9F04F02F11C050646074672
:1006800000EB850851F8040B043A46F8040BF9D145
:100690004FF0010CFFF7C6FF5FEA302080EA0C0044
:1006A0001ECF41404A4053405C401EC62000464594
:1006B00017D04FEA4C0C1CF4807F18BFACF1E50C4E
:1006C0002C2DE7D03C2D06D1FFF7ACFF06CF4140E3
:1006D0004A4006C6100006CF41404A4006C61000F8
:1006E000D8E736E90F00FFF7C5FD043D86E80F00A7
:1006F000F7D1BDE8F08F00BF2DE9F00791E8F807CA
:10070000B2E802105B1854EB0C04B2E802104D4141
:1007100056EB0C06B2E802104F4158EB0C08B2E859
:10072000021059EB01095AEB0C0A80E8F8078041E6
:100730000130BDE8F00770472DE9F00791E8F807B0
:10074000B2E802105B1A74EB0C04B2E802108D419F
:1007500076EB0C06B2E802108F4178EB0C08B2E899
:10076000021079EB01097AEB0C0A80E8F807804166
:100770004042BDE8F00770472DE9F007524290E88B
:100780007800B1E880071740DB1918EA020854EB3B
:10079000080419EA020955EB09051AEA020A56EBA0
:1007A0000A0678C090E87800B1E8800717407B41DE
:1007B00018EA020854EB080419EA020955EB090586
:1007C0001AEA020A56EB0A0678C080410130BDE8F9
:1007D000F00770472DE9F007524290E87800B1E841
:1007E00080071740DB1B18EA020874EB080419EABB
:1007F000020975EB09051AEA020A76EB0A0678C0C7
:1008000090E87800B1E880071740BB4118EA020879
:1008100074EB080419EA020975EB09051AEA020AE1
:1008200076EB0A0678C080414042BDE8F007704789
:100830002DE9F00152424FF0040890E8300091E8B1
:10084000C000A31B1340E41AF618EB1B1340ED1A6B
:10085000FF1830C0C0C1B8F10108EED1BDE8F00109
:10086000704700BF00B592EC080AB1E8805707EE68
:10087000101A53EC102A56EC114AA7FB0251A8FBA0
:10088000020BE7FB6310E9FB62B041EC145AA8FBD2
:100890000351EAFB6201E7FB64B5E7FB6605E8FB91
:1008A000661505EE10BAA9FB03B6EAFB6316ECFB6E
:1008B0006356E8FB640BE9FB641BEAFB645BECFB3F
:1008C000646B05EE900AACFB023012EE104AEEFBB0
:1008D0006250E9FB6460EAFB64B0E7FB6431E8FB6B
:1008E000645112EE904AE8FB6461E9FB64B1EAFBF3
:1008F000640106EE103AA7FB043213EE104AE7FB40
:100900006462E8FB64B2E9FB6402EAFB641211EE84
:10091000904AE9FB6453EAFB646313EE904AE7FBF9
:1009200064B3E8FB6403E9FB6413EAFB642306EEAB
:10093000905A17EE109A99E8000610EE108AA9FB5B
:100940000854EAFB68B412EE108AECFB6804EEFB74
:100950006814E9FB6824EAFB683410EE908AEEFB29
:100960006865E9FB68B5EAFB680512EE908AECFB66
:100970006815EEFB6825E9FB6835EAFB684507EE7C
:10098000106A11EE108AAEFB0876E9FB6806EAFBF6
:10099000681613EE108AECFB6826EEFB6836E9FB5E
:1009A0006846EAFB685611EE908AECFB68B7EEFBEE
:1009B0006807E9FB6817EAFB682713EE908AECFBEF
:1009C0006837EEFB6847E9FB6857EAFB686700BDDC
:1009D0002DE9F04F07EE900AFFF744FF17EE908ADB
:1009E00007EE90BAA8EC084A88E8FF00BDE8F08F4F
:1009F00000B591E89857A3FB0352A3FB0401E3FB66
:100A00006420E3FB671042EC145AA3FB0752E3FB9C
:100A10006802E4FB6415E3FB6805E3FB6925A4FBBE
:100A200007B6E3FB6926E3FB6A56E4FB670BE4FBCE
:100A3000682BE3FB6A5BE3FB6C6B40EC151AA4FBD1
:100A40000810E4FB6950E3FB6C60E3FB6EB0E7FB6E
:100A50006721E4FB6951E4FB6A61E3FB6EB1E4FBEF
:100A60006E0106EE102AA7FB0832E4FB6A62E4FB83
:100A70006CB2E4FB6E02E7FB6E12E7FB6853E7FB28
:100A80006963E4FB6CB3E7FB6C03E7FB6E13E8FB05
:100A90006E2306EE905AA7FB0954E7FB6AB4E7FB06
:100AA0006C04E8FB6C14E8FB6E24E9FB6E34E8FB95
:100AB0006865E7FB6AB5E8FB6A05E8FB6C15E9FBCE
:100AC0006C25E9FB6E35EAFB6E4507EE106AA8FB64
:100AD0000976E8FB6A06E9FB6A16E9FB6C26EAFB85
:100AE0006C36EAFB6E46ECFB6E56E8FB69B7E9FB39
:100AF0006907E9FB6A17EAFB6A27EAFB6C37ECFB3C
:100B00006C47ECFB6E57EEFB6E6700BD2DE9F04FB6
:100B100007EE900AFFF76CFF17EE908A07EE90BA87
:100B2000A8EC084A88E8FF00BDE8F08F30B44FF029
:100B3000000310F8014B11F8015B013A84EA050447
:100B400043EA0403F5D1A3F101034FEAD37030BCAB
:100B5000704700BF4FF0000310F8012B013943EA42
:100B60000203F9D1A3F101034FEAD370704700BF2C
:100B700030B411F8014B12F8015B6C4000F8014BE6
:100B8000013BF6D130BC704702EAE3714FEA430003
:100B900002EAE07C9CEA4101404102EAE07C9CEAF6
:100BA0004101404102EAE07C9CEA4101404102EA05
:100BB000E07C9CEA4101404102EAE07C9CEA410180
:100BC000404102EAE07C9CEA4101404102EAE07CCB
:100BD0009CEA4101404102EAE07C9CEA410140413B
:100BE00002EAE07C9CEA4101404102EAE07C9CEAA6
:100BF0004101404102EAE07C9CEA4101404102EAB5
:100C0000E07C9CEA4101404102EAE07C9CEA41012F
:100C1000404102EAE07C9CEA4101404102EAE07C7A
:100C20009CEA4101404102EAE07C9CEA41014041EA
:100C300002EAE07C9CEA4101404102EAE07C9CEA55
:100C40004101404102EAE07C9CEA4101404102EA64
:100C5000E07C9CEA4101404102EAE07C9CEA4101DF
:100C6000404102EAE07C9CEA4101404102EAE07C2A
:100C70009CEA4101404102EAE07C9CEA410140419A
:100C800002EAE07C9CEA4101404102EAE07C9CEA05
:100C90004101404102EAE07C9CEA4101404102EA14
:100CA000E07C9CEA4101404102EAE07C9CEA41018F
:100CB000404102EAE07C9CEA4101404102EAE07CDA
:100CC0009CEA410140414918404170472DE9F34FEA
:100CD000D0F80080D1F80090D0F804A0D1F804B08A
:100CE00098FA88F899FA89F99AFA8AFA9BFA8BFBAA
:100CF00042464B46FFF748FF04000D0052465B4654
:100D0000FFF742FF45400F0095EA0106654082EA81
:100D1000080283EA0903FFF737FF45404E4003BC52
:100D200001B4F0B484688D68C668CF6824BA2DBA5F
:100D300036BA3FBA88EA040089EA05018AEA060A57
:100D40008BEA070B03B422002B00FFF71DFF804640
:100D5000894632003B00FFF717FF89EA00090F00C0
:100D600089EA010689EA080962406B40FFF70CFF37
:100D700089EA000971403846FCBC4C4084EA5104C1
:100D800085EAC17584EA910485EA817584EAD11403
:100D900085EA4165454085EA500586EAC07685EAE0
:100DA000900586EA807685EAD01586EA406688EA6C
:100DB000060889EA070988EA040689EA0507FFF7B1
:100DC000E3FE464047404F4088EA010882EA0A02B3
:100DD00083EA0B03FFF7D8FE474088EA0108524632
:100DE0005B46FFF7D1FE474088EA000888EA010821
:100DF00089EA010994EA080484EA580485EAC87576
:100E000084EA980485EA887584EAD81485EA4865F6
:100E100095EA090585EA590586EAC97685EA9905BC
:100E200086EA897685EAD91586EA496601BC24BA3C
:100E300004602DBA456036BA86603FBAC760BDE827
:100E4000F08F00BF30B4016842688368C46809BA93
:100E500012BA1BBA24BACD1705F0870595EA4404E7
:100E60005B415241494109BA016012BA42601BBA62
:100E7000836024BAC46030BC704700BF2DE9F0071E
:100E800091E8F807B2E802105B1854EB0C04B2E8E2
:100E900002104D4156EB0C06B2E802104F4158EBE0
:100EA0000C08B2E8021059EB01095AEB0C0A4FF09A
:100EB000260261EB010122EA01015B1854F10004F2
:100EC00055F1000556F1000657F1000758F10008EA
:100ED00059F100095AF1000A61EB010122EA01010E
:100EE0000B4480E8F807BDE8F00770472DE9F007EC
:100EF00091E8F807B2E802105B1A74EB0C04B2E850
:100F000002108D4176EB0C06B2E802108F4178EBAF
:100F10000C08B2E8021079EB01097AEB0C0A4FF0E9
:100F2000260261EB010102EA01015B1A74F100047F
:100F300075F1000576F1000677F1000778F10008F9
:100F400079F100097AF1000A61EB010102EA01017D
:100F5000A3EB010380E8F807BDE8F007704700BF86
:100F60002DE9F04F07EE900AFFF77CFC4FF0260CBE
:100F700059EC148A4FF0000AE0FB0C8AE1FB6C9AF2
:100F800051EC150AE2FB6CA0E3FB6C0153EC162A52
:100F9000E4FB6C12E5FB6C235EEC174AE6FB6C3459
:100FA000E7FB6CB40CFB04F418EB040459F10005E6
:100FB0005AF1000650F1000751F1000852F1000902
:100FC00053F1000A5BF1000B60EB00002CEA00001B
:100FD00004448EE8F00FBDE8F08F00BF2DE9F04F1C
:100FE00007EE900AFFF704FDC0E700BF2DE9F0030C
:100FF00091E8F8134FF4EE31BF390022E3FB61238F
:10100000E4FB6134E5FB6145E6FB6156E7FB6167A4
:10101000E8FB6178E9FB6189ECFB619C4FF02601FC
:1010200001FB0CFC12EB0C0253F1000354F1000421
:1010300055F1000556F1000657F1000758F1000878
:1010400059F100096CEB0C0C21EA0C010A4480E810
:10105000FC03BDE8F00370472DE9F00390E8F813B6
:101060004FEAEC7202F013022CF0004C02F1130173
:10107000591854F1000155F1000156F1000157F1E2
:10108000000158F1000159F100015CF100014FEA43
:10109000E17101F0130111445B1854F1000455F1A2
:1010A000000556F1000657F1000758F1000859F104
:1010B00000094CF1000C2CF0004C80E8F813BDE85E
:1010C000F00370472DE90050ACF1400204EE90CAE5
:1010D000B2EC020AC0CAB2EC021AB2E80003B2ECE7
:1010E000022AB2E8000CB2EC023AB2E8005055EC29
:1010F000124A84EAD46080EA451085EAD56181EA23
:10110000441180EA141080EA057081EA151181EA21
:1011100004711CEB903C4EEB913E1CEB814C4EEB72
:10112000804E53EC132A82EA0A0083EA0B01204026
:101130002940504059401CEB000C5EEB010E51EC75
:10114000140AD0E900451CEB040C5EEB050ED1E956
:1011500000451CEB040C5EEB050E18EB0C0859EB7C
:101160000E09D0E9024512196B41D1E90245121965
:101170006B4155EC124A8AEA04008BEA050110EA39
:10118000080011EA090190EA0A0091EA0B0112181D
:101190004B4188EAD86080EA491089EAD96181EA3E
:1011A000481180EA181080EA097081EA191181EA71
:1011B000087112EB903243EB913312EB814243EB17
:1011C000804343EC132A53EC102A55EC114A82EA6F
:1011D000D22080EA435083EAD32181EA425180EA57
:1011E000921080EA836081EA931181EA82611CEBAC
:1011F000107C4EEB117E1CEB011C4EEB001E82EAB4
:101200000601324001EA040050401CEB000C01EAE8
:101210000C00504083EA07023B4012EA05015940A6
:101220005EEB010E02EA0E01594053EC132AA4189A
:101230005D4145EC114A12184B418CEADC2080EAF2
:101240004E508EEADE2181EA4C5180EA9C1080EA01
:101250008E6081EA9E1181EA8C6112EB107243EB81
:10126000117312EB011243EB001343EC132A84EACF
:10127000D46080EA451085EAD56181EA441180EAAC
:10128000141080EA057081EA151181EA04711AEBE5
:10129000903A4BEB913B1AEB814A4BEB804B53EC72
:1012A000122A82EA080083EA0901204029405040BE
:1012B00059401AEB000A5BEB010B51EC140AD0E920
:1012C00004451AEB040A5BEB050BD1E904451AEB64
:1012D000040A5BEB050B16EB0A0657EB0B07D0E98C
:1012E000064512196B41D1E9064512196B4155ECBF
:1012F000114A88EA040089EA05013040394090EA41
:10130000080091EA090112184B4186EAD66080EA8A
:10131000471087EAD76181EA461180EA161080EA11
:10132000077081EA171181EA067112EB903243EBE4
:10133000913312EB814243EB804343EC122A53EC8E
:10134000132A55EC104A82EAD22080EA435083EAFD
:10135000D32181EA425180EA921080EA836081EAD7
:10136000931181EA82611AEB107A4BEB117B1AEB35
:10137000011A4BEB001B82EA0C0112EA0C0201EA93
:10138000040050401AEB000A01EA0A00504083EAC8
:101390000E0213EA0E0312EA050159405BEB010B42
:1013A00002EA0B01594053EC122AA4185D4145ECA6
:1013B000104A12184B418AEADA2080EA4B508BEA35
:1013C000DB2181EA4A5180EA9A1080EA8B6081EA47
:1013D0009B1181EA8A6112EB107243EB117312EBDD
:1013E000011243EB001343EC122A84EAD46080EA32
:1013F000451085EAD56181EA441180EA141080EA3B
:10140000057081EA151181EA047118EB903849EBF7
:10141000913918EB814849EB804953EC112A82EA53
:10142000060083EA0701204029405040594018EB4C
:10143000000859EB010951EC140AD0E9084518EBF2
:10144000040859EB0509D1E9084518EB040859EBE4
:1014500005091CEB080C5EEB090ED0E90A451219D0
:101460006B41D1E90A4512196B4155EC104A86EAE5
:10147000040087EA050110EA0C0011EA0E01704031
:10148000794012184B418CEADC6080EA4E108EEAFB
:10149000DE6181EA4C1180EA1C1080EA0E7081EA5C
:1014A0001E1181EA0C7112EB903243EB913312EB77
:1014B000814243EB804343EC112A53EC122A55EC52
:1014C000134A82EAD22080EA435083EAD32181EA98
:1014D000425180EA921080EA836081EA931181EAA6
:1014E000826118EB107849EB117918EB011849EB80
:1014F000001982EA0A0112EA0A0201EA04005040D5
:1015000018EB000801EA0800504083EA0B0213EAD6
:101510000B0312EA0501594059EB010902EA0901DE
:10152000594053EC112AA4185D4145EC134A121896
:101530004B4188EAD82080EA495089EAD92181EADA
:10154000485180EA981080EA896081EA991181EA1D
:10155000886112EB107243EB117312EB011243EB33
:10156000001343EC112A84EAD46080EA451085EA2E
:10157000D56181EA441180EA141080EA057081EA9D
:10158000151181EA047116EB903647EB913716EB93
:10159000814647EB804753EC102A82EA0C0083EA2D
:1015A0000E01204029405040594036184F4151EC1F
:1015B000140AD0E90C4536196F41D1E90C453619AA
:1015C0006F411AEB060A5BEB070BD0E90E451219C7
:1015D0006B41D1E90E4512196B4155EC134A8CEA67
:1015E00004008EEA050110EA0A0011EA0B0190EAF4
:1015F0000C0091EA0E0112184B418AEADA6080EA87
:101600004B108BEADB6181EA4A1180EA1A1080EA0A
:101610000B7081EA1B1181EA0A7112EB903243EBE5
:10162000913312EB814243EB804343EC102A53EC9D
:10163000112A55EC124A82EAD22080EA435083EA0A
:10164000D32181EA425180EA921080EA836081EAE4
:10165000931181EA826116EB107647EB117716EB56
:10166000011647EB001782EA080112EA080201EAB4
:1016700004005040361801EA0600504083EA09028F
:1016800013EA090312EA050159404F4102EA070132
:10169000594053EC102AA4185D4145EC124A121827
:1016A0004B4186EAD62080EA475087EAD72181EA73
:1016B000465180EA961080EA876081EA971181EAB4
:1016C000866112EB107243EB117312EB011243EBC4
:1016D000001343EC102A84EAD46080EA451085EABE
:1016E000D56181EA441180EA141080EA057081EA2C
:1016F000151181EA04711CEB903C4EEB913E1CEB02
:10170000814C4EEB804E53EC132A82EA0A0083EAA6
:101710000B0120402940504059401CEB000C5EEB6F
:10172000010E51EC140AD0E910451CEB040C5EEBE1
:10173000050ED1E910451CEB040C5EEB050E18EB11
:101740000C0859EB0E09D0E9124512196B41D1E989
:10175000124512196B4155EC124A8AEA04008BEAD1
:10176000050110EA080011EA090190EA0A0091EA6D
:101770000B0112184B4188EAD86080EA491089EAC7
:10178000D96181EA481180EA181080EA097081EA7B
:10179000191181EA087112EB903243EB913312EB8D
:1017A000814243EB804343EC132A53EC102A55EC5F
:1017B000114A82EAD22080EA435083EAD32181EAA7
:1017C000425180EA921080EA836081EA931181EAB3
:1017D00082611CEB107C4EEB117E1CEB011C4EEB6E
:1017E000001E82EA0601324001EA040050401CEB70
:1017F000000C01EA0C00504083EA07023B4012EA69
:10180000050159405EEB010E02EA0E01594053EC0E
:10181000132AA4185D4145EC114A12184B418CEA79
:10182000DC2080EA4E508EEADE2181EA4C5180EACB
:101830009C1080EA8E6081EA9E1181EA8C6112EB35
:10184000107243EB117312EB011243EB001343ECE4
:10185000132A84EAD46080EA451085EAD56181EADA
:10186000441180EA141080EA057081EA151181EABA
:1018700004711AEB903A4BEB913B1AEB814A4BEB1C
:10188000804B53EC122A82EA080083EA09012040C7
:101890002940504059401AEB000A5BEB010B51EC18
:1018A000140AD0E914451AEB040A5BEB050BD1E9E5
:1018B00014451AEB040A5BEB050B16EB0A0657EB13
:1018C0000B07D0E9164512196B41D1E916451219DB
:1018D0006B4155EC114A88EA040089EA0501304061
:1018E000394090EA080091EA090112184B4186EA52
:1018F000D66080EA471087EAD76181EA461180EA1C
:10190000161080EA077081EA171181EA067112EB5E
:10191000903243EB913312EB814243EB804343EC33
:10192000122A53EC132A55EC104A82EAD22080EA9C
:10193000435083EAD32181EA425180EA921080EA3F
:10194000836081EA931181EA82611AEB107A4BEB92
:10195000117B1AEB011A4BEB001B82EA0C0112EA15
:101960000C0201EA040050401AEB000A01EA0A00E6
:10197000504083EA0E0213EA0E0312EA05015940B1
:101980005BEB010B02EA0B01594053EC122AA4183D
:101990005D4145EC104A12184B418AEADA2080EA90
:1019A0004B508BEADB2181EA4A5180EA9A1080EAA7
:1019B0008B6081EA9B1181EA8A6112EB107243EB22
:1019C000117312EB011243EB001343EC122A84EA69
:1019D000D46080EA451085EAD56181EA441180EA45
:1019E000141080EA057081EA151181EA047118EB80
:1019F000903849EB913918EB814849EB804953EC19
:101A0000112A82EA060083EA07012040294050405B
:101A1000594018EB000859EB010951EC140AD0E9C0
:101A2000184518EB040859EB0509D1E9184518EBDE
:101A3000040859EB05091CEB080C5EEB090ED0E914
:101A40001A4512196B41D1E91A4512196B4155EC2F
:101A5000104A86EA040087EA050110EA0C0011EA40
:101A60000E017040794012184B418CEADC6080EA2C
:101A70004E108EEADE6181EA4C1180EA1C1080EA89
:101A80000E7081EA1E1181EA0C7112EB903243EB69
:101A9000913312EB814243EB804343EC112A53EC28
:101AA000122A55EC134A82EAD22080EA435083EA94
:101AB000D32181EA425180EA921080EA836081EA70
:101AC000931181EA826118EB107849EB117918EBD8
:101AD000011849EB001982EA0A0112EA0A0201EA36
:101AE0000400504018EB000801EA0800504083EA67
:101AF0000B0213EA0B0312EA0501594059EB0109E5
:101B000002EA0901594053EC112AA4185D4145EC41
:101B1000134A12184B4188EAD82080EA495089EAD2
:101B2000D92181EA485180EA981080EA896081EAE7
:101B3000991181EA886112EB107243EB117312EB79
:101B4000011243EB001343EC112A84EAD46080EACB
:101B5000451085EAD56181EA441180EA141080EAD3
:101B6000057081EA151181EA047116EB903647EB96
:101B7000913716EB814647EB804753EC102A82EAF7
:101B80000C0083EA0E01204029405040594036188D
:101B90004F4151EC140AD0E91C4536196F41D1E987
:101BA0001C4536196F411AEB060A5BEB070BD0E9AF
:101BB0001E4512196B41D1E91E4512196B4155ECB6
:101BC000134A8CEA04008EEA050110EA0A0011EAC1
:101BD0000B0190EA0C0091EA0E0112184B418AEABF
:101BE000DA6080EA4B108BEADB6181EA4A1180EA15
:101BF0001A1080EA0B7081EA1B1181EA0A7112EB5C
:101C0000903243EB913312EB814243EB804343EC40
:101C1000102A53EC112A55EC124A82EAD22080EAAB
:101C2000435083EAD32181EA425180EA921080EA4C
:101C3000836081EA931181EA826116EB107647EBAB
:101C4000117716EB011647EB001782EA080112EA3A
:101C5000080201EA04005040361801EA060050402C
:101C600083EA090213EA090312EA050159404F41C8
:101C700002EA0701594053EC102AA4185D4145ECD3
:101C8000124A12184B4186EAD62080EA475087EA6A
:101C9000D72181EA465180EA961080EA876081EA7E
:101CA000971181EA866112EB107243EB117312EB0C
:101CB000011243EB001343EC102A51EC140A80305C
:101CC00004EE100AA1F14001A1EC020AC0C1A1EC8E
:101CD000021AA1E80003A1EC022AA1E8000CA1EC81
:101CE000023AA1E80050BDE8009000BF00B59CE8B2
:101CF000F00FDCE91201DCE91C23241845EB010597
:101D00004FEA560E8EEAC77E8EEA162E8EEA076ED0
:101D10008EEAD61E8EEA476E14EB0E044FEA570E7B
:101D20008EEAC67E8EEA172E8EEA066E8EEAD71EE1
:101D300045EB0E054FEAD24E8EEA433E8EEAC20EC6
:101D40008EEA537E8EEA921E8EEA836E14EB0E04A8
:101D50004FEAD34E8EEA423E8EEAC30E8EEA527EA0
:101D60008EEA931E45EB0E05DCE91401DCE91E2327
:101D7000361847EB01074FEA580E8EEAC97E8EEA05
:101D8000182E8EEA096E8EEAD81E8EEA496E16EB80
:101D90000E064FEA590E8EEAC87E8EEA192E8EEA9A
:101DA000086E8EEAD91E47EB0E074FEAD24E8EEA36
:101DB000433E8EEAC20E8EEA537E8EEA921E8EEA71
:101DC000836E16EB0E064FEAD34E8EEA423E8EEA43
:101DD000C30E8EEA527E8EEA931E47EB0E07DCE9B5
:101DE000160118EB000849EB01094FEA5A0E8EEA7A
:101DF000CB7E8EEA1A2E8EEA0B6E8EEADA1E8EEA01
:101E00004B6E18EB0E084FEA5B0E8EEACA7E8EEA26
:101E10001B2E8EEA0A6E8EEADB1E49EB0E094FEA94
:101E2000D44E8EEA453E8EEAC40E8EEA557E8EEA88
:101E3000941E8EEA856E18EB0E084FEAD54E8EEA98
:101E4000443E8EEAC50E8EEA547E8EEA951E49EB1C
:101E50000E09DCE91801DCE908231AEB000A4BEB58
:101E6000010B4FEA520E8EEAC37E8EEA122E8EEAE4
:101E7000036E8EEAD21E8EEA436E1AEB0E0A4FEA0A
:101E8000530E8EEAC27E8EEA132E8EEA026E8EEA20
:101E9000D31E4BEB0E0B4FEAD64E8EEA473E8EEA30
:101EA000C60E8EEA577E8EEA961E8EEA876E1AEB73
:101EB0000E0A4FEAD74E8EEA463E8EEAC70E8EEAEB
:101EC000567E8EEA971E4BEB0E0BACE8F00FDCE96A
:101ED0001201DCE90267121843EB01034FEA560EC8
:101EE0008EEAC77E8EEA162E8EEA076E8EEAD61E20
:101EF0008EEA476E12EB0E024FEA570E8EEAC67E4E
:101F00008EEA172E8EEA066E8EEAD71E43EB0E037C
:101F10004FEAD84E8EEA493E8EEAC80E8EEA597EC6
:101F20008EEA981E8EEA896E12EB0E024FEAD94EA7
:101F30008EEA483E8EEAC90E8EEA587E8EEA991ED7
:101F400043EB0E03DCE91401DCE90489361847EBA6
:101F500001074FEA580E8EEAC97E8EEA182E8EEAE5
:101F6000096E8EEAD81E8EEA496E16EB0E064FEA0F
:101F7000590E8EEAC87E8EEA192E8EEA086E8EEA17
:101F8000D91E47EB0E074FEADA4E8EEA4B3E8EEA39
:101F9000CA0E8EEA5B7E8EEA9A1E8EEA8B6E16EB76
:101FA0000E064FEADB4E8EEA4A3E8EEACB0E8EEAF2
:101FB0005A7E8EEA9B1E47EB0E07DCE91601DCE930
:101FC00006AB18EB000849EB01094FEA5A0E8EEAFE
:101FD000CB7E8EEA1A2E8EEA0B6E8EEADA1E8EEA1F
:101FE0004B6E18EB0E084FEA5B0E8EEACA7E8EEA45
:101FF0001B2E8EEA0A6E8EEADB1E49EB0E094FEAB3
:10200000D24E8EEA433E8EEAC20E8EEA537E8EEAAE
:10201000921E8EEA836E18EB0E084FEAD34E8EEABC
:10202000423E8EEAC30E8EEA527E8EEA931E49EB42
:102030000E09DCE908011AEB040A4BEB050B4FEA29
:10204000500E8EEAC17E8EEA102E8EEA016E8EEA66
:10205000D01E8EEA416E1AEB0E0A4FEA510E8EEA3E
:10206000C07E8EEA112E8EEA006E8EEAD11E4BEBF8
:102070000E0B4FEAD64E8EEA473E8EEAC60E8EEA29
:10208000577E8EEA961E8EEA876E1AEB0E0A4FEA8C
:10209000D74E8EEA463E8EEAC70E8EEA567E8EEA0E
:1020A000971E4BEB0E0BACE8CC0F5CE90E45DCE960
:1020B0000267001941EB05014FEA560E8EEAC77E12
:1020C0008EEA162E8EEA076E8EEAD61E8EEA476ECE
:1020D00010EB0E004FEA570E8EEAC67E8EEA172EE0
:1020E0008EEA066E8EEAD71E41EB0E014FEAD84EFD
:1020F0008EEA493E8EEAC80E8EEA597E8EEA981E16
:102100008EEA896E10EB0E004FEAD94E8EEA483EF9
:102110008EEAC90E8EEA587E8EEA991E41EB0E01B8
:102120005CE90C45DCE90489361947EB05074FEA01
:10213000580E8EEAC97E8EEA182E8EEA096E8EEA55
:10214000D81E8EEA496E16EB0E064FEA590E8EEA3D
:10215000C87E8EEA192E8EEA086E8EEAD91E47EBEB
:102160000E074FEADA4E8EEA4B3E8EEACA0E8EEA30
:102170005B7E8EEA9A1E8EEA8B6E16EB0E064FEA97
:10218000DB4E8EEA4A3E8EEACB0E8EEA5A7E8EEA0D
:102190009B1E47EB0E075CE90A45DCE906AB18EB32
:1021A000040849EB05094FEA5A0E8EEACB7E8EEA07
:1021B0001A2E8EEA0B6E8EEADA1E8EEA4B6E18EB42
:1021C0000E084FEA5B0E8EEACA7E8EEA1B2E8EEA5E
:1021D0000A6E8EEADB1E49EB0E094FEAD04E8EEAFC
:1021E000413E8EEAC00E8EEA517E8EEA901E8EEA45
:1021F000816E18EB0E084FEAD14E8EEA403E8EEA11
:10220000C10E8EEA507E8EEA911E49EB0E09DCE982
:1022100008451AEB020A4BEB030B4FEA540E8EEA09
:10222000C57E8EEA142E8EEA056E8EEAD41E8EEAE4
:10223000456E1AEB0E0A4FEA550E8EEAC47E8EEA00
:10224000152E8EEA046E8EEAD51E4BEB0E0B4FEA6E
:10225000D64E8EEA473E8EEAC60E8EEA577E8EEA4C
:10226000961E8EEA876E1AEB0E0A4FEAD74E8EEA5A
:10227000463E8EEAC70E8EEA567E8EEA971E4BEBDE
:102280000E0BACE8C30F5CE90E23DCE90267A4186F
:1022900045EB03054FEA560E8EEAC77E8EEA162EF0
:1022A0008EEA076E8EEAD61E8EEA476E14EB0E0497
:1022B0004FEA570E8EEAC67E8EEA172E8EEA066E1B
:1022C0008EEAD71E45EB0E054FEAD84E8EEA493E00
:1022D0008EEAC80E8EEA597E8EEA981E8EEA896EC4
:1022E00014EB0E044FEAD94E8EEA483E8EEAC90E30
:1022F0008EEA587E8EEA991E45EB0E055CE90C23AA
:10230000DCE90489B61847EB03074FEA580E8EEA5A
:10231000C97E8EEA182E8EEA096E8EEAD81E8EEAE3
:10232000496E16EB0E064FEA590E8EEAC87E8EEA0B
:10233000192E8EEA086E8EEAD91E47EB0E074FEA79
:10234000DA4E8EEA4B3E8EEACA0E8EEA5B7E8EEA4B
:102350009A1E8EEA8B6E16EB0E064FEADB4E8EEA65
:102360004A3E8EEACB0E8EEA5A7E8EEA9B1E47EBE1
:102370000E075CE90A23DCE906AB18EB020849EB1F
:1023800003094FEA5A0E8EEACB7E8EEA1A2E8EEAA7
:102390000B6E8EEADA1E8EEA4B6E18EB0E084FEAD1
:1023A0005B0E8EEACA7E8EEA1B2E8EEA0A6E8EEADB
:1023B000DB1E49EB0E094FEAD44E8EEA453E8EEA0B
:1023C000C40E8EEA557E8EEA941E8EEA856E18EB58
:1023D0000E084FEAD54E8EEA443E8EEAC50E8EEACE
:1023E000547E8EEA951E49EB0E095CE918231AEB20
:1023F000000A4BEB010B4FEA520E8EEAC37E8EEAC7
:10240000122E8EEA036E8EEAD21E8EEA436E1AEB0D
:102410000E0A4FEA530E8EEAC27E8EEA132E8EEA21
:10242000026E8EEAD31E4BEB0E0B4FEAD64E8EEAAF
:10243000473E8EEAC60E8EEA577E8EEA961E8EEADA
:10244000876E1AEB0E0A4FEAD74E8EEA463E8EEAA8
:10245000C70E8EEA567E8EEA971E4BEB0E0B8CE86B
:10246000F00FACF1600C00BD2DE9F04F04EE101A36
:1024700000F1400CB0E8F807ACE8F807B0E8F8075E
:10248000ACE8F807FEF71EFEFFF730FCFEF71AFE79
:10249000FFF72CFCFEF716FEFFF728FCFEF712FEF6
:1024A000FFF724FCFEF70EFEACF1800808F14009AE
:1024B00098E80F0CB9E8F0500019694192197B4176
:1024C0001AEB0C0A4BEB0E0BA8E80F0C98E80F0C5C
:1024D000B9E8F0500019694192197B411AEB0C0AD6
:1024E0004BEB0E0BA8E80F0C98E80F0099E8F000F2
:1024F0000019694192197B4188E80F00BDE8F08F0F
:102500002DE9F00791E8F807B2E802105B1854EBE8
:102510000C04B2E802104D4156EB0C06B2E8021072
:102520004F4158EB0C08B2E8021059EB01095AEB85
:102530000C0A8941B3F1FF3374F1FF3475F1FF35B3
:1025400076F1000677F1000778F1000879F10109CA
:102550007AF1FF3A51F100015B184C414D4156F1BF
:10256000000657F1000758F1000859EBD1795AEBF2
:10257000010A80E8F807BDE8F00770472DE9F00789
:1025800091E8F807B2E802105B1A74EB0C04B2E8A9
:1025900002108D4176EB0C06B2E802108F4178EB09
:1025A0000C08B2E8021079EB01097AEB0C0A8941B8
:1025B0005B184C414D4156F1000657F1000758F1A8
:1025C000000859EBD1795AEB010A80E8F807BDE819
:1025D000F007704718EB040859EB05095AEB060A97
:1025E0005BEB070B5FF0000C4CF1000C18EB0508DF
:1025F00059EB06095AEB070A5BEB070B50EB0C0093
:102600005FF0000C51EB0C0152EB0C0263414CF1FA
:10261000000CB8EB070879F100097AF1000A7BEBAE
:10262000040BA841B141A241B3416CF1000CBBEBDA
:10263000050BB041B941AA41BB416CF1000C4CF013
:1026400001068CF0020718EB060859EB6C095AEBEF
:102650006C0A7BEB6C0B70EB6C0471EB6C0572EB32
:10266000670653EB6C076CEB6C0C18EB0C0059EB2A
:102670000C015AEB0C025BF1000354F1000455F11C
:10268000000556EBDC7657EB0C0770472DE9F04F51
:1026900007EE900AFEF7E6F859EC168A17EE10AA34
:1026A000FFF798FF59EC148A5BEC15AAFFF792FF2D
:1026B00017EE908A88E8FF00BDE8F08F2DE9F04F13
:1026C00007EE900AFEF794F959EC168A17EE10AA55
:1026D000FFF780FF59EC148A5BEC15AAFFF77AFF2D
:1026E00017EE908A88E8FF00BDE8F08F1FB5144C04
:1026F000207A8DF80100E0798DF80000A079ADF81E
:1027000004006079ADF80200684606F0E3FA08B10B
:10271000AD2110E0E068029002A806F0F1FA08B1DD
:10272000B12108E007480068039003A80FF0E4FB1C
:10273000002803D0B521032000F0E4F81FBD0000FD
:10274000502D00200C2A000010B528B11422044995
:1027500010F04BFB002010BD6FF0150010BD000005
:10276000342A000070B56FF02C0578BB224C6078DD
:1027700008B1A81170BDF9B16FF01500002AF9D0A9
:102780001E4B891E072931D2DFE801F00407171A12
:10279000301D2100107858701DE091780029E9D093
:1027A000D1780029E6D011781B29E3D351781B2971
:1027B000E0D31068C3F805000DE01068D8600AE0A7
:1027C0001078987007E01088588204E00EE01188B5
:1027D000FF29CFD819750122084900200CF01CF9F7
:1027E000B0F5803F04DB6FF00B0070BD284670BD74
:1027F0000121A17070BD000040000020502D00207C
:1028000010B5074C607820B106F060FD20780BF021
:10281000C1FE00F04DFE00F025FF0020607010BDED
:102820004000002070B50C46050002D00CB16007D6
:1028300002D06FF0150070BD00F022F9A8B1284653
:102840000BF06EFE0A4D00220A49287020460CF05B
:10285000E3F80FF060FF0021287806F021FDFFF774
:1028600045FF01206870002070BD4FF0FF3070BD43
:1028700040000020502D002030B589B004000CD05D
:102880000BF0F6FD4FF0FF3520B10BF089FCB0F5F1
:10289000FA7F05D9284609B030BD6FF01500FAE778
:1028A000134D14486C6000F007FA00206870A8709F
:1028B00001462422684610F012FB24220E49684685
:1028C00010F093FA242269460C4810F08EFAEFF3C8
:1028D000108472B600F0FAFD094800F0CFFE18B17E
:1028E000CB21032000F00EF804B962B60020D2E735
:1028F00040000020ED260000102A0000502D00208E
:10290000AD2A00000EB572B6154A5568DDB1002239
:1029100003466E460A2403E0B0FBF4F0521CD2B228
:102920000028F9D1B0540AE0D8B2B0FBF4F7B3FBF9
:10293000F4F304FB1700521ED2B23030B054002A18
:10294000F2D13046A847BFF34F8F06480168064AC8
:1029500001F4E06111430160BFF34F8F00BFFDE759
:10296000400000200CED00E00400FA05064810B518
:1029700081784078014302D04FF0FF3010BD06F05F
:10298000B5FC002010BD000040000020064810B536
:1029900081784078014302D04FF0FF3010BD06F03F
:1029A000CDFA002010BD000040000020064810B500
:1029B00081784078014302D04FF0FF3010BD0FF016
:1029C0003FFC002010BD000040000020064810B56C
:1029D00081784078014302D04FF0FF3010BD06F0FF
:1029E00097FC002010BD000040000020064810B5F4
:1029F00081784078014302D04FF0FF3010BD0FF0D6
:102A000033FC002010BD0000400000200100000049
:102A100000010100001B1B03020000004C1D000010
:102A200000001F000800000000000000000000007F
:102A300000000000E07E2EC15E0585234615DCFA0D
:102A40008E297D701093A5FC054A10B5526812B10D
:102A5000BDE81040104792210420FFF753FF00000B
:102A6000742D0020054A10B5926812B1BDE81040DF
:102A7000104798210420FFF745FF0000742D002027
:102A80000548016829B1416819B1806808B1012081
:102A90007047002070470000742D002002490DC8C7
:102AA00081E80D0000207047742D0020F8B5124C0D
:102AB0000026256811E00098022802D003280CD1D6
:102AC00006E0206810B10020266005E028210CE017
:102AD000206868B101202660A847684600F094FD90
:102AE0000028E8D0052805D035210420FFF70AFF8B
:102AF0002D21FAE7F8BD0000480000202DE9FC4137
:102B0000284E0546001D06F144073060387858B15C
:102B1000BA783C46791C2846921C10F066F90020D1
:102B200020700420BDE8FC811E4801F06DFF0446C2
:102B3000022804D0042C07D0082C2CD02FE01949EF
:102B400028460CF02EF82AE03078082804D1052118
:102B50003E200BF0F8FF50B1124928460CF086F8E1
:102B6000B0F5817F0ED3C7210820FFF7CBFEB088D8
:102B7000ADF8000001A968460CF0E8FA0028C5D0BD
:102B8000A821F1E70028C1D0A97828780BF0DBFF55
:102B90000028BBD003E0034928460CF030F820465B
:102BA000C0E70000802D002070B50A7882703AB32B
:102BB000012A25D81323037000230AE001EB430404
:102BC00000EB4305A678EE706488240A5B1C2C7128
:102BD000DBB29342F2D300230BE000BF01EB4305CD
:102BE00000EB43042E796671AD882D0A5B1CA5713C
:102BF000DBB29342F2D3012101EB8200C0B270BD7F
:102C0000002070BD402803D2401EC1B2054805E037
:102C1000FF2805D04038C1B2024808300CF025BA70
:102C2000012070474C000020401EC1B201480CF04A
:102C30001CBA00005C000020024902680A6140687A
:102C4000486170474C000020054902680A604068EE
:102C500042F48C220A60034A104348607047000027
:102C60004C000020F8074002024902688A60406870
:102C7000C86070474C00002007484FF0FF31002229
:102C80000160C90C416000F108011F200A604A6020
:102C90000831C1E9000270474C00002010B5FFF771
:102CA000EBFF0FF041FA04460248006800B180478C
:102CB000204610BD640000200149086070470000F4
:102CC000640000202DE9F04104464FF08050D0F818
:102CD000A0701F4D1E4E103D10220021204610F006
:102CE000FEF81022002104F1100010F0F8F8286816
:102CF000401C08D16868401C05D1A868401C02D15E
:102D0000E868401C07D028686A68A968EB682061F9
:102D10006261A161E361002000F084FD8743F80750
:102D200013D13068401C08D17068401C05D1B068D0
:102D3000401C02D1F068401C07D032687068B1684E
:102D4000F36822606060A160E3600020BDE8F0816C
:102D50009000001038B54FF0805104462248D1F859
:102D6000A010214D0268143D521C04D14268D24388
:102D70001204120C35D0C90733D001684068ADF891
:102D80000000C4F80110BDF80000A4F80500A07907
:102D900040F0C000A0712868401C0CD06868401C3E
:102DA00009D0A868401C06D0E868401C03D0002069
:102DB00000F038FD40B110220021E01D10F08FF826
:102DC00001202070002038BD2A686968A868EB6877
:102DD000C4F80720C4F80B10C4F80F00C4F813306F
:102DE000EEE70020EDE70000A400001002210180C2
:102DF000418000210171E021417142F67E61C18074
:102E00000149816000207047C15E05852DE9F041D0
:102E10008C79DDF818E0082C01D9DB212CE0DFF8F3
:102E2000A4C05CF820500DB1DC2125E0CD79002D47
:102E300045D06F000A371D68022C3D4401D9264653
:102E400001E04FF002062E44A6F1010601D9254605
:102E500001E04FF00205A5F1010526EA05068D887F
:102E60002544A4F10104A5F1010525EA04054FF666
:102E7000FF74A54203D3E7211720FFF743FDBEF1FE
:102E8000000F18D1F41B4CF820402580C879A070A1
:102E90000120E070227108684FF6F072000CE080AB
:102EA00008882081002003E004EB4007401C7A8161
:102EB000CF798742F8D8C87900FB05601860BDE873
:102EC000F08100006800002030B503464FEA0200A0
:102ED00003EB400464898C4209D09C78401CB0FB11
:102EE000F4F504FB1500C0B29042F1D1FF2030BDD3
:102EF00070B50546194850F8214064B3B5F5706FB8
:102F000004D340F225211720FFF7FCFC2946204678
:102F10000CF0C7FB0146FF2804D02046BDE87040F6
:102F20000CF0D3BBA078B5FBF0F100FB1150C6B29A
:102F300032464FF6F0712046FFF7C6FF0246FF28E3
:102F400009D0B24201D00020E07029462046BDE8F9
:102F500070400CF0A0BB002070BD00006800002095
:102F6000084A10B552F82140014620460CF099FB62
:102F70000146FF2804D02046BDE810400CF0A5BB58
:102F8000002010BD68000020F0B589B004000E4696
:102F9000069407D00025600706D040F219111720CB
:102FA000FFF7B0FC0125F6E714480022144F026039
:102FB0004260D7E9001096F800C0BB686CF31F6050
:102FC000CDE90203CDE9005106AB01A91046FFF798
:102FD0001DFFD7E9031073787A6963F31F60CDE9A9
:102FE0000202CDE9005106AB002201A90120FFF742
:102FF0000DFF069809B0001BF0BD0000680000201E
:10300000F030000010B5044680790E4951F82000D8
:10301000A8B14FF6F073E179827891420FD24A1C41
:10302000E27100EB410252899A42F4D000EB410276
:103030005289A2800CF049FB2060002010BD0520C1
:1030400010BD0000680000202DE9F04107464FF652
:10305000FF703880124850F82140ECB1A5782079F3
:10306000B0FBF5F105FB110632464FF6F071204634
:10307000FFF72AFF0246FF280ED0A81B1044B0FB22
:10308000F5F105FB11002179084481B23980204611
:10309000BDE8F0410CF0FFBA0020BDE8F08100006F
:1030A000680000202DE9F0410646104850F82150F4
:1030B000314628460CF0F5FA0446FF2812D0D5F820
:1030C000060021464FEA304728460CF0FEFA01463A
:1030D0003046B84705EB44014FF6F07048810020B8
:1030E000BDE8F08143F20200FAE70000680000202A
:1030F000DB140100F802080000000000B10A010022
:1031000018010800000000002DE9FF4F244C06467E
:1031100081B020689A46934658B1017AB14203D9EA
:10312000406850F8260040B143F2020005B0BDE807
:10313000F08FA5211820FFF7E5FB194602980CF047
:10314000FFFA804658460E990CF0F0FA054608EB57
:103150000500001D87B22068A146394600680CF0C2
:1031600035FA04001AD0678025802946201D0E9D5F
:1031700007465A46092300950CF0A2F920884146DB
:1031800038440A23029ACDF800A00CF099F9D9F836
:103190000000406840F826400020C7E70420C5E74B
:1031A0007000002070B5144C23688BB1197A8142ED
:1031B00012D95A6852F8201071B1002542F82050F7
:1031C0004A8818680CF05AFA216800200A7A0CE044
:1031D000C6211820FFF796FB43F2020070BD4B6832
:1031E00053F8203033B9401CC0B28242F7D8086887
:1031F0000CF039FA002070BD700000202DE9F0417C
:103200000D46040090464FF0000606D00027A007A8
:1032100005D086211820FFF775FB0127F7E7CDB110
:10322000114600200CF003FA0C3000EB85068FB934
:103230000A4F04F10C00AA003C602572606000EBAC
:1032400085002060002160680FF049FE4146386823
:103250000CF0EDF93046BDE8F08100007000002070
:1032600070B5084D286800280AD0002404E02046E4
:10327000FFF798FF641CE4B22868007AA042F6D8F1
:1032800070BD000070000020094910B502460968B1
:10329000002049B10B7A934205D9496851F82210B0
:1032A000002900D0081D10BDEC211820FFF72AFBD3
:1032B000700000200A4910B502460968002059B183
:1032C0000B7A934207D9496851F82210002902D09D
:1032D00031F8040B084410BDFA211820FFF712FB47
:1032E0007000002070B51E4B456804460022A1B155
:1032F00001206070588881085FF0000004EB4003F3
:1033000004EB80061A83198400FB015373602318B1
:10331000401C1A750428F1D370BD62705FF0000084
:1033200004EB40010A830A8404EB80014A602118FF
:10333000401C0A750428F3D35888B0F5FF7F01D2EA
:10334000460800E0FF260CF06FFA6560208429181B
:10335000A1606684E560A0842161E68470BD000000
:10336000740000202DE9F04158B100251144244E8D
:10337000CCB200273470810705D04E210920FFF719
:10338000C1FA0125F2E71F2B04D84FF6FF7101EABD
:10339000830109E05900FF2B0CD903F1FF02B2EBC6
:1033A000430F00D2114689B24FF6FC72C91C11407E
:1033B00035B107E07C22B2EB430FF4D37C21F2E776
:1033C0007060718004EB840207EBC2030022766810
:1033D0004FF0010C0DE04DB902EB820700EB030E3C
:1033E00006F837C006EBC707C7F804E0521C0B44C9
:1033F000D2B2A242EFD3DB1D23F00700BDE8F0817B
:103400007400002070B5104A00205168127814E052
:1034100000EB800311F833306BB100EB800011EB4F
:10342000C0040CD00025A57001212046FFF75AFFEB
:103430002570204670BD401CC0B29042E8D3A9213F
:103440000920FFF75FFA000074000020044810B55F
:10345000408884080CF0E8F9844200D3204610BD6F
:103460007400002030B50D4901204860821EC1F86B
:1034700008230B4988600023C1F80032C1F80823F3
:10348000084C2360251D28608860C1F8082323604C
:10349000286006490448086030BD000000E0004094
:1034A00000F0004000F500400000F63F08F5014044
:1034B00010B5FFF7D7FF0CF08EFA034901480860FA
:1034C00010BD00000000F63F08F5014010B5FFF701
:1034D000C9FF0CF080FA00F087F80549034808603E
:1034E00000F0B8F8BDE8104000F0DCB80000F63F8E
:1034F00008F501402DE9F84F824638480FF084FB6B
:10350000DFF8D8B028B101260BF10100FF210170CE
:1035100000E000264FF48075314C4FF000082F1D5D
:1035200001216160C4F80081C4F80481C4F804A5D5
:103530002160DFF8B0901CE0D9F80000C00618D573
:103540000E200CF057FAEFF31080009072B60321B2
:103550002046C4F8041329460CF059FA30B939460C
:1035600020460CF054FA08B90FF0E5FB009800B9BA
:1035700062B6294620460CF04AFA28B93946204658
:103580000CF045FA0028D7D0394620460CF03FFA17
:103590000028C5D106BB9BF801108DF800100099DA
:1035A00000919DF8001009B1012500E000250BF104
:1035B000010080F800800320C4F80803C4F80481E7
:1035C000C4F800810E200CF015FA04480FF033FB0C
:1035D00015B11120BDE8F88F0020FBE7640300203F
:1035E00000E0004010ED00E010B506480FF01FFBB2
:1035F00018B130211D20FFF785F9024800214170E4
:1036000010BD00006403002070B511490A68EAB1DA
:1036100000231D4601244A68521C4A60092A00D32F
:103620004D600E7904FA06F20E6816420BD0EFF3E5
:10363000108372B60C6894430C6003B962B6496893
:103640000160002070BD5B1C092BE4D3052070BD18
:103650007C000020024800210160416070470000AA
:103660007C00002010B5044C2078FF2803D00AF01D
:1036700091FFFF20207010BD0000002010B5084C05
:10368000617809B10F2010BD0AF04AFF2070FF28B1
:1036900001D0002010BD73211F20FFF733F9000077
:1036A0000000002001490020487070470000002001
:1036B0000648074A818C5288914204D190F8220032
:1036C00008B100207047012070470000A02F0020A3
:1036D000580300200149488070470000580300202B
:1036E0000848094A818C5288914209D14FF6FF71EE
:1036F000818410F8221F19B1002101700120704748
:1037000000207047A02F002058030020074810F821
:10371000221F012907D001210170054803490088B3
:10372000888401207047002070470000A02F0020EF
:10373000580300200649074B8A8C5B889A4205D1C2
:1037400091F8222012B101600120704700207047DB
:10375000A02F00205803002009498A8CA2F57F433E
:10376000FF3B02D00021016007E091F822200449CC
:10377000012A02D00160012070470020704700003C
:10378000A02F002001490880704700005803002046
:103790000549002081F822004FF6FF708884034914
:1037A0000880488070470000A02F002058030020A8
:1037B00005498A8C824205D1002081F822004FF60B
:1037C000FF70888470470000A02F00200A4A10B1C3
:1037D000012807D00EE0507860B1D2F802000860EE
:1037E000D08804E0107828B19068086090898880BB
:1037F000012070470020704766030020084A01231B
:1038000038B1012804D113700868906088889081CD
:10381000704753700868C2F802008888D0807047EB
:1038200066030020064910B1012802D005E048785F
:1038300000E0087808B101207047002070470000C0
:1038400066030020014908777047000062280020C5
:103850000148807870470000840000200148C0784B
:10386000704700008400002070B50C46054600F04B
:103870001FF918B1D0212720FFF744F80348012190
:103880000CF0E7FC0248C0E90B5470BD4028002052
:103890008400002001490120487170478400002005
:1038A0002DE9F84F5B4D0A9C2E78002E6BD1002A33
:1038B00069D0002B67D0002C65D005F11406C5E94E
:1038C0000F0186E81C0000276F712F71AF706F70B9
:1038D000EF70AF81EF8100F02FF9064600F026F976
:1038E000044606F0D1F905F029FF94F96E0006F0C0
:1038F0004FFAE06906F032FB606906F025FB96F8A6
:10390000330006F05BFB05F13C00406890F81A02BA
:1039100008B106F033F994F86B10012006F072F844
:10392000002870D03C4806F0D9F82088FFF7C2FC88
:1039300068632088FFF7A8FC06F18802A86392E874
:103940000C11DFF8D89089E80C11D6F89820C9F846
:103950001920D6F89C10C9F81D1000F025F9014671
:10396000208F0CF0CBF9A18E814200D20846A871BD
:10397000A84694F86B10BA46E08F96F82370A58F8E
:10398000082904D102E040F2451140E004210CF086
:10399000B5F90FB9001D80B2854200D22846C5B2E4
:1039A00088F8075088F8085096F82300D04690B160
:1039B000012789F81870D6E92012C9E9041294F891
:1039C0006B000CF0B0F803462A4614493846CDF88F
:1039D000008005F01FFE012000F046FB1048006843
:1039E000032812D00B2810D00C480E2200214A3098
:1039F0000FF075FA0948B18A4A3041802188018068
:103A000096F833100171BDE8F88F40F202212720AB
:103A1000FEF778FF840000206C4200001828002088
:103A2000501500402DE9FC418846074600F084F817
:103A30001A4C0546B807616A4E7816D5A06A30B3AD
:103A40006289D21C0FF0D1F9A06A6062694601AAAE
:103A5000A06B0BF0B2FC00980BF065FCC8F80000FE
:103A600031460122A06B0BF015FCF8070DD0D5E90B
:103A700020011835401C41F10001C5E91A0115F873
:103A80001809012808D001202876BDE8FC8140F201
:103A90005C412720FEF736FF0020F5E78400002078
:103AA0000248C089C0F380207047000084000020D5
:103AB0000448007808B10C207047034900200877BB
:103AC0007047000084000020622800200C4810B5D8
:103AD000017849B100F13C010078022808D040F299
:103AE0001E212720FEF70EFFBDE8104000F0CAB9E6
:103AF0004868D0F83002BDE8104005F0F7BF00007C
:103B0000840000200846002141701D2100F8041B9C
:103B10000E2201490FF069B970280020024A9389EA
:103B20000343938152691047840000200148406894
:103B300070470000C0000020014840688030704796
:103B4000C0000020014A0021526910478400002073
:103B500070B50546012918D8124CA1698847A0B153
:103B6000207990B9E5B904F110000178C80605D4B0
:103B7000E06A0078C00601D4012000E00020A26ABB
:103B80002AB962891AB1C90601D4012070BDA18980
:103B90008A0703D5226AD278022A01D00843F4D1D9
:103BA000002070BD8400002010B5FFF7BFFF044661
:103BB000FFF7C2FF0246417F1648252910D026296B
:103BC0000ED0927F252A0BD020290DD021290BD091
:103BD000232A0FD094F86A00042800D1082010BDD1
:103BE000406890F8CE120EE0232A03D0406890F887
:103BF0003E0105E0416891F83E0191F863100840EC
:103C00000BF087FF014694F86A00BDE810400BF006
:103C100098BF0000C00000202DE9FF5F8B46814661
:103C2000FFF78AFF0026664C07468DF8086003966A
:103C3000019620783546022804D040F2DF41272043
:103C4000FEF760FEA07B400606D44020FFF77AFF17
:103C5000E08940F04000E08197F82300B9F1000FBF
:103C60003AD080B105F0A4FD05F07EFD58B9606A38
:103C7000417841B10078397EC0F3C000884202D15A
:103C80000120607097E0606A4178618121B1A06B8A
:103C90000BF069FCA06200E0A562E08940F480704E
:103CA000E081606AF97D0078C0F38000884207D027
:103CB00003A800F08BF9E08940F48060E08100E027
:103CC0000126606A397E0078C0F3C00088420DD1B9
:103CD00002A800F031F909E008B105F063FDA07811
:103CE000401CA070E08940F40070E081DFF8D0A0B3
:103CF00097F822000AF13C0A90B1FFF717FF31490B
:103D00000D76D7E91E23C1E9042390F86A000BF071
:103D10000AFF0346FB222B492846009505F07AFC52
:103D20004FF00008BBF1000F04D1A1780120FFF78C
:103D30000FFF20B106F0F4F84FF0010802E0002078
:103D400000F0D0F99DF8080018B101A90220FFF792
:103D500069FE1C48BA8A4A303EB11AB9C2880AB90B
:103D6000028912B14289521C4281B9F1000F04D07C
:103D7000C188491CC180A57002E00189491C0181EC
:103D80000F483C3001F0F2F9039840B10BF0CBFA48
:103D9000DAF80410401C057208220CF0E1FA0198D0
:103DA00030B1DAF804100572102201980CF0D8FA3C
:103DB000B8F1000F01D000F065F8BDE8FF9F0000EA
:103DC00084000020182800202DE9F8438846814609
:103DD000FFF7B2FE294D04462878012804D040F2AE
:103DE0006B412720FEF78EFD207C0027012628B19D
:103DF000277400210420FFF791FEA674296A087831
:103E0000C043800709D1A07D88BB0220FFF786FE52
:103E1000286A0078C043800729D0286A407810B10A
:103E20000220A07500E0A67594F8230098B1FFF772
:103E30007DFE13492D7A0E76D4E92023C1E90423AF
:103E400090F86B000BF06FFE03462A460C49304693
:103E5000009705F0DFFB38EA090004D0002108468E
:103E6000FFF776FE28B1BDE8F84300F00BB8032059
:103E7000D7E7BDE8F843002000F0F6B88400002042
:103E80001828002010B505F033FD05F057FC0D4C47
:103E9000E089FFF757FE0C48007F58B10A490E220F
:103EA00001F10E000EF0A1FF0748022207491D3064
:103EB0000CF06AFAE269217960789047002020705E
:103EC00010BD00008400002062280020053B000097
:103ED000084810B50078022804D040F24921272074
:103EE000FEF710FD044901200873BDE81040FFF7FC
:103EF000C9BF0000840000206228002030B40446BE
:103F00000C48007A0BB1001DC0B23AB9FF2805D1A8
:103F100094F86B2094F86A309A4209D021B194F851
:103F20006B1030BC06F020B8FF2094F86A10F8E758
:103F300030BC7047840000202DE9F0410746FFF7B0
:103F4000FBFD214C05460126616A087800F003005C
:103F500001280CD002280AD003281BD12E74E08936
:103F600040F40060E0810120FFF7D8FD12E04878BE
:103F700080B1E18941F40061E181A16A002918D092
:103F8000FB2818D8607920B1BDE8F0412020FFF768
:103F9000D9BD3E70287E012812D02E76606A407806
:103FA000002806D0F5E92001401C41F10001C5E9D7
:103FB0000001BDE8F081207940F010002071F8E7A1
:103FC00000202876EAE700008400002070B505464E
:103FD000FFF7B2FD0446807D00282DD002280CD1C9
:103FE0001B482946406B0BF02DF930B3D4E91E0174
:103FF000401C41F10001C4E91E010025A575A07C0B
:1040000020B1A57400211020FFF788FD607C70B1FD
:104010006574FFF765FB98B100210820FFF77EFD6E
:10402000D4E91E01401C41F10001C4E91E01E07DFC
:1040300001280AD00120E07570BD40F2DA3101E0BC
:1040400040F2F1312720FEF75DFCE57570BD000000
:104050008400002003480078002801D0FFF712BF39
:1040600070470000840000202DE9F0410646FFF76C
:104070005DFD8046FFF760FD184C05463246E06A5C
:10408000606295F8233001214046FFF737FF95F82D
:104090002300002770B1206B05F09CFE1048012121
:1040A0000176D5E92012C0E90412216B606A05F09F
:1040B00003FB04E0606A05F08DFE05F03FFB16B9D6
:1040C000384605F037FD002198F86A20084605F0CB
:1040D00009FF02202070BDE8F0810000840000206C
:1040E000182800202DE9FC470446FFF725FD05466A
:1040F000FFF71CFD00278DF800700646DFF864917D
:1041000095F8233022463946FFF7F8FEA87D4FF098
:104110000108A9F1200440B1012820D002282FD0A5
:1041200003283BD040F2FB2157E0A0795021ADF8A5
:10413000040088534846FFF7FDFA30B18020216A19
:10414000FFF7ECFC85F811802CE06A4601A9606B52
:104150000BF001FD206210B195F85B1011B14248DF
:1041600020621FE09DF8001021B9078087700121AF
:104170000CF06FF8BDF80410206A0BF0F2FF11E0AC
:10418000B6F85000ADF804006A4601A9606B0BF068
:10419000E2FC206230B940F2E5211EE04846FFF71C
:1041A000C9FAC0B1206A0823017801F0F701017053
:1041B000EA7D03EAC202114301F0FB0101702A7E8D
:1041C000042303EA8202114301F0EF010170C943A5
:1041D000890705D007E040F2EE212720FEF792FB89
:1041E000C07802280FD0606B0BF02AF908B10121CA
:1041F0000AE0206A0078C043800704D0FFF758FA2D
:1042000080F0010100E00021206A027842EA0111F9
:10421000017095F8221081B1417871B1206B05F0E1
:10422000D9FD114828380776D5E91E12C0E90412D5
:10423000216A206B05F040FA03E005F0CBFD05F0A4
:104240007DFA96F86B200121002005F04BFE84F8E2
:104250000380216A0A8822828978A17484F8008008
:10426000BDE8FC87A400002040280020D13E0000CB
:10427000193C0000C93D000055400000004870474F
:104280005031002004494A78824203D9084490F80A
:104290004201704700207047C62F002004494A7829
:1042A000824203D901EB0010823070470020704732
:1042B000C62F0020054A01EB410102EB41010268D3
:1042C000C1F80A218088A1F80E017047C62F00208E
:1042D0002DE9F0410E4607461546062130460BF003
:1042E00003FE0D4C60B1002004E02118401C81F851
:1042F0003A51C0B261788142F7D80120BDE8F0811F
:10430000314638460BF036FC082803D0204480F8AC
:104310003A51F2E70020F1E7C62F002004494A781D
:10432000824203D901EB0010801C704700207047C7
:10433000C62F002010B54FF4C572002105480EF0BD
:10434000CEFD05480021017041704FF4617141803C
:1043500010BD0000C62F00205C030020014908703A
:10436000704700005C03002001480078704700009F
:104370005C0300200B4B10B55C78844210D91844C4
:1043800090F80201C0EBC000184490F852310B7055
:10439000D0F853111160B0F857019080012010BD82
:1043A000002010BDC62F00202DE9F0479846914609
:1043B0000F46064600F0B0F80446082806D000F084
:1043C00097F8082802D01220BDE8F0871F4D6878C2
:1043D000082838D2082C13D12C78601C2870082C9F
:1043E00003D344212820FEF78DFAC4EBC4002844EF
:1043F0003968C0F85311B988A0F8571180F8526194
:104400006E781022701C687005EB0617B81C4946C0
:104410000BF0FCFC07F18200102241460BF0F6FC89
:10442000102140460BF060FD3544102185F8420113
:10443000484605F22B150BF057FDE87705F8294C97
:104440000020E873C0E70720BEE70000C62F002069
:10445000064810B54078401E44B204E0E0B200F0D7
:10446000BDF8641E64B2002CF8DA10BDC62F00201F
:1044700001484088704700005C03002038B14AF2D0
:10448000B811884203D803494880012070470020B2
:10449000704700005C03002005494A78824203D936
:1044A000084490F83A0108B1002070470120704795
:1044B000C62F002001494870704700005C030020AF
:1044C0000246094810B500780B4658B107484178B4
:1044D00041B10BB1801C01E00448823004F0F4FFCC
:1044E000012010BD002010BD5C030020C62F00205D
:1044F000084910B5034600204A7806E00C1894F8E5
:1045000002419C4204D0401CC0B28242F6D808202E
:1045100010BD0000C62F0020F0B51A4C0346002045
:1045200025782BE0C0EBC00222440F7892F853C1EB
:1045300092F8526187EA0C075E403E444F7892F849
:1045400054C187EA0C073E448F7892F855C187EA38
:104550000C073E44CF7892F856C187EA0C073E44D8
:104560000F7992F857C192F8582187EA0C073E4418
:104570004F795740F74204D0401CC0B28542D1D891
:104580000820F0BDC62F002070B50546FFF7B0FF2C
:10459000082820D1104C2078401EC0B22070A842BC
:1045A00019D0C0EBC000C5EBC5012044214400F583
:1045B000AB72D0F85201C1F852011088A1F856012F
:1045C000907881F858012078FFF792FF082802D0F0
:1045D000204480F8025170BDC62F00202DE9F0471D
:1045E0001D4C0646A7196078401EC5B2657097F845
:1045F00002A1AE422AD004EB051904EB061809F11A
:10460000020108F1020010220EF0EFFB09F1820115
:1046100008F1820010220EF0E8FB601905EB45025C
:1046200090F8021187F8021106EB460104EB4202F2
:1046300004EB4101D2F80A31C1F80A31B2F80E2177
:10464000A1F80E2190F83A0187F83A015046BDE8EA
:10465000F047FFF799BF0000C62F00202DE9F04773
:10466000044600F180054FF0010971B104F1A6077D
:104670007E1E012929D002294ED0032923D1394693
:104680003046BDE8F0470BF091BC4FF43E7200217C
:104690000EF025FC85F825902449E966204607217F
:1046A000296710F8EC1F21F004010170FE2085F845
:1046B000A6007F2068761E48A8600020C5E900009B
:1046C000202084F8A402BDE8F0874FF00008A4F889
:1046D000368284F82B82216916480A460844B0FBCA
:1046E000F1F0C4F8C40040F6B830A4F8C800638BF9
:1046F000284600F021F8394630460BF057FC0EF002
:10470000F6FA18B1606900F0BDFB10B184F81A82A6
:10471000D9E784F81A92D6E70169B4F8DA32D4F806
:10472000D4222846BDE8F04700F006B82F4904C45B
:1047300000E0FCFF7FC3C90110B50024A0F84C4085
:1047400030F8504F4C43B4FBF2F420F8104940F2DB
:104750007124634302EB03135B1EB3FBF2F3C381CB
:10476000094BB3FBF2F35B1C83820389634302EBC7
:1047700003135B1EB3FBF2F3436003684B43B3FBCD
:10478000F2F1016010BD0000005A6202024991F985
:1047900000100BF0BCBB00007403002008B57F20A4
:1047A0008DF80000684605F0C3FB40B1054840782D
:1047B000404241B29DF900000BF0A9FB08BD9DF9F4
:1047C000000008BD74030020014A1070517070474A
:1047D0007403002070B590F8322090F83130012435
:1047E00003FB01212522B1FBF2F302FB131100EBC5
:1047F000D10280F8321001F0070392F8262004FA63
:1048000003F31A4204D000BF80F83310002070BDBB
:1048100090F83020B1FBF2F302FB1311491CC9B22E
:104820000023C51895F82B208A4212D395F82650FC
:10483000002200BF04FA02F6354201D0491EC9B277
:1048400021B1521CD2B2082AF4D304E002EBC30116
:10485000DAE7891AC9B25B1CDBB2052BE1D31F2052
:1048600070BD000070B5491C0023C9B20124C518F1
:10487000AA798A4212D395F80150002204FA02F66E
:10488000354201D0491EC9B221B1521CD2B2082A08
:10489000F4D305E002EBC300C0B270BD891AC9B2FF
:1048A0005B1CDBB2052BE2D39D214620FEF72AF8E4
:1048B000417841B1C0782B2803D2044A105C884269
:1048C00001D101207047002070470000283001000E
:1048D00010B50122C1702B2902D2064A525C06E0B3
:1048E000FF2904D040F274412A20FEF70BF84270F1
:1048F00010BD0000283001000449897C490700D41C
:1049000008B100207047012070470000C82E002029
:104910000348807C800701D4012070470020704745
:10492000C82E00200348807CC00701D000207047BB
:1049300001207047C82E00202DE9FE438846994685
:104940001546044669460BF04CF9E0BB019E002772
:1049500080367DB12046FEF7ADFC04000ED029461E
:104960000AF040FD18B11B494988A94208D200202D
:10497000BDE8FE83012086F8240024E0672125E0BD
:10498000014602AA20460AF026FD02980780877099
:1049900096F8241009B14FF0020841460BF059FC7B
:1049A00002982A464946C01C0EF01FFA20462946A6
:1049B0000AF0CFFC48B168460BF0A6FC0198A0F8BD
:1049C000227286F824700120D2E77C212B20FDF78B
:1049D00099FF0000C82E0020094882B0007A8DF8A7
:1049E0000000009800909DF80000002805D10222E8
:1049F0000449034802B00BF0B3BC02B0704700009A
:104A0000E02E0020A70301002DE9F84FDFF8789190
:104A10005E4F83464FF0010A002678683546007ADB
:104A20008DF80000009800909DF80010102906D124
:104A300099F8131019B1B9F81400002873D08DF843
:104A40000060684600F006F99DF800100029F8D1D2
:104A5000002868D00446007A8DF800000098009085
:104A60009DF8008004F10800052100900170404687
:104A7000B8F1080F42D007DC02280DD0032817D068
:104A8000B8F1040F05D11DE00F2852D0B8F1100F76
:104A900059D040F24A2165E0626832B15946204659
:104AA0009047042060F3070510E040F2C31159E07D
:104AB000626822B1594620469047054606E04FF409
:104AC000E6714FE06168B1B120468847C5F3072021
:104AD00001284AD0EFF3108172B6207A8DF80000D9
:104AE000009800909DF80000052842D0B0B366F30E
:104AF0000705A1B341E04FF4EB7133E060685D4618
:104B000098B104882046FEF7D5FB80B16E700D2168
:104B10002970EC80A5F808A085F804A031460AF0B9
:104B2000F8FC04203E61BDE8F88FE5211AE0C521BC
:104B300018E08BF8016016218BF80010D4F80910EA
:104B4000CBF80410ADE71248026822B1606838B1B2
:104B500000885946904702203E61E4E709E00BE0F7
:104B60004FF410711020FDF7CDFE00984146017002
:104B700003E026723E61BCE762B615F0FF0F3FF41A
:104B80004CAFE8B2CFE70000C82E0020F42E002082
:104B9000C80000200149087000F0BEB8760300206C
:104BA0000249014808607047B14B0000C80000206E
:104BB00038B50D0014D0A88000216972FEF764FB9F
:104BC00004460AF0EAFB70B101466A4620460AF044
:104BD00002FCE88050B1FB280BD940F2231133E0EE
:104BE00040F2131130E04FF48E712DE040F22111AC
:104BF0002AE000980BF0D9FA012804D0022802D04C
:104C000040F2331120E028722868A8B10099EA88A0
:104C1000C91C0EF0EAF820460AF087FB78B120465E
:104C200000210AF076FC68B10948C17C002902D055
:104C3000818A491E818238BD4FF49D7104E040F2A3
:104C40003F1101E04FF4A2711020FDF75BFE000060
:104C5000C82E002038B5034617490020187008698F
:104C6000012440B1027A8DF80020009A00929DF84C
:104C70000050002D11D14868027A8DF80020009A6A
:104C800000929DF80050012D06D0EFF3108272B60D
:104C900005684D6012B102E0002038BD62B6027AAC
:104CA0008DF80020009A00929DF800500DB1086127
:104CB00038BD1C7038BD0000F42E002038B5D0B1CE
:104CC000416000F108010A70EFF3108372B6104CD6
:104CD0000460211F4A684AB1127A8DF80020009AB8
:104CE00000929DF80050012D00D10C600A68106000
:104CF00008602BB105E040F275211020FDF702FE9F
:104D000062B604480078BDE8384009F027BC0000CE
:104D1000F82E00207603002010B514220021084848
:104D20000EF0DDF806481222002114380EF0D7F8F4
:104D3000034801210173011D4160016010BD0000A5
:104D4000F42E0020F0B450810C8994818B89D3819A
:104D500048891082CD895582CE8DAE4208D14D8DC5
:104D6000854205D10D8E9D4202D18B8DA34201D08B
:104D7000012300E0002313754885508AC885908977
:104D80008885D0890886F0BC014910460BF0E2BA4C
:104D9000B54D00005081888A9081C88AD081088BE7
:104DA0001082488B5082024910460BF0D0BA0000A6
:104DB000F54D000038B5A0F11804007D0D4600F057
:104DC0000100FFF799FD002108B100910CE0697026
:104DD0001320287054F8220F68606068A860A068EB
:104DE000E860034840680090BDF8000038BD00004E
:104DF0007C4E000070B586B00E460446FFF788FD75
:104E0000002558B3A4F5BC702572048803A9204678
:104E10000DF03EF808B1FE2117E0ADF80040BDF8F6
:104E20001200ADF80200BDF81400ADF80400BDF8A2
:104E30000E00ADF80600BDF81000ADF80800684699
:104E40000DF062F820B140F207112C20FDF75AFD59
:104E5000CDF80050BDF8000006B070BD1B203070CA
:104E6000757054F80A0F70606068B0602089B08176
:104E7000014800680090EDE77C4E0000040000004F
:104E800004000000F0B56FF01F02010C02EA90264A
:104E90001F25A1F5AA4054380DD0A1F5AA405538D8
:104EA00009D0A1F52850AA3805D0A1F52A40AA3882
:104EB00001D0012000E00020002213464FEA020446
:104EC00082EA0107FF431F437F1C0FD006F0010752
:104ED000520842EAC73205F001075B0876086D0800
:104EE000641C43EAC733162CEAD3F0BD0020F0BDA2
:104EF00010B504480BF04FFB0248BDE810400830E5
:104F00000BF049BBCC000020014800F009B80000BC
:104F1000CC000020014800F003B80000D4000020BD
:104F200010B5D0E90021094B094C5343544351407B
:104F300081EAB21282EA41224FEAF141C0E900213E
:104F400043EAD46303EB8303184610BD6037EFC612
:104F5000BB79379E70B54468091D002594F88C0014
:104F60008034C00701D0012070BD486809680C4B2F
:104F700041F607021940E166104020671B2104F149
:104F80006C000BF02EFCA4F8585094F85A00401C0A
:104F900084F85A00E06840F00100E060002070BD35
:104FA0002F4904F710B5041D04F004FA034B41F631
:104FB0000702184011402060616010BD2F4904F7BE
:104FC0002DE9F843037840680F1D00F1800500F5D6
:104FD000A57406464FF000086A7F072128460AF0AC
:104FE00017FEE0B13968184B7868194041F607029E
:104FF000E966104028671B2105F16C000BF0F1FBFE
:1050000085F8568085F81D8094F8681040468DF824
:105010000010009900919DF8001091B902E0012064
:10502000BDE8F8833188A4F86A1084F8690039680B
:10503000E166796821670222044904F160000BF0FF
:105040008FF90020ECE700002F4904F74F0801001A
:1050500070B50D1D446804F0ADF941F60702054B2B
:10506000114094F8EC201840024062F307002860D9
:10507000696070BD2F4904F7416882B001F5A570E1
:1050800091F8B2218DF80020009A00929DF800203E
:10509000002A0BD10988A0F86A101A2180F869103B
:1050A00002220349603002B00BF05AB902B07047D7
:1050B0004F08010070B544680D46037894F89D20B0
:1050C00080340026082120460AF0A2FD20B9207B6A
:1050D000800701D5012070BD94F85D00800719D4C8
:1050E00028460BF0D0F884F8670035F8050FA4F8CF
:1050F00068006888A4F86A0094F85D0040F0020037
:1051000084F85D00C00709D00222114904F15E0055
:105110000BF03AF994F85D00C00710D1E068810700
:1051200003D54F214020FDF7EDFB40F00200E06089
:1051300094F85A00401C84F85A00A4F85860607F24
:10514000012802D1667784F85660002070BD000007
:10515000FD080100044A9268C2F580534B43424364
:1051600003EB223070470000DC000020F8B54468F3
:10517000064604F1800500F07BF894F82810012918
:105180001AD1002818D0706890F852118DF80010CC
:10519000009900919DF8001000F5A57000290BD131
:1051A00021884181697E0173A97E4173BDE8F84081
:1051B000022202490BF0D4B8F8BD000085090100B5
:1051C00000F500610D4A10B500F5006009130013E9
:1051D0004BB292F900404042002140B2A34202DAB1
:1051E00092F9021005E092F90140A34204DD92F920
:1051F0000310084400F30701084610BDDC0000203E
:105200002DE9FC41A0F5FA75A0F5BA7495F86B008C
:105210000CF070FA0646A068FFF7D2FF070021D015
:1052200020460BF0B7FB00281CD0288869460AF0FE
:10523000D8FC18B185217A20FDF764FB761CF1B209
:1052400002233A4668460CF074FA00280AD1064850
:1052500006490079A0FB01650DF035FC8019694114
:10526000C4E90001BDE8FC81DC00002040420F00E1
:105270002DE9F0410746FFF791FA7C68054684F86E
:10528000990080347F2842D094F833007E68A0765D
:105290002946A068FFF75EFFA0601E484079C0B1B4
:1052A000786800F18008D0F88800FFF789FF80B1A6
:1052B00040460BF06FFB60B1786800F5A5780746B3
:1052C00004F0A2FC87F86B00134908F1AA000BF068
:1052D00044F894F91B000021281A00D5404296F8A2
:1052E0002920824210DCFF2A0ED0207F401CC0B251
:1052F000207796F82A20904202D8E07E7F2803D1BA
:105300000020E576207701210846BDE8F0810020E5
:10531000FBE70000DC00002001520000F8B50BF0B4
:1053200055FB04460D466A4600F062F808B10120BC
:10533000F8BD0F48037841788B4201D10020F8BDB9
:105340001A46416808E000BF01EBC206521E56E94A
:10535000027CC6E9007CD2B29DF80060B242F3D86C
:10536000F2B201EBC2015B1CC1E900450370DEE74C
:10537000E800002010B5420703D063214820FDF764
:10538000C1FA20B1034A5170506000201070C8006B
:1053900010BD0000E800002038B50BF017FB6A468E
:1053A00000F026F8002814D00A4A1078401EC1B236
:1053B00011709DF80000526808E000BF02EBC003C6
:1053C000401CD3E90245C3E90045C0B28842F5D389
:1053D000012038BDE8000020014900200870704716
:1053E000E80000200148407870470000E8000020F5
:1053F000F0B5204D002313702B7823B300245B1EDF
:10540000DBB2D5F804C00BE0E5186D080CEBC5065F
:10541000D6E900763F1A8E4101D22C4600E02B4699
:105420001D1B012DF0DC0CEBC406D6E9005680EA0A
:10543000050781EA060E57EA0E0705D0451B71EBFA
:10544000060503D2147010E0147011E00CEBC305D4
:10545000D5E9004580EA040681EA05073E4306D007
:10546000001BA94100D35B1C13700020F0BD13701A
:105470000120F0BDE800002070B50446007C00B3B8
:1054800002281ED05FF0010004F1510184F85000A1
:105490000D46C0B1E07DF0B1D4F81100C4F8510060
:1054A000B4F81500A4F85500207C0BF0BFFA207664
:1054B0000820607694F8500029460BF0A3FAA8B9AA
:1054C0000EE00020E0E70020FEF780F90028EBD195
:1054D00040F2BA4101E040F2BE412D20FDF712FA40
:1054E00094F8500029460BF096FA00B10120A076FE
:1054F000207E30B194F8570004F158010AF03AFBCD
:105500006076FEF7B5FF0C49A0FB012304F14800CB
:105510000BF0FEFB002120460BF0B3FB002084F8CB
:105520005E00A078400705D52046BDE87040002108
:1055300000F0F0BD70BD000040420F0030B50C46D9
:105540008DB005460146242202A80DF04EFC0BA8A2
:105550000BF03BFCA07A8DF8180020788DF808003D
:10556000B4F80100ADF800009DF8000000F0010162
:10557000C0F3400241EA4201C0F3800241EA8201E5
:10558000C0F3C00241EAC201C0F3001241EA0211B5
:10559000C0F3401241EA4211C0F3801041EA80108A
:1055A000ADF80A00207D012806D0022804D040F280
:1055B000E9210620FDF7A6F98DF80C00617A0BA809
:1055C0000BF0EAFB207D0121022802D1607D401C06
:1055D000C1B2A07E401CC2B20BA80BF0A4FBBDF868
:1055E0000A00000701D5002020E00BA80BF0ADFB5E
:1055F000BDF80A10282200F031FE40F2712100F2BD
:10560000DB20B0FBF1F04843D4F8021040F27123E4
:105610000A0A40F271214A43D4F80510090A594395
:10562000904201D8049204E0884201D8049000E03E
:105630000491A07C8DF81700207E012800D0002066
:105640008DF81400686B0AF0FDF8686B0AF0A2F997
:10565000242202A928460DF0C8FB0B98A862BDF8C9
:105660003000A885E07A68B102280BD05FF0010015
:1056700085F85700E068A865208AA5F85C000DB0A1
:10568000002030BD0020F3E70A4A10B50021117058
:10569000094C606000F022F810B140F22E3104E0B5
:1056A000A068002804D140F231312D20FDF72AF9FD
:1056B00010BD0000082F0020F00000200249014822
:1056C0008860704744620000F000002002490860D2
:1056D0008968096808470000F0000020084810B5F4
:1056E000007810B10C24204610BD00241822214659
:1056F00003480DF0F4FB04F0D9F803F0FDFEF2E7E7
:10570000082F0020044910B50978012901D100F0C3
:10571000D5FB002010BD0000082F002002490148E1
:1057200008607047E95F0000FC00002010B50446E7
:105730008078C0F3C00058B13C23FF222046E169C5
:1057400000F0E2FB0222044904F16C000AF008FEBA
:10575000012084F8690010BD1B0C01002DE9F04107
:105760000F00044623D004F1280005460BF016FB79
:10577000B0B9A078C0F3C00050B328460BF0E5FAEA
:10578000064628460BF00AFB301AC0B20BF05BFB52
:105790000146354842681144416028460BF01CFB25
:1057A00028460BF0DEFA014620460BF0A6FA2F4DF4
:1057B00094F85E600021686801800BF017FA608839
:1057C000132813D009DC102836D0122809D131E073
:1057D0002046BDE8F04100F071BB15280FD01D2810
:1057E0000DD040F273612D20FDF78CF80021686820
:1057F0000AF034FC012168680BF0F8F920E001217F
:1058000068680AF02BFC012168680BF0EFF936B1EB
:1058100004F15F0168680AF03CFC012106E004F134
:10582000580168680AF035FC94F8571068680AF067
:1058300036FC05E0062100E0022168680AF00EFC53
:10584000204600F0DDFC60881D2807D0152805D013
:1058500094F83C20A16B68680AF0F0FB39462046BA
:10586000BDE8F04100F0F4B9082F0020F00000205E
:105870002DE9F0412F4D80462878022805D0287860
:10588000032802D040F62D512BE02B4C2668307BAC
:1058900018B1FEF783FF86F82E00D4F804C0002765
:1058A000B8F1000F9CF8000000F00F0627D0216827
:1058B000C00901F1510391F850200CF109010AF0DF
:1058C000C1F8E0B1394660680AF0A8FBB8B12A789F
:1058D00020683146022A07D02A78032A04D040F6ED
:1058E00006512D20FDF70EF8A2682B7852696FF053
:1058F000070606EB8303D2589047064600E00126D0
:10590000A87B18B103F0D2FF03F0F6FD002E0FD0F4
:1059100020680BF0AEFA30B103F0EAFFA0688068AF
:10592000BDE8F04100472068BDE8F04100F0C6BA8C
:10593000BDE8F081082F0020F000002010B50329F9
:1059400002D005290AD102E000F0B2FB03E00449CD
:10595000096809B1884708B1002010BD012010BDB9
:10596000FC000020094A0300106801D000F0A6BA2C
:10597000002909D09168064A096912786FF00F036F
:1059800003EB82028958084770470000F0000020AE
:10599000082F002070B504464088102819D0104DFB
:1059A000A87B20B103F0C8FD402003F08DFF0D4817
:1059B000406804F00FFAA078400704D4002122794F
:1059C000084604F08FFA002004F0B4F80220287092
:1059D00070BD2046BDE870400121FFF7BFBE00004A
:1059E000082F0020F000002010B5124C206800F0B5
:1059F00025F820680BF03DFA002820680BD00E49EE
:105A00000A78022A0BD00A78032A08D040F63741D8
:105A10002D20FCF777FFBDE8104000F04FBAA268D8
:105A20000978D2686FF0070303EB81015158BDE894
:105A300010400847F0000020082F002010B5017B1F
:105A400021B10446FEF7AAFE84F82E000548807BAB
:105A5000002805D003F02AFFBDE8104003F04CBD3C
:105A600010BD0000082F00202DE9F0415C4D0446D8
:105A700086B02878E8BB2078FF284BD04FF000088C
:105A8000A5F80C80C5F8048085F8018085F80280AF
:105A900084F86980534B544E0FCB8DE80F00B068EB
:105AA00040680390684604F019F804F0EDF803F03C
:105AB000FDFE03F021FD4D4804F046FA4C4804F089
:105AC0004DFA04F1280007460BF086F938460BF032
:105AD00048F9014620460BF010F994F90E0004F045
