S02B00002F746D702F6A656E6B696E732D39313038616333372F776F726B73706163652F524E45545F5348495D
S2140000000010002009250100052501000525010036
S214000010052501000525010005250100052501002F
S21400002005250100052501000525010041FF00000A
S2140000300525010005250100D1FE00002DF3000076
S21400004005250100F19900000525010005250100A0
S21400005005250100052501000525010005250100EF
S21400006005250100052501000D4E000005250100AF
S21400007005250100052501000525010005250100CF
S21400008005250100052501000525010005250100BF
S21400009005250100150600000525010005250100BF
S2140000A00525010039070000190700000525010095
S2140000B00525010005250100052501003D9F0300DB
S2140000C0E19E0300DD9E030035970300399F030081
S2140000D0E59E0300FD9E0300E99E030039800300B1
S2140000E07D9F03000525010005250100052501006B
S2140000F005250100F93C0000052501000525010045
S214000100052501000525010005250100052501003E
S214000110052501000525010005250100052501002E
S214000120052501000525010005250100052501001E
S2140001300525010010B5054C237833B9044B13B1DF
S214000140044800E000BF0123237010BDA82800204B
S21400015000000000608C070008B5034B1BB1034984
S214000160034800E000BF08BD00000000AC280020E7
S214000170608C0700154B002B08BF134B9D46A3F55C
S214000180803A00218B460F461348144A121A14F080
S2140001901EFF0F4B002B00D098470E4B002B00D0B5
S2140001A098470020002104000D000D48002802D0CA
S2140001B00C4800E000BF14F0A1FE2000290039F032
S2140001C02FFF14F075FE00BF00000800001000208E
S2140001D00000000000000000C41C0020D81601200B
S2140001E000000000000000000B4B02461B788BB19D
S2140001F00A4B1B78834234BF00200120084B1B7833
S2140002003BB1084B1B7843FA02F212F0010F08BF0D
S214000210002070470120F1E70010002001100020A8
S214000220C82800200210002070470000012208B5F0
S214000230074B1A700022074B1A700422064B1A70DE
S2140002401F22064B1A7003F08FFD054B186008BD81
S21400025000100020C82800200110002002100020F6
S214000260C42800200F207047042208B5114600233A
S214000270032001F067FD002008BD12F044B8704767
S214000280002303607047000038B504460D4601B1F0
S21400029018B93721034800F03FFC23682B6025601F
S2140002A038BD00BFB8B9060030B548B142B139B163
S2140002B00346013A013912F8014F14B900221A70A8
S2140002C030BD1D1AA942F9D903F8014BF3E70346DE
S2140002D038B100201A5C22B1814200D1704701304B
S2140002E0F8E770474FF0FF31FFF7F1BF70B50C46E7
S2140002F01646054660B15AB151B1FFF7F3FF844286
S21400030006D9211A32462844BDE87040FFF7CCBF14
S21400031070BD0000F0B5D8B1D1B10E4E421E3746C2
S214000320013912F8014F2346A05D00F003000128B2
S21400033011F8010F08BF04F120033D5C05F003052A
S214000340012D08BF2030181A01D1002CE9D1F0BDCC
S2140003500120FCE740DE060040B1054A1378012B79
S21400036004D80370013300201370704701207047D3
S214000370C928002010B5144611F0CCFA20600020E1
S21400038010BD08B511F0ACFA002008BD05490A6892
S2140003901318054883428CBF4FF0FF320B6010469F
S2140003A0704700BF0410002000800120D0E9000341
S2140003B01847836800681847C36800681847436989
S2140003C00068184738B50D460446E0B101281CD031
S2140003D002281CD0032803D11F23EB40DB0704D4DC
S2140003E04FF47F710B4800F097FB3023012103FB8D
S2140003F004F042F2100300F1804001FA05F500F522
S2140004007030C55038BD7F23E7E70323E5E73F2379
S214000410E3E700BF68BA060038B50D460446E0B10B
S21400042001281CD002281CD0032803D11F23EB4030
S214000430DB0704D440F22B410B4800F06DFB302361
S214000440012103FB04F041F2100300F1804001FAA1
S21400045005F500F57030C55038BD7F23E7E7032368
S214000460E5E73F23E3E700BF68BA060008B58378F0
S2140004704178B3FA83F3042200785B0901F062FC4A
S214000480002008BD034659789B7800780BB9FFF723
S21400049099BFFFF7C1BF034659789B7800780BB920
S2140004A0FFF7BABFFFF78EBF38B504784578D4B1EA
S2140004B0012C1AD0022C1AD0032C03D11F22EA409A
S2140004C0D30704D440F246410A4800F025FB302307
S2140004D0012243F21001634303F18043AA4003F56F
S2140004E070335A5038BD7F22E9E70322E7E73F2200
S2140004F0E5E700BF68BA060070B50578044646789A
S214000500D5B1012D1AD0022D1AD0032D03D11F22EA
S214000510F240D30704D440F216410A4800F0FCFA31
S21400052030225543084A5359F34003F00100A3789C
S2140005300BB980F0010070BD7F22E9E70322E7E7F0
S2140005403F22E5E768BA060010C0034038B5124BF4
S21400055005461B78DBB1E0B101F0ABFA0F4A002389
S2140005601146147B54B92B6001251A0101EB0313C5
S2140005701D738C5001F0A3FA204638BD0133082BBA
S21400058002F11002EDD101F09AFA0548F5E70548A8
S214000590F3E70548F1E700BF4C2A0020CC280020EE
S2140005A0048000F0028000F0018000F0154B13B5C7
S2140005B01868002301908DF8043001F07AFA124B87
S2140005C01C7824B101F07BFA104802B010BD01225D
S2140005D01A7001F074FA0E4B01A81C731C7783F88E
S2140005E02C4083F83C4083F84C4083F85C4083F80A
S2140005F06C4083F87C4008238DF8073001F0F0FB50
S2140006002046E2E716BB06004C2A0020038000F0D6
S214000610CC2800202DE9F843174B1F6D5B6D1F405B
S21400062000D5FEE701260025144CDFF85480DFF8DD
S2140006305490374217D02368C8F800609BB1A16871
S214000640284601316268A1609847637B012B0AD176
S21400065048B909EB45131A7B60F341021A731A7FF7
S21400066060F341021A770135082D4FEA460604F179
S2140006701004DED1BDE8F88300000440CC2800203A
S214000680502004404C29002070B5044601250C4E2D
S21400069004B970BD94FAA4F3B3FA83F305FA03F22F
S2140006A006EB031124EA02044A68002AF0D0D8B206
S2140006B00B7B13B189689047EAE79047E8E700BFED
S2140006C0502A002008B5192001F006FA28B14FF08C
S2140006D00072074BC3F880211A601A2001F0FCF95B
S2140006E028B14FF08062024BC3F880211A6008BD23
S2140006F000E100E038B505460C4601F0DAF90022C4
S214000700044B03EB05135C601A73BDE8384001F038
S214000710D6B900BF502A0020064BD3F82404D3F8DD
S2140007202024104042F2204200F055309850FFF747
S214000730ABBF00BF00C00340064BD3F82404D3F879
S2140007402024104042F2204200F0AA309850FFF7D2
S2140007509BBF00BF00C00340024B1968024B1868DD
S21400076017F0BCB90C1000200810002070470000DD
S21400077037B5920004460D4601926BF015F9431CFE
S2140007800BD060B929462046019A14F0EBFB0028EE
S214000790044808BF002003B030BD0348FBE7034809
S2140007A0F9E700BF10E000F021E000F024E000F0E0
S2140007B013B5044601A801F0E1FC9DF806300122BD
S2140007C023804FF4807300206380054B9B680A33B8
S2140007D003F01F0302FA03F3636002B010BD00BF0C
S2140007E00080E00F01F04ABB08B501F03BFB00209B
S2140007F008BD10B5044644EA010313F00303084697
S21400080009D1934201D1002010BD54F8231040F8BE
S21400081023100133F5E72146920014F0B1FBF2E70E
S21400082010B504466BF0B8F8431C15D0B0B90C4BA5
S21400083020469B680A3303F01F020123934023F0EF
S21400084003032344984201D1002010BD50F8042B26
S2140008500132F7D00348F8E70348F6E70348F4E721
S2140008600080E00F0EE000F021E000F024E000F051
S21400087008B501F017F9014B186008BD88FC002088
S214000880014B186801F012B988FC00207047000080
S2140008902DE9F0410446944F8AB003AE0D460FCFC3
S2140008A00FC697E8070086E80700002C00F01A81BC
S2140008B01DB98E480AB0BDE8F081002674220021DA
S2140008C0204614F084FB2B68894A2665934240F044
S2140008D0AE80212384F84D304FF480238548C4E948
S2140008E00B032B68AC4623600023271D84F8543086
S2140008F0BCE80F000FC79CE80F0087E80F006B7E70
S214000900012B08BF8DF81A30AB7E002B40F0AA8072
S214000910ADF81C302B7E012B03BF00238DF8193059
S2140009204FF47A73EB6805932B691A1F0C2AC0D80C
S214000930033B286803A98DF8183001F0D1FCAB6999
S21400094023F47F0323F47F4323B92268936843F498
S214000950803393602B7A2F79687947EA03476B7A5E
S214000960A97940EA0340AB7A634A95F81BC041EA8E
S2140009700341730113442E36BCF1000F40F0828011
S2140009804FF01D0C02EB4612C3F8ACC55760C3F817
S214000990BC05C3F8C015E97AEA7942EA0142C3F811
S2140009A0B025E37BE27A84F84530237F207A677AA5
S2140009B0A57A217B94F80D80A67B84F84420002B32
S2140009C06BD10422019301F0BDF9019B012241463F
S2140009D0384601F0B7F9A27F3146012A8CBF0123C1
S2140009E0019B0422284601F0ADF9E37F3BB90123C1
S2140009F0042294F8451094F8440001F0A3F901F09D
S214000A0058F83E4B1A78002A61D101221A7001F07C
S214000A1056F803F05BFFFFF7C9FD002104F1240040
S214000A20FFF794FD0146002854D0354842E7354A82
S214000A30934209D1222384F84D304FF4A023324943
S214000A400126C4E90B134CE7304A93427FF431AFDA
S214000A50232384F84D304FF4C0232D4A0226C4E9E0
S214000A600B233EE7012B02D14FF4007350E7022B15
S214000A7002D14FF480734BE7032B7FF41AAF4FF489
S214000A80407345E71C2502EB4612C3F8AC55576089
S214000A90C3F8BC05C3F8C01583E70023012201F0A4
S214000AA051F9002304224146384601F04BF9A37F52
S214000AB00222012B94BF002301233146284601F071
S214000AC041F9E37F002B9AD10123022291E700F03F
S214000AD0F6FFA0E704F12800FFF738FD00283FF4F2
S214000AE0E9AEA2E70B48E5E640BB0600022000F0B0
S214000AF0008005400200040000C003409032002041
S214000B00092000F000C00540020005000000064075
S214000B1002000600012000F0FEE7000008B5344B96
S214000B20984250D028D8334B984246D018D8324BEB
S214000B3098423FD00BD800283ED0304B984239D050
S214000B402F4841F2B701FFF7E7FF002034E02D4BB6
S214000B5098422FD02C4B9842F2D12C4B586E2BE05B
S214000B602B4B98422CD003F5371303F5D8639842E5
S214000B70E6D1264B986F1FE0264B98422FD00CD814
S214000B80254B984223D0254B984224D0244B98429C
S214000B90D6D11E4BD3F884000EE0224B984222D0CA
S214000BA003F5740303F510539842C9D1174BD3F8D5
S214000BB0980001E0154B986D08BD144B186FFBE7C5
S214000BC0124B586FF8E7114BD3F88000F4E70F4B41
S214000BD0D3F88800F0E70D4BD3F88C00ECE70B4B0E
S214000BE0D3F89000E8E7094BD3F89400E4E700BF99
S214000BF080BA8C01405DC60080841E0040420F0013
S214000C005CBB060000093D00C0CF6A000080E00F14
S214000C100024F400007E560380D54302006CDC02FC
S214000C200048E8010090D00338B50F4B0546D3F8CE
S214000C3080300C4603F00303022B09D0032B0FD0A1
S214000C400A4840F64571FFF767FF0023184602E0A2
S214000C5011F0A4FC0B2305B1286004B1237038BD45
S214000C6011F0CEFC0523F6E7008000405CBB0600D2
S214000C7038B5154B0546D3F820310C4603F007036C
S214000C80013B032B17D8DFE803F0020A0E1211F01F
S214000C905FFC042305B1286004B1237038BD11F051
S214000CA093FC0323F6E711F0ABFC0523F2E711F003
S214000CB0A3FC0223EEE7054840F6BE71FFF72CFFC3
S214000CC000231846E6E700BF008000405CBB060035
S214000CD073B50024154B0194D3F88031064603F013
S214000CE00303022B0D460FD0032B12D0012B15D178
S214000CF0214601A8FFF7BCFF0D230EB1019A326012
S214000D0005B12B7002B070BD11F07AFC052301907E
S214000D10F3E711F071FC02230190EEE741F2E201E5
S214000D200348FFF7F9FE2346E7E700BF00800040D0
S214000D305CBB060038B5124B0546D3F840310C466E
S214000D4003F00303022B0BD0032B0DD0012B0FD186
S214000D5011F09AFC082305B1286004B1237038BD51
S214000D6011F098FC0723F6E711F091FC0923F2E74F
S214000D70044840F6EC71FFF7CFFE00231846EAE77A
S214000D80008000405CBB060038B5124B0546D3F821
S214000D9060310C4603F00303022B0BD0032B0DD05F
S214000DA0012B0FD111F070FC082305B1286004B1A7
S214000DB0237038BD11F06EFC0723F6E711F067FCD0
S214000DC00923F2E7044841F21A01FFF7A5FE0023C3
S214000DD01846EAE7008000405CBB060038B5154BB5
S214000DE00546D3F800320C4603F00703013B032BFD
S214000DF018D8DFE803F0020A0E1211F045FC0823AB
S214000E0005B1286004B1237038BD11F043FC0723F8
S214000E10F6E711F03CFC0923F2E711F0BFFB0C23C8
S214000E20800AEDE7044841F29811FFF775FE0023AB
S214000E301846E5E7008000405CBB060038B5154B59
S214000E400546D3F808320C4603F00703013B032B94
S214000E5018D8DFE803F0020A0E1211F015FC08237A
S214000E6005B1286004B1237038BD11F013FC0723C8
S214000E70F6E711F00CFC0923F2E711F08FFB0C23C8
S214000E80800AEDE7044841F2CC11FFF745FE002347
S214000E901846E5E7008000405CBB060038B5124BFC
S214000EA00546D3F840320C4603F00303022B0BD062
S214000EB0032B0DD0012B0FD111F0E6FB082305B153
S214000EC0286004B1237038BD11F0E4FB0723F6E771
S214000ED011F0DDFB0923F2E7044841F22B11FFF77E
S214000EE01BFE00231846EAE7008000405CBB0600B5
S214000EF038B5104B0546D3F800310C4603F0030313
S214000F00022B0BD0032B0DD0012B0FD111F05CFB65
S214000F10032305B1286004B1237038BD11F0BAFB75
S214000F200723F6E711F066FB0623F2E7012300200D
S214000F30EFE700BF0080004041F671320F4B10B55E
S214000F40D969DA639A680E4C22F44012A04288BF30
S214000F5042F480129A600B4A0B4CD2F81832A04228
S214000F6023F0020388BF43F0020301F48031C2F885
S214000F70183211B10022014BDA6310BD00000340A5
S214000F80C017530200C0074080F0FA0208B511F0FF
S214000F9017FBBDE80840FFF7CFBF0000032810B5D9
S214000FA01BD005D8012805D0022810D000240CE05C
S214000FB00F28FBD10B4B1C6FC4F30134022C04D159
S214000FC040F25B210848FFF7A7FD601C10BD054BEB
S214000FD0D3F89040C4F30464F7E7024B1C6FC4F3E5
S214000FE08024F2E7008000405CBB06001FB50023AB
S214000FF00293252873D8DFE800F013191C252A343D
S214001000394F54595E63686D72193E7272541925D1
S2140010102A2534194F256D39393939252525595E44
S21400102011F0A2FA0290029804B010BD11F0B6FAC0
S214001030F8E711F099FA04460220FFF7AFFFB4FB79
S214001040F0F0EFE711F0AAFA04460320F5E711F0F6
S214001050A5FA04460320FFF7A1FFB4FBF0F0400812
S214001060E0E7002102A8FFF733FEDCE7002102A834
S214001070FFF7FEFDD7E703931C4B1B685B0705D500
S21400108011F08CFA0390039B0293CCE70DF1070155
S21400109003A8FFF74FFEF6E7002102A8FFF74AFE77
S2140010A0C1E7002102A8FFF76FFEBCE7002102A8F7
S2140010B0FFF794FEB7E7002102A8FFF7BFFEB2E7EE
S2140010C0002102A8FFF714FFADE7002102A8FFF7F2
S2140010D0ABFDA8E7002102A8FFF7E0FEA3E740F279
S2140010E07E310348FFF718FD9DE700BF10E000E0E3
S2140010F05CBB060008B50120FFF778FFBDE8084096
S214001100034988428CBF02210121032000F002B867
S21400111080F0FA02032810B53CD00AD801280AD07D
S214001120022825D04FF43A71BDE810402148FFF759
S214001130F3BC0F28F6D14C1E012C06D9042904D086
S21400114040F2A1211B48FFF7E7FCFFF71FFF00F066
S21400115035F8194A136F23F4405343EA04331367F0
S21400116011F01CFAFFF7E8FEBDE81040FFF7C2BF1B
S2140011704C1E1F2C04D94FF437710E48FFF7CCFCD9
S2140011800D4BD3F8901021F0F85141EA0461C3F8F2
S214001190901010BD4C1E012C04D940F2E2210548E7
S2140011A0FFF7BAFC044B196F21F4806141EA8421F1
S2140011B01967EEE75CBB06000080004002210320B2
S2140011C0FFF7A8BF002307B58DF8023025287CD886
S2140011D0DFE800F0137B7B7B7B2E3851575D63691D
S2140011E06F757B7B3E7B7B577B7B7B7B2E7B517B34
S2140011F075383838387B7B7B5D63354B1B6F03F067
S2140012000703013B032B0DD8DFE803F00A020608AC
S21400121004238DF8023010E00323FAE70623F8E7EC
S2140012200223F6E740F28C412A48FFF775FC04E0FB
S21400123000200DF10201FFF74BFD9DF8020003B000
S2140012405DF804FB00200DF10201FFF711FDF4E745
S2140012500193214B1B685B0707D511F09FF90B2301
S2140012608DF803309DF80330D3E70DF1030101A894
S214001270FFF760FDF6E700200DF10201FFF75AFDCB
S214001280DBE700200DF10201FFF77EFDD5E7002029
S2140012900DF10201FFF7A2FDCFE700200DF10201DC
S2140012A0FFF7CCFDC9E700200DF10201FFF720FE95
S2140012B0C3E700200DF10201FFF7B6FCBDE70020F2
S2140012C00DF10201FFF7EAFDB7E740F23651ABE752
S2140012D0008000405CBB060010E000E070B50C46E5
S2140012E0252800F26D81DFE810F026006B016B0107
S2140012F06B016B0161007C00B600CC00E2000101CE
S21400130020013E0155016B016B0192006B016B01E0
S214001310CC006B016B016B016B0161006B01B600C9
S2140013206B0155017C007C007C007C006B016B012E
S2140013306B01E20001018B1E042B2CD8DFE803F0C2
S214001340281E332B030000250426FFF71FFEFFF799
S21400135035FF9D4A136F23F007033343136711F0DD
S2140013601DF9FFF7E9FDFFF7C5FE35B9032C04D1DB
S21400137042F228030121954AD15070BD41F228025D
S2140013800121924B03269D6A9950C5F34005DCE780
S21400139000250126D9E7002540F277518C48FFF753
S2140013A0BBFB2E46D1E700250226CEE7052912D044
S2140013B00D2912D0022912D040F2BC518448FFF702
S2140013C0ABFB00228049D1F8803123F0030313439E
S2140013D0C1F88031D1E70222F4E70122F2E70322C6
S2140013E0F0E78C1EE4B2032C0AD87A4B195D764AD5
S2140013F0D2F8203123F007030B43C2F82031BCE7B4
S21400140040F2F3517248FFF787FB0021EFE70B2904
S21400141017D00DD8CC1F022C0CD86F4A536A43F055
S214001420010353626D4A136823F004031360A4E7B4
S2140014300E29F2D040F21B61BDE870406448FFF709
S2140014406BBB654A536A23F001035362634A136811
S21400145043F00403EAE7CC1FE4B2022C0AD8604B40
S214001460195D594AD2F8403123F003030B43C2F802
S214001470403182E740F237615548FFF74DFB0021C7
S214001480EFE7CC1FE4B2022C0AD8564B195D4E4A41
S214001490D2F8603123F003030B43C2F860316CE7E7
S2140014A040F252614A48FFF737FB0021EFE7CC1FB6
S2140014B0052C12D8DFE804F003180D11110F0222D4
S2140014C04149D1F8003223F007031343C1F8003234
S2140014D053E70322F4E70422F2E740F297613C4820
S2140014E0FFF71AFB0022EBE70122E9E7CC1F052CE9
S2140014F012D8DFE804F003180D11110F022232494A
S214001500D1F8083223F007031343C1F8083234E752
S2140015100322F4E70422F2E740F2B7612C48FFF713
S214001520FBFA0022EBE70122E9E74C1E062C11D855
S214001530DFE804F015101710100E040002222249EE
S214001540D1F8003123F003031343C1F8003114E748
S2140015500322F4E740F2D3611D48FFF7DDFA0022CC
S214001560EDE70122EBE7052910D00B2910D040F259
S214001570FC611748FFF7D0FA00221349D1F88030F3
S21400158023F003031343C1F88030F6E60322F4E7A2
S2140015900222F2E7CC1FE4B2022C0AD8124B195DE5
S2140015A0094AD2F8403223F003030B43C2F8403214
S2140015B0E3E640F273710648FFF7AEFA0021EFE764
S2140015C040F6250138E700BF0080004000C000401C
S2140015D05CBB060009BC060000C0074010E000E047
S2140015E00DBC06000DBC06000DBC060008B5FFF7D6
S2140015F0E9FD07280ABF024B4FF6FF70188808BDA2
S2140016002C10002042F2040201212DE9F84F044676
S214001610774B5D68995005F001059E6916F0030644
S214001620FBD12268734B9A4204D84FF41261724879
S214001630FFF772FA2268714B9A4204D940F62111DC
S2140016406D48FFF769FAA388B3F5967F04D840F68D
S21400165024116948FFF760FAA388B3F5805F04D3C6
S21400166040F625116448FFF757FAE388B3F5805F24
S21400167004D340F626116048FFF74EFA604A00236E
S214001680114620681768B84202D35768B84205D991
S2140016900133192B02F11002F4D1002301EB0313DE
S2140016A0D3E9029028B1FFF739FA00F07F0049EA43
S2140016B000090020FFF786FD0428074665D1FFF7DE
S2140016C065FCFFF77BFD0120FFF768FC0128064656
S2140016D056D10221FFF71EFD0127DFF828A1DAF810
S2140016E00C3013F00608FAD1DAF808B0CAF80890F9
S2140016F0DAF8083009F4F81903F4F813994548D0D5
S21400170040F672113C48FFF707FA4FF00108CAF896
S21400171008B0002D5ED10020FFF754FD042827D125
S2140017201FB131460120FFF7F5FC10F037FF2368A4
S2140017300646834204D240F69A112F48FFF7ECF98A
S21400174010F006FFB04204D240F69B112A48FFF77D
S214001750E3F9246810F0FCFE844204D040F69C11A5
S2140017602548FFF7D9F93046FFF7E6FBFFF7C2FC3E
S214001770B8F1000F0BD16B1E58425841BDE8F88FE8
S214001780022802D139460120A4E70027A5E7002059
S214001790F4E7A288E388164D43EA0243EB600B2089
S2140017A0217AFFF79BFDE37A617A002B237B14BF37
S2140017B004220022002B18BF4FF04008A37A43EA09
S2140017C04103134343EA0803AB60206810F0C6FEEB
S2140017D04FF0000842F210020721054B995041F2E3
S2140017E00402012199501D6915F00705FBD092E708
S2140017F000C001409FBB0D005CBB060000B4C404E3
S21400180010BC06000000014070B5037804460F2B9C
S21400181004D940F621216B48FFF77EF963780F2B39
S21400182004D940F624216748FFF776F9A3780F2BF2
S21400183004D940F627216348FFF76EF9E3780F2BAB
S21400184004D940F62A215F48FFF766F923790F2B63
S21400185004D940F62D215B48FFF75EF963793F2BEC
S21400186004D94FF423615748FFF756F9A3793F2B65
S21400187004D940F633215348FFF74EF9E379032B9A
S21400188004D940F636214F48FFF746F9237A032B52
S21400189004D940F639214B48FFF73EF9637B012B0C
S2140018A004D940F63C214748FFF736F90020FFF7F9
S2140018B089FC03287DD045F60E03434A0221C2F870
S2140018C0803041F22803D15042F228030121D15042
S2140018D0916D11F48031FBD1637820781B0543EAC3
S2140018E00063A079257C0343E078667C43EA0043E6
S2140018F0207943EA0033607943EA801313619369E1
S214001900E07A03F000430343E07943EA8063207AF9
S21400191043EA0063607A43EA0043A07A43EA00237E
S2140019209361637B126A002B18BF0821207B22F08C
S2140019300D0243EA020343EA800341EA0301224B15
S214001940A27B1962996A4FEA421233D1E07B21F0FA
S214001950330142EA001218460A4342F001029A6234
S2140019601A4A996D32EA0101FBD141F2280202219E
S2140019709950836D5B00FCD40369A27823F470034E
S21400198043EA025303614FF0004241F21803C2508B
S2140019901DB942F228030222C25026B942F2280399
S2140019A00121094AD150A37C1BB1074B084AC3F852
S2140019B0802070BD21F0330131430A4342EA4502DC
S2140019C09A62F0E75CBB060000C0004003000140DE
S2140019D0F1A7FFFF014B93F90000704791320020FA
S2140019E010B583780446072B04D940F69F31284863
S2140019F0FFF792F8E378032B04D940F6A131244888
S214001A00FFF78AF82378032B04D940F6A331204841
S214001A10FFF782F894F90130002B04DA40F6A5317E
S214001A201B48FFF779F84FF4D1511A4B6278022021
S214001A30596241F204014F2A585042F204014FF015
S214001A40010028BF4F2258501969C903FCD42178D9
S214001A5042EA01225A61E278A178120142EA0122A2
S214001A6061790A43217942EA41029A60E279A179D2
S214001A70120142EA4112617A0A43217A42EA41029D
S214001A805A60A27A12B16FF4D1525A6210BD00BFEA
S214001A905CBB060000000240014B1880704700BF88
S214001AA02C100020EFF3108072B6704700B962B6B3
S214001AB07047EFF31180302383F31188704780F36B
S214001AC011887047034B5868C0F30800003818BFE9
S214001AD00120704700ED00E038B5C5B23C2D044645
S214001AE004D940F21F310748FFF716F8064B640981
S214001AF053F8240005F01F05E840C04300F001003D
S214001B0038BD00BFA0BD060000E100E0704770478A
S214001B100A4A10B51369044643F00403136102F041
S214001B2045FDFFF7F3FF30BFFFF7F1FF02F052FD70
S214001B301CB9BDE8104010F031BD10BD00ED00E04E
S214001B40084A10B51369044643F00403136102F013
S214001B502DFD30BF02F03EFD1CB9BDE8104010F070
S214001B601DBD10BD00ED00E0704770474FF04022ED
S214001B70D36E017923F030030B43D3667047000021
S214001B801F2970B504460D46164603D9912107480D
S214001B90FEF7C2FF36B104F58054012101FA05F5BF
S214001BA0256070BD04F50054F7E700BF4EBE060082
S214001BB038B50D460446E0B101281CD002281CD0DA
S214001BC0032803D11F23EB40DB0704D440F22B414C
S214001BD00B48FEF7A1FF3023012103FB04F041F27E
S214001BE0100300F1804001FA05F500F57030C5508D
S214001BF038BD7F23E7E70323E5E73F23E3E700BF9E
S214001C0068BA060038B50D460446E0B101281CD077
S214001C1002281CD0032803D11F23EB40DB0704D483
S214001C204FF47F710B48FEF777FF3023012103FB4B
S214001C3004F042F2100300F1804001FA05F500F5C9
S214001C407030C55038BD7F23E7E70323E5E73F2321
S214001C50E3E700BF68BA060070B5054614460E46B0
S214001C60FFF720FF2B6883EA040202EA06014B40D6
S214001C702B60BDE87040FFF719BF00002DE9F34761
S214001C800D4614461F4606469DF828909DF82C8063
S214001C90002843D0012843D0022843D0032803D18C
S214001CA01F22EA40D30703D4BF211F48FEF734FFA4
S214001CB085EA040333F0030303D0C1211A48FEF774
S214001CC02BFF072C12D803214FEA840A01FA0AF1E7
S214001CD0164806FA0AF20191FFF7BEFF05F0030266
S214001CE00199134802FA0AF2FFF7B6FF3A46214670
S214001CF01048FFF745FF4A4621460F48FFF740FFCA
S214001D00012342F220420D49A3408B504246214611
S214001D100B4802B0BDE8F047FFF732BF7F22C0E7AE
S214001D200322BEE73F22BCE7FBBE060000C403401A
S214001D3008C4034010C4034014C4034000C003405A
S214001D4024C40340F8B50D4616461F46044658B34D
S214001D5001282BD002282BD0032803D11F22EA40CB
S214001D60D30704D44FF4B0711A48FEF7D5FE26B157
S214001D7029462046F7B1FFF71BFF3023072D4FF00B
S214001D800F0103FB04F318D8A80006FA00F28140FE
S214001D9011481844FFF760FFDEB929462046A7B170
S214001DA0BDE8F840FFF704BF7F22D8E70322D6E756
S214001DB03F22D4E7FFF726FFDFE7A5F10800800003
S214001DC006FA00F281400548E3E7BDE8F840FFF771
S214001DD019BFF8BDFBBE060004C003400CC003409C
S214001DE010B5044618B991211B48FEF795FE2378D6
S214001DF01B0613F0604F03D092211748FEF78CFEA7
S214001E00E3780F2B03D9A3211348FEF785FE0122A2
S214001E10124B5A60227812069A606178A27842EADB
S214001E2001429A61FF229A6200229A631A644FF076
S214001E3000424FF0FF315A6542F2500299504FF47B
S214001E400011074AC2F88011E3781B01DBB282F862
S214001E501533116010BD00BFA9BF06000000044086
S214001E6000E100E041F67132034B0121DA6342F2F1
S214001E700C029950704700BF0000034041F67132D3
S214001E80044B0121DA6342F20C0299500022DA6315
S214001E90704700BF00000340262808B504D8222853
S214001EA008D878B1012812D00B48B621FEF734FEC8
S214001EB0002007E02438022803D8DFE800F00A04F0
S214001EC00600012008BD0420FCE70520FAE70320F1
S214001ED0F8E70220F6E700BF04C10600012810B5A7
S214001EE00C460DD02338032803D8042903D8074B03
S214001EF05C5C204610BDF6210548FEF70DFEF8E7AF
S214001F000229F6D940F20711F6E700BFB1C1060074
S214001F1004C10600021E30B54FF000000CBF0C25B1
S214001F20042547F60774084952B9831D51F8233033
S214001F30234023B101308542F6D14FF0FF3030BD4B
S214001F4000F11203F2E700BF00800340F8B5054633
S214001F50C2F3062702F0070479B90B2804D94FF418
S214001F60FC711148FEF7D8FD104B44EA072444F4F0
S214001F704024063543F82540F8BD032804D940F22E
S214001F80FD110948FEF7C8FD21463846FFF7A6FFB3
S214001F9006463846FFF780FF044B46EA0020123517
S214001FA043F82500E8E700BF04C1060000800340B0
S214001FB00A4392B20021FFF7C9BF0000B2F5805F66
S214001FC070B505460E4614460DD34FF40B710848FF
S214001FD0FEF7A2FD24F0030202F1804202F5603211
S214001FE026B9156001E0002AF4D170BD2D02F8E78D
S214001FF004C106004FF090435A6812B19A6A002A4C
S214002000FAD17047022838B505460C4603D94C214C
S2140020100C48FEF781FDE378627821785B0143EA9D
S214002020820322790B4343EA02130C226A4302F12D
S21400203090421363012902BFA278034B43F8252080
S21400204038BD00BFB6C10600D080034008B54FF0CB
S21400205090435A6802B960B15B680BB1FFF7CAFFDC
S2140020604FF0904130B10120074B1860FFF7C2FFD8
S214002070C86008BDFFF7BEFF0223CB60FFF7BAFFBC
S2140020800122024B1A60F4E70410004804200048BE
S2140020904FF090435B6870B50BB1FFF7ABFF0121C3
S2140020A0104B4578196083780679002BC37814BFE7
S2140020B002240024002B14BF042200224379DB00F4
S2140020C043EA06132B43234313434FF09042936097
S2140020D0054B19600378002B14BF0B460223D36010
S2140020E070BD00BF0420004804100048436813B9C0
S2140020F0416070475B685A68012AFBD15960704797
S214002100836813B9816070475B685A68012AFBD1FF
S21400211059607047C369032B03D9DC210448FEF7D6
S214002120FBBC00EB83020133D160C361704700BF84
S21400213064C20600C369042B16D84FF09842116C8F
S214002140C902FCD504339B0013650168103B11607F
S21400215041680C30116050F8041C034411604FF0C5
S2140021609842984204D17047F5210348FEF7D4BC44
S21400217050F8041B1160F4E764C20600054B5B6967
S214002180C3F38512827003F03F021B0B427003708C
S214002190704700BF00C0074040F6B732064B5B688A
S2140021A09BB293429FBF4FF47A72B3FBF2F3034A9B
S2140021B0D05C88BF002070470080E00F10C3060088
S2140021C00D4B984208D1A3F50033C3F88411C36DB4
S2140021D043F08003C3657047084B984204D1A3F5CB
S2140021E01033C3F89411F2E7054B984204BFA3F5E9
S2140021F02033C3F8A411EAE70080054000C005407C
S2140022000000064070B506460C46154622B94FF447
S21400221022710C48FEF780FC1CB90320FEF7E6FE90
S21400222004466D00013CB4FBF5F4074B250213EAA7
S214002230042304D040F2A5210248FEF76DFCF561A8
S21400224070BD00BF13C30600070080FF204B10B50B
S214002250984204460CD003F58043984208D003F514
S2140022608043984204D040F234411A48FEF754FCAA
S21400227041F204030122E25040F6AA6341F205024D
S21400228063610023A360E365E26042F248021249FC
S2140022902361E361E364A1500D4AA365944206D02E
S2140022A00E498C4203D001F580418C420BD19442FA
S2140022B0236506D0094B9C4203D003F580439C421D
S2140022C001D10023636542F204030122E25010BDEF
S2140022D00080054013C30600FFFF010000C0054054
S2140022E038B52D4B044698420D460CD003F5804376
S2140022F0984208D003F58043984204D040F25B3100
S2140023002648FEF709FC2046FFF7A0FF41F204032B
S2140023100122A97BE2502A8AA368002914BF4FF441
S2140023208061002142F0010213432A7D0B43002AFC
S21400233014BF4FF000520022A360A3681343A360AB
S214002340AB7C1BB12046E97CFFF73AFFD5E90112CA
S2140023502B7B204643F48053E360FFF753FF6B7BF1
S2140023600BB1102363616B7D1BB1A36843F480330C
S214002370A360AB7D1BB1A36843F40043A360EB7D71
S2140023802A7E1B07120503F0E04302F4E002134323
S214002390A3652B78636138BD0080054013C3060033
S2140023A083695A06FCD5C16383699B06FCD5406ADF
S2140023B0C0B2704738B50446054D30F07AFC0FCCF5
S2140023C00FC594E80F0085E80F00002038BD00BF59
S2140023D09432002047F6FF739A42F0B563D0032983
S2140023E063D8334BCE0003EBC10013F8311084786A
S2140023F0012913D10025C3781B1B9D4202D3E01888
S214002400C0B2F0BD591B4668A3EB510136F9116006
S2140024109642D4BF0D4601F1FF33EEE74068002830
S214002420EFD0B0F90050954204DBB0F90250954267
S214002430B8BF154682883344FF2A19BFC82228270A
S214002440B0F90620B0F90870A2EB05020CBF012116
S214002450002192FBF7F25F780A447B1E934228BF66
S21400246013464FF47A7E00EBC306B168F288B44692
S21400247015FB0212194622EAE272013302F5FA72DD
S2140024809F42B2FBFEF204D9BCF80CC00836944555
S214002490EBD200EBC1008088904228BF1046A042D5
S2140024A038BF2046ACE7FF20ABE70020A9E700BF17
S2140024B0943200200329F0B553D82B4B03EBC1040C
S2140024C013F831306568012B0FD1E378A178934279
S2140024D094BFC1EB0302C1EB02025B1AD2B29A426E
S2140024E0C8BF002235F91200F0BD002D39D0A37800
S2140024F0934202D3B5F90200F6E7E378B5F9000097
S2140025009342F1D9AB886178A3F1FF0401396342A5
S21400251005F10406C9B2634105F10C071FFA82FCF7
S214002520DCB2A14216D806EBC3014FF47A735A43C5
S214002530B1F902404B68D21A04EBD47302EB630283
S21400254092FBF4F29042CFDBB5F902009042CBDC6E
S21400255010B2C9E737F833E05C1CE645E3D3234600
S214002560DEE70248C0E700BF943200200080FFFF8D
S21400257008B50448FFF71EFFBDE80840012030F00C
S2140025809ABB00BFC4C30600002307B5CDE90033DD
S214002590012369464FF0FF308DF8023030F0FEFA26
S2140025A003B05DF804FB70470020704700207047BA
S2140025B010B54FF42F720021044612F008FD0023D8
S2140025C08022C4E92323084AC4F8943062600122BA
S2140025D084F898302272C4F8AC3204F19C00BDE84E
S2140025E01040FDF74DBE00BFCC34070010B5D0F844
S2140025F0A0400A4674B900F007FD044640B12D28F5
S21400260096BF074B074953F82010074801F036F8E5
S214002610204610BDD0F8A4101046A0470024F7E7C7
S21400262008C60600B0C40600D176070038B50123F8
S21400263000F1090504460372284613F05FF958B105
S214002640204600F081FE29462046FFF7CFFF2046B1
S214002650BDE8384000F083BD38BD000038B50378CB
S21400266004460BB1002038BDFFF7A0FF0028F9D1C3
S21400267001232370237A23B120726168104800F08A
S214002680FDFF00F0E0FF431C054616D02046FFF78E
S2140026908AFF2046E9B200F09BFE0028F1D02046D3
S2140026A0FFF7C4FF207A28B16168054800F0E6FF0E
S2140026B00020207200232370D5E70120FAE700BF30
S2140026C0057E070038B50446D0F8B00201F016FBC8
S2140026D0D4F8B4020CF03AFF20B140F215110A48C3
S2140026E0FEF71AFA084D2046FFF7B8FF0028FAD082
S2140026F0D4F8B8020CF02AFF0028F4D04FF49071FA
S2140027002846FEF709FAEEE7BEC4060030B50C46CA
S21400271005468BB0FFF74CFF6368A168C5F8B0327A
S214002720284600F043FB0CF089FE216A4FF47A72CB
S2140027300023A0FB010112F01BFAC5F8B4020CF04E
S2140027407DFE616A4FF47A720023A0FB010112F04D
S2140027500FFA2368C5F8B8020193E3692946079380
S21400276063690D480593A36901AA06932369039339
S214002770602304930023029308930CF063FEE0604A
S21400278020B94FF49C710548FEF7C6F92846FFF7B6
S2140027900BFF0BB030BD00BFC5260000BEC4060050
S2140027A02DE9F8430B780446302B0D46914604D1AC
S2140027B04B7803F0DF03582B15D035496A1E12F804
S2140027C0018FB8F1000F46D10A224146284613F081
S2140027D0C7F9202C06460F4643D1884506BF8042DF
S2140027E00120002019E04A1C294912F8013FB3B91C
S2140027F0284B28462340032B20D113F07FF8631C78
S21400280048BF231D0238B0EBA30F4FEAA3040CD138
S214002810A87837288CBF00200120BDE8F8835B5CD1
S21400282013F04403E1D11846F7E7284613F066F89C
S21400283002388442D4BF00200120EEE713F05EF891
S214002840002CA0F10200B8BF0334B0EBA40FD4BF35
S21400285001200020E1E718F8013013F00403AED1A0
S214002860E1E7B9F1000F06D056EA070303D010F1EE
S214002870FF3641F1FF370120002300FA04F4013C43
S214002880BB4204EA06020CBFB2421846C5E700BFC8
S21400289040DE0600030000800A7801382D2A0ABFB1
S2140028A0012200228918FFF77BBF000030B50378AD
S2140028B07B2B15D1012100220A4D445C7D2C06D1CC
S2140028C00844437863B9D04300F0010030BD635D2F
S2140028D013F0440302D001320131EEE7202CFBD086
S2140028E00020F3E740DE0600072805D8DFE800F002
S2140028F0060A0D1013151A1700207047002208202C
S214002900FFF74EBF00221020FAE700222020F7E74C
S2140029100820FFF7C1BF1020FBE72020F9E7084694
S214002920FFF7C4BF012070472DE9F74307280C4680
S214002930DDE90A7690461D4608D8013806280AD8EA
S214002940DFE800F01D27303A44574A00212850D0CF
S21400295003B0BDE8F08300222046114613F084F948
S2140029603368C0B205EB83013A6845F823000133AB
S21400297048F8221033603B6801333B60E8E70022EA
S2140029802046114613F070F9336880B205EB8301D8
S214002990EAE700222046114613F066F9336805EB95
S2140029A08301E1E700222046114613F039F8336828
S2140029B040B205EB8301D7E700222046114613F00C
S2140029C02FF8336800B205EB8301CDE700222046DE
S2140029D0114613F025F8E1E7002389461E461D46FA
S2140029E08DF8063019F8013F7D2B06D125702D0A8B
S2140029F065703B6848F82340BDE7202BF2D006F010
S214002A000102013612B98DF80430EBE710220021DE
S214002A1001A88DF8053013F003F863190135987096
S214002A20ADB2DFE72DE9F04F9B46002385B08B451E
S214002A30814688469246CDE902336BDC1A461E462E
S214002A4019F80340FF2C08D15B4496B1013B43457F
S214002A505CDD2B2005B0BDE8F08FA4F12001012934
S214002A6005D9103C072C98BF01220133E8E7012660
S214002A70FBE742B1013B4345EBDC3546374645456F
S214002A8004DB0020E6E79845F7D0E2E75D453BDB50
S214002A9019F80730202B18D109EB07035B78FF2BBA
S214002AA0D7D1CEB920465AF82510FFF71DFF98B3A8
S214002AB003AB019302AB00932046DDE90E235AF8E0
S214002AC02510FFF731FF0135D9E7212B0ED109EB91
S214002AD007035B78FF2BBCD1029B5AF825200E9982
S214002AE0012641F8232001330293ECE7A3F11004FA
S214002AF0072C02D91C460137D3E709EB07035B789E
S214002B00FF2BA6D1E4B2CCE70624CAE700252F4661
S214002B102E46B4E721209DE726209BE72DE9F04FBF
S214002B2007460E4615469846044685B0DDF844909E
S214002B30DDE90FAB206808B3DAF80020D8F80010FB
S214002B408A421BDA0E9B53F82210FDF7E3FB48BBC4
S214002B50DAF800200132CAF800206268117BFE29EC
S214002B601BD10E9B1068012100932A464346CDE9EF
S214002B7002B9CDF804A0FFF7D1FF04462B7843B97D
S214002B8099F800302BB97EB101233C4689F8003015
S214002B902B70204605B0BDE8F08F01238BF800307F
S214002BA02B70EBE70C34C5E73446F2E770B5064603
S214002BB00D4612F0A3FE0446304600F05FFD044EBC
S214002BC0AC4200D370BD304600F058FD0134F7E744
S214002BD048DF06002DE9F84F044602215248FFF769
S214002BE0E5FF1E212068FFF7E1FF6368586800F0E4
S214002BF045FD4E4800F042FD67683B7BFD2B12D832
S214002C00D7F808804FF0FF36404612F077FE0546AC
S214002C10DFF81491DFF874A1DFF84CB10C3717F821
S214002C20013BFF2B01D1BDE8F88F212B18D8212BB3
S214002C3034D8DFE803F070767211191B1D1F33338A
S214002C4033333333333321232527292B2D2F3333A7
S214002C503333333333336C31354C002D21DC23E0F2
S214002C60FE2B5CD0334CF8E7334CF6E7334CF4E7F6
S214002C70334CF2E7334CF0E7334CEEE7334CECE7FB
S214002C80334CEAE7334CE8E7334CE6E7334CE4E70B
S214002C90334CE2E7334CE0E7334CDEE7002D254CBF
S214002CA000DD0136202BBAD002214846FFF77EFF12
S214002CB01E214846FFF77AFF504600F0DFFC5946D3
S214002CC0204612F009FE2949002818BF2146284848
S214002CD000F0D4FC3B78202B02D12B2000F0C2FC65
S214002CE0244800F0CBFC002D09DD18F806301F2B19
S214002CF005D018F806001F2801D0AE4203DB0B48AB
S214002D0000F0BCFC8BE700F0ADFC0136F1E7002DCF
S214002D1085DD194CC5E7194C9FE7194C9DE7194C02
S214002D209BE7194C99E700BFEEDF0600E36D07004E
S214002D30D4C60600C0C6060029C70600DAC60600C6
S214002D401BC7060017C706000EC7060004C7060006
S214002D50FAC606000FC7060005C70600FBC6060033
S214002D60F0C60600E9C60600E0C60600634F070088
S214002D70057E0700C1340700C8C60600D3C6060095
S214002D80D9C6060022C7060028C706002FC70600B9
S214002D9010B50446236803B910BD237A13B920463C
S214002DA0FFF718FF0C34F5E77047704710B541B1D0
S214002DB00A7932B901249C300C71FDF765FA204679
S214002DC010BD0020FCE700002DE9F04F2DED028B32
S214002DD091B0039300F109030646184608EE103A30
S214002DE00F4690464FF000091C9D12F087FD039B8E
S214002DF00490C3F8009018EE100AC5F8009008AAD0
S214002E0007A900F05CFC0446002840F0BC80089847
S214002E1012F074FDA346A246039B1860D6F89C30B9
S214002E200193019B2BB9204611B0BDEC028BBDE887
S214002E30F08F019B9B680293002B6FD00AF1090369
S214002E40334413F8012B202A14D04FF0000A0C2329
S214002E5003FB0AF3029A1A440092029AD1580029F8
S214002E6057D0079B5B4554DB009B1B7A33B10AF1B6
S214002E70010934E02A6801322A60E2E72B68D6F8B6
S214002E809420D21A039B1A6010AB03EB8B0353F803
S214002E90200C059312F03AFD81460028E7D1009BEE
S214002EA0186812F02BFD009B5B6893F80CC0BCF111
S214002EB0FE0F18D1079A013A5A4514D01B680293A0
S214002EC0059B53F8200C12F019FD2B6801330344C0
S214002ED02B602B68F218527A1AB10BF1010BCA4616
S214002EE0B5E70133F4E7D6F894202968521A8242EF
S214002EF025DC384612F002FD009B8146186812F069
S214002F00FDFC48447B280DD9414638461F4AFDF74C
S214002F10EDF918EE103A049A002A2CDC019B1B6887
S214002F2001937EE7009B414638461A68FDF7DEF9B6
S214002F3041463846164A0134FDF7D8F997E7BCF102
S214002F40FE0F94D1079A013A5A4590D1D3F80090D3
S214002F5059F80C2B22B9049B2B60039B1A60D8E708
S214002F6041463846FDF7C2F941463846084AFDF75D
S214002F70BDF90134ECE7197811B94FF0200119704A
S214002F800133013AC8E74C464DE700BF31C706009B
S214002F9048DF06002DE9F047002486B01C60DDE916
S214002FA00EA8064689468AF800401168154888F833
S214002FB0004017461D468DF81740FDF7ABF918B9C7
S214002FC001242B6801332B600020D6F89C6036B9AC
S214002FD014B1012388F8003006B0BDE8F087B06869
S214002FE068B14B460021CDE902A8CDE900750DF188
S214002FF01702FFF793FD9DF81730002BE8D13668CF
S214003000E5E700BF36C706002DE9F041A2B0054649
S2140030100AAA084603A900F052FB0446B0B90DF10F
S2140030200A0301930DF10B038DF80A0000930AAA18
S214003030284604AB03A9FFF7ADFF9DF80A20B2B1FE
S21400304058B19DF80B302BB1FFF7C4FD204622B0D7
S214003050BDE8F081FFF79CFEF8E7D5F89C50002D00
S214003060F4D0A86808B1FFF793FE2D68F7E700B321
S214003070466812AB06F10C081AAF01934046049B53
S214003080039900970AAAFFF7CDFC04460028DDD175
S214003090039B05A8CDE90637049B0595CDE90838BE
S2140030A0FFF782FE05A83368984705A8FFF77DFE60
S2140030B0CCE72D24CAE7F8B56FF0AB0400F1AC05F9
S2140030C000262F46241A384612F018FC6319984238
S2140030D001D83046F8BD15F8013B002BF9D00A2B75
S2140030E008BF0136EFE72DE9F0414FF00008C1F8C0
S2140030F00080C2F80080D0F8AC3205460E46144672
S21400310013B90020BDE8F08100F1AC07384612F094
S214003110F5FB0028F5D001224346D5F8AC128A42CA
S2140031200ED3B3F5007F10D30120EBE731680131F1
S2140031303160216801312160F95C01330A2902D02F
S214003140B3F5007FF2D30132E7E7FA5C0A2AEBD048
S214003150002AE9D02268013301322260E1E710B587
S214003160D0F88C2004460021093011F030FF0023EF
S214003170C4E9243310BD00002DE9F04700260446BC
S214003180ADF5447D7C22314605A80DF1080804966D
S21400319011F01DFF80222046CDF8008003AB04A965
S2140031A0FFF712FE012848D104A812F0A7FB039AE5
S2140031B0D8F80030811A1344093323440546013AEF
S2140031C004A8024418465F183E1A002E20DC00228F
S2140031D021EAE1715A54D4F89060039BD8F80010A5
S2140031E0D4F890201944B14217DCD4F89410E81AA9
S2140031F00244C4F89020014404AAC4F89410D418D9
S21400320025182B1B002B13DC0DF5447DBDE8F0873D
S21400321012F8016F00F8016BD6E72244507A00F0EE
S21400322021FAD4F8903001360133C4F89030D4E750
S21400323014F8010B00F016FAE3E7E5DD24AD802272
S2140032403146284611F0C3FE44AB4FF400721846D0
S214003250314611F0BCFE0DF1100A034652464FF0FF
S214003260010912F8017B002F3CD104A843F829601D
S21400327012F044FB29463B461AF8016B44AF57F858
S214003280042B824237D10133994501F8016BF3DAFA
S214003290D4F89060039BB34236DC294A04F1090354
S2140032A004A9284800F0EAF9284612F027FB039AFA
S2140032B0D8F800301544134409332344801A1A46BC
S2140032C06E1E1F18B91A00292BDC002120EAE072B6
S2140032D099542C18631B002B96DD15F8010B00F093
S2140032E0C1F9F7E7202F06F1010604BF43F829606D
S2140032F009F10109B5E70DF1100C6244D25CB24247
S214003300BDD00022EA54C3E7D4F8903001362344F7
S214003310587A00F0A7F9D4F890300133C4F890300A
S214003320B8E716F8011F02F8011BD4F89010013117
S214003330C4F89010D4F894100131C4F89410C1E782
S214003340CC3407003BC70600F7B5044600F1090574
S21400335000F1AC06284612F0D1FA0746304612F0C5
S214003360CDFA0137C0F50070874220D8284612F003
S214003370C5FA01303718304612F0C0FA3146421C02
S214003380384611F00AFE284612F0B8FA29460246D8
S214003390304611F0F5FD284612F0B0FA0A23204414
S2140033A080F8AC300023C4F8AC3203B0F0BD204641
S2140033B0FFF781FE01AAC4F8AC0269462046FFF773
S2140033C092FE0022009B234483F8AC20C2E7000054
S2140033D02DE9F047D0E9245604460F46002294F81B
S2140033E09830012B06D10A2F06D1002084F89800C9
S2140033F0BDE8F08700F2A7801B2F03D1022384F8D4
S214003400983040E0A7F10D0253425341082F04F1D3
S214003410090884F8983038D1002D33DDB54210D134
S214003420384600F01FF9202000F01CF9384600F05E
S21400343019F90023013D08F80530013EC4E9245679
S21400344021E0FBDA05F1FF39384608EB090700F002
S21400345009F9A6EB090208EB0501384611F09DFDB7
S2140034600023394608F806304F48013E00F006F9BA
S21400347035464D4501DC4D46E0E7082000F0F2F801
S214003480013DF6E7DAD10020B2E77F2F1ED1002EED
S214003490F9DDB542F7DA08EB0507691C4144384602
S2140034A0721B11F07AFD00233946404808F80630B2
S2140034B000F0E4F80820013E00F0D4F8B542F9D157
S2140034C0D4F89430013BC4F89430DCE70D2F01D0DB
S2140034D00A2F0AD10D2000F0C5F80A2000F0C2F825
S2140034E000230120C4E9243382E7092F03D12046B4
S2140034F0FFF742FEC7E7D4F88C30013BB342C2DD8B
S214003500B54208EB050905F1010A0CDB384689F8D7
S2140035100070D4F89430C4F890A00133C4F8943006
S21400352000F0A0F8AFE74946721B08EB0A0011F05E
S21400353034FD484600F0A2F80820013E00F092F85C
S214003540B542F9DDE2E7022B06D15B2F01D103235A
S21400355055E784F8982042E7032B94D1413F84F83E
S2140035609820032F8FD8DFE807F002070A160121FC
S214003570204600F01DF886E74FF0FF31F8E7B54229
S21400358081DA2544687A00F06DF8D4F8903001337B
S214003590C4F8903077E7002D7FF775AF013D08201F
S2140035A0C4F89050BCE700BF44C70600236007007D
S2140035B073B50C460546FFF77EFD631C12D1D5F8A1
S2140035C0AC421CB1013CC5F8AC420124D5F8AC6253
S2140035D056B344BB6946284601AAFFF784FD30BBB4
S2140035E002B070BD012CFBD1D5F8AC328342F7D2C5
S2140035F00133C5F8AC32E9E7082000F033F82020A4
S21400360000F030F8082000F02DF80136204612F0C1
S21400361075F9B042F0D82846FFF7A1FDD5F8AC32D0
S214003620002BDDD0D6E7002605F10904EEE7009C66
S21400363005F1AC06019BA342D2D9315D2846FFF7BF
S214003640C7FE0134F6E707B500200DF1070100F0CC
S21400365000FC20B99DF8070003B05DF804FB4FF0AE
S214003660FF30F9E710B5C1B20446002000F0E1FBD8
S21400367000280CBF20464FF0FF3010BD0FB407B532
S21400368004A951F8040B01910FF0C0FF002003B00D
S2140036905DF804EB04B0704710B54C1C0B460119DE
S2140036A0045D222C03D07B2C01D05C2C05D1D21AD1
S2140036B0184411F072FC012010BD0020FCE72DE933
S2140036C0F84F05468846914612F018F92B460646EE
S2140036D01A4611785C1B202903F10103F8D0012358
S2140036E04FF0000A6FF0404BC9F80020C8F80030D1
S2140036F0A64201D8002014E02F5D29197B2F12D096
S214003700222F2ED1D8F80030621C5B442A4449F898
S2140037102320012C09D911F8013C13F0DF0F04D047
S2140037202120BDE8F88F7D27F3E701342B5D2A19A9
S214003730BB4208D1537813F0DF03F1D1222F00D11A
S21400374013700134D4E75C2B07D132462146284655
S214003750FFF7A2FF0028E3D0013E0134A642E5D8D9
S214003760DEE75C2F08D1324621462846FFF794FF55
S2140037700028D5D0013EE4E7202FE2D1631C9E420C
S21400378081F800A0DDD9EA18EB5C202BD9D0D8F858
S2140037900030072B05DC49F823200133C8F8003039
S2140037A0CFE71E20BDE7000030B585B06C460E4B57
S2140037B00FCB84E80F000020FDF704FD0428054623
S2140037C003D102210020FDF789FD2046FDF71AFFF0
S2140037D0042D044603D129460020FDF77FFD84F022
S2140037E00100C0B205B030BD4CC706004FF0402205
S2140037F013B50024536F684643F0010353670094E3
S2140038008DF80440FEF7B2F9204602B010BD000065
S21400381070B586B001AA1546194B03F1100614467A
S21400382018685968083303C4B3422246F7D119888A
S2140038309B782180A37000238DF81130114BD3F8AC
S2140038404C21120314D4D3F85041E4B28DF80E4044
S214003850FEF7C0F8204480F308008DF80D000A48F3
S2140038600EF0B8FE2846FDF7CFFF002006B070BD6C
S2140038704FF6FF70054B1C88844208BF8224E5E79C
S2140038805CC706000080E00F00F049020001E00F70
S2140038901FB50D4A01AB1068516803C31189927AAF
S2140038A019809A7025238DF8053004230DEB03004C
S2140038B0ADF80630FEF794F86420FEF7EDF8002029
S2140038C005B05DF804FB00BF6FC706006FF004028A
S2140038D0502110B50A480B4C12F0800FD3B21BBF14
S2140038E003F00F03043BA3181B1802F101020CBFE0
S2140038F083F8001319763D2AEED1002010BD00BFD4
S21400390000ED00E000E100E000F080B838B500F01F
S214003910DDFF0446E8B901F0D9F84FF4167202FB51
S21400392000F30D4803F5742303F23F23B3FBF0F3D3
S2140039300A4A0B4913600A220D680A48013A12F037
S214003940FF0240F8043BF9D103EBC3022B441344B7
S2140039500B60204638BD00BF40420F00F03200200A
S214003960BC320020C032002085210148FDF7D4B8C3
S2140039707AC70600012208B5034B1A7001F09AF8C0
S214003980024B186008BD00BFB8320020EC320020A1
S214003990F8B5144C237823B301F08CF8124B134D72
S2140039A01B68134EC01A012838BF0120114B124F56
S2140039B018602B7856F8232046F82300111A3A6828
S2140039C00E48521A0A213A600932B2FBF1F201336C
S2140039D0DBB20260B3FBF1F201FB12332B70002363
S2140039E02370F8BDB8320020EC320020E832002008
S2140039F0C0320020B4320020BC320020F03200205A
S214003A00014B1868704700BFF0320020202342F2B6
S214003A1074000949094A81F82D33094B1A5042F2BD
S214003A2070001A504FF40050C1F88401486041F20B
S214003A3074015A50704700BF00E100E0010000A08A
S214003A4000C00040054B064A1B78916DC90700D59B
S214003A5013B10028F9D170470120704708330020C1
S214003A6000C000402DE9F843964B1E6F9D6A9C6A85
S214003A70F10705F0020504F0010452D542F2700287
S214003A8001279F50904ADFF8608292F80090B9F1C3
S214003A90000F00F003810021117098F80020BA4250
S214003AA000F2F78042F2280202219F5041F22802DB
S214003AB099509A6DD203FCD484495A6B096822F453
S214003AC070620A435A638248824A9969006812689B
S214003AD021F47F01024321F47F410A439A617E4824
S214003AE07E4A19691268006821F47F6121F00F018F
S214003AF002430A431A617A499A69096822F0FF026A
S214003B000A439A610222002D40F0BD8042F228014D
S214003B105A5001226B4B002C00F0B88041F228016D
S214003B205A5016F0005100F0868042F27003654A43
S214003B30654FD1503A7822B140F215116948FCF72A
S214003B40EBFF4FF0010C684A6049137887F800C015
S214003B50634413705B4B5E4F5A6BDFF884E102F4EC
S214003B607060086098695B4900F47F400860996956
S214003B7001F47F0139609F69FFB2CEF800701F69BB
S214003B80DFF858E107F47C67CEF800701F69DFF8AD
S214003B9048E107F03F07CEF8007042F2280743F8E6
S214003BA007C041F228074FF0020C43F807C04FF059
S214003BB0004C43F807C09F6DFF03FCD442F2280771
S214003BC04FF0004C22F4706242F40072B0F5C84F19
S214003BD043F807C05A6302D8B1F5C80F0CD9394A62
S214003BE042499369096823F47F0323F47F4343EA39
S214003BF0012343EA01439361324B3D491A69096840
S214003C0022F47F6222F00F02880842EA910242EA1A
S214003C1080121A619A6922F0FF020A439A61022210
S214003C20002D42D142F228015A500122002C3FD0EA
S214003C3041F228015A50002E23DA42F270024FF069
S214003C400041204B99502B4A1278D2B142F22802FA
S214003C500121995041F22802022199509A6DD2030F
S214003C60FCD441F218024FF000419950022215BBD5
S214003C7042F228015A500122124BFCB141F22801AF
S214003C805A50BDE8F88341F2280141E742F2280184
S214003C9046E7FFF769FE174B1F7042E7FFF778FE0F
S214003CA000F0F4FB88F800903BE741F22801BBE700
S214003CB042F22801BEE741F22801DBE742F2280182
S214003CC0DEE700BF00C00040083300200C330020B1
S214003CD00433002000330020FC320020F83200209D
S214003CE0F43200203FC806000933002034100020BC
S214003CF0301000200A330020FFF7B4BE73B5044628
S214003D00FDF7D0FE06460BF0F9FB88B1134D2A7876
S214003D10FF2A8DF807200BD10DF10700FCF71CFBDE
S214003D2018B168210E48FCF7F7FE9DF807302B7097
S214003D300C4B30461C60FDF7B9FE0BF0DFFB50B1B4
S214003D40224600209DF80710FCF71BFB18B17321D4
S214003D500348FCF7E1FE002002B070BD38100020DA
S214003D600BC906001033002073B5FDF79BFE104DFF
S214003D70104B2E781C68FDF799FE0BF0BFFB60B168
S214003D80FF2E0AD00020297801AAFCF7F3FA18B112
S214003D9093210948FCF7C0FE019C2CB9FDF782FE72
S214003DA0064B1C68FDF782FE204602B070BD00BFC1
S214003DB038100020103300200BC9060014330020F2
S214003DC010B50446FDF76EFE024B1C60FDF76EFE56
S214003DD0002010BD1433002007B530B9CDE900121D
S214003DE0FFF7C2FFDDE9001230B1436823B1006877
S214003DF003B05DF804EB1847232003B05DF804FB1E
S214003E0030B51C4685B058B9CDE90012FFF7ACFFB7
S214003E10DDE9001204B903AC20B9232005B030BD9B
S214003E2003B903AC8568002DF7D023460068A84781
S214003E30F4E707B501228DF807100DF10701FFF72B
S214003E40CBFF03B05DF804FB0B4601461846FFF7B0
S214003E50F0BF00230122FFF7D3BF00000EB40FB55A
S214003E6005AB53F8042B039318B90192FFF77CFFB8
S214003E70019A0146039B06480FF0E4FB0028D4BFD6
S214003E803720002004B05DF804EB03B0704700BF95
S214003E90493E000000207047FEE74FF40053002024
S214003EA04B60704701207047012070474FF0FF308D
S214003EB070470020704707B5002001AB0190FFF760
S214003EC09FFF0198002808BF4FF0FF3003B05DF851
S214003ED004FB000010B500201446FFF77DFF18B164
S214003EE0BF210248FCF718FE204610BDC8C90600D0
S214003EF010B500201C460EF015F9002820600CBFF7
S214003F001B20002010BD08B500200EF04DF9002043
S214003F1008BD000013B50EF0BFF90124002300947D
S214003F201A46194618460EF059F9002300941A4608
S214003F30194618460EF082F90248FFF741FF0020A6
S214003F4002B010BD3C100020034B0222186800236C
S214003F508068194611F0FCBB44110020034B1B7807
S214003F60002B14BF01200220704700BF48330020FA
S214003F700329F8B505460E4607D8174B5C5C032D9B
S214003F8019D8DFE805F0090F12154FF42E71134803
S214003F90FCF7C2FD0024F2E744F00204104B1F6851
S214003FA07FB9F8BD44F00804F8E744F02004F5E7CC
S214003FB044F08004F2E740F2CD210848FCF7ACFD5F
S214003FC0ECE77B681A68144203D0314628465B68E3
S214003FD098473F68E4E700BF5BCB060094CA06003C
S214003FE04433002038B5104C2278AAB10F4D2B78F8
S214003FF01BB100F01DFB00232B70002000F03CFBE3
S2140040000B4D50B100F042FB0023012128782370AD
S214004010FFF7AEFF01232B7038BD0122054B1A7047
S2140040202A78054B1A70F7E7423300203D3300200C
S21400403034330020413300205033002010B5FDF704
S21400404031FD064B04461B781BB1BDE81040FDF75A
S2140040502DBDFFF7C7FF2046F7E700BF3C33002023
S21400406038B5134C05462378FF2B05D160B140F2D6
S2140040702A311048FCF750FD23782BB925B94FF4A8
S2140040804B710C48FCF748FD002D14BF0122FF229F
S2140040902378134423700AD0074B1B78012B06D9CC
S2140040A0064B1B781BB9BDE83840FFF79BBF38BDF1
S2140040B04833002094CA06003433002041330020E1
S2140040C030B5012885B011D008D9023801280FD99B
S2140040D040F215311B48FCF71FFD07E01A4C237809
S2140040E023B10020FFF7BCFF0023237005B030BDCE
S2140040F0002003A900F0A6FC0028F7D1134B039A72
S2140041001B689A4206D80120FFF7AAFF01220E4B31
S2140041101A70EBE70E4B1D6800F0F6FA2D1804D562
S21400412040F202310748FCF7F7FC03998D42EAD2C9
S21400413000230222491BCDE900320648064A00F059
S21400414027FCD3E794CA06004B3300203833002000
S21400415054330020183300203D40000070B5FDF7B2
S214004160A1FC114E054632788AB900F0AFFB044632
S21400417020B12846FDF79AFC204670BD00F0A6FC4C
S2140041800A4B18600A48FCF77BF80A4B1C6000F0E4
S2140041909DF900F0B5FA084B002418600123284664
S2140041A03370FDF783FCE7E73E3300204C330020F6
S2140041B04433002054330020383300202DE9F341E7
S2140041C0441EE3B2012B0E4604D940F26F1130486C
S2140041D0FCF7A2FC2F4D2B5DFF2B05D166B14FF4EB
S2140041E0B9712B48FCF798FC2B5D2BB926B94FF418
S2140041F0BA712748FCF790FC002E14BF0122FF225C
S2140042002B5D13442B5539D0234E3278012A35D9ED
S214004210FFF7A4FE0128044633D8FDF743FC1F4BE6
S2140042201A7898460AB31E4D2B781BB901222A70BD
S2140042301C4A13701C4F3B782BB1019000F0F8F924
S214004240002301983B70FDF731FC012000F014FAC2
S214004250FDF728FC2B782BB1019000F017FA00230D
S21400426001982B70002388F80030FDF71FFC30788B
S214004270A04203D02146FFF77BFE347002B0BDE8B3
S214004280F081032AF3D10228F1D100F053FAEEE7C9
S21400429094CA0600483300203433002042330020FE
S2140042A03C330020413300203D33002068B5FDF745
S2140042B0F9FB094B06461B78012B04D8FDF7F6FBE5
S2140042C00025284668BD054B1D6800F01DFA05440C
S2140042D03046FDF7EBFBF4E7343300205433002080
S2140042E007B5FDF7DFFB0190FFF77CFE019803B0F2
S2140042F05DF804EBFDF7DABB38B541600446FDF720
S214004300D1FB054621460448FBF7BEFF2846BDE81C
S2140043103840FDF7CBBB00BF44330020054B1B687D
S2140043205843054B00F5742000F23F20B0FBF3F035
S214004330704700BF4C33002040420F002DE9F84381
S214004340FDF7B0FB044600E000BF0BF0C9FF0028F5
S21400435079D0DFF83081444F45463B7823B10020C2
S214004360FFF77EFE00233B70FFF7F8FDFFF7A8FE81
S214004370FFF7F4FD0128064604D93C4B1B780BB921
S21400438000F012F998F80000DFF8FC90B04206D072
S21400439099F8003013B93146FFF7EAFD2E70012E6A
S2140043A00CD9324E33784BB9314B1B7823B900F019
S2140043B039F901222F4B1A7001233370287800F048
S2140043C083F999F8003013B12B4B1B782B7000E063
S2140043D000BF2046FDF76AFBFDF764FB274B04464B
S2140043E01A7852B100221A70234B28781B7898420C
S2140043F003D101212970FFF7BBFD214800F0A0FA88
S2140044000BF078FF06460028A7D1184B1A78984676
S21400441082B1184F89F800003B7813B100F008F914
S2140044203E70002000F028F9A0B100F02FF900231C
S21400443088F800300020FFF743FE00212878FFF7B9
S21400444097FD00232B7000E000BF2046BDE8F84330
S214004450FDF72CBB012000F037F92046FDF726FBC0
S214004460FDF720FB0446DCE74B33002042330020F8
S2140044704A3300203D3300205033002040330020D4
S21400448018330020343300204133002010B5094B88
S2140044901B786BB1084C237853B100F0F7F8002373
S2140044A0064A237013700123054A1370054A1370D9
S2140044B010BD00BF343300204133002042330020BB
S2140044C03F33002040330020704700002F4A304B17
S2140044D0116F304801F00701D0B51960D2F82031CD
S2140044E08069032900F002003DD003F00703991EFF
S2140044F04B424B41D2F88012274C01F001010B438E
S21400450026490B7000283AD03BB9D2F8003103F0A8
S21400451003035A1E534253410B701C4BD3F8003111
S21400452003F00303022B20D0032B21D0012B22D132
S2140045300EF04AF818B30027164B0246DB68461EF4
S214004540C3F30B031648013303EB8301E0FB01675B
S21400455000233046394610F00BFBFFF7DFFE2368DA
S214004560184420600BE00123C4E70EF093F8E1E75F
S2140045700EF040F8DEE7CC210A48FCF7CDFA6420BE
S214004580FFF7CCFE236818442060D0BD00800040B2
S21400459044FD002000C001405C3300205A33002058
S2140045A040420F005FCB0600FDF7DEBA074B1A78D5
S2140045B052B100221A70064A136F23F0070343F025
S2140045C0010313670DF0EABF704700BF58330020A1
S2140045D000800040104B10B51B788BB1022000F015
S2140045E005FC68B100F060FA50B10C4B9A6DD1032F
S2140045F007D5DA6D920704D541F2280201219950B9
S21400460010BD0124064B1C70FFF7B4F941F22803D5
S214004610024AD450F4E700BF5A33002000C00040DE
S214004620593300200122014B1A707047583300207E
S21400463038B50E4B1B787BB10D4C22789AB90D4BD2
S2140046409A6D1D4612F4803F07D0DA6D920704D5A6
S21400465041F228020121995038BDFFF78BF941F24B
S21400466028030122EA5000232370F5E75A3300207E
S2140046705933002000C00040034B1B780BB1FFF7F6
S214004680E1B90120704700BF5A33002008B5FDF796
S2140046906CFA0A4A0A49136F096823F007030B43AA
S2140046A01367084B1B782BB142F22803012102F551
S2140046B08042D150BDE808400DF070BF0080004039
S2140046C044FD00205A33002002280AD003280BD0CD
S2140046D001280CD1084A136923F00403136130BF84
S2140046E070470020FDF714BA0020FDF729BA40F203
S2140046F0B5110248FCF710BA00ED00E05FCB0600EB
S2140047004FF4C870FFF70ABE08B5054B187818B105
S214004710FFF776F900EBD000024B1B68184408BD83
S2140047205A3300205C3300200122014B1A70704778
S2140047305A3300207047000010B500F0EFFA0A4C1C
S2140047400A4B19682368C31A01B10BB9206010BD63
S2140047504A699A423ABF9B1A0022D21A4A6128BF77
S21400476000238968F0E700BF643300207833002018
S214004770C38870B504460D463BB9FFF797FD8542E2
S214004780064602D2FFF7ACFD3546104A656113684F
S2140047901046BBB91460A36013E0AD1A9A681946B8
S2140047A065613AB113465A69AA42F6D9002AF4D08E
S2140047B051B11A4613468C60A36013B15969491B60
S2140047C0596170BD0021EEE70460F5E778330020FC
S2140047D038B5134C2268526992B1124B02201D68FC
S2140047E0154400F0D7FA284600F0A4FA00230E4934
S2140047F022680B70D088800709D501230B7038BD5E
S214004800022000F0C7FA022000F0E8FAEEE792680D
S214004810002AF4D050690344012BEBD9EFE700BF20
S21400482078330020643300206C33002070B51646C1
S2140048309DF81420C0E903360271049ABDF81830BA
S21400484002600022C380826004460D4600F066FACD
S2140048503044A0613DB9E368656113B12046216824
S214004860984796B13546FDF71DF90646FFF764FFF3
S21400487029462046FFF77CFF054B1B68A34201D163
S214004880FFF7A6FF3046FDF711F9002070BD00BF08
S2140048907833002000210C4A13687BB183420AD18A
S2140048A0836879B18B6083681BB15A6941690A4491
S2140048B05A610020704719469B68EEE70028EFD043
S2140048C0022070471360EEE77833002070B5FDF7DE
S2140048D0F0F8144E05463478FCB9134B1C60134BA5
S2140048E01C60134B1C8000F0DDF9012000F052FA2A
S2140048F000F0A6FA0F4B0246186020B92846FDF7CE
S214004900DEF8232070BD234640F2E7310A4810F057
S2140049102FF90A4B1860012333702846FDF7CFF8AD
S2140049200020EFE760330020783300206433002057
S2140049306E3300207433002018FCFFFF683300201D
S2140049402DE9F0410546F8B1FDF7ACF80F4F0646E5
S214004950FFF7F2FE2846D7F80080FFF79BFF0446D5
S21400496028B13046FDF7A2F82046BDE8F081A845FC
S2140049703B6803D123B1FFF72BFFF2E7002BF0D102
S214004980022000F013FAECE72224EDE7783300204B
S21400499070B586B015461E460446059180B1FFF7F1
S2140049A0CFFFBDF82C30002202939DF82830204619
S2140049B0CDE9006305992B46FFF738FF06B070BDBA
S2140049C02220FBE738B50C46054698B191B1002386
S2140049D00B70FDF76EF80121074B1B680BB12278B0
S2140049E01AB1FDF76CF8002038BDAB4214BF9B68C7
S2140049F02170F3E72220F7E778330020F0B51F4652
S214004A00002387B00D46164604468DF81730A0B131
S214004A100DF11701FFF7D6FF9DF817207AB9BDF8FC
S214004A203430294602939DF830302046CDE9007395
S214004A303346FFF7FBFE07B0F0BD2220FBE703205E
S214004A40F9E700002DE9F04107468846FDF731F802
S214004A5000260546124B1C6824B92846FDF72FF899
S214004A601B2016E063691E44E388BB4215D100F0A4
S214004A7055F90C4C2368C01AB0420CD200F04EF91F
S214004A8022683244121A2846C8F80020FDF717F8A4
S214004A900020BDE8F0810022F5E7A468DCE700BF4F
S214004AA07833002064330020014B1878704700BF2D
S214004AB06C33002038B5FCF7FCFF054600F02EF9F5
S214004AC004462846FCF7FBFF204638BD014B186815
S214004AD0704700BF743300200C4BD0B51B680C46E3
S214004AE0834210D340F2E7360027094B4FF47A7220
S214004AF019680023E1FB00673046394610F038F8A5
S214004B0020600020D0BD2120FCE700BF68330020D5
S214004B10743300202DE91848104B1A68A2B14FF4E0
S214004B207A73A0FB03BC531E134210D1B2FA82F272
S214004B30C2F11F03541CD2432BFA03F00CFA04F400
S214004B4020432CFA02F202431046BDE818880023E0
S214004B505846614610F00CF80246F5E7743300201C
S214004B60C2072DE9F84F04460BD5494A138801338E
S214004B709BB21380FFF7E0FD464B1B680BB1FFF7B7
S214004B8027FEA30740F18280FCF793FF0027064626
S214004B903D46FFF7D1FDDFF8FC80DFF80091D8F83E
S214004BA000400CB1636983B100223B4B012D1A70A3
S214004BB002D1022F08BF1D70002C55D0FFF708FE4B
S214004BC03046BDE8F84FFCF77ABF23461A792179BC
S214004BD0914288BF1C469B6813B15A69002AF5D0DB
S214004BE03046FCF76CFF2069002841D0064600F0EE
S214004BF095F8A1690027A0EB010A524656454FEAF0
S214004C00E27377EB030336DA012223690B44A361D0
S214004C102369E3B1DAB9B6EB0A0667EBEA77002E4A
S214004C2077F10003B24604DA40F202414846FBF749
S214004C3073FFFCF73EFF074651462046FFF798FDF8
S214004C40A369226938461344A361FCF738FFE3687A
S214004C50E788013513B1204621689847FCF729FFFD
S214004C600646FFF769FD9AE7022000F09FF8A7E7DF
S214004C70002600278246FCF71CFF83462046FFF7E7
S214004C8009FE5846FCF71BFF0022C1E7BDE8F88F77
S214004C906E33002078330020703300202DCC0600C1
S214004CA0002070471FB50024194B18689A88029098
S214004CB053F8060FADF80C201B7900908DF80430E1
S214004CC08DF80840FFF7ECFF8DF80C0002A8FDF702
S214004CD0DFF9694601208DF80040FDF793F94FF0A3
S214004CE090431F219A6922F01F029A61094A1160B7
S214004CF09A6A12F00802FBD11A620120FDF7A6F9A3
S214004D004FF48062044BC3F880211A6004B010BDD3
S214004D10EECC06001420004800E100E04FF090437F
S214004D209A6A1207FCD4186A70474FF09043186CC2
S214004D307047000010B502464FF09044A36A19076A
S214004D40FCD4216AFFF7F1FF63691B0704D4431AFA
S214004D50032B01D888420ED1531A022B98BFCA1CC7
S214004D604FF09043B2F1FF3F38BF013A1A649A6998
S214004D7042F008029A61064A13783BB14FF0904120
S214004D80CB6B43F00203CB630023137010BD00BF50
S214004D904810002082074FF0904200F0010391690E
S214004DA048BF43F008030B4393617047820700F047
S214004DB001030AD50121084A43F0080311704FF099
S214004DC09041CA6B22F00302CA634FF090418A6991
S214004DD022EA03038B61704748100020830742BF16
S214004DE00822014B1A607047141000484FF0904399
S214004DF001285B6904D0022805D1C3F3C0007047C0
S214004E0003F00100704700207047000010B5FCF763
S214004E1050FE4FF0904304465B691A07074A03F0BA
S214004E20010003F00D0348BF40F002001360FFF7D7
S214004E3097FE2046BDE81040FCF741BE142000480F
S214004E4008B51C20FCF7D2F80346FFF729FF23FA23
S214004E5000F008BD08B50DF0AFFA0DF015FB0DF02B
S214004E601CFB0DF02BFBBDE808400DF030BB00002E
S214004E70014826F0E7BD00BFFCCC060008B5084C8C
S214004E80084D4FF0FF330022102120680AF0C8FBBF
S214004E9028460DF02CFA202120680AF08FFBF0E758
S214004EA0D0330020F43300200A4B10B518600A4BAC
S214004EB00A4C19600A4B042120681A600AF07EFB2F
S214004EC020684FF0FF33BDE81040002208210AF0AA
S214004ED0A7BB00BF5435002050350020D03300203B
S214004EE04C35002008B5054C4FF0FF330022022158
S214004EF020680AF095FB13F009FEF5E7D033002092
S214004F00F8B50DF0DFF920242B4E2C4D2C4F610701
S214004F100DD530683A68296827F0FAFC00232B6024
S214004F20284B0821186824F004040AF047FB13F005
S214004F300FFD13F031FD60B1A2060AD5224827F016
S214004F4027FFB0B91F4B102118680AF037FB24F072
S214004F50200413F060FD08B9A3060AD419484FF0E0
S214004F60FF330022652100680AF05AFB044348BF5D
S214004F70202404F06003602BC9D127F09DFE10B9F1
S214004F8024F04004C3E7104B10211A786FF05F023C
S214004F901A705A7803225A709A7801229A70DA7830
S214004FA00622DA70002298809A71064B24F060047C
S214004FB018680AF003FBAAE7543500205035002095
S214004FC04C350020D0330020F43300202DE9F04784
S214004FD0314C324F2368DFF8F480DFF8F490DFF8C6
S214004FE0F4A02F4E83B33B6823B92E480AF06CFB1F
S214004FF0386078B3D8F800302BB92B480AF064FB39
S214005000C8F8000030B3294827F0D0FBD9F80010C4
S21400501031B9274A27480AF015FAC9F80000C8B17E
S214005020DAF8001031B9244A24480AF00BFACAF814
S214005030000078B1316829B9214A22480AF002FAFC
S214005040306038B1002025E01F480AF099FA206049
S2140050500028C8D1002520680AF01AFB38682560A9
S2140050600AF0CEFBD8F800003D600AF0C9FBD9F87C
S2140050700000C8F800500AF043FADAF80000C9F851
S21400508000500AF03DFA3068CAF800500AF038FAC4
S21400509001203560BDE8F087D03300204835002079
S2140050A0344A00209CCD06007CCD0600A94E0000A8
S2140050B0D0CD0600014F0000ACCD0600E54E000046
S2140050C0F4CD06007D4E00008CCD0600CC330020CB
S2140050D0304A0020384A0020024B022118680AF0A5
S2140050E06DBA00BFD0330020024B012118680AF0C9
S2140050F065BA00BFD033002008B5064B4FF0FF312D
S21400510018680AF023FB0630062896BF024B0120DB
S214005110185C08BDCC33002073CD0600014B186820
S2140051200AF044BBCC33002008B5084B4021186871
S2140051300AF044FA002805DA0630042804D8044B9E
S214005140185C08BD0520FCE70120FAE7D0330020F4
S2140051506ECD060038B50446FCF7A4FC054620468E
S2140051600FF0F0FE04462846FCF7A0FC204638BDAB
S21400517037B504460191FCF795FC01990546204693
S2140051800FF08EFE04462846FCF790FC204603B03F
S21400519030BD38B50546FCF785FC044628460FF0BA
S2140051A0D9FE2046BDE83840FCF780BC03460846DA
S2140051B01A680AB9FFF7EDBF824202D002F118035F
S2140051C0F6E782691A60F5E709B9084670470B7D6D
S2140051D08342FAD08969F7E741F21A03984230D839
S2140051E041F2040398420AD80F281CD9212847D038
S2140051F0492845D01A2814BF012003207047A0F57F
S21400520080500538152833D8DFE800F034320B30EC
S21400521032323232322E32322A322C2C2C32323287
S214005220322A032070470F2822D8DFE800F0252115
S21400523008082727212121212121212121190220A7
S214005240704741F23A03984218D041F20D13984243
S21400525016D041F23803984214BF0120042070474C
S214005260062070470A2070470B2070470D207047B5
S21400527001207047092070470020704704207047BF
S2140052800720704741F21303984212D00AD8072825
S21400529011D041F2080398420DD0002814BF852093
S2140052A00020704741F21603984214BF85209920CB
S2140052B07047002070479420704708B502780B7836
S2140052C0934217D1022B09D0032B0AD0012B11D100
S2140052D080888B88C31A5842584108BD40684B687E
S2140052E0F8E71022043104300FF03CFEB0FA80F0EC
S2140052F04009F2E70020F0E72DE9F047DDF82080CE
S2140053000F4691469A460646F8B1F1B1B8F1000F3D
S2140053101BD00023C8F800300C682CB901254D4579
S21400532009D90320BDE8F08731462046FFF7C5FFC0
S21400533068B9A469F1E73C685CB1237DAB4202D151
S2140053400135EDB2EBE7A469F6E70720EAE70520AA
S214005350E8E7002DE5D05046FFF7FCFE8146002822
S214005360DFD0524621460FF032FE89F814504D46E3
S2140053700FCE0FC5336820462B603B68C9F818303F
S214005380C7F80090C8F80090CCE7062070470620C3
S2140053907047062070470620704706207047062094
S2140053A07047062070470220704706207047062088
S2140053B0704706207047000038B50446064D296839
S2140053C021B93CB10846054B1C6038BD2846FFF79E
S2140053D0EDFEF4E70720F8E7404A00203C4A0020AC
S2140053E010B5064C2168FFF7EFFE014620B12046B7
S2140053F0FFF7DCFE002010BD0720FCE7404A002037
S214005400002330B585B0039303AB009301221C2321
S21400541008490546FFF770FF044640B9064B1B686F
S2140054202BB11B681BB103992A46097D9847204675
S21400543005B030BD404A00203C4A00200620704798
S21400544006207047062070470620704706207047E3
S2140054500048704718CE060020B1034B1B781B1A75
S21400546058425841704700BF4C4A002010B50146CC
S214005470FFF7F2FF58B10024074B1C70074B186863
S21400548020B143682BB120469847204610BD072020
S214005490FCE71846FAE700BF4C4A0020484A0020BE
S2140054A018B1034B1860002070470720704700BFF4
S2140054B0484A00200620704706207047062070479E
S2140054C0062070470346C0F34000590748BF40F027
S2140054D004009A0648BF40F008005B0648BF40F04C
S2140054E02000704706207047062070470620704749
S2140054F0F8B50746B0B10D4C2678AEB94FF0010CA2
S214005500054604F804CB0FCD0FC42B682360084B68
S2140055101B682BB11B681BB13A466146304698475C
S2140055203046F8BD0726FBE70326F9E74C4A00207D
S214005530484A00207FB514461D4600284CD0002B54
S2140055404AD0032946D8DFE801F0271D020F002ABB
S21400555018BF032429882246C0B227F0C9FFD8B94D
S214005560003C18BF012418E0002A18BF03246B680B
S21400557022460193EB6829880093C0B22B8927F056
S214005580FBFFECE7C6B2002A30460DF10E0118BF4D
S214005590022427F045FF50B10124104B1B689B6B7B
S2140055A013B1204629889847204604B070BDEB68A2
S2140055B0BDF80E2030469A4288BFADF80E3003ABD9
S2140055C001936B68224600932988BDF80E3027F0B9
S2140055D065FFC4E70024E0E70724E5E7484A002023
S2140055E073B515461A46069B9DF81C400193FBB101
S2140055F0FFF732FFE0B1019BE8B24CB127F0A6FFFF
S21400560004462046ACB102B0BDE87040FFF7E4BDEA
S21400561027F086FF084B04461B68002BF1D0DE6B94
S214005620002EEED0FFF7D8FD01462846B047E8E743
S214005630072002B070BD00BF484A00202DE9F04F99
S214005640814688469B46174693B03AB331B3FFF778
S21400565003FF18B300250EAE33460221484A4046E3
S214005660ADF8385027F0FAFE334602214046454A48
S21400567027F0F4FE4046444CADF8385033462246F8
S214005680022127F0EBFE40B9BDF838302BB15D1C87
S214005690ADB22846ADF83850F0E70DB9072445E01E
S2140056A01BF0070A4FF0000318BF4FF0010A0DA8C1
S2140056B01BF0700FADF8343018BF4AF0020AADF890
S2140056C0363027F01DFD044600284FD15846FFF718
S2140056D0F9FE3B788346012B2CD10DF13602BB88B0
S2140056E0CDE904420322ADF838300192ADF800301F
S2140056F0524603462946CDE90244BDF8340027F059
S214005700CFFD0446BDF8340084BB27F065FE044692
S21400571080BB1E4B1B684BB1DD693DB1BDF8363012
S2140057203A460093494643462046A847204613B0CB
S214005730BDE8F08F032B0B93B0D1391D10223046F5
S2140057400FF01EFC0DF136020B9BCDE90742CDE9AA
S2140057500544049396E80F008DE80F005B4652461A
S2140057602946BDF8340027F0D1FDCAE7BDF834005D
S21400577027F044FE2046FFF72FFD0446C9E700BF8A
S21400578066CE060068CE060064CE0600484A0020B4
S214005790062070470620704773B506460D4669B367
S2140057A0FFF75AFE50B300230DF10600ADF80630A1
S2140057B027F0A6FC0446C0B92946BDF8060027F027
S2140057C0E1FC044688B9BDF8060027F005FE04464D
S2140057D078B90B4B1B682BB19B6A1BB12A46314626
S2140057E020469847204602B070BDBDF8060027F058
S2140057F005FE2046FFF7F0FC0446EAE70724F1E73B
S214005800484A002073B506460D4669B3FFF724FEE6
S21400581050B300230DF10600ADF8063027F070FCFB
S2140058200446C0B92946BDF8060027F0C1FD044667
S21400583088B9BDF8060027F0CFFD044678B90B4BB3
S2140058401B682BB15B6A1BB12A4631462046984737
S214005850204602B070BDBDF8060027F0CFFD2046FA
S214005860FFF7BAFC0446EAE70724F1E7484A0020B7
S21400587073B506460D4669B3FFF7EEFD50B3002339
S2140058800DF10600ADF8063027F03AFC0446C0B924
S2140058902946BDF8060027F077FD044688B9BDF80E
S2140058A0060027F099FD044678B90B4B1B682BB110
S2140058B01B6A1BB12A46314620469847204602B04E
